{
  "_format": "hh-sol-artifact-1",
  "contractName": "EscrowVault",
  "sourceName": "contracts/core/EscrowVault.sol",
  "abi": [
    {
      "inputs": [
        {
          "internalType": "uint256",
          "name": "requested",
          "type": "uint256"
        },
        {
          "internalType": "uint256",
          "name": "available",
          "type": "uint256"
        }
      ],
      "name": "InsufficientBalance",
      "type": "error"
    },
    {
      "inputs": [],
      "name": "NoPendingRefund",
      "type": "error"
    },
    {
      "inputs": [],
      "name": "NotAuthorized",
      "type": "error"
    },
    {
      "inputs": [],
      "name": "TransferFailed",
      "type": "error"
    },
    {
      "inputs": [],
      "name": "ZeroAddress",
      "type": "error"
    },
    {
      "inputs": [],
      "name": "ZeroAmount",
      "type": "error"
    },
    {
      "anonymous": false,
      "inputs": [
        {
          "indexed": false,
          "internalType": "address",
          "name": "caller",
          "type": "address"
        },
        {
          "indexed": false,
          "internalType": "bool",
          "name": "authorized",
          "type": "bool"
        }
      ],
      "name": "CallerAuthorized",
      "type": "event"
    },
    {
      "anonymous": false,
      "inputs": [
        {
          "indexed": true,
          "internalType": "address",
          "name": "previousOwner",
          "type": "address"
        },
        {
          "indexed": true,
          "internalType": "address",
          "name": "newOwner",
          "type": "address"
        }
      ],
      "name": "OwnershipTransferred",
      "type": "event"
    },
    {
      "anonymous": false,
      "inputs": [
        {
          "indexed": true,
          "internalType": "uint256",
          "name": "policyId",
          "type": "uint256"
        },
        {
          "indexed": true,
          "internalType": "address",
          "name": "farmer",
          "type": "address"
        },
        {
          "indexed": false,
          "internalType": "uint256",
          "name": "amount",
          "type": "uint256"
        }
      ],
      "name": "PayoutExecuted",
      "type": "event"
    },
    {
      "anonymous": false,
      "inputs": [
        {
          "indexed": true,
          "internalType": "uint256",
          "name": "policyId",
          "type": "uint256"
        },
        {
          "indexed": false,
          "internalType": "uint128",
          "name": "amount",
          "type": "uint128"
        }
      ],
      "name": "PremiumDeposited",
      "type": "event"
    },
    {
      "anonymous": false,
      "inputs": [
        {
          "indexed": true,
          "internalType": "address",
          "name": "farmer",
          "type": "address"
        },
        {
          "indexed": false,
          "internalType": "uint256",
          "name": "amount",
          "type": "uint256"
        }
      ],
      "name": "RefundClaimed",
      "type": "event"
    },
    {
      "anonymous": false,
      "inputs": [
        {
          "indexed": true,
          "internalType": "uint256",
          "name": "policyId",
          "type": "uint256"
        },
        {
          "indexed": true,
          "internalType": "address",
          "name": "farmer",
          "type": "address"
        },
        {
          "indexed": false,
          "internalType": "uint256",
          "name": "amount",
          "type": "uint256"
        }
      ],
      "name": "RefundPending",
      "type": "event"
    },
    {
      "inputs": [
        {
          "internalType": "address",
          "name": "",
          "type": "address"
        }
      ],
      "name": "authorizedCallers",
      "outputs": [
        {
          "internalType": "bool",
          "name": "",
          "type": "bool"
        }
      ],
      "stateMutability": "view",
      "type": "function"
    },
    {
      "inputs": [],
      "name": "claimRefund",
      "outputs": [],
      "stateMutability": "nonpayable",
      "type": "function"
    },
    {
      "inputs": [
        {
          "internalType": "uint256",
          "name": "policyId",
          "type": "uint256"
        }
      ],
      "name": "depositPremium",
      "outputs": [],
      "stateMutability": "payable",
      "type": "function"
    },
    {
      "inputs": [],
      "name": "owner",
      "outputs": [
        {
          "internalType": "address",
          "name": "",
          "type": "address"
        }
      ],
      "stateMutability": "view",
      "type": "function"
    },
    {
      "inputs": [
        {
          "internalType": "uint256",
          "name": "policyId",
          "type": "uint256"
        },
        {
          "internalType": "address payable",
          "name": "farmer",
          "type": "address"
        },
        {
          "internalType": "uint256",
          "name": "amount",
          "type": "uint256"
        }
      ],
      "name": "payout",
      "outputs": [],
      "stateMutability": "nonpayable",
      "type": "function"
    },
    {
      "inputs": [
        {
          "internalType": "address",
          "name": "",
          "type": "address"
        }
      ],
      "name": "pendingRefunds",
      "outputs": [
        {
          "internalType": "uint256",
          "name": "",
          "type": "uint256"
        }
      ],
      "stateMutability": "view",
      "type": "function"
    },
    {
      "inputs": [
        {
          "internalType": "uint256",
          "name": "",
          "type": "uint256"
        }
      ],
      "name": "premiums",
      "outputs": [
        {
          "internalType": "uint128",
          "name": "",
          "type": "uint128"
        }
      ],
      "stateMutability": "view",
      "type": "function"
    },
    {
      "inputs": [
        {
          "internalType": "uint256",
          "name": "policyId",
          "type": "uint256"
        },
        {
          "internalType": "address",
          "name": "farmer",
          "type": "address"
        },
        {
          "internalType": "uint256",
          "name": "amount",
          "type": "uint256"
        }
      ],
      "name": "refundPremium",
      "outputs": [],
      "stateMutability": "nonpayable",
      "type": "function"
    },
    {
      "inputs": [],
      "name": "renounceOwnership",
      "outputs": [],
      "stateMutability": "nonpayable",
      "type": "function"
    },
    {
      "inputs": [
        {
          "internalType": "address",
          "name": "caller",
          "type": "address"
        },
        {
          "internalType": "bool",
          "name": "authorized",
          "type": "bool"
        }
      ],
      "name": "setAuthorizedCaller",
      "outputs": [],
      "stateMutability": "nonpayable",
      "type": "function"
    },
    {
      "inputs": [
        {
          "internalType": "address",
          "name": "newOwner",
          "type": "address"
        }
      ],
      "name": "transferOwnership",
      "outputs": [],
      "stateMutability": "nonpayable",
      "type": "function"
    },
    {
      "stateMutability": "payable",
      "type": "receive"
    }
  ],
  "bytecode": "0x6080806040523461005f5760008054336001600160a01b0319821681178355916001600160a01b03909116907f8be0079c531659141344cd1fd0a4f28419497f9722a3daafe3b4186f6b6457e09080a36001805561077790816100658239f35b600080fdfe60806040818152600480361015610021575b505050361561001f57600080fd5b005b600092833560e01c90816309464261146105e457508063454bbd2914610564578063536fff6c14610528578063715018a6146104cb5780638da5cb5b146104a35780638e65d632146103e7578063ae2f5d93146102e6578063b5545a3c14610248578063b613b1141461020c578063eeab8ed0146101685763f2fde38b036100115734610164576020366003190112610164576100bc610617565b906100c5610632565b6001600160a01b0391821692831561011257505082546001600160a01b0319811683178455167f8be0079c531659141344cd1fd0a4f28419497f9722a3daafe3b4186f6b6457e08380a380f35b906020608492519162461bcd60e51b8352820152602660248201527f4f776e61626c653a206e6577206f776e657220697320746865207a65726f206160448201526564647265737360d01b6064820152fd5b8280fd5b5060203660031901126101645780359134156101ff57828452600260205280842080546001600160801b03348116948183168601908282116101ec57506fffffffffffffffffffffffffffffffff199092169116179055519081527fb434b45ac0b0dfce2d5433796e03927ef1dc0d777f8405c64fd1552d8e56f70990602090a280f35b634e487b7160e01b895260119052602488fd5b51631f2a200560e01b8152fd5b5050346102445760203660031901126102445760209181906001600160a01b03610234610617565b1681526003845220549051908152f35b5080fd5b5090346101645782600319360112610164576102626106eb565b3383526003602052808320549182156102d857338452600360205283828120558380808086335af161029261068a565b50156102ca5750519081527f358fe4192934d3bf28ae181feda1f4bd08ca67f5e2fad55582cce5eb67304ae960203392a26001805580f35b90516312171d8360e31b8152fd5b9051631f61271360e31b8152fd5b509034610164576060366003190112610164576001600160a01b03602435818116939192908490036103e35760443592855416331415806103ce575b6103c15761032e6106eb565b83156103b45782156101ff574783811061039957508480808086885af161035361068a565b501561038c577fbeaa99d72a600712e4656a7da04b2cabe31fb50fbf8f5b5f96513b0a4f495c1a91602091519384523592a36001805580f35b516312171d8360e31b8152fd5b9092604493519263cf47918160e01b84528301526024820152fd5b5163d92e233d60e01b8152fd5b5163ea8e4eb560e01b8152fd5b503385528160205260ff818620541615610322565b8480fd5b509034610164576060366003190112610164576001600160a01b03602435818116939192908490036103e357604435928554163314158061048e575b6103c15783156103b45782156101ff57838552600360205280852080549084820180921161047b57555191825235907f59bbe847b05244289a0ad5285ea1edaf960d001d8d92d488bfdd44d85713915d90602090a380f35b634e487b7160e01b875260118452602487fd5b503385528160205260ff818620541615610423565b505034610244578160031936011261024457905490516001600160a01b039091168152602090f35b83346105255780600319360112610525576104e4610632565b80546001600160a01b03198116825581906001600160a01b03167f8be0079c531659141344cd1fd0a4f28419497f9722a3daafe3b4186f6b6457e08280a380f35b80fd5b50346101645760203660031901126101645760209260ff918391906001600160a01b03610553610617565b168252855220541690519015158152f35b50903461016457806003193601126101645761057e610617565b916024358015158091036103e3577f100c9fd652c7b273c9266f92f22ac2352eb8d7232013ac0439e9066a9227f369936105b6610632565b6001600160a01b03168086526020928352838620805460ff191660ff8416179055835190815291820152a180f35b929190503461061357602036600319011261061357358352600260209081529220546001600160801b03168152f35b8380fd5b600435906001600160a01b038216820361062d57565b600080fd5b6000546001600160a01b0316330361064657565b606460405162461bcd60e51b815260206004820152602060248201527f4f776e61626c653a2063616c6c6572206973206e6f7420746865206f776e65726044820152fd5b3d156106e65767ffffffffffffffff903d8281116106d05760405192601f8201601f19908116603f01168401908111848210176106d05760405282523d6000602084013e565b634e487b7160e01b600052604160045260246000fd5b606090565b6002600154146106fc576002600155565b60405162461bcd60e51b815260206004820152601f60248201527f5265656e7472616e637947756172643a207265656e7472616e742063616c6c006044820152606490fdfea26469706673582212201450115309dd31d325ece960d1f697c45a79b5343be4fcaed58ba648cdce5e7b64736f6c63430008140033",
  "linkReferences": {},
  "deployedLinkReferences": {}
}