{
  "_format": "hh-sol-artifact-1",
  "contractName": "PolicyRegistry",
  "sourceName": "contracts/core/PolicyRegistry.sol",
  "abi": [
    {
      "inputs": [],
      "name": "NotAuthorized",
      "type": "error"
    },
    {
      "inputs": [
        {
          "internalType": "uint256",
          "name": "policyId",
          "type": "uint256"
        }
      ],
      "name": "PolicyAlreadyExists",
      "type": "error"
    },
    {
      "inputs": [
        {
          "internalType": "uint256",
          "name": "policyId",
          "type": "uint256"
        }
      ],
      "name": "PolicyAlreadyPaidOut",
      "type": "error"
    },
    {
      "inputs": [
        {
          "internalType": "uint256",
          "name": "policyId",
          "type": "uint256"
        }
      ],
      "name": "PolicyDoesNotExist",
      "type": "error"
    },
    {
      "inputs": [
        {
          "internalType": "uint256",
          "name": "policyId",
          "type": "uint256"
        }
      ],
      "name": "PolicyNotActive",
      "type": "error"
    },
    {
      "inputs": [],
      "name": "ZeroAddress",
      "type": "error"
    },
    {
      "inputs": [],
      "name": "ZeroPayoutAmount",
      "type": "error"
    },
    {
      "anonymous": false,
      "inputs": [
        {
          "indexed": false,
          "internalType": "address",
          "name": "caller",
          "type": "address"
        },
        {
          "indexed": false,
          "internalType": "bool",
          "name": "authorized",
          "type": "bool"
        }
      ],
      "name": "CallerAuthorized",
      "type": "event"
    },
    {
      "anonymous": false,
      "inputs": [
        {
          "indexed": true,
          "internalType": "address",
          "name": "previousOwner",
          "type": "address"
        },
        {
          "indexed": true,
          "internalType": "address",
          "name": "newOwner",
          "type": "address"
        }
      ],
      "name": "OwnershipTransferred",
      "type": "event"
    },
    {
      "anonymous": false,
      "inputs": [
        {
          "indexed": true,
          "internalType": "uint256",
          "name": "policyId",
          "type": "uint256"
        }
      ],
      "name": "PolicyDeactivated",
      "type": "event"
    },
    {
      "anonymous": false,
      "inputs": [
        {
          "indexed": true,
          "internalType": "uint256",
          "name": "policyId",
          "type": "uint256"
        }
      ],
      "name": "PolicyPaidOut",
      "type": "event"
    },
    {
      "anonymous": false,
      "inputs": [
        {
          "indexed": true,
          "internalType": "uint256",
          "name": "policyId",
          "type": "uint256"
        },
        {
          "indexed": true,
          "internalType": "address",
          "name": "farmer",
          "type": "address"
        },
        {
          "indexed": true,
          "internalType": "bytes32",
          "name": "h3Index",
          "type": "bytes32"
        }
      ],
      "name": "PolicyRegistered",
      "type": "event"
    },
    {
      "inputs": [
        {
          "internalType": "address",
          "name": "",
          "type": "address"
        }
      ],
      "name": "authorizedCallers",
      "outputs": [
        {
          "internalType": "bool",
          "name": "",
          "type": "bool"
        }
      ],
      "stateMutability": "view",
      "type": "function"
    },
    {
      "inputs": [
        {
          "internalType": "uint256",
          "name": "policyId",
          "type": "uint256"
        }
      ],
      "name": "deactivatePolicy",
      "outputs": [],
      "stateMutability": "nonpayable",
      "type": "function"
    },
    {
      "inputs": [
        {
          "internalType": "bytes32",
          "name": "h3Index",
          "type": "bytes32"
        }
      ],
      "name": "getPoliciesByH3",
      "outputs": [
        {
          "internalType": "uint256[]",
          "name": "",
          "type": "uint256[]"
        }
      ],
      "stateMutability": "view",
      "type": "function"
    },
    {
      "inputs": [
        {
          "internalType": "uint256",
          "name": "policyId",
          "type": "uint256"
        }
      ],
      "name": "getPolicy",
      "outputs": [
        {
          "internalType": "uint256",
          "name": "id",
          "type": "uint256"
        },
        {
          "internalType": "address",
          "name": "farmer",
          "type": "address"
        },
        {
          "internalType": "bytes32",
          "name": "h3Index",
          "type": "bytes32"
        },
        {
          "internalType": "uint128",
          "name": "threshold",
          "type": "uint128"
        },
        {
          "internalType": "uint128",
          "name": "payoutAmount",
          "type": "uint128"
        },
        {
          "internalType": "bool",
          "name": "isActive",
          "type": "bool"
        },
        {
          "internalType": "bool",
          "name": "paidOut",
          "type": "bool"
        }
      ],
      "stateMutability": "view",
      "type": "function"
    },
    {
      "inputs": [
        {
          "internalType": "uint256",
          "name": "policyId",
          "type": "uint256"
        }
      ],
      "name": "markPaidOut",
      "outputs": [],
      "stateMutability": "nonpayable",
      "type": "function"
    },
    {
      "inputs": [],
      "name": "owner",
      "outputs": [
        {
          "internalType": "address",
          "name": "",
          "type": "address"
        }
      ],
      "stateMutability": "view",
      "type": "function"
    },
    {
      "inputs": [
        {
          "internalType": "uint256",
          "name": "",
          "type": "uint256"
        }
      ],
      "name": "policies",
      "outputs": [
        {
          "internalType": "uint256",
          "name": "id",
          "type": "uint256"
        },
        {
          "internalType": "address",
          "name": "farmer",
          "type": "address"
        },
        {
          "internalType": "bool",
          "name": "isActive",
          "type": "bool"
        },
        {
          "internalType": "bool",
          "name": "paidOut",
          "type": "bool"
        },
        {
          "internalType": "bytes32",
          "name": "h3Index",
          "type": "bytes32"
        },
        {
          "internalType": "uint128",
          "name": "threshold",
          "type": "uint128"
        },
        {
          "internalType": "uint128",
          "name": "payoutAmount",
          "type": "uint128"
        }
      ],
      "stateMutability": "view",
      "type": "function"
    },
    {
      "inputs": [
        {
          "internalType": "uint256",
          "name": "policyId",
          "type": "uint256"
        },
        {
          "internalType": "address",
          "name": "farmer",
          "type": "address"
        },
        {
          "internalType": "bytes32",
          "name": "h3Index",
          "type": "bytes32"
        },
        {
          "internalType": "uint128",
          "name": "threshold",
          "type": "uint128"
        },
        {
          "internalType": "uint128",
          "name": "payoutAmount",
          "type": "uint128"
        }
      ],
      "name": "registerPolicy",
      "outputs": [],
      "stateMutability": "nonpayable",
      "type": "function"
    },
    {
      "inputs": [],
      "name": "renounceOwnership",
      "outputs": [],
      "stateMutability": "nonpayable",
      "type": "function"
    },
    {
      "inputs": [
        {
          "internalType": "address",
          "name": "caller",
          "type": "address"
        },
        {
          "internalType": "bool",
          "name": "authorized",
          "type": "bool"
        }
      ],
      "name": "setAuthorizedCaller",
      "outputs": [],
      "stateMutability": "nonpayable",
      "type": "function"
    },
    {
      "inputs": [
        {
          "internalType": "address",
          "name": "newOwner",
          "type": "address"
        }
      ],
      "name": "transferOwnership",
      "outputs": [],
      "stateMutability": "nonpayable",
      "type": "function"
    }
  ],
  "bytecode": "0x6080806040523461005b5760008054336001600160a01b0319821681178355916001600160a01b03909116907f8be0079c531659141344cd1fd0a4f28419497f9722a3daafe3b4186f6b6457e09080a361091790816100618239f35b600080fdfe6080604081815260048036101561001557600080fd5b600092833560e01c9081632b07fce3146107f057508063454bbd291461076b5780634681fdd21461066c578063536fff6c1461062e578063715018a6146105d15780638da5cb5b146105a957806398414ca5146104df578063d3e8948314610461578063d4d85c4b14610222578063eb4a4645146101615763f2fde38b1461009c57600080fd5b3461015d57602036600319011261015d576100b561086e565b906100be610889565b6001600160a01b0391821692831561010b57505082546001600160a01b0319811683178455167f8be0079c531659141344cd1fd0a4f28419497f9722a3daafe3b4186f6b6457e08380a380f35b906020608492519162461bcd60e51b8352820152602660248201527f4f776e61626c653a206e6577206f776e657220697320746865207a65726f206160448201526564647265737360d01b6064820152fd5b8280fd5b50903461015d57602036600319011261015d578254823592906001600160a01b039081163314158061020c575b6101fd5783855260016020526001838620015416156101e857508183526001602081905290832001805460ff60a01b191690557fa040c05c2aea9ad7da426cefbf383fc472d4759806d4aa7d1257f00f0faadd018280a280f35b826024925191632ff5455160e01b8352820152fd5b50905163ea8e4eb560e01b8152fd5b50338552600360205260ff83862054161561018e565b5091903461045d5760a036600319011261045d576001600160a01b03602435818116918535918390036104595760443593606435916001600160801b03808416809403610455576084359080821680920361045157828954163314158061043b575b61042b57858952600194856020528386868c200154166104145787156104045782156103f45784519360e0850185811067ffffffffffffffff8211176103e1576003949392918b9188528987528c8a60208901928d84528a808b01938d855260608c019381855260808d0197885260a08d0198895260c08d019a8b5281528d6020522099518a558b8a0193511683549260ff60a01b9051151560a01b169160ff60a81b9051151560a81b169269ffffffffffffffffffff60b01b1617171790555160028601555116906001600160801b0319905160801b161791015584865260026020528520805491680100000000000000008310156103ce5782018082558210156103bb57855260208520018190557fcf3a4893cb3f0add7f10e3efef2991b7863b597aefd01e4174e48be4cca3f4768480a480f35b634e487b7160e01b865260328752602486fd5b634e487b7160e01b875260418852602487fd5b634e487b7160e01b8c5260418d5260248cfd5b845163038f9ba560e21b81528b90fd5b845163d92e233d60e01b81528b90fd5b84516315e46fbb60e01b8152808c01889052602490fd5b835163ea8e4eb560e01b81528a90fd5b50338952600360205260ff848a20541615610284565b8880fd5b8780fd5b8480fd5b5080fd5b503461015d57602036600319011261015d5760e09282913581526001602052209081549160ff60018201546003600284015493015493805195865260018060a01b0382166020870152828260a01c1615159086015260a81c161515606084015260808301526001600160801b03811660a083015260801c60c0820152f35b5091903461045d5760208060031936011261015d57833583526002815281832092825192838386549182815201908196845284842090845b868282106105955750505050849003601f01601f191684019567ffffffffffffffff871185881017610582575085815282865292518583018190528594938501939290915b82811061056b57505050500390f35b83518552869550938101939281019260010161055c565b634e487b7160e01b835260419052602482fd5b835485529093019260019283019201610517565b50503461045d578160031936011261045d57905490516001600160a01b039091168152602090f35b833461062b578060031936011261062b576105ea610889565b80546001600160a01b03198116825581906001600160a01b03167f8be0079c531659141344cd1fd0a4f28419497f9722a3daafe3b4186f6b6457e08280a380f35b80fd5b50503461045d57602036600319011261045d5760209160ff9082906001600160a01b0361065961086e565b1681526003855220541690519015158152f35b50903461015d57602036600319011261015d5782548235926001600160a01b0391821633141580610755575b610747578385526001602052600183862001928354928316156107315760ff8360a01c161561071b5760ff8360a81c1661070557505061ffff60a01b1916600160a81b1790557ff2f9221adad21a2d6a9450707b14e7948b23ae67555194d29a8cb05b8a1532878280a280f35b5163de138def60e01b8152908101849052602490fd5b5163a3068e7b60e01b8152908101849052602490fd5b51632ff5455160e01b8152908101849052602490fd5b825163ea8e4eb560e01b8152fd5b50338552600360205260ff838620541615610698565b50503461045d578060031936011261045d5761078561086e565b906024358015158091036107ec577f100c9fd652c7b273c9266f92f22ac2352eb8d7232013ac0439e9066a9227f369926107bd610889565b60018060a01b031690818552600360205282852060ff1981541660ff831617905582519182526020820152a180f35b8380fd5b92919050346107ec5760203660031901126107ec57908060e09460ff933581526001602052208054906001810154926003600283015492015492865260018060a01b03841660208701528501526001600160801b038116606085015260801c6080840152818160a01c16151560a084015260a81c16151560c0820152f35b600435906001600160a01b038216820361088457565b600080fd5b6000546001600160a01b0316330361089d57565b606460405162461bcd60e51b815260206004820152602060248201527f4f776e61626c653a2063616c6c6572206973206e6f7420746865206f776e65726044820152fdfea2646970667358221220713edf05376f92d227b6de73a053742e24607fdff0f6d113be83a4e3e2bc3f7f64736f6c63430008140033",
  "linkReferences": {},
  "deployedLinkReferences": {}
}