{
  "_format": "hh-sol-artifact-1",
  "contractName": "MockOracle",
  "sourceName": "contracts/mocks/MockOracle.sol",
  "abi": [
    {
      "inputs": [
        {
          "internalType": "address",
          "name": "_oracle",
          "type": "address"
        }
      ],
      "stateMutability": "nonpayable",
      "type": "constructor"
    },
    {
      "inputs": [],
      "name": "oracle",
      "outputs": [
        {
          "internalType": "contract KilimaShieldOracle",
          "name": "",
          "type": "address"
        }
      ],
      "stateMutability": "view",
      "type": "function"
    },
    {
      "inputs": [
        {
          "internalType": "bytes32",
          "name": "h3Index",
          "type": "bytes32"
        },
        {
          "internalType": "uint256",
          "name": "timestamp",
          "type": "uint256"
        },
        {
          "internalType": "uint256",
          "name": "rainfall",
          "type": "uint256"
        },
        {
          "internalType": "uint256",
          "name": "ndvi",
          "type": "uint256"
        },
        {
          "internalType": "bytes",
          "name": "signature",
          "type": "bytes"
        }
      ],
      "name": "submitMockData",
      "outputs": [],
      "stateMutability": "nonpayable",
      "type": "function"
    }
  ],
  "bytecode": "0x60803461007457601f61022438819003918201601f19168301916001600160401b038311848410176100795780849260209460405283398101031261007457516001600160a01b0381169081900361007457600080546001600160a01b03191691909117905560405161019490816100908239f35b600080fd5b634e487b7160e01b600052604160045260246000fdfe608080604052600436101561001357600080fd5b600090813560e01c9081637dc0d1d01461013a575063ad5a19b41461003757600080fd5b346101375760a03660031901126101375760843567ffffffffffffffff80821161012f573660238301121561012f57828260040135928284116101335736602485830101116101335781546001600160a01b0316803b1561012f5760248360c487946040519889968795869363173bf2cd60e31b855260043560048601528135828601526044356044860152606435606486015260a060848601528260a486015201848401378181018301849052601f01601f191681010301925af1801561012457610101578280f35b81116101105760405238808280f35b634e487b7160e01b82526041600452602482fd5b6040513d85823e3d90fd5b8280fd5b5080fd5b80fd5b90503461013357816003193601126101335790546001600160a01b03168152602090f3fea2646970667358221220dc3d7feaf4ffc8c25f5851306f54ee3a171f34ccb7f32edb29bd2ad5febe8fef64736f6c63430008140033",
  "linkReferences": {},
  "deployedLinkReferences": {}
}