{
  "_format": "hh-sol-artifact-1",
  "contractName": "BimaToken",
  "sourceName": "contracts/tokens/BimaToken.sol",
  "abi": [
    {
      "inputs": [
        {
          "internalType": "uint256",
          "name": "initialSupply",
          "type": "uint256"
        }
      ],
      "stateMutability": "nonpayable",
      "type": "constructor"
    },
    {
      "inputs": [],
      "name": "InvalidShortString",
      "type": "error"
    },
    {
      "inputs": [
        {
          "internalType": "string",
          "name": "str",
          "type": "string"
        }
      ],
      "name": "StringTooLong",
      "type": "error"
    },
    {
      "anonymous": false,
      "inputs": [
        {
          "indexed": true,
          "internalType": "address",
          "name": "owner",
          "type": "address"
        },
        {
          "indexed": true,
          "internalType": "address",
          "name": "spender",
          "type": "address"
        },
        {
          "indexed": false,
          "internalType": "uint256",
          "name": "value",
          "type": "uint256"
        }
      ],
      "name": "Approval",
      "type": "event"
    },
    {
      "anonymous": false,
      "inputs": [
        {
          "indexed": true,
          "internalType": "address",
          "name": "delegator",
          "type": "address"
        },
        {
          "indexed": true,
          "internalType": "address",
          "name": "fromDelegate",
          "type": "address"
        },
        {
          "indexed": true,
          "internalType": "address",
          "name": "toDelegate",
          "type": "address"
        }
      ],
      "name": "DelegateChanged",
      "type": "event"
    },
    {
      "anonymous": false,
      "inputs": [
        {
          "indexed": true,
          "internalType": "address",
          "name": "delegate",
          "type": "address"
        },
        {
          "indexed": false,
          "internalType": "uint256",
          "name": "previousBalance",
          "type": "uint256"
        },
        {
          "indexed": false,
          "internalType": "uint256",
          "name": "newBalance",
          "type": "uint256"
        }
      ],
      "name": "DelegateVotesChanged",
      "type": "event"
    },
    {
      "anonymous": false,
      "inputs": [],
      "name": "EIP712DomainChanged",
      "type": "event"
    },
    {
      "anonymous": false,
      "inputs": [
        {
          "indexed": true,
          "internalType": "address",
          "name": "previousOwner",
          "type": "address"
        },
        {
          "indexed": true,
          "internalType": "address",
          "name": "newOwner",
          "type": "address"
        }
      ],
      "name": "OwnershipTransferred",
      "type": "event"
    },
    {
      "anonymous": false,
      "inputs": [
        {
          "indexed": true,
          "internalType": "address",
          "name": "from",
          "type": "address"
        },
        {
          "indexed": true,
          "internalType": "address",
          "name": "to",
          "type": "address"
        },
        {
          "indexed": false,
          "internalType": "uint256",
          "name": "value",
          "type": "uint256"
        }
      ],
      "name": "Transfer",
      "type": "event"
    },
    {
      "inputs": [],
      "name": "CLOCK_MODE",
      "outputs": [
        {
          "internalType": "string",
          "name": "",
          "type": "string"
        }
      ],
      "stateMutability": "view",
      "type": "function"
    },
    {
      "inputs": [],
      "name": "DOMAIN_SEPARATOR",
      "outputs": [
        {
          "internalType": "bytes32",
          "name": "",
          "type": "bytes32"
        }
      ],
      "stateMutability": "view",
      "type": "function"
    },
    {
      "inputs": [
        {
          "internalType": "address",
          "name": "owner",
          "type": "address"
        },
        {
          "internalType": "address",
          "name": "spender",
          "type": "address"
        }
      ],
      "name": "allowance",
      "outputs": [
        {
          "internalType": "uint256",
          "name": "",
          "type": "uint256"
        }
      ],
      "stateMutability": "view",
      "type": "function"
    },
    {
      "inputs": [
        {
          "internalType": "address",
          "name": "spender",
          "type": "address"
        },
        {
          "internalType": "uint256",
          "name": "amount",
          "type": "uint256"
        }
      ],
      "name": "approve",
      "outputs": [
        {
          "internalType": "bool",
          "name": "",
          "type": "bool"
        }
      ],
      "stateMutability": "nonpayable",
      "type": "function"
    },
    {
      "inputs": [
        {
          "internalType": "address",
          "name": "account",
          "type": "address"
        }
      ],
      "name": "balanceOf",
      "outputs": [
        {
          "internalType": "uint256",
          "name": "",
          "type": "uint256"
        }
      ],
      "stateMutability": "view",
      "type": "function"
    },
    {
      "inputs": [
        {
          "internalType": "address",
          "name": "account",
          "type": "address"
        },
        {
          "internalType": "uint32",
          "name": "pos",
          "type": "uint32"
        }
      ],
      "name": "checkpoints",
      "outputs": [
        {
          "components": [
            {
              "internalType": "uint32",
              "name": "fromBlock",
              "type": "uint32"
            },
            {
              "internalType": "uint224",
              "name": "votes",
              "type": "uint224"
            }
          ],
          "internalType": "struct ERC20Votes.Checkpoint",
          "name": "",
          "type": "tuple"
        }
      ],
      "stateMutability": "view",
      "type": "function"
    },
    {
      "inputs": [],
      "name": "clock",
      "outputs": [
        {
          "internalType": "uint48",
          "name": "",
          "type": "uint48"
        }
      ],
      "stateMutability": "view",
      "type": "function"
    },
    {
      "inputs": [],
      "name": "decimals",
      "outputs": [
        {
          "internalType": "uint8",
          "name": "",
          "type": "uint8"
        }
      ],
      "stateMutability": "view",
      "type": "function"
    },
    {
      "inputs": [
        {
          "internalType": "address",
          "name": "spender",
          "type": "address"
        },
        {
          "internalType": "uint256",
          "name": "subtractedValue",
          "type": "uint256"
        }
      ],
      "name": "decreaseAllowance",
      "outputs": [
        {
          "internalType": "bool",
          "name": "",
          "type": "bool"
        }
      ],
      "stateMutability": "nonpayable",
      "type": "function"
    },
    {
      "inputs": [
        {
          "internalType": "address",
          "name": "delegatee",
          "type": "address"
        }
      ],
      "name": "delegate",
      "outputs": [],
      "stateMutability": "nonpayable",
      "type": "function"
    },
    {
      "inputs": [
        {
          "internalType": "address",
          "name": "delegatee",
          "type": "address"
        },
        {
          "internalType": "uint256",
          "name": "nonce",
          "type": "uint256"
        },
        {
          "internalType": "uint256",
          "name": "expiry",
          "type": "uint256"
        },
        {
          "internalType": "uint8",
          "name": "v",
          "type": "uint8"
        },
        {
          "internalType": "bytes32",
          "name": "r",
          "type": "bytes32"
        },
        {
          "internalType": "bytes32",
          "name": "s",
          "type": "bytes32"
        }
      ],
      "name": "delegateBySig",
      "outputs": [],
      "stateMutability": "nonpayable",
      "type": "function"
    },
    {
      "inputs": [
        {
          "internalType": "address",
          "name": "account",
          "type": "address"
        }
      ],
      "name": "delegates",
      "outputs": [
        {
          "internalType": "address",
          "name": "",
          "type": "address"
        }
      ],
      "stateMutability": "view",
      "type": "function"
    },
    {
      "inputs": [],
      "name": "eip712Domain",
      "outputs": [
        {
          "internalType": "bytes1",
          "name": "fields",
          "type": "bytes1"
        },
        {
          "internalType": "string",
          "name": "name",
          "type": "string"
        },
        {
          "internalType": "string",
          "name": "version",
          "type": "string"
        },
        {
          "internalType": "uint256",
          "name": "chainId",
          "type": "uint256"
        },
        {
          "internalType": "address",
          "name": "verifyingContract",
          "type": "address"
        },
        {
          "internalType": "bytes32",
          "name": "salt",
          "type": "bytes32"
        },
        {
          "internalType": "uint256[]",
          "name": "extensions",
          "type": "uint256[]"
        }
      ],
      "stateMutability": "view",
      "type": "function"
    },
    {
      "inputs": [
        {
          "internalType": "uint256",
          "name": "timepoint",
          "type": "uint256"
        }
      ],
      "name": "getPastTotalSupply",
      "outputs": [
        {
          "internalType": "uint256",
          "name": "",
          "type": "uint256"
        }
      ],
      "stateMutability": "view",
      "type": "function"
    },
    {
      "inputs": [
        {
          "internalType": "address",
          "name": "account",
          "type": "address"
        },
        {
          "internalType": "uint256",
          "name": "timepoint",
          "type": "uint256"
        }
      ],
      "name": "getPastVotes",
      "outputs": [
        {
          "internalType": "uint256",
          "name": "",
          "type": "uint256"
        }
      ],
      "stateMutability": "view",
      "type": "function"
    },
    {
      "inputs": [
        {
          "internalType": "address",
          "name": "account",
          "type": "address"
        }
      ],
      "name": "getVotes",
      "outputs": [
        {
          "internalType": "uint256",
          "name": "",
          "type": "uint256"
        }
      ],
      "stateMutability": "view",
      "type": "function"
    },
    {
      "inputs": [
        {
          "internalType": "address",
          "name": "spender",
          "type": "address"
        },
        {
          "internalType": "uint256",
          "name": "addedValue",
          "type": "uint256"
        }
      ],
      "name": "increaseAllowance",
      "outputs": [
        {
          "internalType": "bool",
          "name": "",
          "type": "bool"
        }
      ],
      "stateMutability": "nonpayable",
      "type": "function"
    },
    {
      "inputs": [
        {
          "internalType": "address",
          "name": "to",
          "type": "address"
        },
        {
          "internalType": "uint256",
          "name": "amount",
          "type": "uint256"
        }
      ],
      "name": "mint",
      "outputs": [],
      "stateMutability": "nonpayable",
      "type": "function"
    },
    {
      "inputs": [],
      "name": "name",
      "outputs": [
        {
          "internalType": "string",
          "name": "",
          "type": "string"
        }
      ],
      "stateMutability": "view",
      "type": "function"
    },
    {
      "inputs": [
        {
          "internalType": "address",
          "name": "owner",
          "type": "address"
        }
      ],
      "name": "nonces",
      "outputs": [
        {
          "internalType": "uint256",
          "name": "",
          "type": "uint256"
        }
      ],
      "stateMutability": "view",
      "type": "function"
    },
    {
      "inputs": [
        {
          "internalType": "address",
          "name": "account",
          "type": "address"
        }
      ],
      "name": "numCheckpoints",
      "outputs": [
        {
          "internalType": "uint32",
          "name": "",
          "type": "uint32"
        }
      ],
      "stateMutability": "view",
      "type": "function"
    },
    {
      "inputs": [],
      "name": "owner",
      "outputs": [
        {
          "internalType": "address",
          "name": "",
          "type": "address"
        }
      ],
      "stateMutability": "view",
      "type": "function"
    },
    {
      "inputs": [
        {
          "internalType": "address",
          "name": "owner",
          "type": "address"
        },
        {
          "internalType": "address",
          "name": "spender",
          "type": "address"
        },
        {
          "internalType": "uint256",
          "name": "value",
          "type": "uint256"
        },
        {
          "internalType": "uint256",
          "name": "deadline",
          "type": "uint256"
        },
        {
          "internalType": "uint8",
          "name": "v",
          "type": "uint8"
        },
        {
          "internalType": "bytes32",
          "name": "r",
          "type": "bytes32"
        },
        {
          "internalType": "bytes32",
          "name": "s",
          "type": "bytes32"
        }
      ],
      "name": "permit",
      "outputs": [],
      "stateMutability": "nonpayable",
      "type": "function"
    },
    {
      "inputs": [],
      "name": "renounceOwnership",
      "outputs": [],
      "stateMutability": "nonpayable",
      "type": "function"
    },
    {
      "inputs": [],
      "name": "symbol",
      "outputs": [
        {
          "internalType": "string",
          "name": "",
          "type": "string"
        }
      ],
      "stateMutability": "view",
      "type": "function"
    },
    {
      "inputs": [],
      "name": "totalSupply",
      "outputs": [
        {
          "internalType": "uint256",
          "name": "",
          "type": "uint256"
        }
      ],
      "stateMutability": "view",
      "type": "function"
    },
    {
      "inputs": [
        {
          "internalType": "address",
          "name": "to",
          "type": "address"
        },
        {
          "internalType": "uint256",
          "name": "amount",
          "type": "uint256"
        }
      ],
      "name": "transfer",
      "outputs": [
        {
          "internalType": "bool",
          "name": "",
          "type": "bool"
        }
      ],
      "stateMutability": "nonpayable",
      "type": "function"
    },
    {
      "inputs": [
        {
          "internalType": "address",
          "name": "from",
          "type": "address"
        },
        {
          "internalType": "address",
          "name": "to",
          "type": "address"
        },
        {
          "internalType": "uint256",
          "name": "amount",
          "type": "uint256"
        }
      ],
      "name": "transferFrom",
      "outputs": [
        {
          "internalType": "bool",
          "name": "",
          "type": "bool"
        }
      ],
      "stateMutability": "nonpayable",
      "type": "function"
    },
    {
      "inputs": [
        {
          "internalType": "address",
          "name": "newOwner",
          "type": "address"
        }
      ],
      "name": "transferOwnership",
      "outputs": [],
      "stateMutability": "nonpayable",
      "type": "function"
    }
  ],
  "bytecode": "0x610160806040523462000088576020620036e180380380916200002282620000a3565b843912620000885762000036905162000152565b6040516125d29081620010ef823960805181611f2a015260a05181611fe5015260c05181611ef4015260e05181611f7901526101005181611f9f0152610120518161099c015261014051816109c50152f35b600080fd5b634e487b7160e01b600052604160045260246000fd5b601f01601f1916610160908101906001600160401b03821190821017620000c957604052565b6200008d565b604081019081106001600160401b03821117620000c957604052565b60405190620000fa82620000cf565b565b604051906200010b82620000cf565b60048252565b604051906200012082620000cf565b60018252565b604051906200013582620000cf565b600e82526d2134b6b0a3b934b2102a37b5b2b760911b6020830152565b906200015d62000126565b916200016862000126565b9262000173620000fc565b906020906342494d4160e01b828401526200018d62000111565b9180830193603160f81b8552875160018060401b038111620000c957620001c181620001bb600354620002f3565b62000330565b82601f821160011462000260579080620002009392620000fa9a9b60009262000254575b50508160011b916000199060031b1c19161760035562000494565b6200020b82620005d0565b610120526200021a83620006e3565b61014052815191012060e052519020610100524660a0526200023b62000894565b6080523060c0526200024d3362000587565b3362000966565b015190503880620001e5565b6003600052601f198216997fc2575a0e9e593c00f959f8c92f12db2869c3395a3b0502d05e2516446f71f85b9a60005b818110620002db57509a6001928492620002009695620000fa9d9e10620002c1575b505050811b0160035562000494565b015160001960f88460031b161c19169055388080620002b2565b838301518d556001909c019b92860192860162000290565b90600182811c9216801562000325575b60208310146200030f57565b634e487b7160e01b600052602260045260246000fd5b91607f169162000303565b601f81116200033d575050565b6000906003825260208220906020601f850160051c830194106200037e575b601f0160051c01915b8281106200037257505050565b81815560010162000365565b90925082906200035c565b601f811162000396575050565b6000906004825260208220906020601f850160051c83019410620003d7575b601f0160051c01915b828110620003cb57505050565b818155600101620003be565b9092508290620003b5565b601f8111620003ef575050565b6000906005825260208220906020601f850160051c8301941062000430575b601f0160051c01915b8281106200042457505050565b81815560010162000417565b90925082906200040e565b601f811162000448575050565b6000906006825260208220906020601f850160051c8301941062000489575b601f0160051c01915b8281106200047d57505050565b81815560010162000470565b909250829062000467565b80519091906001600160401b038111620000c957620004c081620004ba600454620002f3565b62000389565b602080601f8311600114620004ff5750819293600092620004f3575b50508160011b916000199060031b1c191617600455565b015190503880620004dc565b6004600052601f198316949091907f8a35acfbc15ff81a39ae7d344fd709f28e8600b4aa8c65c6b64bfe7fe36bd19b926000905b8782106200056e57505083600195961062000554575b505050811b01600455565b015160001960f88460031b161c1916905538808062000549565b8060018596829496860151815501950193019062000533565b600c80546001600160a01b039283166001600160a01b0319821681179092559091167f8be0079c531659141344cd1fd0a4f28419497f9722a3daafe3b4186f6b6457e0600080a3565b9081516020808210600014620005f157505090620005ee9062000817565b90565b6001600160401b038211620000c957620006188262000612600554620002f3565b620003e2565b80601f83116001146200065857508192936000926200064c575b50508160011b916000199060031b1c19161760055560ff90565b01519050388062000632565b6005600052601f198316949091907f036b6384b5eca791c62761152d0c79bb0604c104a5fb6f4eb0703f3154bb3db0926000905b878210620006ca575050836001959610620006b0575b505050811b0160055560ff90565b015160001960f88460031b161c19169055388080620006a2565b806001859682949686015181550195019301906200068c565b90815160208082106000146200070157505090620005ee9062000817565b6001600160401b038211620000c957620007288262000722600654620002f3565b6200043b565b80601f83116001146200076857508192936000926200075c575b50508160011b916000199060031b1c19161760065560ff90565b01519050388062000742565b6006600052601f198316949091907ff652222313e28459528d920b65115c16c04f3efc82aaedc97be59f3f377c0d3f926000905b878210620007da575050836001959610620007c0575b505050811b0160065560ff90565b015160001960f88460031b161c19169055388080620007b2565b806001859682949686015181550195019301906200079c565b60208151910151906020811062000808575090565b6000199060200360031b1b1690565b601f81511162000832576200082c81620007f3565b90511790565b6040519063305a27a960e01b82528160208060048301528251908160248401526000935b8285106200087a575050604492506000838284010152601f80199101168101030190fd5b848101820151868601604401529381019385935062000856565b60e051610100516040519060208201927f8b73c3c69bb8fe3d512ecc4cf759cc79239f7b179b0ffacaa9a75d522b39400f8452604083015260608201524660808201523060a082015260a0815260c0810181811060018060401b03821117620000c95760405251902090565b156200090857565b60405162461bcd60e51b815260206004820152603060248201527f4552433230566f7465733a20746f74616c20737570706c79207269736b73206f60448201526f766572666c6f77696e6720766f74657360801b6064820152608490fd5b906001600160a01b038216801562000a105760025482810180911162000a0a5762000a0693620009e8926200099b8593600255565b6001600160a01b038216600090815260208181526040808320805487019055518581527fddf252ad1be2c89b69c2b068fc378daa952ba7f163c4a11628f55a4df523b3ef9190a362000fc4565b60025462000a00906001600160e01b03101562000900565b62000b75565b5050565b62000a55565b60405162461bcd60e51b815260206004820152601f60248201527f45524332303a206d696e7420746f20746865207a65726f2061646472657373006044820152606490fd5b634e487b7160e01b600052601160045260246000fd5b604080519192919081016001600160401b03811182821017620000c957604052602081935463ffffffff81168352811c910152565b600b549068010000000000000000821015620000c9576001820180600b5582101562000b0e57600b600052805160209182015190911b63ffffffff191663ffffffff91909116177f0175b7a638427703f0dbe7bb9bbf987a2551717b34e79f33b5b1008d1fa01db990910155565b634e487b7160e01b600052603260045260246000fd5b90815468010000000000000000811015620000c9576001810180845581101562000b0e57600092835260209283902082519284015190931b63ffffffff191663ffffffff9290921691909117910155565b600b549091811591821562000cbd5762000b8e620000eb565b60008152600060208201525b602081015162000bc79062000bbf906001600160e01b03165b6001600160e01b031690565b9586620010d2565b9315908162000c96575b501562000c2e57620000fa9062000c1762000bec8562000e8c565b600b600052917f0175b7a638427703f0dbe7bb9bbf987a2551717b34e79f33b5b1008d1fa01db80190565b9063ffffffff82549181199060201b169116179055565b50620000fa62000c5762000c5162000c464362000ef6565b65ffffffffffff1690565b62000f5e565b62000c9062000c668562000e8c565b62000c8062000c74620000eb565b63ffffffff9094168452565b6001600160e01b03166020830152565b62000aa0565b5163ffffffff16905063ffffffff62000cb362000c464362000ef6565b9116143862000bd1565b600b60005262000cf57f0175b7a638427703f0dbe7bb9bbf987a2551717b34e79f33b5b1008d1fa01db8820162000a6b565b62000a6b565b62000b9a565b90918154918215928360001462000dff5762000d16620000eb565b60008152600060208201525b602081015162000d489062000d40906001600160e01b031662000bb3565b9687620010e0565b9415908162000dd8575b501562000d7f5762000c17620000fa9262000d6d8662000e8c565b92600019019060005260206000200190565b50620000fa9062000d9862000c5162000c464362000ef6565b9062000dd262000da88662000e8c565b62000dc262000db6620000eb565b63ffffffff9095168552565b6001600160e01b03166020840152565b62000b24565b5163ffffffff16905063ffffffff62000df562000c464362000ef6565b9116143862000d52565b62000e1962000cef60001983018460005260206000200190565b62000d22565b90918154918215928360001462000e6c5762000e3a620000eb565b60008152600060208201525b602081015162000d489062000e64906001600160e01b031662000bb3565b9687620010d2565b62000e8662000cef60001983018460005260206000200190565b62000e46565b6001600160e01b039081811162000ea1571690565b60405162461bcd60e51b815260206004820152602760248201527f53616665436173743a2076616c756520646f65736e27742066697420696e20326044820152663234206269747360c81b6064820152608490fd5b65ffffffffffff9081811162000f0a571690565b60405162461bcd60e51b815260206004820152602660248201527f53616665436173743a2076616c756520646f65736e27742066697420696e203460448201526538206269747360d01b6064820152608490fd5b63ffffffff9081811162000f70571690565b60405162461bcd60e51b815260206004820152602660248201527f53616665436173743a2076616c756520646f65736e27742066697420696e203360448201526532206269747360d01b6064820152608490fd5b60096020527fec8156718a8372b1db44bb411437d0870f3e3790d4a08526d024ce1b0b668f6b546001600160a01b039182166000908152604081205483169392909116908184141580620010c8575b6200101f575b50505050565b82908262001087575b505050816200103a575b808062001019565b6001600160a01b0382166000908152600a60205260409020600080516020620036c1833981519152916200106e9162000e1f565b60408051928352602083019190915290a2388062001032565b600080516020620036c18339815191529160408285620010ae9452600a6020522062000cfb565b60408051928352602083019190915290a238818162001028565b5082151562001013565b90810180911162000a0a5790565b90810390811162000a0a579056fe6080604052600436101561001257600080fd5b60003560e01c806306fdde03146101e7578063095ea7b3146101e257806318160ddd146101dd57806323b872dd146101d8578063313ce567146101d35780633644e515146101ce57806339509351146101c95780633a46b1a8146101c457806340c10f19146101bf5780634bf5d7e9146101ba578063587cde1e146101b55780635c19a95c146101b05780636fcfff45146101ab57806370a08231146101a6578063715018a6146101a15780637ecebe001461019c57806384b0196e146101975780638da5cb5b146101925780638e539e8c1461018d57806391ddadf41461018857806395d89b41146101835780639ab24eb01461017e578063a457c2d714610179578063a9059cbb14610174578063c3cda5201461016f578063d505accf1461016a578063dd62ed3e14610165578063f1127ed8146101605763f2fde38b1461015b57600080fd5b611174565b6110ed565b611095565b610f4f565b610e24565b610dde565b610d30565b610cce565b610c27565b610bfb565b610aa2565b610a79565b610981565b610947565b6108e9565b6108af565b610867565b610845565b61080a565b610758565b610658565b610507565b6104af565b61048c565b610470565b6103a5565b610387565b610356565b610240565b919082519283825260005b848110610218575050826000602080949584010152601f8019910116010190565b6020818301810151848301820152016101f7565b90602061023d9281815201906101ec565b90565b346103255760008060031936011261032257604051908060035461026381611295565b808552916001918083169081156102f8575060011461029d575b6102998561028d8187038261133e565b6040519182918261022c565b0390f35b9250600383527fc2575a0e9e593c00f959f8c92f12db2869c3395a3b0502d05e2516446f71f85b5b8284106102e057505050810160200161028d8261029961027d565b805460208587018101919091529093019281016102c5565b8695506102999693506020925061028d94915060ff191682840152151560051b820101929361027d565b80fd5b600080fd5b600435906001600160a01b038216820361032557565b602435906001600160a01b038216820361032557565b346103255760403660031901126103255761037c61037261032a565b6024359033611552565b602060405160018152f35b34610325576000366003190112610325576020600254604051908152f35b34610325576060366003190112610325576103be61032a565b6103c6610340565b6001600160a01b03821660009081526001602090815260408083203384529091529020604435919054926001840161040f575b6104039350611444565b60405160018152602090f35b82841061042b576104268361040395033383611552565b6103f9565b60405162461bcd60e51b815260206004820152601d60248201527f45524332303a20696e73756666696369656e7420616c6c6f77616e63650000006044820152606490fd5b3461032557600036600319011261032557602060405160128152f35b346103255760003660031901126103255760206104a7611ef1565b604051908152f35b34610325576040366003190112610325576104c861032a565b3360009081526001602090815260408083206001600160a01b038516845290915290205460243581018091116105025761037c9133611552565b611360565b346103255760403660031901126103255761052061032a565b6024359061053f65ffffffffffff610537436123d4565b16831061172b565b6001600160a01b03166000908152600a6020526040812080549290918360058111610607575b50905b8382106105b65750508161058f575050602060005b6040516001600160e01b039091168152f35b6105aa6105b191602093600019019060005260206000200190565b5460201c90565b61057d565b90926105c28185612204565b908263ffffffff6105e76105dd858860005260206000200190565b5463ffffffff1690565b1611156105f75750925b90610568565b935061060290611376565b6105f1565b8061061761061d92969396612219565b90611777565b908263ffffffff6106386105dd858860005260206000200190565b1611156106485750925b38610565565b935061065390611376565b610642565b346103255760403660031901126103255761067161032a565b60243561067c61123d565b6001600160a01b03821691821561071357816106f691610711946106aa6106a584600254611384565b600255565b6001600160a01b038216600090815260208181526040808320805487019055518581527fddf252ad1be2c89b69c2b068fc378daa952ba7f163c4a11628f55a4df523b3ef9190a36124a0565b60025461070c906001600160e01b03101561251d565b611b21565b005b60405162461bcd60e51b815260206004820152601f60248201527f45524332303a206d696e7420746f20746865207a65726f2061646472657373006044820152606490fd5b34610325576000366003190112610325574365ffffffffffff61077a436123d4565b16036107c55761029960405161078f816112e5565b601d81527f6d6f64653d626c6f636b6e756d6265722666726f6d3d64656661756c7400000060208201526040519182918261022c565b60405162461bcd60e51b815260206004820152601d60248201527f4552433230566f7465733a2062726f6b656e20636c6f636b206d6f64650000006044820152606490fd5b346103255760203660031901126103255760206001600160a01b038061082e61032a565b166000526009825260406000205416604051908152f35b346103255760203660031901126103255761071161086161032a565b336117d0565b34610325576020366003190112610325576001600160a01b0361088861032a565b16600052600a60205260206108a160406000205461243b565b63ffffffff60405191168152f35b34610325576020366003190112610325576001600160a01b036108d061032a565b1660005260006020526020604060002054604051908152f35b34610325576000806003193601126103225761090361123d565b600c80546001600160a01b0319811690915581906001600160a01b03167f8be0079c531659141344cd1fd0a4f28419497f9722a3daafe3b4186f6b6457e08280a380f35b34610325576020366003190112610325576001600160a01b0361096861032a565b1660005260076020526020604060002054604051908152f35b346103255760008060031936011261032257610a2b906109c07f0000000000000000000000000000000000000000000000000000000000000000612031565b6109e97f000000000000000000000000000000000000000000000000000000000000000061212a565b91604051916109f783611306565b818352604051948594600f60f81b8652610a1d60209360e08589015260e08801906101ec565b9086820360408801526101ec565b904660608601523060808601528260a086015284820360c08601528080855193848152019401925b828110610a6257505050500390f35b835185528695509381019392810192600101610a53565b3461032557600036600319011261032557600c546040516001600160a01b039091168152602090f35b3461032557602036600319011261032557600435610ad165ffffffffffff610ac9436123d4565b16821061172b565b600b549060008260058111610b94575b50905b828210610b31578280610afe575060405160008152602090f35b600b6000526020906105b1907f0175b7a638427703f0dbe7bb9bbf987a2551717b34e79f33b5b1008d1fa01db8016105aa565b9091610b3d8184612204565b600b600052908263ffffffff610b747f0175b7a638427703f0dbe7bb9bbf987a2551717b34e79f33b5b1008d1fa01db985016105dd565b161115610b845750915b90610ae4565b9250610b8f90611376565b610b7e565b80610617610ba492959395612219565b600b600052908263ffffffff610bdb7f0175b7a638427703f0dbe7bb9bbf987a2551717b34e79f33b5b1008d1fa01db985016105dd565b161115610beb5750915b38610ae1565b9250610bf690611376565b610be5565b34610325576000366003190112610325576020610c17436123d4565b65ffffffffffff60405191168152f35b3461032557600080600319360112610322576040519080600454610c4a81611295565b808552916001918083169081156102f85750600114610c73576102998561028d8187038261133e565b9250600483527f8a35acfbc15ff81a39ae7d344fd709f28e8600b4aa8c65c6b64bfe7fe36bd19b5b828410610cb657505050810160200161028d8261029961027d565b80546020858701810191909152909301928101610c9b565b34610325576020366003190112610325576001600160a01b03610cef61032a565b16600052600a602052604060002080548015600014610d1657505060405160008152602090f35b602091610d279160001901906116db565b5054811c61057d565b3461032557604036600319011261032557610d4961032a565b60243590336000526001602052610d768160406000209060018060a01b0316600052602052604060002090565b5491808310610d8b5761040392039033611552565b60405162461bcd60e51b815260206004820152602560248201527f45524332303a2064656372656173656420616c6c6f77616e63652062656c6f77604482015264207a65726f60d81b6064820152608490fd5b346103255760403660031901126103255761037c610dfa61032a565b6024359033611444565b6064359060ff8216820361032557565b6084359060ff8216820361032557565b346103255760c036600319011261032557610e3d61032a565b60443590602435610e4c610e04565b92804211610f0a57610edc610f05916107119560405190610ec482610eb66020820195898b8860609194939260808201957fe48329057bfd03d55e49b547132e39cffd9c1820ad7b9d4c5307691425d15adf835260018060a01b0316602083015260408201520152565b03601f19810184528361133e565b610ed760a435936084359351902061200b565b611d0b565b6001600160a01b0381166000908152600760205260409020805460018101909155909214611784565b6117d0565b60405162461bcd60e51b815260206004820152601d60248201527f4552433230566f7465733a207369676e617475726520657870697265640000006044820152606490fd5b346103255760e036600319011261032557610f6861032a565b610f70610340565b6044359060643592610f80610e14565b938042116110505761103861104b91610eb661071197611025610fbe8760018060a01b03166000526007602052604060002090815491600183019055565b604080517f6e71edae12b1b97f4d1f60370fef10105fa2faae0126114a169c64845d6126c9602082019081526001600160a01b03808c1693830193909352918b166060820152608081018c905260a081019290925260c082019590955292839060e0820190565b610ed760c4359360a4359351902061200b565b6001600160a01b03838116911614611682565b611552565b60405162461bcd60e51b815260206004820152601d60248201527f45524332305065726d69743a206578706972656420646561646c696e650000006044820152606490fd5b346103255760403660031901126103255760206110e46110b361032a565b6110bb610340565b6001600160a01b0391821660009081526001855260408082209290931681526020919091522090565b54604051908152f35b346103255760403660031901126103255761110661032a565b63ffffffff60243581811681036103255761115061115691604094600060208751611130816112e5565b82815201526001600160a01b03166000908152600a6020528590206116db565b50611709565b8251815190921682526020908101516001600160e01b031690820152f35b346103255760203660031901126103255761118d61032a565b61119561123d565b6001600160a01b039081169081156111e957600c54826bffffffffffffffffffffffff60a01b821617600c55167f8be0079c531659141344cd1fd0a4f28419497f9722a3daafe3b4186f6b6457e0600080a3005b60405162461bcd60e51b815260206004820152602660248201527f4f776e61626c653a206e6577206f776e657220697320746865207a65726f206160448201526564647265737360d01b6064820152608490fd5b600c546001600160a01b0316330361125157565b606460405162461bcd60e51b815260206004820152602060248201527f4f776e61626c653a2063616c6c6572206973206e6f7420746865206f776e65726044820152fd5b90600182811c921680156112c5575b60208310146112af57565b634e487b7160e01b600052602260045260246000fd5b91607f16916112a4565b634e487b7160e01b600052604160045260246000fd5b6040810190811067ffffffffffffffff82111761130157604052565b6112cf565b6020810190811067ffffffffffffffff82111761130157604052565b60c0810190811067ffffffffffffffff82111761130157604052565b90601f8019910116810190811067ffffffffffffffff82111761130157604052565b634e487b7160e01b600052601160045260246000fd5b906001820180921161050257565b9190820180921161050257565b1561139857565b60405162461bcd60e51b815260206004820152602360248201527f45524332303a207472616e7366657220746f20746865207a65726f206164647260448201526265737360e81b6064820152608490fd5b156113f057565b60405162461bcd60e51b815260206004820152602660248201527f45524332303a207472616e7366657220616d6f756e7420657863656564732062604482015265616c616e636560d01b6064820152608490fd5b6001600160a01b0392919083811680156114ff576114fd9483169061146a821515611391565b6001600160a01b0383166000908152602081905260409020859054611491828210156113e9565b036114ae8460018060a01b03166000526000602052604060002090565b556001600160a01b0384166000908152602081815260409182902080548801905590518681527fddf252ad1be2c89b69c2b068fc378daa952ba7f163c4a11628f55a4df523b3ef9190a36124eb565b565b60405162461bcd60e51b815260206004820152602560248201527f45524332303a207472616e736665722066726f6d20746865207a65726f206164604482015264647265737360d81b6064820152608490fd5b6001600160a01b0380821692919083156116315782169384156115e157806115cb7f8c5be1e5ebec7d5bd14f71427d1e84f3dd0314c0f7b2291e5b200ac8c7c3b925946115b46115dc9560018060a01b03166000526001602052604060002090565b9060018060a01b0316600052602052604060002090565b556040519081529081906020820190565b0390a3565b60405162461bcd60e51b815260206004820152602260248201527f45524332303a20617070726f766520746f20746865207a65726f206164647265604482015261737360f01b6064820152608490fd5b60405162461bcd60e51b8152602060048201526024808201527f45524332303a20617070726f76652066726f6d20746865207a65726f206164646044820152637265737360e01b6064820152608490fd5b1561168957565b60405162461bcd60e51b815260206004820152601e60248201527f45524332305065726d69743a20696e76616c6964207369676e617475726500006044820152606490fd5b604051906114fd826112e5565b80548210156116f35760005260206000200190600090565b634e487b7160e01b600052603260045260246000fd5b90604051611716816112e5565b602081935463ffffffff81168352811c910152565b1561173257565b60405162461bcd60e51b815260206004820152601960248201527f4552433230566f7465733a20667574757265206c6f6f6b7570000000000000006044820152606490fd5b9190820391821161050257565b1561178b57565b60405162461bcd60e51b815260206004820152601960248201527f4552433230566f7465733a20696e76616c6964206e6f6e6365000000000000006044820152606490fd5b6114fd9160018060a01b038092166000928184526009602052806040852054168092856020527f3134e8a2e6d97e929a7e54011ea5485d7d196dd5f0ba4d4ef95803e8e3fc257f60408720549660096020526040812094871694856bffffffffffffffffffffffff60a01b82541617905580a45b6001600160a01b03808316939291168084141580611a57575b611868575b50505050565b806118d6575b508261187b575b80611862565b6001600160a01b03166000908152600a602052604090207fdec2bacdd2f05b59de34da9b523dff8be42e5e38e818c82fdb0bae774387a724916118bd91611c52565b60408051928352602083019190915290a2388080611875565b80600052600a6020527fdec2bacdd2f05b59de34da9b523dff8be42e5e38e818c82fdb0bae774387a7246040600020805480159182600014611a345761191a6116ce565b6000815260006020820152915b6020830151611946906001600160e01b03165b6001600160e01b031690565b926119518985612582565b94159081611a11575b50156119af57611982611999926119708661236b565b92600019019060005260206000200190565b9063ffffffff82549181199060201b169116179055565b604080519182526020820192909252a23861186e565b50611a0c906119d36119ce6119c3436123d4565b65ffffffffffff1690565b61243b565b90611a076119e08661236b565b6119f76119eb6116ce565b63ffffffff9095168552565b6001600160e01b03166020840152565b611ac7565b611999565b5163ffffffff16905063ffffffff611a2b6119c3436123d4565b9116143861195a565b611a51611a4c60001984018360005260206000200190565b611709565b91611927565b5082151561185d565b600b5490600160401b821015611301576001820180600b558210156116f357600b600052805160209182015190911b63ffffffff191663ffffffff91909116177f0175b7a638427703f0dbe7bb9bbf987a2551717b34e79f33b5b1008d1fa01db990910155565b8054600160401b81101561130157611ae4916001820181556116db565b611b0b57815160209283015190921b63ffffffff191663ffffffff92909216919091179055565b634e487b7160e01b600052600060045260246000fd5b600b5490918115918215611c1d57611b376116ce565b60008152600060208201525b6020810151611b6590611b5e906001600160e01b031661193a565b958661258f565b93159081611bfa575b5015611baf576114fd90611982611b848561236b565b600b600052917f0175b7a638427703f0dbe7bb9bbf987a2551717b34e79f33b5b1008d1fa01db80190565b506114fd611bc26119ce6119c3436123d4565b611bf5611bce8561236b565b611be5611bd96116ce565b63ffffffff9094168452565b6001600160e01b03166020830152565b611a60565b5163ffffffff16905063ffffffff611c146119c3436123d4565b91161438611b6e565b600b600052611c4d7f0175b7a638427703f0dbe7bb9bbf987a2551717b34e79f33b5b1008d1fa01db88201611709565b611b43565b909181549182159283600014611cee57611c6a6116ce565b60008152600060208201525b6020810151611c9890611c91906001600160e01b031661193a565b968761258f565b94159081611ccb575b5015611cb7576119826114fd926119708661236b565b506114fd906119d36119ce6119c3436123d4565b5163ffffffff16905063ffffffff611ce56119c3436123d4565b91161438611ca1565b611d06611a4c60001983018460005260206000200190565b611c76565b9161023d9391611d1a93611e62565b919091611d42565b60051115611d2c57565b634e487b7160e01b600052602160045260246000fd5b611d4b81611d22565b80611d535750565b611d5c81611d22565b60018103611da95760405162461bcd60e51b815260206004820152601860248201527f45434453413a20696e76616c6964207369676e617475726500000000000000006044820152606490fd5b611db281611d22565b60028103611dff5760405162461bcd60e51b815260206004820152601f60248201527f45434453413a20696e76616c6964207369676e6174757265206c656e677468006044820152606490fd5b80611e0b600392611d22565b14611e1257565b60405162461bcd60e51b815260206004820152602260248201527f45434453413a20696e76616c6964207369676e6174757265202773272076616c604482015261756560f01b6064820152608490fd5b9291907f7fffffffffffffffffffffffffffffff5d576e7357a4501ddfe92f46681b20a08311611ee55791608094939160ff602094604051948552168484015260408301526060820152600093849182805260015afa15611ed85781516001600160a01b03811615611ed2579190565b50600190565b50604051903d90823e3d90fd5b50505050600090600390565b307f00000000000000000000000000000000000000000000000000000000000000006001600160a01b03161480611fe2575b15611f4c577f000000000000000000000000000000000000000000000000000000000000000090565b60405160208101907f8b73c3c69bb8fe3d512ecc4cf759cc79239f7b179b0ffacaa9a75d522b39400f82527f000000000000000000000000000000000000000000000000000000000000000060408201527f000000000000000000000000000000000000000000000000000000000000000060608201524660808201523060a082015260a08152611fdc81611322565b51902090565b507f00000000000000000000000000000000000000000000000000000000000000004614611f23565b604290612016611ef1565b906040519161190160f01b8352600283015260228201522090565b60ff811461206f5760ff811690601f821161205d5760405191612053836112e5565b8252602082015290565b604051632cd44ac360e21b8152600490fd5b5060405160055481600061208283611295565b8083529260019081811690811561210857506001146120a9575b5061023d9250038261133e565b6005600090815291507f036b6384b5eca791c62761152d0c79bb0604c104a5fb6f4eb0703f3154bb3db05b8483106120ed575061023d93505081016020013861209c565b819350908160209254838589010152019101909184926120d4565b90506020925061023d94915060ff191682840152151560051b8201013861209c565b60ff811461214c5760ff811690601f821161205d5760405191612053836112e5565b5060405160065481600061215f83611295565b808352926001908181169081156121085750600114612185575061023d9250038261133e565b6006600090815291507ff652222313e28459528d920b65115c16c04f3efc82aaedc97be59f3f377c0d3f5b8483106121c9575061023d93505081016020013861209c565b819350908160209254838589010152019101909184926121b0565b81156121ee570490565b634e487b7160e01b600052601260045260246000fd5b90808216911860011c81018091116105025790565b801561235357806122ec6122e56122db6122d16122c76122bd6122b36122a9600161023d9a6000908b60801c80612347575b508060401c8061233a575b508060201c8061232d575b508060101c80612320575b508060081c80612313575b508060041c80612306575b508060021c806122f9575b50821c6122f2575b811c1b6122a2818b6121e4565b0160011c90565b6122a2818a6121e4565b6122a281896121e4565b6122a281886121e4565b6122a281876121e4565b6122a281866121e4565b6122a281856121e4565b80926121e4565b90612359565b8101612295565b600291509101903861228d565b6004915091019038612282565b6008915091019038612277565b601091509101903861226c565b6020915091019038612261565b6040915091019038612256565b9150506080903861224b565b50600090565b9080821015612366575090565b905090565b6001600160e01b039081811161237f571690565b60405162461bcd60e51b815260206004820152602760248201527f53616665436173743a2076616c756520646f65736e27742066697420696e20326044820152663234206269747360c81b6064820152608490fd5b65ffffffffffff908181116123e7571690565b60405162461bcd60e51b815260206004820152602660248201527f53616665436173743a2076616c756520646f65736e27742066697420696e203460448201526538206269747360d01b6064820152608490fd5b63ffffffff9081811161244c571690565b60405162461bcd60e51b815260206004820152602660248201527f53616665436173743a2076616c756520646f65736e27742066697420696e203360448201526532206269747360d01b6064820152608490fd5b60096020527fec8156718a8372b1db44bb411437d0870f3e3790d4a08526d024ce1b0b668f6b546001600160a01b03918216600090815260409020546114fd93929081169116611844565b6001600160a01b039081166000908152600960205260408082205493831682529020546114fd93929082169116611844565b1561252457565b60405162461bcd60e51b815260206004820152603060248201527f4552433230566f7465733a20746f74616c20737570706c79207269736b73206f60448201526f766572666c6f77696e6720766f74657360801b6064820152608490fd5b9081039081116105025790565b908101809111610502579056fea2646970667358221220f113c3b8afdfbf4b425fa9fa363690c7c9d875e9d5264c949518843c29112c8664736f6c63430008140033dec2bacdd2f05b59de34da9b523dff8be42e5e38e818c82fdb0bae774387a724",
  "linkReferences": {},
  "deployedLinkReferences": {}
}