{"contracts/core/EscrowVault.sol":{"EscrowVault":{"abi":[{"inputs":[{"internalType":"uint256","name":"requested","type":"uint256"},{"internalType":"uint256","name":"available","type":"uint256"}],"name":"InsufficientBalance","type":"error"},{"inputs":[],"name":"NoPendingRefund","type":"error"},{"inputs":[],"name":"NotAuthorized","type":"error"},{"inputs":[],"name":"TransferFailed","type":"error"},{"inputs":[],"name":"ZeroAddress","type":"error"},{"inputs":[],"name":"ZeroAmount","type":"error"},{"anonymous":false,"inputs":[{"indexed":false,"internalType":"address","name":"caller","type":"address"},{"indexed":false,"internalType":"bool","name":"authorized","type":"bool"}],"name":"CallerAuthorized","type":"event"},{"anonymous":false,"inputs":[{"indexed":true,"internalType":"address","name":"previousOwner","type":"address"},{"indexed":true,"internalType":"address","name":"newOwner","type":"address"}],"name":"OwnershipTransferred","type":"event"},{"anonymous":false,"inputs":[{"indexed":true,"internalType":"uint256","name":"policyId","type":"uint256"},{"indexed":true,"internalType":"address","name":"farmer","type":"address"},{"indexed":false,"internalType":"uint256","name":"amount","type":"uint256"}],"name":"PayoutExecuted","type":"event"},{"anonymous":false,"inputs":[{"indexed":true,"internalType":"uint256","name":"policyId","type":"uint256"},{"indexed":false,"internalType":"uint128","name":"amount","type":"uint128"}],"name":"PremiumDeposited","type":"event"},{"anonymous":false,"inputs":[{"indexed":true,"internalType":"address","name":"farmer","type":"address"},{"indexed":false,"internalType":"uint256","name":"amount","type":"uint256"}],"name":"RefundClaimed","type":"event"},{"anonymous":false,"inputs":[{"indexed":true,"internalType":"uint256","name":"policyId","type":"uint256"},{"indexed":true,"internalType":"address","name":"farmer","type":"address"},{"indexed":false,"internalType":"uint256","name":"amount","type":"uint256"}],"name":"RefundPending","type":"event"},{"inputs":[{"internalType":"address","name":"","type":"address"}],"name":"authorizedCallers","outputs":[{"internalType":"bool","name":"","type":"bool"}],"stateMutability":"view","type":"function"},{"inputs":[],"name":"claimRefund","outputs":[],"stateMutability":"nonpayable","type":"function"},{"inputs":[{"internalType":"uint256","name":"policyId","type":"uint256"}],"name":"depositPremium","outputs":[],"stateMutability":"payable","type":"function"},{"inputs":[],"name":"owner","outputs":[{"internalType":"address","name":"","type":"address"}],"stateMutability":"view","type":"function"},{"inputs":[{"internalType":"uint256","name":"policyId","type":"uint256"},{"internalType":"address payable","name":"farmer","type":"address"},{"internalType":"uint256","name":"amount","type":"uint256"}],"name":"payout","outputs":[],"stateMutability":"nonpayable","type":"function"},{"inputs":[{"internalType":"address","name":"","type":"address"}],"name":"pendingRefunds","outputs":[{"internalType":"uint256","name":"","type":"uint256"}],"stateMutability":"view","type":"function"},{"inputs":[{"internalType":"uint256","name":"","type":"uint256"}],"name":"premiums","outputs":[{"internalType":"uint128","name":"","type":"uint128"}],"stateMutability":"view","type":"function"},{"inputs":[{"internalType":"uint256","name":"policyId","type":"uint256"},{"internalType":"address","name":"farmer","type":"address"},{"internalType":"uint256","name":"amount","type":"uint256"}],"name":"refundPremium","outputs":[],"stateMutability":"nonpayable","type":"function"},{"inputs":[],"name":"renounceOwnership","outputs":[],"stateMutability":"nonpayable","type":"function"},{"inputs":[{"internalType":"address","name":"caller","type":"address"},{"internalType":"bool","name":"authorized","type":"bool"}],"name":"setAuthorizedCaller","outputs":[],"stateMutability":"nonpayable","type":"function"},{"inputs":[{"internalType":"address","name":"newOwner","type":"address"}],"name":"transferOwnership","outputs":[],"stateMutability":"nonpayable","type":"function"},{"stateMutability":"payable","type":"receive"}],"evm":{"bytecode":{"linkReferences":{},"object":"6080806040523461005f5760008054336001600160a01b0319821681178355916001600160a01b03909116907f8be0079c531659141344cd1fd0a4f28419497f9722a3daafe3b4186f6b6457e09080a36001805561077790816100658239f35b600080fdfe60806040818152600480361015610021575b505050361561001f57600080fd5b005b600092833560e01c90816309464261146105e457508063454bbd2914610564578063536fff6c14610528578063715018a6146104cb5780638da5cb5b146104a35780638e65d632146103e7578063ae2f5d93146102e6578063b5545a3c14610248578063b613b1141461020c578063eeab8ed0146101685763f2fde38b036100115734610164576020366003190112610164576100bc610617565b906100c5610632565b6001600160a01b0391821692831561011257505082546001600160a01b0319811683178455167f8be0079c531659141344cd1fd0a4f28419497f9722a3daafe3b4186f6b6457e08380a380f35b906020608492519162461bcd60e51b8352820152602660248201527f4f776e61626c653a206e6577206f776e657220697320746865207a65726f206160448201526564647265737360d01b6064820152fd5b8280fd5b5060203660031901126101645780359134156101ff57828452600260205280842080546001600160801b03348116948183168601908282116101ec57506fffffffffffffffffffffffffffffffff199092169116179055519081527fb434b45ac0b0dfce2d5433796e03927ef1dc0d777f8405c64fd1552d8e56f70990602090a280f35b634e487b7160e01b895260119052602488fd5b51631f2a200560e01b8152fd5b5050346102445760203660031901126102445760209181906001600160a01b03610234610617565b1681526003845220549051908152f35b5080fd5b5090346101645782600319360112610164576102626106eb565b3383526003602052808320549182156102d857338452600360205283828120558380808086335af161029261068a565b50156102ca5750519081527f358fe4192934d3bf28ae181feda1f4bd08ca67f5e2fad55582cce5eb67304ae960203392a26001805580f35b90516312171d8360e31b8152fd5b9051631f61271360e31b8152fd5b509034610164576060366003190112610164576001600160a01b03602435818116939192908490036103e35760443592855416331415806103ce575b6103c15761032e6106eb565b83156103b45782156101ff574783811061039957508480808086885af161035361068a565b501561038c577fbeaa99d72a600712e4656a7da04b2cabe31fb50fbf8f5b5f96513b0a4f495c1a91602091519384523592a36001805580f35b516312171d8360e31b8152fd5b9092604493519263cf47918160e01b84528301526024820152fd5b5163d92e233d60e01b8152fd5b5163ea8e4eb560e01b8152fd5b503385528160205260ff818620541615610322565b8480fd5b509034610164576060366003190112610164576001600160a01b03602435818116939192908490036103e357604435928554163314158061048e575b6103c15783156103b45782156101ff57838552600360205280852080549084820180921161047b57555191825235907f59bbe847b05244289a0ad5285ea1edaf960d001d8d92d488bfdd44d85713915d90602090a380f35b634e487b7160e01b875260118452602487fd5b503385528160205260ff818620541615610423565b505034610244578160031936011261024457905490516001600160a01b039091168152602090f35b83346105255780600319360112610525576104e4610632565b80546001600160a01b03198116825581906001600160a01b03167f8be0079c531659141344cd1fd0a4f28419497f9722a3daafe3b4186f6b6457e08280a380f35b80fd5b50346101645760203660031901126101645760209260ff918391906001600160a01b03610553610617565b168252855220541690519015158152f35b50903461016457806003193601126101645761057e610617565b916024358015158091036103e3577f100c9fd652c7b273c9266f92f22ac2352eb8d7232013ac0439e9066a9227f369936105b6610632565b6001600160a01b03168086526020928352838620805460ff191660ff8416179055835190815291820152a180f35b929190503461061357602036600319011261061357358352600260209081529220546001600160801b03168152f35b8380fd5b600435906001600160a01b038216820361062d57565b600080fd5b6000546001600160a01b0316330361064657565b606460405162461bcd60e51b815260206004820152602060248201527f4f776e61626c653a2063616c6c6572206973206e6f7420746865206f776e65726044820152fd5b3d156106e65767ffffffffffffffff903d8281116106d05760405192601f8201601f19908116603f01168401908111848210176106d05760405282523d6000602084013e565b634e487b7160e01b600052604160045260246000fd5b606090565b6002600154146106fc576002600155565b60405162461bcd60e51b815260206004820152601f60248201527f5265656e7472616e637947756172643a207265656e7472616e742063616c6c006044820152606490fdfea26469706673582212201450115309dd31d325ece960d1f697c45a79b5343be4fcaed58ba648cdce5e7b64736f6c63430008140033","opcodes":"PUSH1 0x80 DUP1 PUSH1 0x40 MSTORE CALLVALUE PUSH2 0x5F JUMPI PUSH1 0x0 DUP1 SLOAD CALLER PUSH1 0x1 PUSH1 0x1 PUSH1 0xA0 SHL SUB NOT DUP3 AND DUP2 OR DUP4 SSTORE SWAP2 PUSH1 0x1 PUSH1 0x1 PUSH1 0xA0 SHL SUB SWAP1 SWAP2 AND SWAP1 PUSH32 0x8BE0079C531659141344CD1FD0A4F28419497F9722A3DAAFE3B4186F6B6457E0 SWAP1 DUP1 LOG3 PUSH1 0x1 DUP1 SSTORE PUSH2 0x777 SWAP1 DUP2 PUSH2 0x65 DUP3 CODECOPY RETURN JUMPDEST PUSH1 0x0 DUP1 REVERT INVALID PUSH1 0x80 PUSH1 0x40 DUP2 DUP2 MSTORE PUSH1 0x4 DUP1 CALLDATASIZE LT ISZERO PUSH2 0x21 JUMPI JUMPDEST POP POP POP CALLDATASIZE ISZERO PUSH2 0x1F JUMPI PUSH1 0x0 DUP1 REVERT JUMPDEST STOP JUMPDEST PUSH1 0x0 SWAP3 DUP4 CALLDATALOAD PUSH1 0xE0 SHR SWAP1 DUP2 PUSH4 0x9464261 EQ PUSH2 0x5E4 JUMPI POP DUP1 PUSH4 0x454BBD29 EQ PUSH2 0x564 JUMPI DUP1 PUSH4 0x536FFF6C EQ PUSH2 0x528 JUMPI DUP1 PUSH4 0x715018A6 EQ PUSH2 0x4CB JUMPI DUP1 PUSH4 0x8DA5CB5B EQ PUSH2 0x4A3 JUMPI DUP1 PUSH4 0x8E65D632 EQ PUSH2 0x3E7 JUMPI DUP1 PUSH4 0xAE2F5D93 EQ PUSH2 0x2E6 JUMPI DUP1 PUSH4 0xB5545A3C EQ PUSH2 0x248 JUMPI DUP1 PUSH4 0xB613B114 EQ PUSH2 0x20C JUMPI DUP1 PUSH4 0xEEAB8ED0 EQ PUSH2 0x168 JUMPI PUSH4 0xF2FDE38B SUB PUSH2 0x11 JUMPI CALLVALUE PUSH2 0x164 JUMPI PUSH1 0x20 CALLDATASIZE PUSH1 0x3 NOT ADD SLT PUSH2 0x164 JUMPI PUSH2 0xBC PUSH2 0x617 JUMP JUMPDEST SWAP1 PUSH2 0xC5 PUSH2 0x632 JUMP JUMPDEST PUSH1 0x1 PUSH1 0x1 PUSH1 0xA0 SHL SUB SWAP2 DUP3 AND SWAP3 DUP4 ISZERO PUSH2 0x112 JUMPI POP POP DUP3 SLOAD PUSH1 0x1 PUSH1 0x1 PUSH1 0xA0 SHL SUB NOT DUP2 AND DUP4 OR DUP5 SSTORE AND PUSH32 0x8BE0079C531659141344CD1FD0A4F28419497F9722A3DAAFE3B4186F6B6457E0 DUP4 DUP1 LOG3 DUP1 RETURN JUMPDEST SWAP1 PUSH1 0x20 PUSH1 0x84 SWAP3 MLOAD SWAP2 PUSH3 0x461BCD PUSH1 0xE5 SHL DUP4 MSTORE DUP3 ADD MSTORE PUSH1 0x26 PUSH1 0x24 DUP3 ADD MSTORE PUSH32 0x4F776E61626C653A206E6577206F776E657220697320746865207A65726F2061 PUSH1 0x44 DUP3 ADD MSTORE PUSH6 0x646472657373 PUSH1 0xD0 SHL PUSH1 0x64 DUP3 ADD MSTORE REVERT JUMPDEST DUP3 DUP1 REVERT JUMPDEST POP PUSH1 0x20 CALLDATASIZE PUSH1 0x3 NOT ADD SLT PUSH2 0x164 JUMPI DUP1 CALLDATALOAD SWAP2 CALLVALUE ISZERO PUSH2 0x1FF JUMPI DUP3 DUP5 MSTORE PUSH1 0x2 PUSH1 0x20 MSTORE DUP1 DUP5 KECCAK256 DUP1 SLOAD PUSH1 0x1 PUSH1 0x1 PUSH1 0x80 SHL SUB CALLVALUE DUP2 AND SWAP5 DUP2 DUP4 AND DUP7 ADD SWAP1 DUP3 DUP3 GT PUSH2 0x1EC JUMPI POP PUSH16 0xFFFFFFFFFFFFFFFFFFFFFFFFFFFFFFFF NOT SWAP1 SWAP3 AND SWAP2 AND OR SWAP1 SSTORE MLOAD SWAP1 DUP2 MSTORE PUSH32 0xB434B45AC0B0DFCE2D5433796E03927EF1DC0D777F8405C64FD1552D8E56F709 SWAP1 PUSH1 0x20 SWAP1 LOG2 DUP1 RETURN JUMPDEST PUSH4 0x4E487B71 PUSH1 0xE0 SHL DUP10 MSTORE PUSH1 0x11 SWAP1 MSTORE PUSH1 0x24 DUP9 REVERT JUMPDEST MLOAD PUSH4 0x1F2A2005 PUSH1 0xE0 SHL DUP2 MSTORE REVERT JUMPDEST POP POP CALLVALUE PUSH2 0x244 JUMPI PUSH1 0x20 CALLDATASIZE PUSH1 0x3 NOT ADD SLT PUSH2 0x244 JUMPI PUSH1 0x20 SWAP2 DUP2 SWAP1 PUSH1 0x1 PUSH1 0x1 PUSH1 0xA0 SHL SUB PUSH2 0x234 PUSH2 0x617 JUMP JUMPDEST AND DUP2 MSTORE PUSH1 0x3 DUP5 MSTORE KECCAK256 SLOAD SWAP1 MLOAD SWAP1 DUP2 MSTORE RETURN JUMPDEST POP DUP1 REVERT JUMPDEST POP SWAP1 CALLVALUE PUSH2 0x164 JUMPI DUP3 PUSH1 0x3 NOT CALLDATASIZE ADD SLT PUSH2 0x164 JUMPI PUSH2 0x262 PUSH2 0x6EB JUMP JUMPDEST CALLER DUP4 MSTORE PUSH1 0x3 PUSH1 0x20 MSTORE DUP1 DUP4 KECCAK256 SLOAD SWAP2 DUP3 ISZERO PUSH2 0x2D8 JUMPI CALLER DUP5 MSTORE PUSH1 0x3 PUSH1 0x20 MSTORE DUP4 DUP3 DUP2 KECCAK256 SSTORE DUP4 DUP1 DUP1 DUP1 DUP7 CALLER GAS CALL PUSH2 0x292 PUSH2 0x68A JUMP JUMPDEST POP ISZERO PUSH2 0x2CA JUMPI POP MLOAD SWAP1 DUP2 MSTORE PUSH32 0x358FE4192934D3BF28AE181FEDA1F4BD08CA67F5E2FAD55582CCE5EB67304AE9 PUSH1 0x20 CALLER SWAP3 LOG2 PUSH1 0x1 DUP1 SSTORE DUP1 RETURN JUMPDEST SWAP1 MLOAD PUSH4 0x12171D83 PUSH1 0xE3 SHL DUP2 MSTORE REVERT JUMPDEST SWAP1 MLOAD PUSH4 0x1F612713 PUSH1 0xE3 SHL DUP2 MSTORE REVERT JUMPDEST POP SWAP1 CALLVALUE PUSH2 0x164 JUMPI PUSH1 0x60 CALLDATASIZE PUSH1 0x3 NOT ADD SLT PUSH2 0x164 JUMPI PUSH1 0x1 PUSH1 0x1 PUSH1 0xA0 SHL SUB PUSH1 0x24 CALLDATALOAD DUP2 DUP2 AND SWAP4 SWAP2 SWAP3 SWAP1 DUP5 SWAP1 SUB PUSH2 0x3E3 JUMPI PUSH1 0x44 CALLDATALOAD SWAP3 DUP6 SLOAD AND CALLER EQ ISZERO DUP1 PUSH2 0x3CE JUMPI JUMPDEST PUSH2 0x3C1 JUMPI PUSH2 0x32E PUSH2 0x6EB JUMP JUMPDEST DUP4 ISZERO PUSH2 0x3B4 JUMPI DUP3 ISZERO PUSH2 0x1FF JUMPI SELFBALANCE DUP4 DUP2 LT PUSH2 0x399 JUMPI POP DUP5 DUP1 DUP1 DUP1 DUP7 DUP9 GAS CALL PUSH2 0x353 PUSH2 0x68A JUMP JUMPDEST POP ISZERO PUSH2 0x38C JUMPI PUSH32 0xBEAA99D72A600712E4656A7DA04B2CABE31FB50FBF8F5B5F96513B0A4F495C1A SWAP2 PUSH1 0x20 SWAP2 MLOAD SWAP4 DUP5 MSTORE CALLDATALOAD SWAP3 LOG3 PUSH1 0x1 DUP1 SSTORE DUP1 RETURN JUMPDEST MLOAD PUSH4 0x12171D83 PUSH1 0xE3 SHL DUP2 MSTORE REVERT JUMPDEST SWAP1 SWAP3 PUSH1 0x44 SWAP4 MLOAD SWAP3 PUSH4 0xCF479181 PUSH1 0xE0 SHL DUP5 MSTORE DUP4 ADD MSTORE PUSH1 0x24 DUP3 ADD MSTORE REVERT JUMPDEST MLOAD PUSH4 0xD92E233D PUSH1 0xE0 SHL DUP2 MSTORE REVERT JUMPDEST MLOAD PUSH4 0xEA8E4EB5 PUSH1 0xE0 SHL DUP2 MSTORE REVERT JUMPDEST POP CALLER DUP6 MSTORE DUP2 PUSH1 0x20 MSTORE PUSH1 0xFF DUP2 DUP7 KECCAK256 SLOAD AND ISZERO PUSH2 0x322 JUMP JUMPDEST DUP5 DUP1 REVERT JUMPDEST POP SWAP1 CALLVALUE PUSH2 0x164 JUMPI PUSH1 0x60 CALLDATASIZE PUSH1 0x3 NOT ADD SLT PUSH2 0x164 JUMPI PUSH1 0x1 PUSH1 0x1 PUSH1 0xA0 SHL SUB PUSH1 0x24 CALLDATALOAD DUP2 DUP2 AND SWAP4 SWAP2 SWAP3 SWAP1 DUP5 SWAP1 SUB PUSH2 0x3E3 JUMPI PUSH1 0x44 CALLDATALOAD SWAP3 DUP6 SLOAD AND CALLER EQ ISZERO DUP1 PUSH2 0x48E JUMPI JUMPDEST PUSH2 0x3C1 JUMPI DUP4 ISZERO PUSH2 0x3B4 JUMPI DUP3 ISZERO PUSH2 0x1FF JUMPI DUP4 DUP6 MSTORE PUSH1 0x3 PUSH1 0x20 MSTORE DUP1 DUP6 KECCAK256 DUP1 SLOAD SWAP1 DUP5 DUP3 ADD DUP1 SWAP3 GT PUSH2 0x47B JUMPI SSTORE MLOAD SWAP2 DUP3 MSTORE CALLDATALOAD SWAP1 PUSH32 0x59BBE847B05244289A0AD5285EA1EDAF960D001D8D92D488BFDD44D85713915D SWAP1 PUSH1 0x20 SWAP1 LOG3 DUP1 RETURN JUMPDEST PUSH4 0x4E487B71 PUSH1 0xE0 SHL DUP8 MSTORE PUSH1 0x11 DUP5 MSTORE PUSH1 0x24 DUP8 REVERT JUMPDEST POP CALLER DUP6 MSTORE DUP2 PUSH1 0x20 MSTORE PUSH1 0xFF DUP2 DUP7 KECCAK256 SLOAD AND ISZERO PUSH2 0x423 JUMP JUMPDEST POP POP CALLVALUE PUSH2 0x244 JUMPI DUP2 PUSH1 0x3 NOT CALLDATASIZE ADD SLT PUSH2 0x244 JUMPI SWAP1 SLOAD SWAP1 MLOAD PUSH1 0x1 PUSH1 0x1 PUSH1 0xA0 SHL SUB SWAP1 SWAP2 AND DUP2 MSTORE PUSH1 0x20 SWAP1 RETURN JUMPDEST DUP4 CALLVALUE PUSH2 0x525 JUMPI DUP1 PUSH1 0x3 NOT CALLDATASIZE ADD SLT PUSH2 0x525 JUMPI PUSH2 0x4E4 PUSH2 0x632 JUMP JUMPDEST DUP1 SLOAD PUSH1 0x1 PUSH1 0x1 PUSH1 0xA0 SHL SUB NOT DUP2 AND DUP3 SSTORE DUP2 SWAP1 PUSH1 0x1 PUSH1 0x1 PUSH1 0xA0 SHL SUB AND PUSH32 0x8BE0079C531659141344CD1FD0A4F28419497F9722A3DAAFE3B4186F6B6457E0 DUP3 DUP1 LOG3 DUP1 RETURN JUMPDEST DUP1 REVERT JUMPDEST POP CALLVALUE PUSH2 0x164 JUMPI PUSH1 0x20 CALLDATASIZE PUSH1 0x3 NOT ADD SLT PUSH2 0x164 JUMPI PUSH1 0x20 SWAP3 PUSH1 0xFF SWAP2 DUP4 SWAP2 SWAP1 PUSH1 0x1 PUSH1 0x1 PUSH1 0xA0 SHL SUB PUSH2 0x553 PUSH2 0x617 JUMP JUMPDEST AND DUP3 MSTORE DUP6 MSTORE KECCAK256 SLOAD AND SWAP1 MLOAD SWAP1 ISZERO ISZERO DUP2 MSTORE RETURN JUMPDEST POP SWAP1 CALLVALUE PUSH2 0x164 JUMPI DUP1 PUSH1 0x3 NOT CALLDATASIZE ADD SLT PUSH2 0x164 JUMPI PUSH2 0x57E PUSH2 0x617 JUMP JUMPDEST SWAP2 PUSH1 0x24 CALLDATALOAD DUP1 ISZERO ISZERO DUP1 SWAP2 SUB PUSH2 0x3E3 JUMPI PUSH32 0x100C9FD652C7B273C9266F92F22AC2352EB8D7232013AC0439E9066A9227F369 SWAP4 PUSH2 0x5B6 PUSH2 0x632 JUMP JUMPDEST PUSH1 0x1 PUSH1 0x1 PUSH1 0xA0 SHL SUB AND DUP1 DUP7 MSTORE PUSH1 0x20 SWAP3 DUP4 MSTORE DUP4 DUP7 KECCAK256 DUP1 SLOAD PUSH1 0xFF NOT AND PUSH1 0xFF DUP5 AND OR SWAP1 SSTORE DUP4 MLOAD SWAP1 DUP2 MSTORE SWAP2 DUP3 ADD MSTORE LOG1 DUP1 RETURN JUMPDEST SWAP3 SWAP2 SWAP1 POP CALLVALUE PUSH2 0x613 JUMPI PUSH1 0x20 CALLDATASIZE PUSH1 0x3 NOT ADD SLT PUSH2 0x613 JUMPI CALLDATALOAD DUP4 MSTORE PUSH1 0x2 PUSH1 0x20 SWAP1 DUP2 MSTORE SWAP3 KECCAK256 SLOAD PUSH1 0x1 PUSH1 0x1 PUSH1 0x80 SHL SUB AND DUP2 MSTORE RETURN JUMPDEST DUP4 DUP1 REVERT JUMPDEST PUSH1 0x4 CALLDATALOAD SWAP1 PUSH1 0x1 PUSH1 0x1 PUSH1 0xA0 SHL SUB DUP3 AND DUP3 SUB PUSH2 0x62D JUMPI JUMP JUMPDEST PUSH1 0x0 DUP1 REVERT JUMPDEST PUSH1 0x0 SLOAD PUSH1 0x1 PUSH1 0x1 PUSH1 0xA0 SHL SUB AND CALLER SUB PUSH2 0x646 JUMPI JUMP JUMPDEST PUSH1 0x64 PUSH1 0x40 MLOAD PUSH3 0x461BCD PUSH1 0xE5 SHL DUP2 MSTORE PUSH1 0x20 PUSH1 0x4 DUP3 ADD MSTORE PUSH1 0x20 PUSH1 0x24 DUP3 ADD MSTORE PUSH32 0x4F776E61626C653A2063616C6C6572206973206E6F7420746865206F776E6572 PUSH1 0x44 DUP3 ADD MSTORE REVERT JUMPDEST RETURNDATASIZE ISZERO PUSH2 0x6E6 JUMPI PUSH8 0xFFFFFFFFFFFFFFFF SWAP1 RETURNDATASIZE DUP3 DUP2 GT PUSH2 0x6D0 JUMPI PUSH1 0x40 MLOAD SWAP3 PUSH1 0x1F DUP3 ADD PUSH1 0x1F NOT SWAP1 DUP2 AND PUSH1 0x3F ADD AND DUP5 ADD SWAP1 DUP2 GT DUP5 DUP3 LT OR PUSH2 0x6D0 JUMPI PUSH1 0x40 MSTORE DUP3 MSTORE RETURNDATASIZE PUSH1 0x0 PUSH1 0x20 DUP5 ADD RETURNDATACOPY JUMP JUMPDEST PUSH4 0x4E487B71 PUSH1 0xE0 SHL PUSH1 0x0 MSTORE PUSH1 0x41 PUSH1 0x4 MSTORE PUSH1 0x24 PUSH1 0x0 REVERT JUMPDEST PUSH1 0x60 SWAP1 JUMP JUMPDEST PUSH1 0x2 PUSH1 0x1 SLOAD EQ PUSH2 0x6FC JUMPI PUSH1 0x2 PUSH1 0x1 SSTORE JUMP JUMPDEST PUSH1 0x40 MLOAD PUSH3 0x461BCD PUSH1 0xE5 SHL DUP2 MSTORE PUSH1 0x20 PUSH1 0x4 DUP3 ADD MSTORE PUSH1 0x1F PUSH1 0x24 DUP3 ADD MSTORE PUSH32 0x5265656E7472616E637947756172643A207265656E7472616E742063616C6C00 PUSH1 0x44 DUP3 ADD MSTORE PUSH1 0x64 SWAP1 REVERT INVALID LOG2 PUSH5 0x6970667358 0x22 SLT KECCAK256 EQ POP GT MSTORE8 MULMOD 0xDD BALANCE 0xD3 0x25 0xEC 0xE9 PUSH1 0xD1 0xF6 SWAP8 0xC4 GAS PUSH26 0xB5343BE4FCAED58BA648CDCE5E7B64736F6C6343000814003300 "},"methodIdentifiers":{"authorizedCallers(address)":"536fff6c","claimRefund()":"b5545a3c","depositPremium(uint256)":"eeab8ed0","owner()":"8da5cb5b","payout(uint256,address,uint256)":"ae2f5d93","pendingRefunds(address)":"b613b114","premiums(uint256)":"09464261","refundPremium(uint256,address,uint256)":"8e65d632","renounceOwnership()":"715018a6","setAuthorizedCaller(address,bool)":"454bbd29","transferOwnership(address)":"f2fde38b"}}}}}