{"contracts/core/KilimaShieldOracle.sol":{"KilimaShieldOracle":{"abi":[{"inputs":[{"internalType":"address","name":"_policyRegistry","type":"address"},{"internalType":"address payable","name":"_escrowVault","type":"address"}],"stateMutability":"nonpayable","type":"constructor"},{"inputs":[{"internalType":"address","name":"oracle","type":"address"},{"internalType":"bytes32","name":"h3Index","type":"bytes32"},{"internalType":"uint256","name":"timestamp","type":"uint256"}],"name":"DuplicateSubmission","type":"error"},{"inputs":[{"internalType":"bytes32","name":"h3Index","type":"bytes32"}],"name":"InvalidH3Index","type":"error"},{"inputs":[],"name":"InvalidOracleAddress","type":"error"},{"inputs":[],"name":"PremiumRequired","type":"error"},{"inputs":[{"internalType":"address","name":"signer","type":"address"}],"name":"UnauthorizedOracle","type":"error"},{"inputs":[],"name":"ZeroAddress","type":"error"},{"anonymous":false,"inputs":[{"indexed":true,"internalType":"bytes32","name":"h3Index","type":"bytes32"},{"indexed":false,"internalType":"uint256","name":"timestamp","type":"uint256"},{"indexed":false,"internalType":"uint256","name":"medianRainfall","type":"uint256"},{"indexed":false,"internalType":"uint256","name":"medianNdvi","type":"uint256"}],"name":"ConsensusReached","type":"event"},{"anonymous":false,"inputs":[{"indexed":true,"internalType":"address","name":"oracle","type":"address"},{"indexed":true,"internalType":"bytes32","name":"h3Index","type":"bytes32"},{"indexed":false,"internalType":"uint256","name":"timestamp","type":"uint256"}],"name":"DataSubmitted","type":"event"},{"anonymous":false,"inputs":[{"indexed":true,"internalType":"address","name":"oracle","type":"address"},{"indexed":false,"internalType":"bool","name":"authorized","type":"bool"}],"name":"OracleAuthorized","type":"event"},{"anonymous":false,"inputs":[{"indexed":true,"internalType":"address","name":"previousOwner","type":"address"},{"indexed":true,"internalType":"address","name":"newOwner","type":"address"}],"name":"OwnershipTransferred","type":"event"},{"anonymous":false,"inputs":[{"indexed":true,"internalType":"uint256","name":"policyId","type":"uint256"},{"indexed":true,"internalType":"address","name":"farmer","type":"address"},{"indexed":false,"internalType":"uint256","name":"amount","type":"uint256"}],"name":"PayoutTriggered","type":"event"},{"anonymous":false,"inputs":[{"indexed":true,"internalType":"uint256","name":"policyId","type":"uint256"},{"indexed":true,"internalType":"address","name":"farmer","type":"address"},{"indexed":true,"internalType":"bytes32","name":"h3Index","type":"bytes32"}],"name":"PolicyRegistered","type":"event"},{"inputs":[],"name":"escrowVault","outputs":[{"internalType":"contract EscrowVault","name":"","type":"address"}],"stateMutability":"view","type":"function"},{"inputs":[{"internalType":"uint256","name":"a","type":"uint256"},{"internalType":"uint256","name":"b","type":"uint256"},{"internalType":"uint256","name":"c","type":"uint256"}],"name":"getMedian","outputs":[{"internalType":"uint256","name":"","type":"uint256"}],"stateMutability":"pure","type":"function"},{"inputs":[{"internalType":"address","name":"","type":"address"}],"name":"isAuthorizedOracle","outputs":[{"internalType":"bool","name":"","type":"bool"}],"stateMutability":"view","type":"function"},{"inputs":[],"name":"oracleCount","outputs":[{"internalType":"uint256","name":"","type":"uint256"}],"stateMutability":"view","type":"function"},{"inputs":[],"name":"owner","outputs":[{"internalType":"address","name":"","type":"address"}],"stateMutability":"view","type":"function"},{"inputs":[],"name":"policyRegistry","outputs":[{"internalType":"contract PolicyRegistry","name":"","type":"address"}],"stateMutability":"view","type":"function"},{"inputs":[{"internalType":"uint256","name":"policyId","type":"uint256"},{"internalType":"address","name":"farmer","type":"address"},{"internalType":"bytes32","name":"h3Index","type":"bytes32"},{"internalType":"uint128","name":"threshold","type":"uint128"},{"internalType":"uint128","name":"payoutAmount","type":"uint128"}],"name":"registerPolicy","outputs":[],"stateMutability":"payable","type":"function"},{"inputs":[],"name":"renounceOwnership","outputs":[],"stateMutability":"nonpayable","type":"function"},{"inputs":[{"internalType":"address","name":"oracle","type":"address"},{"internalType":"bool","name":"authorized","type":"bool"}],"name":"setAuthorizedOracle","outputs":[],"stateMutability":"nonpayable","type":"function"},{"inputs":[{"internalType":"bytes32","name":"","type":"bytes32"},{"internalType":"uint256","name":"","type":"uint256"},{"internalType":"address","name":"","type":"address"}],"name":"submissions","outputs":[{"internalType":"uint128","name":"rainfall","type":"uint128"},{"internalType":"uint112","name":"ndvi","type":"uint112"},{"internalType":"bool","name":"exists","type":"bool"}],"stateMutability":"view","type":"function"},{"inputs":[{"internalType":"bytes32","name":"h3Index","type":"bytes32"},{"internalType":"uint256","name":"timestamp","type":"uint256"},{"internalType":"uint256","name":"rainfall","type":"uint256"},{"internalType":"uint256","name":"ndvi","type":"uint256"},{"internalType":"bytes","name":"signature","type":"bytes"}],"name":"submitData","outputs":[],"stateMutability":"nonpayable","type":"function"},{"inputs":[{"internalType":"bytes32","name":"","type":"bytes32"},{"internalType":"uint256","name":"","type":"uint256"},{"internalType":"uint256","name":"","type":"uint256"}],"name":"submitters","outputs":[{"internalType":"address","name":"","type":"address"}],"stateMutability":"view","type":"function"},{"inputs":[{"internalType":"address","name":"newOwner","type":"address"}],"name":"transferOwnership","outputs":[],"stateMutability":"nonpayable","type":"function"}],"evm":{"bytecode":{"linkReferences":{},"object":"6080346100f257601f61151638819003918201601f19168301916001600160401b038311848410176100f75780849260409485528339810103126100f25780516001600160a01b038082169290918390036100f25760200151918183168093036100f2576000549160018060a01b0319923384821617600055604051913391167f8be0079c531659141344cd1fd0a4f28419497f9722a3daafe3b4186f6b6457e0600080a381156100e3575082156100d1578160015416176001556002541617600255604051611408908161010e8239f35b60405163d92e233d60e01b8152600490fd5b63d92e233d60e01b8152600490fd5b600080fd5b634e487b7160e01b600052604160045260246000fdfe6080604052600436101561001257600080fd5b60003560e01c80631c4dd7d0146100e7578063613d8fcc146100e25780636e74ba84146100dd578063715018a6146100d85780638a2ae60b146100d35780638c41c699146100ce5780638da5cb5b146100c9578063b9df9668146100c4578063bfe609da146100bf578063c7a6de4d146100ba578063d4d85c4b146100b5578063d96539a0146100b05763f2fde38b146100ab57600080fd5b610719565b6106ed565b610539565b6103e6565b61039a565b610339565b610310565b610287565b610233565b6101d8565b610176565b610125565b6100fc565b60009103126100f757565b600080fd5b346100f75760003660031901126100f7576001546040516001600160a01b039091168152602090f35b346100f75760003660031901126100f7576020600454604051908152f35b634e487b7160e01b600052603260045260246000fd5b80548210156101715760005260206000200190600090565b610143565b346100f75760603660031901126100f757604435600060043581526006602052604081206024358252602052604081209081548310156101d55760206101bc8484610159565b905460405160039290921b1c6001600160a01b03168152f35b80fd5b346100f7576000806003193601126101d5576101f26107e0565b80546001600160a01b03198116825581906001600160a01b03167f8be0079c531659141344cd1fd0a4f28419497f9722a3daafe3b4186f6b6457e08280a380f35b346100f75760003660031901126100f7576002546040516001600160a01b039091168152602090f35b6001600160a01b038116036100f757565b6001600160a01b0316600090815260036020526040902090565b346100f75760603660031901126100f75760606102de6044356102a98161025c565b6004356000526005602052604060002060243560005260205260406000209060018060a01b0316600052602052604060002090565b5460ff604051916001600160801b03811683526001600160701b038160801c16602084015260f01c1615156040820152f35b346100f75760003660031901126100f7576000546040516001600160a01b039091168152602090f35b346100f75760a03660031901126100f75760843567ffffffffffffffff8082116100f757366023830112156100f75781600401359081116100f75736602482840101116100f7576024610398920160643560443560243560043561097e565b005b346100f75760203660031901126100f7576004356103b78161025c565b60018060a01b03166000526003602052602060ff604060002054166040519015158152f35b801515036100f757565b346100f75760403660031901126100f7576004356104038161025c565b60243561040f816103dc565b6104176107e0565b6001600160a01b03821691821561051657816104868161047561049894827f82a8fb1e779ea45ad427cc612e47087f5386a567e49dce488185e40646fa48d597906104e7575b1561049d5761026d610470600454610860565b600455565b9060ff801983541691151516179055565b60405190151581529081906020820190565b0390a2005b8215806104bd575b1561026d576104b861047060045461084e565b61026d565b506001600160a01b03811660009081526003602052604090206104e2905b5460ff1690565b6104a5565b506001600160a01b03811660009081526003602052604090206105119061050d906104db565b1590565b61045d565b604051635521068160e01b8152600490fd5b6001600160801b038116036100f757565b60a03660031901126100f7576024356004356105548261025c565b604435906064359261056584610528565b60843561057181610528565b6105796107e0565b61058561050d856113a1565b6106d45734156106c2576001546105ac906001600160a01b03165b6001600160a01b031690565b90813b156100f75760405163d4d85c4b60e01b8152600481018590526001600160a01b0384166024820152604481018690526001600160801b03968716606482015295166084860152600094908590829060a490829084905af180156106a6576106af575b50600254610627906001600160a01b03166105a0565b803b156106ab57604051630eeab8ed60e41b8152600481018490529085908290602490829034905af180156106a65761068d575b506001600160a01b0316907fcf3a4893cb3f0add7f10e3efef2991b7863b597aefd01e4174e48be4cca3f4768480a480f35b8061069a6106a092610885565b806100ec565b3861065b565b6108dc565b8480fd5b8061069a6106bc92610885565b38610611565b604051637e1e0e5b60e01b8152600490fd5b60405163706272a960e11b815260048101859052602490fd5b346100f75760603660031901126100f757602061071160443560243560043561121c565b604051908152f35b346100f75760203660031901126100f7576004356107368161025c565b61073e6107e0565b6001600160a01b03908116801561078c57600080546001600160a01b03198116831782559092167f8be0079c531659141344cd1fd0a4f28419497f9722a3daafe3b4186f6b6457e08380a380f35b60405162461bcd60e51b815260206004820152602660248201527f4f776e61626c653a206e6577206f776e657220697320746865207a65726f206160448201526564647265737360d01b6064820152608490fd5b6000546001600160a01b031633036107f457565b606460405162461bcd60e51b815260206004820152602060248201527f4f776e61626c653a2063616c6c6572206973206e6f7420746865206f776e65726044820152fd5b634e487b7160e01b600052601160045260246000fd5b801561085b576000190190565b610838565b600019811461085b5760010190565b634e487b7160e01b600052604160045260246000fd5b67ffffffffffffffff811161089957604052565b61086f565b6060810190811067ffffffffffffffff82111761089957604052565b90601f8019910116810190811067ffffffffffffffff82111761089957604052565b6040513d6000823e3d90fd5b604051906108f58261089e565b565b92919267ffffffffffffffff82116108995760405191610921601f8201601f1916602001846108ba565b8294818452818301116100f7578281602093846000960137010152565b8054680100000000000000008110156108995761096091600182018155610159565b819291549060031b9160018060a01b03809116831b921b1916179055565b94909361098d61050d876113a1565b610c0557906109ec6109f2926109e488866109dc8a6109ce8b6040519485936020850197889290916080949284526020840152604083015260608201520190565b03601f1981018352826108ba565b51902061135e565b9236916108f7565b906112b1565b91610a1561050d6104db8560018060a01b03166000526003602052604060002090565b610be457610a68610a5e84610a4787610a388a6000526005602052604060002090565b90600052602052604060002090565b9060018060a01b0316600052602052604060002090565b5460f01c60ff1690565b610bb557849291610ab36001600160701b03610b2e93610aa26001600160801b03610a916108e8565b951685906001600160801b03169052565b166001600160701b03166020830152565b60016040820152610ad683610a4787610a38886000526005602052604060002090565b81518154602084015160409094015160ff60f01b90151560f01b166dffffffffffffffffffffffffffff60801b60809590951b949094166001600160801b039092166001600160f81b03199091161717919091179055565b610b4f81610b4a85610a38866000526006602052604060002090565b61093e565b6040518381526001600160a01b0391909116907f0f64771ec9547f883a107f8226a072ad98743a848432de28433576863c2eab5990602090a36003610ba282610a38856000526006602052604060002090565b5414610bac575050565b6108f591610d05565b60405163a49df9db60e01b81526001600160a01b03841660048201526024810186905260448101859052606490fd5b6040516391e4784360e01b81526001600160a01b0384166004820152602490fd5b60405163706272a960e11b815260048101879052602490fd5b9060405191828154918282526020928383019160005283600020936000905b828210610c53575050506108f5925003836108ba565b85546001600160a01b031684526001958601958895509381019390910190610c3d565b8051156101715760200190565b8051600110156101715760400190565b8051600210156101715760600190565b80518210156101715760209160051b010190565b906040516060810181811067ffffffffffffffff82111761089957604052604060ff8294546001600160801b03811684526001600160701b038160801c16602085015260f01c161515910152565b806020917fcff36dffb395320017e6e2a92054400eb09b8ac406c40044ff3cf91bbba1c1c16108f594610d4e610d4982610a38866000526006602052604060002090565b610c1e565b90610ea7610e8a85610dfd610da9610dae610da9610d7a88610a38876000526005602052604060002090565b610d93610d868b610c76565b516001600160a01b031690565b60018060a01b0316600052602052604060002090565b610cb7565b96610d93610d86610df789610a38610de6610da9610dda84610a388d6000526005602052604060002090565b610d93610d868a610c83565b986000526005602052604060002090565b92610c93565b90610e448a610e6e81610e5f610e4e610e1d8c516001600160801b031690565b87516001600160801b0316906001600160801b038080610e448d516001600160801b031690565b169316911661121c565b9e8f9b01516001600160701b031690565b9401516001600160701b031690565b936001600160701b03928392839201516001600160701b031690565b604051938493846040919493926060820195825260208201520152565b0390a2610f8b565b9060209081838203126100f757825167ffffffffffffffff938482116100f7570181601f820112156100f7578051938411610899578360051b9060405194610ef9858401876108ba565b855283808601928201019283116100f7578301905b828210610f1c575050505090565b81518152908301908301610f0e565b908160e09103126100f7578051916020820151610f478161025c565b916040810151916060820151610f5c81610528565b916080810151610f6b81610528565b9160c060a0830151610f7c816103dc565b920151610f88816103dc565b90565b6001805490929190610fa5906001600160a01b03166105a0565b604080516398414ca560e01b8152600480820194909452936000929091908390869060249082905afa9485156106a65783956111f8575b50845194835b868110610ff3575050505050505050565b610ffd8183610ca3565b518854909190611015906001600160a01b03166105a0565b8451632b07fce360e01b8152888101848152909360e092918390869081906020010381855afa9182156106a657898d9681948291839784926111ba575b5050826111b1575b508161119e575b50611071575b5050505001610fe2565b8091929395503b15611187578651632340fee960e11b8152808b0183815290918a9183919082908490829060200103925af180156106a65761118b575b506002546110c4906001600160a01b03166105a0565b6001600160a01b0390921691803b1561118757865163ae2f5d9360e01b8152808b018381526001600160a01b03851660208201526001600160801b038716604082015290918a9183919082908490829060600103925af180156106a6578c957f7884580f743f908c98258afac53f9e0929cd6787b3488df80e096df15409ef8f9261116892611174575b5088516001600160801b0390911681529081906020820190565b0390a338808080611067565b8061069a61118192610885565b3861114e565b8880fd5b8061069a61119892610885565b386110ae565b6001600160801b03915016891038611061565b1591503861105a565b935093955050506111e1929450803d106111f1575b6111d981836108ba565b810190610f2b565b9197949694955092503880611052565b503d6111cf565b6112159195503d8085833e61120d81836108ba565b810190610eaf565b9338610fdc565b9080821115908180611295575b8015611280575b61127957821015908161126e575b8115611253575b5061124e575090565b905090565b82841115915081611266575b5038611245565b90503861125f565b83831115915061123e565b9250505090565b50808411158015611230575082811115611230565b5083811115611229565b60ff601b9116019060ff821161085b57565b9060418151036113575760009160208201519260606040840151930151901a90601b8210611347575b60ff8216601b811415908161133b575b506113325761131e600093602095604051948594859094939260ff6060936080840197845216602083015260408201520152565b838052039060015afa156106a65760005190565b50505050600090565b601c91501415386112ea565b906113519061129f565b906112da565b5050600090565b60405160208101917f19457468657265756d205369676e6564204d6573736167653a0a3332000000008352603c820152603c815261139b8161089e565b51902090565b80156113cc576001600f82603b1c16036113cc57600f809160341c16116113c757600190565b600090565b5060009056fea2646970667358221220e29c905ceedfc68d3c9530ce5e0b7a4706931680ed4308f346aecd529034afd464736f6c63430008140033","opcodes":"PUSH1 0x80 CALLVALUE PUSH2 0xF2 JUMPI PUSH1 0x1F PUSH2 0x1516 CODESIZE DUP2 SWAP1 SUB SWAP2 DUP3 ADD PUSH1 0x1F NOT AND DUP4 ADD SWAP2 PUSH1 0x1 PUSH1 0x1 PUSH1 0x40 SHL SUB DUP4 GT DUP5 DUP5 LT OR PUSH2 0xF7 JUMPI DUP1 DUP5 SWAP3 PUSH1 0x40 SWAP5 DUP6 MSTORE DUP4 CODECOPY DUP2 ADD SUB SLT PUSH2 0xF2 JUMPI DUP1 MLOAD PUSH1 0x1 PUSH1 0x1 PUSH1 0xA0 SHL SUB DUP1 DUP3 AND SWAP3 SWAP1 SWAP2 DUP4 SWAP1 SUB PUSH2 0xF2 JUMPI PUSH1 0x20 ADD MLOAD SWAP2 DUP2 DUP4 AND DUP1 SWAP4 SUB PUSH2 0xF2 JUMPI PUSH1 0x0 SLOAD SWAP2 PUSH1 0x1 DUP1 PUSH1 0xA0 SHL SUB NOT SWAP3 CALLER DUP5 DUP3 AND OR PUSH1 0x0 SSTORE PUSH1 0x40 MLOAD SWAP2 CALLER SWAP2 AND PUSH32 0x8BE0079C531659141344CD1FD0A4F28419497F9722A3DAAFE3B4186F6B6457E0 PUSH1 0x0 DUP1 LOG3 DUP2 ISZERO PUSH2 0xE3 JUMPI POP DUP3 ISZERO PUSH2 0xD1 JUMPI DUP2 PUSH1 0x1 SLOAD AND OR PUSH1 0x1 SSTORE PUSH1 0x2 SLOAD AND OR PUSH1 0x2 SSTORE PUSH1 0x40 MLOAD PUSH2 0x1408 SWAP1 DUP2 PUSH2 0x10E DUP3 CODECOPY RETURN JUMPDEST PUSH1 0x40 MLOAD PUSH4 0xD92E233D PUSH1 0xE0 SHL DUP2 MSTORE PUSH1 0x4 SWAP1 REVERT JUMPDEST PUSH4 0xD92E233D PUSH1 0xE0 SHL DUP2 MSTORE PUSH1 0x4 SWAP1 REVERT JUMPDEST PUSH1 0x0 DUP1 REVERT JUMPDEST PUSH4 0x4E487B71 PUSH1 0xE0 SHL PUSH1 0x0 MSTORE PUSH1 0x41 PUSH1 0x4 MSTORE PUSH1 0x24 PUSH1 0x0 REVERT INVALID PUSH1 0x80 PUSH1 0x40 MSTORE PUSH1 0x4 CALLDATASIZE LT ISZERO PUSH2 0x12 JUMPI PUSH1 0x0 DUP1 REVERT JUMPDEST PUSH1 0x0 CALLDATALOAD PUSH1 0xE0 SHR DUP1 PUSH4 0x1C4DD7D0 EQ PUSH2 0xE7 JUMPI DUP1 PUSH4 0x613D8FCC EQ PUSH2 0xE2 JUMPI DUP1 PUSH4 0x6E74BA84 EQ PUSH2 0xDD JUMPI DUP1 PUSH4 0x715018A6 EQ PUSH2 0xD8 JUMPI DUP1 PUSH4 0x8A2AE60B EQ PUSH2 0xD3 JUMPI DUP1 PUSH4 0x8C41C699 EQ PUSH2 0xCE JUMPI DUP1 PUSH4 0x8DA5CB5B EQ PUSH2 0xC9 JUMPI DUP1 PUSH4 0xB9DF9668 EQ PUSH2 0xC4 JUMPI DUP1 PUSH4 0xBFE609DA EQ PUSH2 0xBF JUMPI DUP1 PUSH4 0xC7A6DE4D EQ PUSH2 0xBA JUMPI DUP1 PUSH4 0xD4D85C4B EQ PUSH2 0xB5 JUMPI DUP1 PUSH4 0xD96539A0 EQ PUSH2 0xB0 JUMPI PUSH4 0xF2FDE38B EQ PUSH2 0xAB JUMPI PUSH1 0x0 DUP1 REVERT JUMPDEST PUSH2 0x719 JUMP JUMPDEST PUSH2 0x6ED JUMP JUMPDEST PUSH2 0x539 JUMP JUMPDEST PUSH2 0x3E6 JUMP JUMPDEST PUSH2 0x39A JUMP JUMPDEST PUSH2 0x339 JUMP JUMPDEST PUSH2 0x310 JUMP JUMPDEST PUSH2 0x287 JUMP JUMPDEST PUSH2 0x233 JUMP JUMPDEST PUSH2 0x1D8 JUMP JUMPDEST PUSH2 0x176 JUMP JUMPDEST PUSH2 0x125 JUMP JUMPDEST PUSH2 0xFC JUMP JUMPDEST PUSH1 0x0 SWAP2 SUB SLT PUSH2 0xF7 JUMPI JUMP JUMPDEST PUSH1 0x0 DUP1 REVERT JUMPDEST CALLVALUE PUSH2 0xF7 JUMPI PUSH1 0x0 CALLDATASIZE PUSH1 0x3 NOT ADD SLT PUSH2 0xF7 JUMPI PUSH1 0x1 SLOAD PUSH1 0x40 MLOAD PUSH1 0x1 PUSH1 0x1 PUSH1 0xA0 SHL SUB SWAP1 SWAP2 AND DUP2 MSTORE PUSH1 0x20 SWAP1 RETURN JUMPDEST CALLVALUE PUSH2 0xF7 JUMPI PUSH1 0x0 CALLDATASIZE PUSH1 0x3 NOT ADD SLT PUSH2 0xF7 JUMPI PUSH1 0x20 PUSH1 0x4 SLOAD PUSH1 0x40 MLOAD SWAP1 DUP2 MSTORE RETURN JUMPDEST PUSH4 0x4E487B71 PUSH1 0xE0 SHL PUSH1 0x0 MSTORE PUSH1 0x32 PUSH1 0x4 MSTORE PUSH1 0x24 PUSH1 0x0 REVERT JUMPDEST DUP1 SLOAD DUP3 LT ISZERO PUSH2 0x171 JUMPI PUSH1 0x0 MSTORE PUSH1 0x20 PUSH1 0x0 KECCAK256 ADD SWAP1 PUSH1 0x0 SWAP1 JUMP JUMPDEST PUSH2 0x143 JUMP JUMPDEST CALLVALUE PUSH2 0xF7 JUMPI PUSH1 0x60 CALLDATASIZE PUSH1 0x3 NOT ADD SLT PUSH2 0xF7 JUMPI PUSH1 0x44 CALLDATALOAD PUSH1 0x0 PUSH1 0x4 CALLDATALOAD DUP2 MSTORE PUSH1 0x6 PUSH1 0x20 MSTORE PUSH1 0x40 DUP2 KECCAK256 PUSH1 0x24 CALLDATALOAD DUP3 MSTORE PUSH1 0x20 MSTORE PUSH1 0x40 DUP2 KECCAK256 SWAP1 DUP2 SLOAD DUP4 LT ISZERO PUSH2 0x1D5 JUMPI PUSH1 0x20 PUSH2 0x1BC DUP5 DUP5 PUSH2 0x159 JUMP JUMPDEST SWAP1 SLOAD PUSH1 0x40 MLOAD PUSH1 0x3 SWAP3 SWAP1 SWAP3 SHL SHR PUSH1 0x1 PUSH1 0x1 PUSH1 0xA0 SHL SUB AND DUP2 MSTORE RETURN JUMPDEST DUP1 REVERT JUMPDEST CALLVALUE PUSH2 0xF7 JUMPI PUSH1 0x0 DUP1 PUSH1 0x3 NOT CALLDATASIZE ADD SLT PUSH2 0x1D5 JUMPI PUSH2 0x1F2 PUSH2 0x7E0 JUMP JUMPDEST DUP1 SLOAD PUSH1 0x1 PUSH1 0x1 PUSH1 0xA0 SHL SUB NOT DUP2 AND DUP3 SSTORE DUP2 SWAP1 PUSH1 0x1 PUSH1 0x1 PUSH1 0xA0 SHL SUB AND PUSH32 0x8BE0079C531659141344CD1FD0A4F28419497F9722A3DAAFE3B4186F6B6457E0 DUP3 DUP1 LOG3 DUP1 RETURN JUMPDEST CALLVALUE PUSH2 0xF7 JUMPI PUSH1 0x0 CALLDATASIZE PUSH1 0x3 NOT ADD SLT PUSH2 0xF7 JUMPI PUSH1 0x2 SLOAD PUSH1 0x40 MLOAD PUSH1 0x1 PUSH1 0x1 PUSH1 0xA0 SHL SUB SWAP1 SWAP2 AND DUP2 MSTORE PUSH1 0x20 SWAP1 RETURN JUMPDEST PUSH1 0x1 PUSH1 0x1 PUSH1 0xA0 SHL SUB DUP2 AND SUB PUSH2 0xF7 JUMPI JUMP JUMPDEST PUSH1 0x1 PUSH1 0x1 PUSH1 0xA0 SHL SUB AND PUSH1 0x0 SWAP1 DUP2 MSTORE PUSH1 0x3 PUSH1 0x20 MSTORE PUSH1 0x40 SWAP1 KECCAK256 SWAP1 JUMP JUMPDEST CALLVALUE PUSH2 0xF7 JUMPI PUSH1 0x60 CALLDATASIZE PUSH1 0x3 NOT ADD SLT PUSH2 0xF7 JUMPI PUSH1 0x60 PUSH2 0x2DE PUSH1 0x44 CALLDATALOAD PUSH2 0x2A9 DUP2 PUSH2 0x25C JUMP JUMPDEST PUSH1 0x4 CALLDATALOAD PUSH1 0x0 MSTORE PUSH1 0x5 PUSH1 0x20 MSTORE PUSH1 0x40 PUSH1 0x0 KECCAK256 PUSH1 0x24 CALLDATALOAD PUSH1 0x0 MSTORE PUSH1 0x20 MSTORE PUSH1 0x40 PUSH1 0x0 KECCAK256 SWAP1 PUSH1 0x1 DUP1 PUSH1 0xA0 SHL SUB AND PUSH1 0x0 MSTORE PUSH1 0x20 MSTORE PUSH1 0x40 PUSH1 0x0 KECCAK256 SWAP1 JUMP JUMPDEST SLOAD PUSH1 0xFF PUSH1 0x40 MLOAD SWAP2 PUSH1 0x1 PUSH1 0x1 PUSH1 0x80 SHL SUB DUP2 AND DUP4 MSTORE PUSH1 0x1 PUSH1 0x1 PUSH1 0x70 SHL SUB DUP2 PUSH1 0x80 SHR AND PUSH1 0x20 DUP5 ADD MSTORE PUSH1 0xF0 SHR AND ISZERO ISZERO PUSH1 0x40 DUP3 ADD MSTORE RETURN JUMPDEST CALLVALUE PUSH2 0xF7 JUMPI PUSH1 0x0 CALLDATASIZE PUSH1 0x3 NOT ADD SLT PUSH2 0xF7 JUMPI PUSH1 0x0 SLOAD PUSH1 0x40 MLOAD PUSH1 0x1 PUSH1 0x1 PUSH1 0xA0 SHL SUB SWAP1 SWAP2 AND DUP2 MSTORE PUSH1 0x20 SWAP1 RETURN JUMPDEST CALLVALUE PUSH2 0xF7 JUMPI PUSH1 0xA0 CALLDATASIZE PUSH1 0x3 NOT ADD SLT PUSH2 0xF7 JUMPI PUSH1 0x84 CALLDATALOAD PUSH8 0xFFFFFFFFFFFFFFFF DUP1 DUP3 GT PUSH2 0xF7 JUMPI CALLDATASIZE PUSH1 0x23 DUP4 ADD SLT ISZERO PUSH2 0xF7 JUMPI DUP2 PUSH1 0x4 ADD CALLDATALOAD SWAP1 DUP2 GT PUSH2 0xF7 JUMPI CALLDATASIZE PUSH1 0x24 DUP3 DUP5 ADD ADD GT PUSH2 0xF7 JUMPI PUSH1 0x24 PUSH2 0x398 SWAP3 ADD PUSH1 0x64 CALLDATALOAD PUSH1 0x44 CALLDATALOAD PUSH1 0x24 CALLDATALOAD PUSH1 0x4 CALLDATALOAD PUSH2 0x97E JUMP JUMPDEST STOP JUMPDEST CALLVALUE PUSH2 0xF7 JUMPI PUSH1 0x20 CALLDATASIZE PUSH1 0x3 NOT ADD SLT PUSH2 0xF7 JUMPI PUSH1 0x4 CALLDATALOAD PUSH2 0x3B7 DUP2 PUSH2 0x25C JUMP JUMPDEST PUSH1 0x1 DUP1 PUSH1 0xA0 SHL SUB AND PUSH1 0x0 MSTORE PUSH1 0x3 PUSH1 0x20 MSTORE PUSH1 0x20 PUSH1 0xFF PUSH1 0x40 PUSH1 0x0 KECCAK256 SLOAD AND PUSH1 0x40 MLOAD SWAP1 ISZERO ISZERO DUP2 MSTORE RETURN JUMPDEST DUP1 ISZERO ISZERO SUB PUSH2 0xF7 JUMPI JUMP JUMPDEST CALLVALUE PUSH2 0xF7 JUMPI PUSH1 0x40 CALLDATASIZE PUSH1 0x3 NOT ADD SLT PUSH2 0xF7 JUMPI PUSH1 0x4 CALLDATALOAD PUSH2 0x403 DUP2 PUSH2 0x25C JUMP JUMPDEST PUSH1 0x24 CALLDATALOAD PUSH2 0x40F DUP2 PUSH2 0x3DC JUMP JUMPDEST PUSH2 0x417 PUSH2 0x7E0 JUMP JUMPDEST PUSH1 0x1 PUSH1 0x1 PUSH1 0xA0 SHL SUB DUP3 AND SWAP2 DUP3 ISZERO PUSH2 0x516 JUMPI DUP2 PUSH2 0x486 DUP2 PUSH2 0x475 PUSH2 0x498 SWAP5 DUP3 PUSH32 0x82A8FB1E779EA45AD427CC612E47087F5386A567E49DCE488185E40646FA48D5 SWAP8 SWAP1 PUSH2 0x4E7 JUMPI JUMPDEST ISZERO PUSH2 0x49D JUMPI PUSH2 0x26D PUSH2 0x470 PUSH1 0x4 SLOAD PUSH2 0x860 JUMP JUMPDEST PUSH1 0x4 SSTORE JUMP JUMPDEST SWAP1 PUSH1 0xFF DUP1 NOT DUP4 SLOAD AND SWAP2 ISZERO ISZERO AND OR SWAP1 SSTORE JUMP JUMPDEST PUSH1 0x40 MLOAD SWAP1 ISZERO ISZERO DUP2 MSTORE SWAP1 DUP2 SWAP1 PUSH1 0x20 DUP3 ADD SWAP1 JUMP JUMPDEST SUB SWAP1 LOG2 STOP JUMPDEST DUP3 ISZERO DUP1 PUSH2 0x4BD JUMPI JUMPDEST ISZERO PUSH2 0x26D JUMPI PUSH2 0x4B8 PUSH2 0x470 PUSH1 0x4 SLOAD PUSH2 0x84E JUMP JUMPDEST PUSH2 0x26D JUMP JUMPDEST POP PUSH1 0x1 PUSH1 0x1 PUSH1 0xA0 SHL SUB DUP2 AND PUSH1 0x0 SWAP1 DUP2 MSTORE PUSH1 0x3 PUSH1 0x20 MSTORE PUSH1 0x40 SWAP1 KECCAK256 PUSH2 0x4E2 SWAP1 JUMPDEST SLOAD PUSH1 0xFF AND SWAP1 JUMP JUMPDEST PUSH2 0x4A5 JUMP JUMPDEST POP PUSH1 0x1 PUSH1 0x1 PUSH1 0xA0 SHL SUB DUP2 AND PUSH1 0x0 SWAP1 DUP2 MSTORE PUSH1 0x3 PUSH1 0x20 MSTORE PUSH1 0x40 SWAP1 KECCAK256 PUSH2 0x511 SWAP1 PUSH2 0x50D SWAP1 PUSH2 0x4DB JUMP JUMPDEST ISZERO SWAP1 JUMP JUMPDEST PUSH2 0x45D JUMP JUMPDEST PUSH1 0x40 MLOAD PUSH4 0x55210681 PUSH1 0xE0 SHL DUP2 MSTORE PUSH1 0x4 SWAP1 REVERT JUMPDEST PUSH1 0x1 PUSH1 0x1 PUSH1 0x80 SHL SUB DUP2 AND SUB PUSH2 0xF7 JUMPI JUMP JUMPDEST PUSH1 0xA0 CALLDATASIZE PUSH1 0x3 NOT ADD SLT PUSH2 0xF7 JUMPI PUSH1 0x24 CALLDATALOAD PUSH1 0x4 CALLDATALOAD PUSH2 0x554 DUP3 PUSH2 0x25C JUMP JUMPDEST PUSH1 0x44 CALLDATALOAD SWAP1 PUSH1 0x64 CALLDATALOAD SWAP3 PUSH2 0x565 DUP5 PUSH2 0x528 JUMP JUMPDEST PUSH1 0x84 CALLDATALOAD PUSH2 0x571 DUP2 PUSH2 0x528 JUMP JUMPDEST PUSH2 0x579 PUSH2 0x7E0 JUMP JUMPDEST PUSH2 0x585 PUSH2 0x50D DUP6 PUSH2 0x13A1 JUMP JUMPDEST PUSH2 0x6D4 JUMPI CALLVALUE ISZERO PUSH2 0x6C2 JUMPI PUSH1 0x1 SLOAD PUSH2 0x5AC SWAP1 PUSH1 0x1 PUSH1 0x1 PUSH1 0xA0 SHL SUB AND JUMPDEST PUSH1 0x1 PUSH1 0x1 PUSH1 0xA0 SHL SUB AND SWAP1 JUMP JUMPDEST SWAP1 DUP2 EXTCODESIZE ISZERO PUSH2 0xF7 JUMPI PUSH1 0x40 MLOAD PUSH4 0xD4D85C4B PUSH1 0xE0 SHL DUP2 MSTORE PUSH1 0x4 DUP2 ADD DUP6 SWAP1 MSTORE PUSH1 0x1 PUSH1 0x1 PUSH1 0xA0 SHL SUB DUP5 AND PUSH1 0x24 DUP3 ADD MSTORE PUSH1 0x44 DUP2 ADD DUP7 SWAP1 MSTORE PUSH1 0x1 PUSH1 0x1 PUSH1 0x80 SHL SUB SWAP7 DUP8 AND PUSH1 0x64 DUP3 ADD MSTORE SWAP6 AND PUSH1 0x84 DUP7 ADD MSTORE PUSH1 0x0 SWAP5 SWAP1 DUP6 SWAP1 DUP3 SWAP1 PUSH1 0xA4 SWAP1 DUP3 SWAP1 DUP5 SWAP1 GAS CALL DUP1 ISZERO PUSH2 0x6A6 JUMPI PUSH2 0x6AF JUMPI JUMPDEST POP PUSH1 0x2 SLOAD PUSH2 0x627 SWAP1 PUSH1 0x1 PUSH1 0x1 PUSH1 0xA0 SHL SUB AND PUSH2 0x5A0 JUMP JUMPDEST DUP1 EXTCODESIZE ISZERO PUSH2 0x6AB JUMPI PUSH1 0x40 MLOAD PUSH4 0xEEAB8ED PUSH1 0xE4 SHL DUP2 MSTORE PUSH1 0x4 DUP2 ADD DUP5 SWAP1 MSTORE SWAP1 DUP6 SWAP1 DUP3 SWAP1 PUSH1 0x24 SWAP1 DUP3 SWAP1 CALLVALUE SWAP1 GAS CALL DUP1 ISZERO PUSH2 0x6A6 JUMPI PUSH2 0x68D JUMPI JUMPDEST POP PUSH1 0x1 PUSH1 0x1 PUSH1 0xA0 SHL SUB AND SWAP1 PUSH32 0xCF3A4893CB3F0ADD7F10E3EFEF2991B7863B597AEFD01E4174E48BE4CCA3F476 DUP5 DUP1 LOG4 DUP1 RETURN JUMPDEST DUP1 PUSH2 0x69A PUSH2 0x6A0 SWAP3 PUSH2 0x885 JUMP JUMPDEST DUP1 PUSH2 0xEC JUMP JUMPDEST CODESIZE PUSH2 0x65B JUMP JUMPDEST PUSH2 0x8DC JUMP JUMPDEST DUP5 DUP1 REVERT JUMPDEST DUP1 PUSH2 0x69A PUSH2 0x6BC SWAP3 PUSH2 0x885 JUMP JUMPDEST CODESIZE PUSH2 0x611 JUMP JUMPDEST PUSH1 0x40 MLOAD PUSH4 0x7E1E0E5B PUSH1 0xE0 SHL DUP2 MSTORE PUSH1 0x4 SWAP1 REVERT JUMPDEST PUSH1 0x40 MLOAD PUSH4 0x706272A9 PUSH1 0xE1 SHL DUP2 MSTORE PUSH1 0x4 DUP2 ADD DUP6 SWAP1 MSTORE PUSH1 0x24 SWAP1 REVERT JUMPDEST CALLVALUE PUSH2 0xF7 JUMPI PUSH1 0x60 CALLDATASIZE PUSH1 0x3 NOT ADD SLT PUSH2 0xF7 JUMPI PUSH1 0x20 PUSH2 0x711 PUSH1 0x44 CALLDATALOAD PUSH1 0x24 CALLDATALOAD PUSH1 0x4 CALLDATALOAD PUSH2 0x121C JUMP JUMPDEST PUSH1 0x40 MLOAD SWAP1 DUP2 MSTORE RETURN JUMPDEST CALLVALUE PUSH2 0xF7 JUMPI PUSH1 0x20 CALLDATASIZE PUSH1 0x3 NOT ADD SLT PUSH2 0xF7 JUMPI PUSH1 0x4 CALLDATALOAD PUSH2 0x736 DUP2 PUSH2 0x25C JUMP JUMPDEST PUSH2 0x73E PUSH2 0x7E0 JUMP JUMPDEST PUSH1 0x1 PUSH1 0x1 PUSH1 0xA0 SHL SUB SWAP1 DUP2 AND DUP1 ISZERO PUSH2 0x78C JUMPI PUSH1 0x0 DUP1 SLOAD PUSH1 0x1 PUSH1 0x1 PUSH1 0xA0 SHL SUB NOT DUP2 AND DUP4 OR DUP3 SSTORE SWAP1 SWAP3 AND PUSH32 0x8BE0079C531659141344CD1FD0A4F28419497F9722A3DAAFE3B4186F6B6457E0 DUP4 DUP1 LOG3 DUP1 RETURN JUMPDEST PUSH1 0x40 MLOAD PUSH3 0x461BCD PUSH1 0xE5 SHL DUP2 MSTORE PUSH1 0x20 PUSH1 0x4 DUP3 ADD MSTORE PUSH1 0x26 PUSH1 0x24 DUP3 ADD MSTORE PUSH32 0x4F776E61626C653A206E6577206F776E657220697320746865207A65726F2061 PUSH1 0x44 DUP3 ADD MSTORE PUSH6 0x646472657373 PUSH1 0xD0 SHL PUSH1 0x64 DUP3 ADD MSTORE PUSH1 0x84 SWAP1 REVERT JUMPDEST PUSH1 0x0 SLOAD PUSH1 0x1 PUSH1 0x1 PUSH1 0xA0 SHL SUB AND CALLER SUB PUSH2 0x7F4 JUMPI JUMP JUMPDEST PUSH1 0x64 PUSH1 0x40 MLOAD PUSH3 0x461BCD PUSH1 0xE5 SHL DUP2 MSTORE PUSH1 0x20 PUSH1 0x4 DUP3 ADD MSTORE PUSH1 0x20 PUSH1 0x24 DUP3 ADD MSTORE PUSH32 0x4F776E61626C653A2063616C6C6572206973206E6F7420746865206F776E6572 PUSH1 0x44 DUP3 ADD MSTORE REVERT JUMPDEST PUSH4 0x4E487B71 PUSH1 0xE0 SHL PUSH1 0x0 MSTORE PUSH1 0x11 PUSH1 0x4 MSTORE PUSH1 0x24 PUSH1 0x0 REVERT JUMPDEST DUP1 ISZERO PUSH2 0x85B JUMPI PUSH1 0x0 NOT ADD SWAP1 JUMP JUMPDEST PUSH2 0x838 JUMP JUMPDEST PUSH1 0x0 NOT DUP2 EQ PUSH2 0x85B JUMPI PUSH1 0x1 ADD SWAP1 JUMP JUMPDEST PUSH4 0x4E487B71 PUSH1 0xE0 SHL PUSH1 0x0 MSTORE PUSH1 0x41 PUSH1 0x4 MSTORE PUSH1 0x24 PUSH1 0x0 REVERT JUMPDEST PUSH8 0xFFFFFFFFFFFFFFFF DUP2 GT PUSH2 0x899 JUMPI PUSH1 0x40 MSTORE JUMP JUMPDEST PUSH2 0x86F JUMP JUMPDEST PUSH1 0x60 DUP2 ADD SWAP1 DUP2 LT PUSH8 0xFFFFFFFFFFFFFFFF DUP3 GT OR PUSH2 0x899 JUMPI PUSH1 0x40 MSTORE JUMP JUMPDEST SWAP1 PUSH1 0x1F DUP1 NOT SWAP2 ADD AND DUP2 ADD SWAP1 DUP2 LT PUSH8 0xFFFFFFFFFFFFFFFF DUP3 GT OR PUSH2 0x899 JUMPI PUSH1 0x40 MSTORE JUMP JUMPDEST PUSH1 0x40 MLOAD RETURNDATASIZE PUSH1 0x0 DUP3 RETURNDATACOPY RETURNDATASIZE SWAP1 REVERT JUMPDEST PUSH1 0x40 MLOAD SWAP1 PUSH2 0x8F5 DUP3 PUSH2 0x89E JUMP JUMPDEST JUMP JUMPDEST SWAP3 SWAP2 SWAP3 PUSH8 0xFFFFFFFFFFFFFFFF DUP3 GT PUSH2 0x899 JUMPI PUSH1 0x40 MLOAD SWAP2 PUSH2 0x921 PUSH1 0x1F DUP3 ADD PUSH1 0x1F NOT AND PUSH1 0x20 ADD DUP5 PUSH2 0x8BA JUMP JUMPDEST DUP3 SWAP5 DUP2 DUP5 MSTORE DUP2 DUP4 ADD GT PUSH2 0xF7 JUMPI DUP3 DUP2 PUSH1 0x20 SWAP4 DUP5 PUSH1 0x0 SWAP7 ADD CALLDATACOPY ADD ADD MSTORE JUMP JUMPDEST DUP1 SLOAD PUSH9 0x10000000000000000 DUP2 LT ISZERO PUSH2 0x899 JUMPI PUSH2 0x960 SWAP2 PUSH1 0x1 DUP3 ADD DUP2 SSTORE PUSH2 0x159 JUMP JUMPDEST DUP2 SWAP3 SWAP2 SLOAD SWAP1 PUSH1 0x3 SHL SWAP2 PUSH1 0x1 DUP1 PUSH1 0xA0 SHL SUB DUP1 SWAP2 AND DUP4 SHL SWAP3 SHL NOT AND OR SWAP1 SSTORE JUMP JUMPDEST SWAP5 SWAP1 SWAP4 PUSH2 0x98D PUSH2 0x50D DUP8 PUSH2 0x13A1 JUMP JUMPDEST PUSH2 0xC05 JUMPI SWAP1 PUSH2 0x9EC PUSH2 0x9F2 SWAP3 PUSH2 0x9E4 DUP9 DUP7 PUSH2 0x9DC DUP11 PUSH2 0x9CE DUP12 PUSH1 0x40 MLOAD SWAP5 DUP6 SWAP4 PUSH1 0x20 DUP6 ADD SWAP8 DUP9 SWAP3 SWAP1 SWAP2 PUSH1 0x80 SWAP5 SWAP3 DUP5 MSTORE PUSH1 0x20 DUP5 ADD MSTORE PUSH1 0x40 DUP4 ADD MSTORE PUSH1 0x60 DUP3 ADD MSTORE ADD SWAP1 JUMP JUMPDEST SUB PUSH1 0x1F NOT DUP2 ADD DUP4 MSTORE DUP3 PUSH2 0x8BA JUMP JUMPDEST MLOAD SWAP1 KECCAK256 PUSH2 0x135E JUMP JUMPDEST SWAP3 CALLDATASIZE SWAP2 PUSH2 0x8F7 JUMP JUMPDEST SWAP1 PUSH2 0x12B1 JUMP JUMPDEST SWAP2 PUSH2 0xA15 PUSH2 0x50D PUSH2 0x4DB DUP6 PUSH1 0x1 DUP1 PUSH1 0xA0 SHL SUB AND PUSH1 0x0 MSTORE PUSH1 0x3 PUSH1 0x20 MSTORE PUSH1 0x40 PUSH1 0x0 KECCAK256 SWAP1 JUMP JUMPDEST PUSH2 0xBE4 JUMPI PUSH2 0xA68 PUSH2 0xA5E DUP5 PUSH2 0xA47 DUP8 PUSH2 0xA38 DUP11 PUSH1 0x0 MSTORE PUSH1 0x5 PUSH1 0x20 MSTORE PUSH1 0x40 PUSH1 0x0 KECCAK256 SWAP1 JUMP JUMPDEST SWAP1 PUSH1 0x0 MSTORE PUSH1 0x20 MSTORE PUSH1 0x40 PUSH1 0x0 KECCAK256 SWAP1 JUMP JUMPDEST SWAP1 PUSH1 0x1 DUP1 PUSH1 0xA0 SHL SUB AND PUSH1 0x0 MSTORE PUSH1 0x20 MSTORE PUSH1 0x40 PUSH1 0x0 KECCAK256 SWAP1 JUMP JUMPDEST SLOAD PUSH1 0xF0 SHR PUSH1 0xFF AND SWAP1 JUMP JUMPDEST PUSH2 0xBB5 JUMPI DUP5 SWAP3 SWAP2 PUSH2 0xAB3 PUSH1 0x1 PUSH1 0x1 PUSH1 0x70 SHL SUB PUSH2 0xB2E SWAP4 PUSH2 0xAA2 PUSH1 0x1 PUSH1 0x1 PUSH1 0x80 SHL SUB PUSH2 0xA91 PUSH2 0x8E8 JUMP JUMPDEST SWAP6 AND DUP6 SWAP1 PUSH1 0x1 PUSH1 0x1 PUSH1 0x80 SHL SUB AND SWAP1 MSTORE JUMP JUMPDEST AND PUSH1 0x1 PUSH1 0x1 PUSH1 0x70 SHL SUB AND PUSH1 0x20 DUP4 ADD MSTORE JUMP JUMPDEST PUSH1 0x1 PUSH1 0x40 DUP3 ADD MSTORE PUSH2 0xAD6 DUP4 PUSH2 0xA47 DUP8 PUSH2 0xA38 DUP9 PUSH1 0x0 MSTORE PUSH1 0x5 PUSH1 0x20 MSTORE PUSH1 0x40 PUSH1 0x0 KECCAK256 SWAP1 JUMP JUMPDEST DUP2 MLOAD DUP2 SLOAD PUSH1 0x20 DUP5 ADD MLOAD PUSH1 0x40 SWAP1 SWAP5 ADD MLOAD PUSH1 0xFF PUSH1 0xF0 SHL SWAP1 ISZERO ISZERO PUSH1 0xF0 SHL AND PUSH14 0xFFFFFFFFFFFFFFFFFFFFFFFFFFFF PUSH1 0x80 SHL PUSH1 0x80 SWAP6 SWAP1 SWAP6 SHL SWAP5 SWAP1 SWAP5 AND PUSH1 0x1 PUSH1 0x1 PUSH1 0x80 SHL SUB SWAP1 SWAP3 AND PUSH1 0x1 PUSH1 0x1 PUSH1 0xF8 SHL SUB NOT SWAP1 SWAP2 AND OR OR SWAP2 SWAP1 SWAP2 OR SWAP1 SSTORE JUMP JUMPDEST PUSH2 0xB4F DUP2 PUSH2 0xB4A DUP6 PUSH2 0xA38 DUP7 PUSH1 0x0 MSTORE PUSH1 0x6 PUSH1 0x20 MSTORE PUSH1 0x40 PUSH1 0x0 KECCAK256 SWAP1 JUMP JUMPDEST PUSH2 0x93E JUMP JUMPDEST PUSH1 0x40 MLOAD DUP4 DUP2 MSTORE PUSH1 0x1 PUSH1 0x1 PUSH1 0xA0 SHL SUB SWAP2 SWAP1 SWAP2 AND SWAP1 PUSH32 0xF64771EC9547F883A107F8226A072AD98743A848432DE28433576863C2EAB59 SWAP1 PUSH1 0x20 SWAP1 LOG3 PUSH1 0x3 PUSH2 0xBA2 DUP3 PUSH2 0xA38 DUP6 PUSH1 0x0 MSTORE PUSH1 0x6 PUSH1 0x20 MSTORE PUSH1 0x40 PUSH1 0x0 KECCAK256 SWAP1 JUMP JUMPDEST SLOAD EQ PUSH2 0xBAC JUMPI POP POP JUMP JUMPDEST PUSH2 0x8F5 SWAP2 PUSH2 0xD05 JUMP JUMPDEST PUSH1 0x40 MLOAD PUSH4 0xA49DF9DB PUSH1 0xE0 SHL DUP2 MSTORE PUSH1 0x1 PUSH1 0x1 PUSH1 0xA0 SHL SUB DUP5 AND PUSH1 0x4 DUP3 ADD MSTORE PUSH1 0x24 DUP2 ADD DUP7 SWAP1 MSTORE PUSH1 0x44 DUP2 ADD DUP6 SWAP1 MSTORE PUSH1 0x64 SWAP1 REVERT JUMPDEST PUSH1 0x40 MLOAD PUSH4 0x91E47843 PUSH1 0xE0 SHL DUP2 MSTORE PUSH1 0x1 PUSH1 0x1 PUSH1 0xA0 SHL SUB DUP5 AND PUSH1 0x4 DUP3 ADD MSTORE PUSH1 0x24 SWAP1 REVERT JUMPDEST PUSH1 0x40 MLOAD PUSH4 0x706272A9 PUSH1 0xE1 SHL DUP2 MSTORE PUSH1 0x4 DUP2 ADD DUP8 SWAP1 MSTORE PUSH1 0x24 SWAP1 REVERT JUMPDEST SWAP1 PUSH1 0x40 MLOAD SWAP2 DUP3 DUP2 SLOAD SWAP2 DUP3 DUP3 MSTORE PUSH1 0x20 SWAP3 DUP4 DUP4 ADD SWAP2 PUSH1 0x0 MSTORE DUP4 PUSH1 0x0 KECCAK256 SWAP4 PUSH1 0x0 SWAP1 JUMPDEST DUP3 DUP3 LT PUSH2 0xC53 JUMPI POP POP POP PUSH2 0x8F5 SWAP3 POP SUB DUP4 PUSH2 0x8BA JUMP JUMPDEST DUP6 SLOAD PUSH1 0x1 PUSH1 0x1 PUSH1 0xA0 SHL SUB AND DUP5 MSTORE PUSH1 0x1 SWAP6 DUP7 ADD SWAP6 DUP9 SWAP6 POP SWAP4 DUP2 ADD SWAP4 SWAP1 SWAP2 ADD SWAP1 PUSH2 0xC3D JUMP JUMPDEST DUP1 MLOAD ISZERO PUSH2 0x171 JUMPI PUSH1 0x20 ADD SWAP1 JUMP JUMPDEST DUP1 MLOAD PUSH1 0x1 LT ISZERO PUSH2 0x171 JUMPI PUSH1 0x40 ADD SWAP1 JUMP JUMPDEST DUP1 MLOAD PUSH1 0x2 LT ISZERO PUSH2 0x171 JUMPI PUSH1 0x60 ADD SWAP1 JUMP JUMPDEST DUP1 MLOAD DUP3 LT ISZERO PUSH2 0x171 JUMPI PUSH1 0x20 SWAP2 PUSH1 0x5 SHL ADD ADD SWAP1 JUMP JUMPDEST SWAP1 PUSH1 0x40 MLOAD PUSH1 0x60 DUP2 ADD DUP2 DUP2 LT PUSH8 0xFFFFFFFFFFFFFFFF DUP3 GT OR PUSH2 0x899 JUMPI PUSH1 0x40 MSTORE PUSH1 0x40 PUSH1 0xFF DUP3 SWAP5 SLOAD PUSH1 0x1 PUSH1 0x1 PUSH1 0x80 SHL SUB DUP2 AND DUP5 MSTORE PUSH1 0x1 PUSH1 0x1 PUSH1 0x70 SHL SUB DUP2 PUSH1 0x80 SHR AND PUSH1 0x20 DUP6 ADD MSTORE PUSH1 0xF0 SHR AND ISZERO ISZERO SWAP2 ADD MSTORE JUMP JUMPDEST DUP1 PUSH1 0x20 SWAP2 PUSH32 0xCFF36DFFB395320017E6E2A92054400EB09B8AC406C40044FF3CF91BBBA1C1C1 PUSH2 0x8F5 SWAP5 PUSH2 0xD4E PUSH2 0xD49 DUP3 PUSH2 0xA38 DUP7 PUSH1 0x0 MSTORE PUSH1 0x6 PUSH1 0x20 MSTORE PUSH1 0x40 PUSH1 0x0 KECCAK256 SWAP1 JUMP JUMPDEST PUSH2 0xC1E JUMP JUMPDEST SWAP1 PUSH2 0xEA7 PUSH2 0xE8A DUP6 PUSH2 0xDFD PUSH2 0xDA9 PUSH2 0xDAE PUSH2 0xDA9 PUSH2 0xD7A DUP9 PUSH2 0xA38 DUP8 PUSH1 0x0 MSTORE PUSH1 0x5 PUSH1 0x20 MSTORE PUSH1 0x40 PUSH1 0x0 KECCAK256 SWAP1 JUMP JUMPDEST PUSH2 0xD93 PUSH2 0xD86 DUP12 PUSH2 0xC76 JUMP JUMPDEST MLOAD PUSH1 0x1 PUSH1 0x1 PUSH1 0xA0 SHL SUB AND SWAP1 JUMP JUMPDEST PUSH1 0x1 DUP1 PUSH1 0xA0 SHL SUB AND PUSH1 0x0 MSTORE PUSH1 0x20 MSTORE PUSH1 0x40 PUSH1 0x0 KECCAK256 SWAP1 JUMP JUMPDEST PUSH2 0xCB7 JUMP JUMPDEST SWAP7 PUSH2 0xD93 PUSH2 0xD86 PUSH2 0xDF7 DUP10 PUSH2 0xA38 PUSH2 0xDE6 PUSH2 0xDA9 PUSH2 0xDDA DUP5 PUSH2 0xA38 DUP14 PUSH1 0x0 MSTORE PUSH1 0x5 PUSH1 0x20 MSTORE PUSH1 0x40 PUSH1 0x0 KECCAK256 SWAP1 JUMP JUMPDEST PUSH2 0xD93 PUSH2 0xD86 DUP11 PUSH2 0xC83 JUMP JUMPDEST SWAP9 PUSH1 0x0 MSTORE PUSH1 0x5 PUSH1 0x20 MSTORE PUSH1 0x40 PUSH1 0x0 KECCAK256 SWAP1 JUMP JUMPDEST SWAP3 PUSH2 0xC93 JUMP JUMPDEST SWAP1 PUSH2 0xE44 DUP11 PUSH2 0xE6E DUP2 PUSH2 0xE5F PUSH2 0xE4E PUSH2 0xE1D DUP13 MLOAD PUSH1 0x1 PUSH1 0x1 PUSH1 0x80 SHL SUB AND SWAP1 JUMP JUMPDEST DUP8 MLOAD PUSH1 0x1 PUSH1 0x1 PUSH1 0x80 SHL SUB AND SWAP1 PUSH1 0x1 PUSH1 0x1 PUSH1 0x80 SHL SUB DUP1 DUP1 PUSH2 0xE44 DUP14 MLOAD PUSH1 0x1 PUSH1 0x1 PUSH1 0x80 SHL SUB AND SWAP1 JUMP JUMPDEST AND SWAP4 AND SWAP2 AND PUSH2 0x121C JUMP JUMPDEST SWAP15 DUP16 SWAP12 ADD MLOAD PUSH1 0x1 PUSH1 0x1 PUSH1 0x70 SHL SUB AND SWAP1 JUMP JUMPDEST SWAP5 ADD MLOAD PUSH1 0x1 PUSH1 0x1 PUSH1 0x70 SHL SUB AND SWAP1 JUMP JUMPDEST SWAP4 PUSH1 0x1 PUSH1 0x1 PUSH1 0x70 SHL SUB SWAP3 DUP4 SWAP3 DUP4 SWAP3 ADD MLOAD PUSH1 0x1 PUSH1 0x1 PUSH1 0x70 SHL SUB AND SWAP1 JUMP JUMPDEST PUSH1 0x40 MLOAD SWAP4 DUP5 SWAP4 DUP5 PUSH1 0x40 SWAP2 SWAP5 SWAP4 SWAP3 PUSH1 0x60 DUP3 ADD SWAP6 DUP3 MSTORE PUSH1 0x20 DUP3 ADD MSTORE ADD MSTORE JUMP JUMPDEST SUB SWAP1 LOG2 PUSH2 0xF8B JUMP JUMPDEST SWAP1 PUSH1 0x20 SWAP1 DUP2 DUP4 DUP3 SUB SLT PUSH2 0xF7 JUMPI DUP3 MLOAD PUSH8 0xFFFFFFFFFFFFFFFF SWAP4 DUP5 DUP3 GT PUSH2 0xF7 JUMPI ADD DUP2 PUSH1 0x1F DUP3 ADD SLT ISZERO PUSH2 0xF7 JUMPI DUP1 MLOAD SWAP4 DUP5 GT PUSH2 0x899 JUMPI DUP4 PUSH1 0x5 SHL SWAP1 PUSH1 0x40 MLOAD SWAP5 PUSH2 0xEF9 DUP6 DUP5 ADD DUP8 PUSH2 0x8BA JUMP JUMPDEST DUP6 MSTORE DUP4 DUP1 DUP7 ADD SWAP3 DUP3 ADD ADD SWAP3 DUP4 GT PUSH2 0xF7 JUMPI DUP4 ADD SWAP1 JUMPDEST DUP3 DUP3 LT PUSH2 0xF1C JUMPI POP POP POP POP SWAP1 JUMP JUMPDEST DUP2 MLOAD DUP2 MSTORE SWAP1 DUP4 ADD SWAP1 DUP4 ADD PUSH2 0xF0E JUMP JUMPDEST SWAP1 DUP2 PUSH1 0xE0 SWAP2 SUB SLT PUSH2 0xF7 JUMPI DUP1 MLOAD SWAP2 PUSH1 0x20 DUP3 ADD MLOAD PUSH2 0xF47 DUP2 PUSH2 0x25C JUMP JUMPDEST SWAP2 PUSH1 0x40 DUP2 ADD MLOAD SWAP2 PUSH1 0x60 DUP3 ADD MLOAD PUSH2 0xF5C DUP2 PUSH2 0x528 JUMP JUMPDEST SWAP2 PUSH1 0x80 DUP2 ADD MLOAD PUSH2 0xF6B DUP2 PUSH2 0x528 JUMP JUMPDEST SWAP2 PUSH1 0xC0 PUSH1 0xA0 DUP4 ADD MLOAD PUSH2 0xF7C DUP2 PUSH2 0x3DC JUMP JUMPDEST SWAP3 ADD MLOAD PUSH2 0xF88 DUP2 PUSH2 0x3DC JUMP JUMPDEST SWAP1 JUMP JUMPDEST PUSH1 0x1 DUP1 SLOAD SWAP1 SWAP3 SWAP2 SWAP1 PUSH2 0xFA5 SWAP1 PUSH1 0x1 PUSH1 0x1 PUSH1 0xA0 SHL SUB AND PUSH2 0x5A0 JUMP JUMPDEST PUSH1 0x40 DUP1 MLOAD PUSH4 0x98414CA5 PUSH1 0xE0 SHL DUP2 MSTORE PUSH1 0x4 DUP1 DUP3 ADD SWAP5 SWAP1 SWAP5 MSTORE SWAP4 PUSH1 0x0 SWAP3 SWAP1 SWAP2 SWAP1 DUP4 SWAP1 DUP7 SWAP1 PUSH1 0x24 SWAP1 DUP3 SWAP1 GAS STATICCALL SWAP5 DUP6 ISZERO PUSH2 0x6A6 JUMPI DUP4 SWAP6 PUSH2 0x11F8 JUMPI JUMPDEST POP DUP5 MLOAD SWAP5 DUP4 JUMPDEST DUP7 DUP2 LT PUSH2 0xFF3 JUMPI POP POP POP POP POP POP POP POP JUMP JUMPDEST PUSH2 0xFFD DUP2 DUP4 PUSH2 0xCA3 JUMP JUMPDEST MLOAD DUP9 SLOAD SWAP1 SWAP2 SWAP1 PUSH2 0x1015 SWAP1 PUSH1 0x1 PUSH1 0x1 PUSH1 0xA0 SHL SUB AND PUSH2 0x5A0 JUMP JUMPDEST DUP5 MLOAD PUSH4 0x2B07FCE3 PUSH1 0xE0 SHL DUP2 MSTORE DUP9 DUP2 ADD DUP5 DUP2 MSTORE SWAP1 SWAP4 PUSH1 0xE0 SWAP3 SWAP2 DUP4 SWAP1 DUP7 SWAP1 DUP2 SWAP1 PUSH1 0x20 ADD SUB DUP2 DUP6 GAS STATICCALL SWAP2 DUP3 ISZERO PUSH2 0x6A6 JUMPI DUP10 DUP14 SWAP7 DUP2 SWAP5 DUP3 SWAP2 DUP4 SWAP8 DUP5 SWAP3 PUSH2 0x11BA JUMPI JUMPDEST POP POP DUP3 PUSH2 0x11B1 JUMPI JUMPDEST POP DUP2 PUSH2 0x119E JUMPI JUMPDEST POP PUSH2 0x1071 JUMPI JUMPDEST POP POP POP POP ADD PUSH2 0xFE2 JUMP JUMPDEST DUP1 SWAP2 SWAP3 SWAP4 SWAP6 POP EXTCODESIZE ISZERO PUSH2 0x1187 JUMPI DUP7 MLOAD PUSH4 0x2340FEE9 PUSH1 0xE1 SHL DUP2 MSTORE DUP1 DUP12 ADD DUP4 DUP2 MSTORE SWAP1 SWAP2 DUP11 SWAP2 DUP4 SWAP2 SWAP1 DUP3 SWAP1 DUP5 SWAP1 DUP3 SWAP1 PUSH1 0x20 ADD SUB SWAP3 GAS CALL DUP1 ISZERO PUSH2 0x6A6 JUMPI PUSH2 0x118B JUMPI JUMPDEST POP PUSH1 0x2 SLOAD PUSH2 0x10C4 SWAP1 PUSH1 0x1 PUSH1 0x1 PUSH1 0xA0 SHL SUB AND PUSH2 0x5A0 JUMP JUMPDEST PUSH1 0x1 PUSH1 0x1 PUSH1 0xA0 SHL SUB SWAP1 SWAP3 AND SWAP2 DUP1 EXTCODESIZE ISZERO PUSH2 0x1187 JUMPI DUP7 MLOAD PUSH4 0xAE2F5D93 PUSH1 0xE0 SHL DUP2 MSTORE DUP1 DUP12 ADD DUP4 DUP2 MSTORE PUSH1 0x1 PUSH1 0x1 PUSH1 0xA0 SHL SUB DUP6 AND PUSH1 0x20 DUP3 ADD MSTORE PUSH1 0x1 PUSH1 0x1 PUSH1 0x80 SHL SUB DUP8 AND PUSH1 0x40 DUP3 ADD MSTORE SWAP1 SWAP2 DUP11 SWAP2 DUP4 SWAP2 SWAP1 DUP3 SWAP1 DUP5 SWAP1 DUP3 SWAP1 PUSH1 0x60 ADD SUB SWAP3 GAS CALL DUP1 ISZERO PUSH2 0x6A6 JUMPI DUP13 SWAP6 PUSH32 0x7884580F743F908C98258AFAC53F9E0929CD6787B3488DF80E096DF15409EF8F SWAP3 PUSH2 0x1168 SWAP3 PUSH2 0x1174 JUMPI JUMPDEST POP DUP9 MLOAD PUSH1 0x1 PUSH1 0x1 PUSH1 0x80 SHL SUB SWAP1 SWAP2 AND DUP2 MSTORE SWAP1 DUP2 SWAP1 PUSH1 0x20 DUP3 ADD SWAP1 JUMP JUMPDEST SUB SWAP1 LOG3 CODESIZE DUP1 DUP1 DUP1 PUSH2 0x1067 JUMP JUMPDEST DUP1 PUSH2 0x69A PUSH2 0x1181 SWAP3 PUSH2 0x885 JUMP JUMPDEST CODESIZE PUSH2 0x114E JUMP JUMPDEST DUP9 DUP1 REVERT JUMPDEST DUP1 PUSH2 0x69A PUSH2 0x1198 SWAP3 PUSH2 0x885 JUMP JUMPDEST CODESIZE PUSH2 0x10AE JUMP JUMPDEST PUSH1 0x1 PUSH1 0x1 PUSH1 0x80 SHL SUB SWAP2 POP AND DUP10 LT CODESIZE PUSH2 0x1061 JUMP JUMPDEST ISZERO SWAP2 POP CODESIZE PUSH2 0x105A JUMP JUMPDEST SWAP4 POP SWAP4 SWAP6 POP POP POP PUSH2 0x11E1 SWAP3 SWAP5 POP DUP1 RETURNDATASIZE LT PUSH2 0x11F1 JUMPI JUMPDEST PUSH2 0x11D9 DUP2 DUP4 PUSH2 0x8BA JUMP JUMPDEST DUP2 ADD SWAP1 PUSH2 0xF2B JUMP JUMPDEST SWAP2 SWAP8 SWAP5 SWAP7 SWAP5 SWAP6 POP SWAP3 POP CODESIZE DUP1 PUSH2 0x1052 JUMP JUMPDEST POP RETURNDATASIZE PUSH2 0x11CF JUMP JUMPDEST PUSH2 0x1215 SWAP2 SWAP6 POP RETURNDATASIZE DUP1 DUP6 DUP4 RETURNDATACOPY PUSH2 0x120D DUP2 DUP4 PUSH2 0x8BA JUMP JUMPDEST DUP2 ADD SWAP1 PUSH2 0xEAF JUMP JUMPDEST SWAP4 CODESIZE PUSH2 0xFDC JUMP JUMPDEST SWAP1 DUP1 DUP3 GT ISZERO SWAP1 DUP2 DUP1 PUSH2 0x1295 JUMPI JUMPDEST DUP1 ISZERO PUSH2 0x1280 JUMPI JUMPDEST PUSH2 0x1279 JUMPI DUP3 LT ISZERO SWAP1 DUP2 PUSH2 0x126E JUMPI JUMPDEST DUP2 ISZERO PUSH2 0x1253 JUMPI JUMPDEST POP PUSH2 0x124E JUMPI POP SWAP1 JUMP JUMPDEST SWAP1 POP SWAP1 JUMP JUMPDEST DUP3 DUP5 GT ISZERO SWAP2 POP DUP2 PUSH2 0x1266 JUMPI JUMPDEST POP CODESIZE PUSH2 0x1245 JUMP JUMPDEST SWAP1 POP CODESIZE PUSH2 0x125F JUMP JUMPDEST DUP4 DUP4 GT ISZERO SWAP2 POP PUSH2 0x123E JUMP JUMPDEST SWAP3 POP POP POP SWAP1 JUMP JUMPDEST POP DUP1 DUP5 GT ISZERO DUP1 ISZERO PUSH2 0x1230 JUMPI POP DUP3 DUP2 GT ISZERO PUSH2 0x1230 JUMP JUMPDEST POP DUP4 DUP2 GT ISZERO PUSH2 0x1229 JUMP JUMPDEST PUSH1 0xFF PUSH1 0x1B SWAP2 AND ADD SWAP1 PUSH1 0xFF DUP3 GT PUSH2 0x85B JUMPI JUMP JUMPDEST SWAP1 PUSH1 0x41 DUP2 MLOAD SUB PUSH2 0x1357 JUMPI PUSH1 0x0 SWAP2 PUSH1 0x20 DUP3 ADD MLOAD SWAP3 PUSH1 0x60 PUSH1 0x40 DUP5 ADD MLOAD SWAP4 ADD MLOAD SWAP1 BYTE SWAP1 PUSH1 0x1B DUP3 LT PUSH2 0x1347 JUMPI JUMPDEST PUSH1 0xFF DUP3 AND PUSH1 0x1B DUP2 EQ ISZERO SWAP1 DUP2 PUSH2 0x133B JUMPI JUMPDEST POP PUSH2 0x1332 JUMPI PUSH2 0x131E PUSH1 0x0 SWAP4 PUSH1 0x20 SWAP6 PUSH1 0x40 MLOAD SWAP5 DUP6 SWAP5 DUP6 SWAP1 SWAP5 SWAP4 SWAP3 PUSH1 0xFF PUSH1 0x60 SWAP4 PUSH1 0x80 DUP5 ADD SWAP8 DUP5 MSTORE AND PUSH1 0x20 DUP4 ADD MSTORE PUSH1 0x40 DUP3 ADD MSTORE ADD MSTORE JUMP JUMPDEST DUP4 DUP1 MSTORE SUB SWAP1 PUSH1 0x1 GAS STATICCALL ISZERO PUSH2 0x6A6 JUMPI PUSH1 0x0 MLOAD SWAP1 JUMP JUMPDEST POP POP POP POP PUSH1 0x0 SWAP1 JUMP JUMPDEST PUSH1 0x1C SWAP2 POP EQ ISZERO CODESIZE PUSH2 0x12EA JUMP JUMPDEST SWAP1 PUSH2 0x1351 SWAP1 PUSH2 0x129F JUMP JUMPDEST SWAP1 PUSH2 0x12DA JUMP JUMPDEST POP POP PUSH1 0x0 SWAP1 JUMP JUMPDEST PUSH1 0x40 MLOAD PUSH1 0x20 DUP2 ADD SWAP2 PUSH32 0x19457468657265756D205369676E6564204D6573736167653A0A333200000000 DUP4 MSTORE PUSH1 0x3C DUP3 ADD MSTORE PUSH1 0x3C DUP2 MSTORE PUSH2 0x139B DUP2 PUSH2 0x89E JUMP JUMPDEST MLOAD SWAP1 KECCAK256 SWAP1 JUMP JUMPDEST DUP1 ISZERO PUSH2 0x13CC JUMPI PUSH1 0x1 PUSH1 0xF DUP3 PUSH1 0x3B SHR AND SUB PUSH2 0x13CC JUMPI PUSH1 0xF DUP1 SWAP2 PUSH1 0x34 SHR AND GT PUSH2 0x13C7 JUMPI PUSH1 0x1 SWAP1 JUMP JUMPDEST PUSH1 0x0 SWAP1 JUMP JUMPDEST POP PUSH1 0x0 SWAP1 JUMP INVALID LOG2 PUSH5 0x6970667358 0x22 SLT KECCAK256 0xE2 SWAP13 SWAP1 0x5C 0xEE 0xDF 0xC6 DUP14 EXTCODECOPY SWAP6 ADDRESS 0xCE 0x5E SIGNEXTEND PUSH27 0x4706931680ED4308F346AECD529034AFD464736F6C634300081400 CALLER "},"methodIdentifiers":{"escrowVault()":"8a2ae60b","getMedian(uint256,uint256,uint256)":"d96539a0","isAuthorizedOracle(address)":"bfe609da","oracleCount()":"613d8fcc","owner()":"8da5cb5b","policyRegistry()":"1c4dd7d0","registerPolicy(uint256,address,bytes32,uint128,uint128)":"d4d85c4b","renounceOwnership()":"715018a6","setAuthorizedOracle(address,bool)":"c7a6de4d","submissions(bytes32,uint256,address)":"8c41c699","submitData(bytes32,uint256,uint256,uint256,bytes)":"b9df9668","submitters(bytes32,uint256,uint256)":"6e74ba84","transferOwnership(address)":"f2fde38b"}}}}}