{"contracts/core/PolicyRegistry.sol":{"PolicyRegistry":{"abi":[{"inputs":[],"name":"NotAuthorized","type":"error"},{"inputs":[{"internalType":"uint256","name":"policyId","type":"uint256"}],"name":"PolicyAlreadyExists","type":"error"},{"inputs":[{"internalType":"uint256","name":"policyId","type":"uint256"}],"name":"PolicyAlreadyPaidOut","type":"error"},{"inputs":[{"internalType":"uint256","name":"policyId","type":"uint256"}],"name":"PolicyDoesNotExist","type":"error"},{"inputs":[{"internalType":"uint256","name":"policyId","type":"uint256"}],"name":"PolicyNotActive","type":"error"},{"inputs":[],"name":"ZeroAddress","type":"error"},{"inputs":[],"name":"ZeroPayoutAmount","type":"error"},{"anonymous":false,"inputs":[{"indexed":false,"internalType":"address","name":"caller","type":"address"},{"indexed":false,"internalType":"bool","name":"authorized","type":"bool"}],"name":"CallerAuthorized","type":"event"},{"anonymous":false,"inputs":[{"indexed":true,"internalType":"address","name":"previousOwner","type":"address"},{"indexed":true,"internalType":"address","name":"newOwner","type":"address"}],"name":"OwnershipTransferred","type":"event"},{"anonymous":false,"inputs":[{"indexed":true,"internalType":"uint256","name":"policyId","type":"uint256"}],"name":"PolicyDeactivated","type":"event"},{"anonymous":false,"inputs":[{"indexed":true,"internalType":"uint256","name":"policyId","type":"uint256"}],"name":"PolicyPaidOut","type":"event"},{"anonymous":false,"inputs":[{"indexed":true,"internalType":"uint256","name":"policyId","type":"uint256"},{"indexed":true,"internalType":"address","name":"farmer","type":"address"},{"indexed":true,"internalType":"bytes32","name":"h3Index","type":"bytes32"}],"name":"PolicyRegistered","type":"event"},{"inputs":[{"internalType":"address","name":"","type":"address"}],"name":"authorizedCallers","outputs":[{"internalType":"bool","name":"","type":"bool"}],"stateMutability":"view","type":"function"},{"inputs":[{"internalType":"uint256","name":"policyId","type":"uint256"}],"name":"deactivatePolicy","outputs":[],"stateMutability":"nonpayable","type":"function"},{"inputs":[{"internalType":"bytes32","name":"h3Index","type":"bytes32"}],"name":"getPoliciesByH3","outputs":[{"internalType":"uint256[]","name":"","type":"uint256[]"}],"stateMutability":"view","type":"function"},{"inputs":[{"internalType":"uint256","name":"policyId","type":"uint256"}],"name":"getPolicy","outputs":[{"internalType":"uint256","name":"id","type":"uint256"},{"internalType":"address","name":"farmer","type":"address"},{"internalType":"bytes32","name":"h3Index","type":"bytes32"},{"internalType":"uint128","name":"threshold","type":"uint128"},{"internalType":"uint128","name":"payoutAmount","type":"uint128"},{"internalType":"bool","name":"isActive","type":"bool"},{"internalType":"bool","name":"paidOut","type":"bool"}],"stateMutability":"view","type":"function"},{"inputs":[{"internalType":"uint256","name":"policyId","type":"uint256"}],"name":"markPaidOut","outputs":[],"stateMutability":"nonpayable","type":"function"},{"inputs":[],"name":"owner","outputs":[{"internalType":"address","name":"","type":"address"}],"stateMutability":"view","type":"function"},{"inputs":[{"internalType":"uint256","name":"","type":"uint256"}],"name":"policies","outputs":[{"internalType":"uint256","name":"id","type":"uint256"},{"internalType":"address","name":"farmer","type":"address"},{"internalType":"bool","name":"isActive","type":"bool"},{"internalType":"bool","name":"paidOut","type":"bool"},{"internalType":"bytes32","name":"h3Index","type":"bytes32"},{"internalType":"uint128","name":"threshold","type":"uint128"},{"internalType":"uint128","name":"payoutAmount","type":"uint128"}],"stateMutability":"view","type":"function"},{"inputs":[{"internalType":"uint256","name":"policyId","type":"uint256"},{"internalType":"address","name":"farmer","type":"address"},{"internalType":"bytes32","name":"h3Index","type":"bytes32"},{"internalType":"uint128","name":"threshold","type":"uint128"},{"internalType":"uint128","name":"payoutAmount","type":"uint128"}],"name":"registerPolicy","outputs":[],"stateMutability":"nonpayable","type":"function"},{"inputs":[],"name":"renounceOwnership","outputs":[],"stateMutability":"nonpayable","type":"function"},{"inputs":[{"internalType":"address","name":"caller","type":"address"},{"internalType":"bool","name":"authorized","type":"bool"}],"name":"setAuthorizedCaller","outputs":[],"stateMutability":"nonpayable","type":"function"},{"inputs":[{"internalType":"address","name":"newOwner","type":"address"}],"name":"transferOwnership","outputs":[],"stateMutability":"nonpayable","type":"function"}],"evm":{"bytecode":{"linkReferences":{},"object":"6080806040523461005b5760008054336001600160a01b0319821681178355916001600160a01b03909116907f8be0079c531659141344cd1fd0a4f28419497f9722a3daafe3b4186f6b6457e09080a361091790816100618239f35b600080fdfe6080604081815260048036101561001557600080fd5b600092833560e01c9081632b07fce3146107f057508063454bbd291461076b5780634681fdd21461066c578063536fff6c1461062e578063715018a6146105d15780638da5cb5b146105a957806398414ca5146104df578063d3e8948314610461578063d4d85c4b14610222578063eb4a4645146101615763f2fde38b1461009c57600080fd5b3461015d57602036600319011261015d576100b561086e565b906100be610889565b6001600160a01b0391821692831561010b57505082546001600160a01b0319811683178455167f8be0079c531659141344cd1fd0a4f28419497f9722a3daafe3b4186f6b6457e08380a380f35b906020608492519162461bcd60e51b8352820152602660248201527f4f776e61626c653a206e6577206f776e657220697320746865207a65726f206160448201526564647265737360d01b6064820152fd5b8280fd5b50903461015d57602036600319011261015d578254823592906001600160a01b039081163314158061020c575b6101fd5783855260016020526001838620015416156101e857508183526001602081905290832001805460ff60a01b191690557fa040c05c2aea9ad7da426cefbf383fc472d4759806d4aa7d1257f00f0faadd018280a280f35b826024925191632ff5455160e01b8352820152fd5b50905163ea8e4eb560e01b8152fd5b50338552600360205260ff83862054161561018e565b5091903461045d5760a036600319011261045d576001600160a01b03602435818116918535918390036104595760443593606435916001600160801b03808416809403610455576084359080821680920361045157828954163314158061043b575b61042b57858952600194856020528386868c200154166104145787156104045782156103f45784519360e0850185811067ffffffffffffffff8211176103e1576003949392918b9188528987528c8a60208901928d84528a808b01938d855260608c019381855260808d0197885260a08d0198895260c08d019a8b5281528d6020522099518a558b8a0193511683549260ff60a01b9051151560a01b169160ff60a81b9051151560a81b169269ffffffffffffffffffff60b01b1617171790555160028601555116906001600160801b0319905160801b161791015584865260026020528520805491680100000000000000008310156103ce5782018082558210156103bb57855260208520018190557fcf3a4893cb3f0add7f10e3efef2991b7863b597aefd01e4174e48be4cca3f4768480a480f35b634e487b7160e01b865260328752602486fd5b634e487b7160e01b875260418852602487fd5b634e487b7160e01b8c5260418d5260248cfd5b845163038f9ba560e21b81528b90fd5b845163d92e233d60e01b81528b90fd5b84516315e46fbb60e01b8152808c01889052602490fd5b835163ea8e4eb560e01b81528a90fd5b50338952600360205260ff848a20541615610284565b8880fd5b8780fd5b8480fd5b5080fd5b503461015d57602036600319011261015d5760e09282913581526001602052209081549160ff60018201546003600284015493015493805195865260018060a01b0382166020870152828260a01c1615159086015260a81c161515606084015260808301526001600160801b03811660a083015260801c60c0820152f35b5091903461045d5760208060031936011261015d57833583526002815281832092825192838386549182815201908196845284842090845b868282106105955750505050849003601f01601f191684019567ffffffffffffffff871185881017610582575085815282865292518583018190528594938501939290915b82811061056b57505050500390f35b83518552869550938101939281019260010161055c565b634e487b7160e01b835260419052602482fd5b835485529093019260019283019201610517565b50503461045d578160031936011261045d57905490516001600160a01b039091168152602090f35b833461062b578060031936011261062b576105ea610889565b80546001600160a01b03198116825581906001600160a01b03167f8be0079c531659141344cd1fd0a4f28419497f9722a3daafe3b4186f6b6457e08280a380f35b80fd5b50503461045d57602036600319011261045d5760209160ff9082906001600160a01b0361065961086e565b1681526003855220541690519015158152f35b50903461015d57602036600319011261015d5782548235926001600160a01b0391821633141580610755575b610747578385526001602052600183862001928354928316156107315760ff8360a01c161561071b5760ff8360a81c1661070557505061ffff60a01b1916600160a81b1790557ff2f9221adad21a2d6a9450707b14e7948b23ae67555194d29a8cb05b8a1532878280a280f35b5163de138def60e01b8152908101849052602490fd5b5163a3068e7b60e01b8152908101849052602490fd5b51632ff5455160e01b8152908101849052602490fd5b825163ea8e4eb560e01b8152fd5b50338552600360205260ff838620541615610698565b50503461045d578060031936011261045d5761078561086e565b906024358015158091036107ec577f100c9fd652c7b273c9266f92f22ac2352eb8d7232013ac0439e9066a9227f369926107bd610889565b60018060a01b031690818552600360205282852060ff1981541660ff831617905582519182526020820152a180f35b8380fd5b92919050346107ec5760203660031901126107ec57908060e09460ff933581526001602052208054906001810154926003600283015492015492865260018060a01b03841660208701528501526001600160801b038116606085015260801c6080840152818160a01c16151560a084015260a81c16151560c0820152f35b600435906001600160a01b038216820361088457565b600080fd5b6000546001600160a01b0316330361089d57565b606460405162461bcd60e51b815260206004820152602060248201527f4f776e61626c653a2063616c6c6572206973206e6f7420746865206f776e65726044820152fdfea2646970667358221220713edf05376f92d227b6de73a053742e24607fdff0f6d113be83a4e3e2bc3f7f64736f6c63430008140033","opcodes":"PUSH1 0x80 DUP1 PUSH1 0x40 MSTORE CALLVALUE PUSH2 0x5B JUMPI PUSH1 0x0 DUP1 SLOAD CALLER PUSH1 0x1 PUSH1 0x1 PUSH1 0xA0 SHL SUB NOT DUP3 AND DUP2 OR DUP4 SSTORE SWAP2 PUSH1 0x1 PUSH1 0x1 PUSH1 0xA0 SHL SUB SWAP1 SWAP2 AND SWAP1 PUSH32 0x8BE0079C531659141344CD1FD0A4F28419497F9722A3DAAFE3B4186F6B6457E0 SWAP1 DUP1 LOG3 PUSH2 0x917 SWAP1 DUP2 PUSH2 0x61 DUP3 CODECOPY RETURN JUMPDEST PUSH1 0x0 DUP1 REVERT INVALID PUSH1 0x80 PUSH1 0x40 DUP2 DUP2 MSTORE PUSH1 0x4 DUP1 CALLDATASIZE LT ISZERO PUSH2 0x15 JUMPI PUSH1 0x0 DUP1 REVERT JUMPDEST PUSH1 0x0 SWAP3 DUP4 CALLDATALOAD PUSH1 0xE0 SHR SWAP1 DUP2 PUSH4 0x2B07FCE3 EQ PUSH2 0x7F0 JUMPI POP DUP1 PUSH4 0x454BBD29 EQ PUSH2 0x76B JUMPI DUP1 PUSH4 0x4681FDD2 EQ PUSH2 0x66C JUMPI DUP1 PUSH4 0x536FFF6C EQ PUSH2 0x62E JUMPI DUP1 PUSH4 0x715018A6 EQ PUSH2 0x5D1 JUMPI DUP1 PUSH4 0x8DA5CB5B EQ PUSH2 0x5A9 JUMPI DUP1 PUSH4 0x98414CA5 EQ PUSH2 0x4DF JUMPI DUP1 PUSH4 0xD3E89483 EQ PUSH2 0x461 JUMPI DUP1 PUSH4 0xD4D85C4B EQ PUSH2 0x222 JUMPI DUP1 PUSH4 0xEB4A4645 EQ PUSH2 0x161 JUMPI PUSH4 0xF2FDE38B EQ PUSH2 0x9C JUMPI PUSH1 0x0 DUP1 REVERT JUMPDEST CALLVALUE PUSH2 0x15D JUMPI PUSH1 0x20 CALLDATASIZE PUSH1 0x3 NOT ADD SLT PUSH2 0x15D JUMPI PUSH2 0xB5 PUSH2 0x86E JUMP JUMPDEST SWAP1 PUSH2 0xBE PUSH2 0x889 JUMP JUMPDEST PUSH1 0x1 PUSH1 0x1 PUSH1 0xA0 SHL SUB SWAP2 DUP3 AND SWAP3 DUP4 ISZERO PUSH2 0x10B JUMPI POP POP DUP3 SLOAD PUSH1 0x1 PUSH1 0x1 PUSH1 0xA0 SHL SUB NOT DUP2 AND DUP4 OR DUP5 SSTORE AND PUSH32 0x8BE0079C531659141344CD1FD0A4F28419497F9722A3DAAFE3B4186F6B6457E0 DUP4 DUP1 LOG3 DUP1 RETURN JUMPDEST SWAP1 PUSH1 0x20 PUSH1 0x84 SWAP3 MLOAD SWAP2 PUSH3 0x461BCD PUSH1 0xE5 SHL DUP4 MSTORE DUP3 ADD MSTORE PUSH1 0x26 PUSH1 0x24 DUP3 ADD MSTORE PUSH32 0x4F776E61626C653A206E6577206F776E657220697320746865207A65726F2061 PUSH1 0x44 DUP3 ADD MSTORE PUSH6 0x646472657373 PUSH1 0xD0 SHL PUSH1 0x64 DUP3 ADD MSTORE REVERT JUMPDEST DUP3 DUP1 REVERT JUMPDEST POP SWAP1 CALLVALUE PUSH2 0x15D JUMPI PUSH1 0x20 CALLDATASIZE PUSH1 0x3 NOT ADD SLT PUSH2 0x15D JUMPI DUP3 SLOAD DUP3 CALLDATALOAD SWAP3 SWAP1 PUSH1 0x1 PUSH1 0x1 PUSH1 0xA0 SHL SUB SWAP1 DUP2 AND CALLER EQ ISZERO DUP1 PUSH2 0x20C JUMPI JUMPDEST PUSH2 0x1FD JUMPI DUP4 DUP6 MSTORE PUSH1 0x1 PUSH1 0x20 MSTORE PUSH1 0x1 DUP4 DUP7 KECCAK256 ADD SLOAD AND ISZERO PUSH2 0x1E8 JUMPI POP DUP2 DUP4 MSTORE PUSH1 0x1 PUSH1 0x20 DUP2 SWAP1 MSTORE SWAP1 DUP4 KECCAK256 ADD DUP1 SLOAD PUSH1 0xFF PUSH1 0xA0 SHL NOT AND SWAP1 SSTORE PUSH32 0xA040C05C2AEA9AD7DA426CEFBF383FC472D4759806D4AA7D1257F00F0FAADD01 DUP3 DUP1 LOG2 DUP1 RETURN JUMPDEST DUP3 PUSH1 0x24 SWAP3 MLOAD SWAP2 PUSH4 0x2FF54551 PUSH1 0xE0 SHL DUP4 MSTORE DUP3 ADD MSTORE REVERT JUMPDEST POP SWAP1 MLOAD PUSH4 0xEA8E4EB5 PUSH1 0xE0 SHL DUP2 MSTORE REVERT JUMPDEST POP CALLER DUP6 MSTORE PUSH1 0x3 PUSH1 0x20 MSTORE PUSH1 0xFF DUP4 DUP7 KECCAK256 SLOAD AND ISZERO PUSH2 0x18E JUMP JUMPDEST POP SWAP2 SWAP1 CALLVALUE PUSH2 0x45D JUMPI PUSH1 0xA0 CALLDATASIZE PUSH1 0x3 NOT ADD SLT PUSH2 0x45D JUMPI PUSH1 0x1 PUSH1 0x1 PUSH1 0xA0 SHL SUB PUSH1 0x24 CALLDATALOAD DUP2 DUP2 AND SWAP2 DUP6 CALLDATALOAD SWAP2 DUP4 SWAP1 SUB PUSH2 0x459 JUMPI PUSH1 0x44 CALLDATALOAD SWAP4 PUSH1 0x64 CALLDATALOAD SWAP2 PUSH1 0x1 PUSH1 0x1 PUSH1 0x80 SHL SUB DUP1 DUP5 AND DUP1 SWAP5 SUB PUSH2 0x455 JUMPI PUSH1 0x84 CALLDATALOAD SWAP1 DUP1 DUP3 AND DUP1 SWAP3 SUB PUSH2 0x451 JUMPI DUP3 DUP10 SLOAD AND CALLER EQ ISZERO DUP1 PUSH2 0x43B JUMPI JUMPDEST PUSH2 0x42B JUMPI DUP6 DUP10 MSTORE PUSH1 0x1 SWAP5 DUP6 PUSH1 0x20 MSTORE DUP4 DUP7 DUP7 DUP13 KECCAK256 ADD SLOAD AND PUSH2 0x414 JUMPI DUP8 ISZERO PUSH2 0x404 JUMPI DUP3 ISZERO PUSH2 0x3F4 JUMPI DUP5 MLOAD SWAP4 PUSH1 0xE0 DUP6 ADD DUP6 DUP2 LT PUSH8 0xFFFFFFFFFFFFFFFF DUP3 GT OR PUSH2 0x3E1 JUMPI PUSH1 0x3 SWAP5 SWAP4 SWAP3 SWAP2 DUP12 SWAP2 DUP9 MSTORE DUP10 DUP8 MSTORE DUP13 DUP11 PUSH1 0x20 DUP10 ADD SWAP3 DUP14 DUP5 MSTORE DUP11 DUP1 DUP12 ADD SWAP4 DUP14 DUP6 MSTORE PUSH1 0x60 DUP13 ADD SWAP4 DUP2 DUP6 MSTORE PUSH1 0x80 DUP14 ADD SWAP8 DUP9 MSTORE PUSH1 0xA0 DUP14 ADD SWAP9 DUP10 MSTORE PUSH1 0xC0 DUP14 ADD SWAP11 DUP12 MSTORE DUP2 MSTORE DUP14 PUSH1 0x20 MSTORE KECCAK256 SWAP10 MLOAD DUP11 SSTORE DUP12 DUP11 ADD SWAP4 MLOAD AND DUP4 SLOAD SWAP3 PUSH1 0xFF PUSH1 0xA0 SHL SWAP1 MLOAD ISZERO ISZERO PUSH1 0xA0 SHL AND SWAP2 PUSH1 0xFF PUSH1 0xA8 SHL SWAP1 MLOAD ISZERO ISZERO PUSH1 0xA8 SHL AND SWAP3 PUSH10 0xFFFFFFFFFFFFFFFFFFFF PUSH1 0xB0 SHL AND OR OR OR SWAP1 SSTORE MLOAD PUSH1 0x2 DUP7 ADD SSTORE MLOAD AND SWAP1 PUSH1 0x1 PUSH1 0x1 PUSH1 0x80 SHL SUB NOT SWAP1 MLOAD PUSH1 0x80 SHL AND OR SWAP2 ADD SSTORE DUP5 DUP7 MSTORE PUSH1 0x2 PUSH1 0x20 MSTORE DUP6 KECCAK256 DUP1 SLOAD SWAP2 PUSH9 0x10000000000000000 DUP4 LT ISZERO PUSH2 0x3CE JUMPI DUP3 ADD DUP1 DUP3 SSTORE DUP3 LT ISZERO PUSH2 0x3BB JUMPI DUP6 MSTORE PUSH1 0x20 DUP6 KECCAK256 ADD DUP2 SWAP1 SSTORE PUSH32 0xCF3A4893CB3F0ADD7F10E3EFEF2991B7863B597AEFD01E4174E48BE4CCA3F476 DUP5 DUP1 LOG4 DUP1 RETURN JUMPDEST PUSH4 0x4E487B71 PUSH1 0xE0 SHL DUP7 MSTORE PUSH1 0x32 DUP8 MSTORE PUSH1 0x24 DUP7 REVERT JUMPDEST PUSH4 0x4E487B71 PUSH1 0xE0 SHL DUP8 MSTORE PUSH1 0x41 DUP9 MSTORE PUSH1 0x24 DUP8 REVERT JUMPDEST PUSH4 0x4E487B71 PUSH1 0xE0 SHL DUP13 MSTORE PUSH1 0x41 DUP14 MSTORE PUSH1 0x24 DUP13 REVERT JUMPDEST DUP5 MLOAD PUSH4 0x38F9BA5 PUSH1 0xE2 SHL DUP2 MSTORE DUP12 SWAP1 REVERT JUMPDEST DUP5 MLOAD PUSH4 0xD92E233D PUSH1 0xE0 SHL DUP2 MSTORE DUP12 SWAP1 REVERT JUMPDEST DUP5 MLOAD PUSH4 0x15E46FBB PUSH1 0xE0 SHL DUP2 MSTORE DUP1 DUP13 ADD DUP9 SWAP1 MSTORE PUSH1 0x24 SWAP1 REVERT JUMPDEST DUP4 MLOAD PUSH4 0xEA8E4EB5 PUSH1 0xE0 SHL DUP2 MSTORE DUP11 SWAP1 REVERT JUMPDEST POP CALLER DUP10 MSTORE PUSH1 0x3 PUSH1 0x20 MSTORE PUSH1 0xFF DUP5 DUP11 KECCAK256 SLOAD AND ISZERO PUSH2 0x284 JUMP JUMPDEST DUP9 DUP1 REVERT JUMPDEST DUP8 DUP1 REVERT JUMPDEST DUP5 DUP1 REVERT JUMPDEST POP DUP1 REVERT JUMPDEST POP CALLVALUE PUSH2 0x15D JUMPI PUSH1 0x20 CALLDATASIZE PUSH1 0x3 NOT ADD SLT PUSH2 0x15D JUMPI PUSH1 0xE0 SWAP3 DUP3 SWAP2 CALLDATALOAD DUP2 MSTORE PUSH1 0x1 PUSH1 0x20 MSTORE KECCAK256 SWAP1 DUP2 SLOAD SWAP2 PUSH1 0xFF PUSH1 0x1 DUP3 ADD SLOAD PUSH1 0x3 PUSH1 0x2 DUP5 ADD SLOAD SWAP4 ADD SLOAD SWAP4 DUP1 MLOAD SWAP6 DUP7 MSTORE PUSH1 0x1 DUP1 PUSH1 0xA0 SHL SUB DUP3 AND PUSH1 0x20 DUP8 ADD MSTORE DUP3 DUP3 PUSH1 0xA0 SHR AND ISZERO ISZERO SWAP1 DUP7 ADD MSTORE PUSH1 0xA8 SHR AND ISZERO ISZERO PUSH1 0x60 DUP5 ADD MSTORE PUSH1 0x80 DUP4 ADD MSTORE PUSH1 0x1 PUSH1 0x1 PUSH1 0x80 SHL SUB DUP2 AND PUSH1 0xA0 DUP4 ADD MSTORE PUSH1 0x80 SHR PUSH1 0xC0 DUP3 ADD MSTORE RETURN JUMPDEST POP SWAP2 SWAP1 CALLVALUE PUSH2 0x45D JUMPI PUSH1 0x20 DUP1 PUSH1 0x3 NOT CALLDATASIZE ADD SLT PUSH2 0x15D JUMPI DUP4 CALLDATALOAD DUP4 MSTORE PUSH1 0x2 DUP2 MSTORE DUP2 DUP4 KECCAK256 SWAP3 DUP3 MLOAD SWAP3 DUP4 DUP4 DUP7 SLOAD SWAP2 DUP3 DUP2 MSTORE ADD SWAP1 DUP2 SWAP7 DUP5 MSTORE DUP5 DUP5 KECCAK256 SWAP1 DUP5 JUMPDEST DUP7 DUP3 DUP3 LT PUSH2 0x595 JUMPI POP POP POP POP DUP5 SWAP1 SUB PUSH1 0x1F ADD PUSH1 0x1F NOT AND DUP5 ADD SWAP6 PUSH8 0xFFFFFFFFFFFFFFFF DUP8 GT DUP6 DUP9 LT OR PUSH2 0x582 JUMPI POP DUP6 DUP2 MSTORE DUP3 DUP7 MSTORE SWAP3 MLOAD DUP6 DUP4 ADD DUP2 SWAP1 MSTORE DUP6 SWAP5 SWAP4 DUP6 ADD SWAP4 SWAP3 SWAP1 SWAP2 JUMPDEST DUP3 DUP2 LT PUSH2 0x56B JUMPI POP POP POP POP SUB SWAP1 RETURN JUMPDEST DUP4 MLOAD DUP6 MSTORE DUP7 SWAP6 POP SWAP4 DUP2 ADD SWAP4 SWAP3 DUP2 ADD SWAP3 PUSH1 0x1 ADD PUSH2 0x55C JUMP JUMPDEST PUSH4 0x4E487B71 PUSH1 0xE0 SHL DUP4 MSTORE PUSH1 0x41 SWAP1 MSTORE PUSH1 0x24 DUP3 REVERT JUMPDEST DUP4 SLOAD DUP6 MSTORE SWAP1 SWAP4 ADD SWAP3 PUSH1 0x1 SWAP3 DUP4 ADD SWAP3 ADD PUSH2 0x517 JUMP JUMPDEST POP POP CALLVALUE PUSH2 0x45D JUMPI DUP2 PUSH1 0x3 NOT CALLDATASIZE ADD SLT PUSH2 0x45D JUMPI SWAP1 SLOAD SWAP1 MLOAD PUSH1 0x1 PUSH1 0x1 PUSH1 0xA0 SHL SUB SWAP1 SWAP2 AND DUP2 MSTORE PUSH1 0x20 SWAP1 RETURN JUMPDEST DUP4 CALLVALUE PUSH2 0x62B JUMPI DUP1 PUSH1 0x3 NOT CALLDATASIZE ADD SLT PUSH2 0x62B JUMPI PUSH2 0x5EA PUSH2 0x889 JUMP JUMPDEST DUP1 SLOAD PUSH1 0x1 PUSH1 0x1 PUSH1 0xA0 SHL SUB NOT DUP2 AND DUP3 SSTORE DUP2 SWAP1 PUSH1 0x1 PUSH1 0x1 PUSH1 0xA0 SHL SUB AND PUSH32 0x8BE0079C531659141344CD1FD0A4F28419497F9722A3DAAFE3B4186F6B6457E0 DUP3 DUP1 LOG3 DUP1 RETURN JUMPDEST DUP1 REVERT JUMPDEST POP POP CALLVALUE PUSH2 0x45D JUMPI PUSH1 0x20 CALLDATASIZE PUSH1 0x3 NOT ADD SLT PUSH2 0x45D JUMPI PUSH1 0x20 SWAP2 PUSH1 0xFF SWAP1 DUP3 SWAP1 PUSH1 0x1 PUSH1 0x1 PUSH1 0xA0 SHL SUB PUSH2 0x659 PUSH2 0x86E JUMP JUMPDEST AND DUP2 MSTORE PUSH1 0x3 DUP6 MSTORE KECCAK256 SLOAD AND SWAP1 MLOAD SWAP1 ISZERO ISZERO DUP2 MSTORE RETURN JUMPDEST POP SWAP1 CALLVALUE PUSH2 0x15D JUMPI PUSH1 0x20 CALLDATASIZE PUSH1 0x3 NOT ADD SLT PUSH2 0x15D JUMPI DUP3 SLOAD DUP3 CALLDATALOAD SWAP3 PUSH1 0x1 PUSH1 0x1 PUSH1 0xA0 SHL SUB SWAP2 DUP3 AND CALLER EQ ISZERO DUP1 PUSH2 0x755 JUMPI JUMPDEST PUSH2 0x747 JUMPI DUP4 DUP6 MSTORE PUSH1 0x1 PUSH1 0x20 MSTORE PUSH1 0x1 DUP4 DUP7 KECCAK256 ADD SWAP3 DUP4 SLOAD SWAP3 DUP4 AND ISZERO PUSH2 0x731 JUMPI PUSH1 0xFF DUP4 PUSH1 0xA0 SHR AND ISZERO PUSH2 0x71B JUMPI PUSH1 0xFF DUP4 PUSH1 0xA8 SHR AND PUSH2 0x705 JUMPI POP POP PUSH2 0xFFFF PUSH1 0xA0 SHL NOT AND PUSH1 0x1 PUSH1 0xA8 SHL OR SWAP1 SSTORE PUSH32 0xF2F9221ADAD21A2D6A9450707B14E7948B23AE67555194D29A8CB05B8A153287 DUP3 DUP1 LOG2 DUP1 RETURN JUMPDEST MLOAD PUSH4 0xDE138DEF PUSH1 0xE0 SHL DUP2 MSTORE SWAP1 DUP2 ADD DUP5 SWAP1 MSTORE PUSH1 0x24 SWAP1 REVERT JUMPDEST MLOAD PUSH4 0xA3068E7B PUSH1 0xE0 SHL DUP2 MSTORE SWAP1 DUP2 ADD DUP5 SWAP1 MSTORE PUSH1 0x24 SWAP1 REVERT JUMPDEST MLOAD PUSH4 0x2FF54551 PUSH1 0xE0 SHL DUP2 MSTORE SWAP1 DUP2 ADD DUP5 SWAP1 MSTORE PUSH1 0x24 SWAP1 REVERT JUMPDEST DUP3 MLOAD PUSH4 0xEA8E4EB5 PUSH1 0xE0 SHL DUP2 MSTORE REVERT JUMPDEST POP CALLER DUP6 MSTORE PUSH1 0x3 PUSH1 0x20 MSTORE PUSH1 0xFF DUP4 DUP7 KECCAK256 SLOAD AND ISZERO PUSH2 0x698 JUMP JUMPDEST POP POP CALLVALUE PUSH2 0x45D JUMPI DUP1 PUSH1 0x3 NOT CALLDATASIZE ADD SLT PUSH2 0x45D JUMPI PUSH2 0x785 PUSH2 0x86E JUMP JUMPDEST SWAP1 PUSH1 0x24 CALLDATALOAD DUP1 ISZERO ISZERO DUP1 SWAP2 SUB PUSH2 0x7EC JUMPI PUSH32 0x100C9FD652C7B273C9266F92F22AC2352EB8D7232013AC0439E9066A9227F369 SWAP3 PUSH2 0x7BD PUSH2 0x889 JUMP JUMPDEST PUSH1 0x1 DUP1 PUSH1 0xA0 SHL SUB AND SWAP1 DUP2 DUP6 MSTORE PUSH1 0x3 PUSH1 0x20 MSTORE DUP3 DUP6 KECCAK256 PUSH1 0xFF NOT DUP2 SLOAD AND PUSH1 0xFF DUP4 AND OR SWAP1 SSTORE DUP3 MLOAD SWAP2 DUP3 MSTORE PUSH1 0x20 DUP3 ADD MSTORE LOG1 DUP1 RETURN JUMPDEST DUP4 DUP1 REVERT JUMPDEST SWAP3 SWAP2 SWAP1 POP CALLVALUE PUSH2 0x7EC JUMPI PUSH1 0x20 CALLDATASIZE PUSH1 0x3 NOT ADD SLT PUSH2 0x7EC JUMPI SWAP1 DUP1 PUSH1 0xE0 SWAP5 PUSH1 0xFF SWAP4 CALLDATALOAD DUP2 MSTORE PUSH1 0x1 PUSH1 0x20 MSTORE KECCAK256 DUP1 SLOAD SWAP1 PUSH1 0x1 DUP2 ADD SLOAD SWAP3 PUSH1 0x3 PUSH1 0x2 DUP4 ADD SLOAD SWAP3 ADD SLOAD SWAP3 DUP7 MSTORE PUSH1 0x1 DUP1 PUSH1 0xA0 SHL SUB DUP5 AND PUSH1 0x20 DUP8 ADD MSTORE DUP6 ADD MSTORE PUSH1 0x1 PUSH1 0x1 PUSH1 0x80 SHL SUB DUP2 AND PUSH1 0x60 DUP6 ADD MSTORE PUSH1 0x80 SHR PUSH1 0x80 DUP5 ADD MSTORE DUP2 DUP2 PUSH1 0xA0 SHR AND ISZERO ISZERO PUSH1 0xA0 DUP5 ADD MSTORE PUSH1 0xA8 SHR AND ISZERO ISZERO PUSH1 0xC0 DUP3 ADD MSTORE RETURN JUMPDEST PUSH1 0x4 CALLDATALOAD SWAP1 PUSH1 0x1 PUSH1 0x1 PUSH1 0xA0 SHL SUB DUP3 AND DUP3 SUB PUSH2 0x884 JUMPI JUMP JUMPDEST PUSH1 0x0 DUP1 REVERT JUMPDEST PUSH1 0x0 SLOAD PUSH1 0x1 PUSH1 0x1 PUSH1 0xA0 SHL SUB AND CALLER SUB PUSH2 0x89D JUMPI JUMP JUMPDEST PUSH1 0x64 PUSH1 0x40 MLOAD PUSH3 0x461BCD PUSH1 0xE5 SHL DUP2 MSTORE PUSH1 0x20 PUSH1 0x4 DUP3 ADD MSTORE PUSH1 0x20 PUSH1 0x24 DUP3 ADD MSTORE PUSH32 0x4F776E61626C653A2063616C6C6572206973206E6F7420746865206F776E6572 PUSH1 0x44 DUP3 ADD MSTORE REVERT INVALID LOG2 PUSH5 0x6970667358 0x22 SLT KECCAK256 PUSH18 0x3EDF05376F92D227B6DE73A053742E24607F 0xDF CREATE 0xF6 0xD1 SGT 0xBE DUP4 LOG4 0xE3 0xE2 0xBC EXTCODEHASH PUSH32 0x64736F6C63430008140033000000000000000000000000000000000000000000 "},"methodIdentifiers":{"authorizedCallers(address)":"536fff6c","deactivatePolicy(uint256)":"eb4a4645","getPoliciesByH3(bytes32)":"98414ca5","getPolicy(uint256)":"2b07fce3","markPaidOut(uint256)":"4681fdd2","owner()":"8da5cb5b","policies(uint256)":"d3e89483","registerPolicy(uint256,address,bytes32,uint128,uint128)":"d4d85c4b","renounceOwnership()":"715018a6","setAuthorizedCaller(address,bool)":"454bbd29","transferOwnership(address)":"f2fde38b"}}}}}