{"contracts/core/KilimaShieldOracle.sol":{"KilimaShieldOracle":{"abi":[{"inputs":[{"internalType":"address","name":"_policyRegistry","type":"address"},{"internalType":"address payable","name":"_escrowVault","type":"address"}],"stateMutability":"nonpayable","type":"constructor"},{"anonymous":false,"inputs":[{"indexed":true,"internalType":"bytes32","name":"h3Index","type":"bytes32"},{"indexed":false,"internalType":"uint256","name":"timestamp","type":"uint256"},{"indexed":false,"internalType":"uint256","name":"medianRainfall","type":"uint256"},{"indexed":false,"internalType":"uint256","name":"medianNdvi","type":"uint256"}],"name":"ConsensusReached","type":"event"},{"anonymous":false,"inputs":[{"indexed":true,"internalType":"address","name":"oracle","type":"address"},{"indexed":true,"internalType":"bytes32","name":"h3Index","type":"bytes32"},{"indexed":false,"internalType":"uint256","name":"timestamp","type":"uint256"}],"name":"DataSubmitted","type":"event"},{"anonymous":false,"inputs":[{"indexed":true,"internalType":"address","name":"oracle","type":"address"},{"indexed":false,"internalType":"bool","name":"authorized","type":"bool"}],"name":"OracleAuthorized","type":"event"},{"anonymous":false,"inputs":[{"indexed":true,"internalType":"address","name":"previousOwner","type":"address"},{"indexed":true,"internalType":"address","name":"newOwner","type":"address"}],"name":"OwnershipTransferred","type":"event"},{"anonymous":false,"inputs":[{"indexed":true,"internalType":"uint256","name":"policyId","type":"uint256"},{"indexed":true,"internalType":"address","name":"farmer","type":"address"},{"indexed":false,"internalType":"uint256","name":"amount","type":"uint256"}],"name":"PayoutTriggered","type":"event"},{"anonymous":false,"inputs":[{"indexed":true,"internalType":"uint256","name":"policyId","type":"uint256"},{"indexed":true,"internalType":"address","name":"farmer","type":"address"},{"indexed":true,"internalType":"bytes32","name":"h3Index","type":"bytes32"}],"name":"PolicyRegistered","type":"event"},{"inputs":[],"name":"escrowVault","outputs":[{"internalType":"contract EscrowVault","name":"","type":"address"}],"stateMutability":"view","type":"function"},{"inputs":[{"internalType":"uint256","name":"a","type":"uint256"},{"internalType":"uint256","name":"b","type":"uint256"},{"internalType":"uint256","name":"c","type":"uint256"}],"name":"getMedian","outputs":[{"internalType":"uint256","name":"","type":"uint256"}],"stateMutability":"pure","type":"function"},{"inputs":[{"internalType":"address","name":"","type":"address"}],"name":"isAuthorizedOracle","outputs":[{"internalType":"bool","name":"","type":"bool"}],"stateMutability":"view","type":"function"},{"inputs":[],"name":"oracleCount","outputs":[{"internalType":"uint256","name":"","type":"uint256"}],"stateMutability":"view","type":"function"},{"inputs":[],"name":"owner","outputs":[{"internalType":"address","name":"","type":"address"}],"stateMutability":"view","type":"function"},{"inputs":[],"name":"policyRegistry","outputs":[{"internalType":"contract PolicyRegistry","name":"","type":"address"}],"stateMutability":"view","type":"function"},{"inputs":[{"internalType":"uint256","name":"policyId","type":"uint256"},{"internalType":"address","name":"farmer","type":"address"},{"internalType":"bytes32","name":"h3Index","type":"bytes32"},{"internalType":"uint256","name":"threshold","type":"uint256"},{"internalType":"uint256","name":"payoutAmount","type":"uint256"}],"name":"registerPolicy","outputs":[],"stateMutability":"payable","type":"function"},{"inputs":[],"name":"renounceOwnership","outputs":[],"stateMutability":"nonpayable","type":"function"},{"inputs":[{"internalType":"address","name":"oracle","type":"address"},{"internalType":"bool","name":"authorized","type":"bool"}],"name":"setAuthorizedOracle","outputs":[],"stateMutability":"nonpayable","type":"function"},{"inputs":[{"internalType":"bytes32","name":"","type":"bytes32"},{"internalType":"uint256","name":"","type":"uint256"},{"internalType":"address","name":"","type":"address"}],"name":"submissions","outputs":[{"internalType":"uint256","name":"rainfall","type":"uint256"},{"internalType":"uint256","name":"ndvi","type":"uint256"},{"internalType":"bool","name":"exists","type":"bool"}],"stateMutability":"view","type":"function"},{"inputs":[{"internalType":"bytes32","name":"h3Index","type":"bytes32"},{"internalType":"uint256","name":"timestamp","type":"uint256"},{"internalType":"uint256","name":"rainfall","type":"uint256"},{"internalType":"uint256","name":"ndvi","type":"uint256"},{"internalType":"bytes","name":"signature","type":"bytes"}],"name":"submitData","outputs":[],"stateMutability":"nonpayable","type":"function"},{"inputs":[{"internalType":"bytes32","name":"","type":"bytes32"},{"internalType":"uint256","name":"","type":"uint256"},{"internalType":"uint256","name":"","type":"uint256"}],"name":"submitters","outputs":[{"internalType":"address","name":"","type":"address"}],"stateMutability":"view","type":"function"},{"inputs":[{"internalType":"address","name":"newOwner","type":"address"}],"name":"transferOwnership","outputs":[],"stateMutability":"nonpayable","type":"function"}],"evm":{"bytecode":{"linkReferences":{},"object":"60803461015857601f6115e938819003918201601f19168301916001600160401b0383118484101761015d5780849260409485528339810103126101585780516001600160a01b03808216929091839003610158576020015191818316809303610158576000549160018060a01b0319923384821617600055604051913391167f8be0079c531659141344cd1fd0a4f28419497f9722a3daafe3b4186f6b6457e0600080a38115610116575082156100d157816001541617600155600254161760025560405161147590816101748239f35b60405162461bcd60e51b815260206004820152601660248201527f496e76616c696420657363726f772061646472657373000000000000000000006044820152606490fd5b62461bcd60e51b815260206004820152601860248201527f496e76616c6964207265676973747279206164647265737300000000000000006044820152606490fd5b600080fd5b634e487b7160e01b600052604160045260246000fdfe6080604052600436101561001257600080fd5b60003560e01c80631c4dd7d0146100e7578063613d8fcc146100e25780636e74ba84146100dd578063715018a6146100d85780638a2ae60b146100d35780638c41c699146100ce5780638da5cb5b146100c9578063ad5a15e6146100c4578063b9df9668146100bf578063bfe609da146100ba578063c7a6de4d146100b5578063d96539a0146100b05763f2fde38b146100ab57600080fd5b61074d565b610721565b6105ec565b6105a0565b610516565b61032c565b610303565b610287565b610233565b6101d8565b610176565b610125565b6100fc565b60009103126100f757565b600080fd5b346100f75760003660031901126100f7576001546040516001600160a01b039091168152602090f35b346100f75760003660031901126100f7576020600454604051908152f35b634e487b7160e01b600052603260045260246000fd5b80548210156101715760005260206000200190600090565b610143565b346100f75760603660031901126100f757604435600060043581526006602052604081206024358252602052604081209081548310156101d55760206101bc8484610159565b905460405160039290921b1c6001600160a01b03168152f35b80fd5b346100f7576000806003193601126101d5576101f2610814565b80546001600160a01b03198116825581906001600160a01b03167f8be0079c531659141344cd1fd0a4f28419497f9722a3daafe3b4186f6b6457e08280a380f35b346100f75760003660031901126100f7576002546040516001600160a01b039091168152602090f35b6001600160a01b038116036100f757565b6001600160a01b0316600090815260036020526040902090565b346100f75760603660031901126100f75760606102de6044356102a98161025c565b6004356000526005602052604060002060243560005260205260406000209060018060a01b0316600052602052604060002090565b80549060ff600260018301549201541690604051928352602083015215156040820152f35b346100f75760003660031901126100f7576000546040516001600160a01b039091168152602090f35b60a03660031901126100f7576024356004356103478261025c565b60443590610353610814565b61036461035f8361140e565b6108e8565b61036f341515610934565b60015461038c906001600160a01b03165b6001600160a01b031690565b92833b156100f7576040516356ad0af360e11b8152600481018390526001600160a01b038216602482015260448101849052606480359082015260848035908201526000948590829060a490829084905af1801561047e57610487575b506002546103ff906001600160a01b0316610380565b803b1561048357604051630eeab8ed60e41b8152600481018490529085908290602490829034905af1801561047e57610465575b506001600160a01b0316907fcf3a4893cb3f0add7f10e3efef2991b7863b597aefd01e4174e48be4cca3f4768480a480f35b80610472610478926104b0565b806100ec565b38610433565b610980565b8480fd5b80610472610494926104b0565b386103e9565b634e487b7160e01b600052604160045260246000fd5b67ffffffffffffffff81116104c457604052565b61049a565b6060810190811067ffffffffffffffff8211176104c457604052565b90601f8019910116810190811067ffffffffffffffff8211176104c457604052565b60405190610514826104c9565b565b346100f75760a03660031901126100f75760843567ffffffffffffffff8082116100f757366023830112156100f75781600401359081116104c45760405190610569601f8201601f1916602001836104e5565b80825236602482850101116100f757602081600092602461059e96018386013783010152606435604435602435600435610b3b565b005b346100f75760203660031901126100f7576004356105bd8161025c565b60018060a01b03166000526003602052602060ff604060002054166040519015158152f35b801515036100f757565b346100f75760403660031901126100f7576004356106098161025c565b7f82a8fb1e779ea45ad427cc612e47087f5386a567e49dce488185e40646fa48d56106a3602435610639816105e2565b610641610814565b6001600160a01b038416936106919082906106809061066188151561086c565b82806106f2575b156106a85761026d61067b6004546108d9565b600455565b9060ff801983541691151516179055565b60405190151581529081906020820190565b0390a2005b8215806106c8575b1561026d576106c361067b6004546108c7565b61026d565b506001600160a01b03811660009081526003602052604090206106ed905b5460ff1690565b6106b0565b506001600160a01b038116600090815260036020526040902061071c90610718906106e6565b1590565b610668565b346100f75760603660031901126100f7576020610745604435602435600435611285565b604051908152f35b346100f75760203660031901126100f75760043561076a8161025c565b610772610814565b6001600160a01b0390811680156107c057600080546001600160a01b03198116831782559092167f8be0079c531659141344cd1fd0a4f28419497f9722a3daafe3b4186f6b6457e08380a380f35b60405162461bcd60e51b815260206004820152602660248201527f4f776e61626c653a206e6577206f776e657220697320746865207a65726f206160448201526564647265737360d01b6064820152608490fd5b6000546001600160a01b0316330361082857565b606460405162461bcd60e51b815260206004820152602060248201527f4f776e61626c653a2063616c6c6572206973206e6f7420746865206f776e65726044820152fd5b1561087357565b60405162461bcd60e51b8152602060048201526016602482015275496e76616c6964206f7261636c65206164647265737360501b6044820152606490fd5b634e487b7160e01b600052601160045260246000fd5b80156108d4576000190190565b6108b1565b60001981146108d45760010190565b156108ef57565b60405162461bcd60e51b815260206004820152601860248201527f496e76616c6964204833207370617469616c20696e64657800000000000000006044820152606490fd5b1561093b57565b60405162461bcd60e51b815260206004820152601860248201527f5072656d69756d207061796d656e7420726571756972656400000000000000006044820152606490fd5b6040513d6000823e3d90fd5b1561099357565b60405162461bcd60e51b815260206004820152601d60248201527f556e617574686f72697a6564206f7261636c65207369676e61747572650000006044820152606490fd5b156109df57565b60405162461bcd60e51b815260206004820152602860248201527f4f7261636c6520616c7265616479207375626d697474656420666f7220746869604482015267732077696e646f7760c01b6064820152608490fd5b600260406105149380518455602081015160018501550151151591019060ff801983541691151516179055565b8054680100000000000000008110156104c457610a8491600182018155610159565b819291549060031b9160018060a01b03809116831b921b1916179055565b9060405191828154918282526020928383019160005283600020936000905b828210610ad757505050610514925003836104e5565b85546001600160a01b031684526001958601958895509381019390910190610ac1565b8051156101715760200190565b8051600110156101715760400190565b8051600210156101715760600190565b80518210156101715760209160051b010190565b938492610b93610c4d92959395610b5461035f8761140e565b60408051602081018881529181018990526060810185905260808082018890528152610b8e9190610b8660a0826104e5565b5190206113cb565b61131e565b92610bbb610bb66106e68660018060a01b03166000526003602052604060002090565b61098c565b610c15610c106107186002610c0888610bf18c610be28d6000526005602052604060002090565b90600052602052604060002090565b9060018060a01b0316600052602052604060002090565b015460ff1690565b6109d8565b610c1d610507565b918252602082015260016040820152610c4883610bf187610be2886000526005602052604060002090565b610a35565b610c6e81610c6985610be2866000526006602052604060002090565b610a62565b6040518381526001600160a01b0391909116907f0f64771ec9547f883a107f8226a072ad98743a848432de28433576863c2eab5990602090a36003610cc182610be2856000526006602052604060002090565b5414610ccb575050565b8181610ce1826000526006602052604060002090565b600091825260205260409020610cf690610aa2565b9180610d0c836000526005602052604060002090565b600091825260205260409020610d2184610afa565b516001600160a01b03166001600160a01b0316600090815260209190915260409020549281610d5a846000526005602052604060002090565b600091825260205260409020610d6f82610b07565b516001600160a01b03166001600160a01b0316600090815260209190915260409020549382610da8856000526005602052604060002090565b600091825260205260409020610dbd83610b17565b516001600160a01b03166001600160a01b0316600090815260209190915260409020549083610df6866000526005602052604060002090565b600091825260205260409020610e0b84610afa565b516001600160a01b03166001600160a01b0316600090815260209190915260409020600101549184610e47876000526005602052604060002090565b600091825260205260409020610e5c85610b07565b516001600160a01b03166001600160a01b0316600090815260209190915260409020600101549385610e98886000526005602052604060002090565b60009182526020526040902090610eae90610b17565b516001600160a01b03166000908152602091909152604090206001015496610ed592611285565b948592610ee192611285565b604080519384526020840192909252908201527fcff36dffb395320017e6e2a92054400eb09b8ac406c40044ff3cf91bbba1c1c190606090a261051491610fed565b9060209081838203126100f757825167ffffffffffffffff938482116100f7570181601f820112156100f75780519384116104c4578360051b9060405194610f6d858401876104e5565b855283808601928201019283116100f7578301905b828210610f90575050505090565b81518152908301908301610f82565b908160e09103126100f7578051916020820151610fbb8161025c565b9160408101519160608201519160808101519160c060a0830151610fde816105e2565b920151610fea816105e2565b90565b60018054909190611006906001600160a01b0316610380565b604093845180926398414ca560e01b8252600091829181806110316004998a83019190602083019252565b03915afa801561047e5785938291611263575b5081935b611056575b50505050505050565b805184101561125e576110698482610b27565b518654909490611081906001600160a01b0316610380565b885190632b07fce360e01b825260e0968783806110a5848d83019190602083019252565b0381855afa91821561047e578a988793889089968a938b92611220575b505082611217575b508161120d575b506110ea575b505050506110e4906108d9565b93611048565b8091929398503b156111f6578a51632340fee960e11b8152808a018381529091879183919082908490829060200103925af1801561047e576111fa575b5060025461113d906001600160a01b0316610380565b6001600160a01b0390921691803b156111f6578a5163ae2f5d9360e01b8152808a018381526001600160a01b0385166020820152604081018a905290989493929187918a919082908490829060600103925af197881561047e576111d76110e4957f7884580f743f908c98258afac53f9e0929cd6787b3488df80e096df15409ef8f928d9b6111e3575b508d519081529081906020820190565b0390a3903880806110d7565b806104726111f0926104b0565b386111c7565b8580fd5b80610472611207926104b0565b38611127565b90508810386110d1565b159150386110ca565b93509395505050611247929450803d10611257575b61123f81836104e5565b810190610f9f565b91979496949550925038806110c2565b503d611235565b61104d565b61127f91503d8084833e61127781836104e5565b810190610f23565b38611044565b9091828211158080611302575b80156112ed575b156112a45750505090565b90918093111590816112e2575b81156112c7575b50156112c2575090565b905090565b838311159150816112da575b50386112b8565b9050386112d3565b8284111591506112b1565b50838211158015611299575082841115611299565b5081841115611292565b60ff601b9116019060ff82116108d457565b9060418151036113c45760009160208201519260606040840151930151901a90601b82106113b4575b60ff8216601b81141590816113a8575b5061139f5761138b600093602095604051948594859094939260ff6060936080840197845216602083015260408201520152565b838052039060015afa1561047e5760005190565b50505050600090565b601c9150141538611357565b906113be9061130c565b90611347565b5050600090565b60405160208101917f19457468657265756d205369676e6564204d6573736167653a0a3332000000008352603c820152603c8152611408816104c9565b51902090565b8015611439576001600f82603b1c160361143957600f809160341c161161143457600190565b600090565b5060009056fea2646970667358221220ce68af3b45e53417d108f8f1a1387da1c0473c68b90f48478cf2a8ea99874f7564736f6c63430008140033","opcodes":"PUSH1 0x80 CALLVALUE PUSH2 0x158 JUMPI PUSH1 0x1F PUSH2 0x15E9 CODESIZE DUP2 SWAP1 SUB SWAP2 DUP3 ADD PUSH1 0x1F NOT AND DUP4 ADD SWAP2 PUSH1 0x1 PUSH1 0x1 PUSH1 0x40 SHL SUB DUP4 GT DUP5 DUP5 LT OR PUSH2 0x15D JUMPI DUP1 DUP5 SWAP3 PUSH1 0x40 SWAP5 DUP6 MSTORE DUP4 CODECOPY DUP2 ADD SUB SLT PUSH2 0x158 JUMPI DUP1 MLOAD PUSH1 0x1 PUSH1 0x1 PUSH1 0xA0 SHL SUB DUP1 DUP3 AND SWAP3 SWAP1 SWAP2 DUP4 SWAP1 SUB PUSH2 0x158 JUMPI PUSH1 0x20 ADD MLOAD SWAP2 DUP2 DUP4 AND DUP1 SWAP4 SUB PUSH2 0x158 JUMPI PUSH1 0x0 SLOAD SWAP2 PUSH1 0x1 DUP1 PUSH1 0xA0 SHL SUB NOT SWAP3 CALLER DUP5 DUP3 AND OR PUSH1 0x0 SSTORE PUSH1 0x40 MLOAD SWAP2 CALLER SWAP2 AND PUSH32 0x8BE0079C531659141344CD1FD0A4F28419497F9722A3DAAFE3B4186F6B6457E0 PUSH1 0x0 DUP1 LOG3 DUP2 ISZERO PUSH2 0x116 JUMPI POP DUP3 ISZERO PUSH2 0xD1 JUMPI DUP2 PUSH1 0x1 SLOAD AND OR PUSH1 0x1 SSTORE PUSH1 0x2 SLOAD AND OR PUSH1 0x2 SSTORE PUSH1 0x40 MLOAD PUSH2 0x1475 SWAP1 DUP2 PUSH2 0x174 DUP3 CODECOPY RETURN JUMPDEST PUSH1 0x40 MLOAD PUSH3 0x461BCD PUSH1 0xE5 SHL DUP2 MSTORE PUSH1 0x20 PUSH1 0x4 DUP3 ADD MSTORE PUSH1 0x16 PUSH1 0x24 DUP3 ADD MSTORE PUSH32 0x496E76616C696420657363726F77206164647265737300000000000000000000 PUSH1 0x44 DUP3 ADD MSTORE PUSH1 0x64 SWAP1 REVERT JUMPDEST PUSH3 0x461BCD PUSH1 0xE5 SHL DUP2 MSTORE PUSH1 0x20 PUSH1 0x4 DUP3 ADD MSTORE PUSH1 0x18 PUSH1 0x24 DUP3 ADD MSTORE PUSH32 0x496E76616C696420726567697374727920616464726573730000000000000000 PUSH1 0x44 DUP3 ADD MSTORE PUSH1 0x64 SWAP1 REVERT JUMPDEST PUSH1 0x0 DUP1 REVERT JUMPDEST PUSH4 0x4E487B71 PUSH1 0xE0 SHL PUSH1 0x0 MSTORE PUSH1 0x41 PUSH1 0x4 MSTORE PUSH1 0x24 PUSH1 0x0 REVERT INVALID PUSH1 0x80 PUSH1 0x40 MSTORE PUSH1 0x4 CALLDATASIZE LT ISZERO PUSH2 0x12 JUMPI PUSH1 0x0 DUP1 REVERT JUMPDEST PUSH1 0x0 CALLDATALOAD PUSH1 0xE0 SHR DUP1 PUSH4 0x1C4DD7D0 EQ PUSH2 0xE7 JUMPI DUP1 PUSH4 0x613D8FCC EQ PUSH2 0xE2 JUMPI DUP1 PUSH4 0x6E74BA84 EQ PUSH2 0xDD JUMPI DUP1 PUSH4 0x715018A6 EQ PUSH2 0xD8 JUMPI DUP1 PUSH4 0x8A2AE60B EQ PUSH2 0xD3 JUMPI DUP1 PUSH4 0x8C41C699 EQ PUSH2 0xCE JUMPI DUP1 PUSH4 0x8DA5CB5B EQ PUSH2 0xC9 JUMPI DUP1 PUSH4 0xAD5A15E6 EQ PUSH2 0xC4 JUMPI DUP1 PUSH4 0xB9DF9668 EQ PUSH2 0xBF JUMPI DUP1 PUSH4 0xBFE609DA EQ PUSH2 0xBA JUMPI DUP1 PUSH4 0xC7A6DE4D EQ PUSH2 0xB5 JUMPI DUP1 PUSH4 0xD96539A0 EQ PUSH2 0xB0 JUMPI PUSH4 0xF2FDE38B EQ PUSH2 0xAB JUMPI PUSH1 0x0 DUP1 REVERT JUMPDEST PUSH2 0x74D JUMP JUMPDEST PUSH2 0x721 JUMP JUMPDEST PUSH2 0x5EC JUMP JUMPDEST PUSH2 0x5A0 JUMP JUMPDEST PUSH2 0x516 JUMP JUMPDEST PUSH2 0x32C JUMP JUMPDEST PUSH2 0x303 JUMP JUMPDEST PUSH2 0x287 JUMP JUMPDEST PUSH2 0x233 JUMP JUMPDEST PUSH2 0x1D8 JUMP JUMPDEST PUSH2 0x176 JUMP JUMPDEST PUSH2 0x125 JUMP JUMPDEST PUSH2 0xFC JUMP JUMPDEST PUSH1 0x0 SWAP2 SUB SLT PUSH2 0xF7 JUMPI JUMP JUMPDEST PUSH1 0x0 DUP1 REVERT JUMPDEST CALLVALUE PUSH2 0xF7 JUMPI PUSH1 0x0 CALLDATASIZE PUSH1 0x3 NOT ADD SLT PUSH2 0xF7 JUMPI PUSH1 0x1 SLOAD PUSH1 0x40 MLOAD PUSH1 0x1 PUSH1 0x1 PUSH1 0xA0 SHL SUB SWAP1 SWAP2 AND DUP2 MSTORE PUSH1 0x20 SWAP1 RETURN JUMPDEST CALLVALUE PUSH2 0xF7 JUMPI PUSH1 0x0 CALLDATASIZE PUSH1 0x3 NOT ADD SLT PUSH2 0xF7 JUMPI PUSH1 0x20 PUSH1 0x4 SLOAD PUSH1 0x40 MLOAD SWAP1 DUP2 MSTORE RETURN JUMPDEST PUSH4 0x4E487B71 PUSH1 0xE0 SHL PUSH1 0x0 MSTORE PUSH1 0x32 PUSH1 0x4 MSTORE PUSH1 0x24 PUSH1 0x0 REVERT JUMPDEST DUP1 SLOAD DUP3 LT ISZERO PUSH2 0x171 JUMPI PUSH1 0x0 MSTORE PUSH1 0x20 PUSH1 0x0 KECCAK256 ADD SWAP1 PUSH1 0x0 SWAP1 JUMP JUMPDEST PUSH2 0x143 JUMP JUMPDEST CALLVALUE PUSH2 0xF7 JUMPI PUSH1 0x60 CALLDATASIZE PUSH1 0x3 NOT ADD SLT PUSH2 0xF7 JUMPI PUSH1 0x44 CALLDATALOAD PUSH1 0x0 PUSH1 0x4 CALLDATALOAD DUP2 MSTORE PUSH1 0x6 PUSH1 0x20 MSTORE PUSH1 0x40 DUP2 KECCAK256 PUSH1 0x24 CALLDATALOAD DUP3 MSTORE PUSH1 0x20 MSTORE PUSH1 0x40 DUP2 KECCAK256 SWAP1 DUP2 SLOAD DUP4 LT ISZERO PUSH2 0x1D5 JUMPI PUSH1 0x20 PUSH2 0x1BC DUP5 DUP5 PUSH2 0x159 JUMP JUMPDEST SWAP1 SLOAD PUSH1 0x40 MLOAD PUSH1 0x3 SWAP3 SWAP1 SWAP3 SHL SHR PUSH1 0x1 PUSH1 0x1 PUSH1 0xA0 SHL SUB AND DUP2 MSTORE RETURN JUMPDEST DUP1 REVERT JUMPDEST CALLVALUE PUSH2 0xF7 JUMPI PUSH1 0x0 DUP1 PUSH1 0x3 NOT CALLDATASIZE ADD SLT PUSH2 0x1D5 JUMPI PUSH2 0x1F2 PUSH2 0x814 JUMP JUMPDEST DUP1 SLOAD PUSH1 0x1 PUSH1 0x1 PUSH1 0xA0 SHL SUB NOT DUP2 AND DUP3 SSTORE DUP2 SWAP1 PUSH1 0x1 PUSH1 0x1 PUSH1 0xA0 SHL SUB AND PUSH32 0x8BE0079C531659141344CD1FD0A4F28419497F9722A3DAAFE3B4186F6B6457E0 DUP3 DUP1 LOG3 DUP1 RETURN JUMPDEST CALLVALUE PUSH2 0xF7 JUMPI PUSH1 0x0 CALLDATASIZE PUSH1 0x3 NOT ADD SLT PUSH2 0xF7 JUMPI PUSH1 0x2 SLOAD PUSH1 0x40 MLOAD PUSH1 0x1 PUSH1 0x1 PUSH1 0xA0 SHL SUB SWAP1 SWAP2 AND DUP2 MSTORE PUSH1 0x20 SWAP1 RETURN JUMPDEST PUSH1 0x1 PUSH1 0x1 PUSH1 0xA0 SHL SUB DUP2 AND SUB PUSH2 0xF7 JUMPI JUMP JUMPDEST PUSH1 0x1 PUSH1 0x1 PUSH1 0xA0 SHL SUB AND PUSH1 0x0 SWAP1 DUP2 MSTORE PUSH1 0x3 PUSH1 0x20 MSTORE PUSH1 0x40 SWAP1 KECCAK256 SWAP1 JUMP JUMPDEST CALLVALUE PUSH2 0xF7 JUMPI PUSH1 0x60 CALLDATASIZE PUSH1 0x3 NOT ADD SLT PUSH2 0xF7 JUMPI PUSH1 0x60 PUSH2 0x2DE PUSH1 0x44 CALLDATALOAD PUSH2 0x2A9 DUP2 PUSH2 0x25C JUMP JUMPDEST PUSH1 0x4 CALLDATALOAD PUSH1 0x0 MSTORE PUSH1 0x5 PUSH1 0x20 MSTORE PUSH1 0x40 PUSH1 0x0 KECCAK256 PUSH1 0x24 CALLDATALOAD PUSH1 0x0 MSTORE PUSH1 0x20 MSTORE PUSH1 0x40 PUSH1 0x0 KECCAK256 SWAP1 PUSH1 0x1 DUP1 PUSH1 0xA0 SHL SUB AND PUSH1 0x0 MSTORE PUSH1 0x20 MSTORE PUSH1 0x40 PUSH1 0x0 KECCAK256 SWAP1 JUMP JUMPDEST DUP1 SLOAD SWAP1 PUSH1 0xFF PUSH1 0x2 PUSH1 0x1 DUP4 ADD SLOAD SWAP3 ADD SLOAD AND SWAP1 PUSH1 0x40 MLOAD SWAP3 DUP4 MSTORE PUSH1 0x20 DUP4 ADD MSTORE ISZERO ISZERO PUSH1 0x40 DUP3 ADD MSTORE RETURN JUMPDEST CALLVALUE PUSH2 0xF7 JUMPI PUSH1 0x0 CALLDATASIZE PUSH1 0x3 NOT ADD SLT PUSH2 0xF7 JUMPI PUSH1 0x0 SLOAD PUSH1 0x40 MLOAD PUSH1 0x1 PUSH1 0x1 PUSH1 0xA0 SHL SUB SWAP1 SWAP2 AND DUP2 MSTORE PUSH1 0x20 SWAP1 RETURN JUMPDEST PUSH1 0xA0 CALLDATASIZE PUSH1 0x3 NOT ADD SLT PUSH2 0xF7 JUMPI PUSH1 0x24 CALLDATALOAD PUSH1 0x4 CALLDATALOAD PUSH2 0x347 DUP3 PUSH2 0x25C JUMP JUMPDEST PUSH1 0x44 CALLDATALOAD SWAP1 PUSH2 0x353 PUSH2 0x814 JUMP JUMPDEST PUSH2 0x364 PUSH2 0x35F DUP4 PUSH2 0x140E JUMP JUMPDEST PUSH2 0x8E8 JUMP JUMPDEST PUSH2 0x36F CALLVALUE ISZERO ISZERO PUSH2 0x934 JUMP JUMPDEST PUSH1 0x1 SLOAD PUSH2 0x38C SWAP1 PUSH1 0x1 PUSH1 0x1 PUSH1 0xA0 SHL SUB AND JUMPDEST PUSH1 0x1 PUSH1 0x1 PUSH1 0xA0 SHL SUB AND SWAP1 JUMP JUMPDEST SWAP3 DUP4 EXTCODESIZE ISZERO PUSH2 0xF7 JUMPI PUSH1 0x40 MLOAD PUSH4 0x56AD0AF3 PUSH1 0xE1 SHL DUP2 MSTORE PUSH1 0x4 DUP2 ADD DUP4 SWAP1 MSTORE PUSH1 0x1 PUSH1 0x1 PUSH1 0xA0 SHL SUB DUP3 AND PUSH1 0x24 DUP3 ADD MSTORE PUSH1 0x44 DUP2 ADD DUP5 SWAP1 MSTORE PUSH1 0x64 DUP1 CALLDATALOAD SWAP1 DUP3 ADD MSTORE PUSH1 0x84 DUP1 CALLDATALOAD SWAP1 DUP3 ADD MSTORE PUSH1 0x0 SWAP5 DUP6 SWAP1 DUP3 SWAP1 PUSH1 0xA4 SWAP1 DUP3 SWAP1 DUP5 SWAP1 GAS CALL DUP1 ISZERO PUSH2 0x47E JUMPI PUSH2 0x487 JUMPI JUMPDEST POP PUSH1 0x2 SLOAD PUSH2 0x3FF SWAP1 PUSH1 0x1 PUSH1 0x1 PUSH1 0xA0 SHL SUB AND PUSH2 0x380 JUMP JUMPDEST DUP1 EXTCODESIZE ISZERO PUSH2 0x483 JUMPI PUSH1 0x40 MLOAD PUSH4 0xEEAB8ED PUSH1 0xE4 SHL DUP2 MSTORE PUSH1 0x4 DUP2 ADD DUP5 SWAP1 MSTORE SWAP1 DUP6 SWAP1 DUP3 SWAP1 PUSH1 0x24 SWAP1 DUP3 SWAP1 CALLVALUE SWAP1 GAS CALL DUP1 ISZERO PUSH2 0x47E JUMPI PUSH2 0x465 JUMPI JUMPDEST POP PUSH1 0x1 PUSH1 0x1 PUSH1 0xA0 SHL SUB AND SWAP1 PUSH32 0xCF3A4893CB3F0ADD7F10E3EFEF2991B7863B597AEFD01E4174E48BE4CCA3F476 DUP5 DUP1 LOG4 DUP1 RETURN JUMPDEST DUP1 PUSH2 0x472 PUSH2 0x478 SWAP3 PUSH2 0x4B0 JUMP JUMPDEST DUP1 PUSH2 0xEC JUMP JUMPDEST CODESIZE PUSH2 0x433 JUMP JUMPDEST PUSH2 0x980 JUMP JUMPDEST DUP5 DUP1 REVERT JUMPDEST DUP1 PUSH2 0x472 PUSH2 0x494 SWAP3 PUSH2 0x4B0 JUMP JUMPDEST CODESIZE PUSH2 0x3E9 JUMP JUMPDEST PUSH4 0x4E487B71 PUSH1 0xE0 SHL PUSH1 0x0 MSTORE PUSH1 0x41 PUSH1 0x4 MSTORE PUSH1 0x24 PUSH1 0x0 REVERT JUMPDEST PUSH8 0xFFFFFFFFFFFFFFFF DUP2 GT PUSH2 0x4C4 JUMPI PUSH1 0x40 MSTORE JUMP JUMPDEST PUSH2 0x49A JUMP JUMPDEST PUSH1 0x60 DUP2 ADD SWAP1 DUP2 LT PUSH8 0xFFFFFFFFFFFFFFFF DUP3 GT OR PUSH2 0x4C4 JUMPI PUSH1 0x40 MSTORE JUMP JUMPDEST SWAP1 PUSH1 0x1F DUP1 NOT SWAP2 ADD AND DUP2 ADD SWAP1 DUP2 LT PUSH8 0xFFFFFFFFFFFFFFFF DUP3 GT OR PUSH2 0x4C4 JUMPI PUSH1 0x40 MSTORE JUMP JUMPDEST PUSH1 0x40 MLOAD SWAP1 PUSH2 0x514 DUP3 PUSH2 0x4C9 JUMP JUMPDEST JUMP JUMPDEST CALLVALUE PUSH2 0xF7 JUMPI PUSH1 0xA0 CALLDATASIZE PUSH1 0x3 NOT ADD SLT PUSH2 0xF7 JUMPI PUSH1 0x84 CALLDATALOAD PUSH8 0xFFFFFFFFFFFFFFFF DUP1 DUP3 GT PUSH2 0xF7 JUMPI CALLDATASIZE PUSH1 0x23 DUP4 ADD SLT ISZERO PUSH2 0xF7 JUMPI DUP2 PUSH1 0x4 ADD CALLDATALOAD SWAP1 DUP2 GT PUSH2 0x4C4 JUMPI PUSH1 0x40 MLOAD SWAP1 PUSH2 0x569 PUSH1 0x1F DUP3 ADD PUSH1 0x1F NOT AND PUSH1 0x20 ADD DUP4 PUSH2 0x4E5 JUMP JUMPDEST DUP1 DUP3 MSTORE CALLDATASIZE PUSH1 0x24 DUP3 DUP6 ADD ADD GT PUSH2 0xF7 JUMPI PUSH1 0x20 DUP2 PUSH1 0x0 SWAP3 PUSH1 0x24 PUSH2 0x59E SWAP7 ADD DUP4 DUP7 ADD CALLDATACOPY DUP4 ADD ADD MSTORE PUSH1 0x64 CALLDATALOAD PUSH1 0x44 CALLDATALOAD PUSH1 0x24 CALLDATALOAD PUSH1 0x4 CALLDATALOAD PUSH2 0xB3B JUMP JUMPDEST STOP JUMPDEST CALLVALUE PUSH2 0xF7 JUMPI PUSH1 0x20 CALLDATASIZE PUSH1 0x3 NOT ADD SLT PUSH2 0xF7 JUMPI PUSH1 0x4 CALLDATALOAD PUSH2 0x5BD DUP2 PUSH2 0x25C JUMP JUMPDEST PUSH1 0x1 DUP1 PUSH1 0xA0 SHL SUB AND PUSH1 0x0 MSTORE PUSH1 0x3 PUSH1 0x20 MSTORE PUSH1 0x20 PUSH1 0xFF PUSH1 0x40 PUSH1 0x0 KECCAK256 SLOAD AND PUSH1 0x40 MLOAD SWAP1 ISZERO ISZERO DUP2 MSTORE RETURN JUMPDEST DUP1 ISZERO ISZERO SUB PUSH2 0xF7 JUMPI JUMP JUMPDEST CALLVALUE PUSH2 0xF7 JUMPI PUSH1 0x40 CALLDATASIZE PUSH1 0x3 NOT ADD SLT PUSH2 0xF7 JUMPI PUSH1 0x4 CALLDATALOAD PUSH2 0x609 DUP2 PUSH2 0x25C JUMP JUMPDEST PUSH32 0x82A8FB1E779EA45AD427CC612E47087F5386A567E49DCE488185E40646FA48D5 PUSH2 0x6A3 PUSH1 0x24 CALLDATALOAD PUSH2 0x639 DUP2 PUSH2 0x5E2 JUMP JUMPDEST PUSH2 0x641 PUSH2 0x814 JUMP JUMPDEST PUSH1 0x1 PUSH1 0x1 PUSH1 0xA0 SHL SUB DUP5 AND SWAP4 PUSH2 0x691 SWAP1 DUP3 SWAP1 PUSH2 0x680 SWAP1 PUSH2 0x661 DUP9 ISZERO ISZERO PUSH2 0x86C JUMP JUMPDEST DUP3 DUP1 PUSH2 0x6F2 JUMPI JUMPDEST ISZERO PUSH2 0x6A8 JUMPI PUSH2 0x26D PUSH2 0x67B PUSH1 0x4 SLOAD PUSH2 0x8D9 JUMP JUMPDEST PUSH1 0x4 SSTORE JUMP JUMPDEST SWAP1 PUSH1 0xFF DUP1 NOT DUP4 SLOAD AND SWAP2 ISZERO ISZERO AND OR SWAP1 SSTORE JUMP JUMPDEST PUSH1 0x40 MLOAD SWAP1 ISZERO ISZERO DUP2 MSTORE SWAP1 DUP2 SWAP1 PUSH1 0x20 DUP3 ADD SWAP1 JUMP JUMPDEST SUB SWAP1 LOG2 STOP JUMPDEST DUP3 ISZERO DUP1 PUSH2 0x6C8 JUMPI JUMPDEST ISZERO PUSH2 0x26D JUMPI PUSH2 0x6C3 PUSH2 0x67B PUSH1 0x4 SLOAD PUSH2 0x8C7 JUMP JUMPDEST PUSH2 0x26D JUMP JUMPDEST POP PUSH1 0x1 PUSH1 0x1 PUSH1 0xA0 SHL SUB DUP2 AND PUSH1 0x0 SWAP1 DUP2 MSTORE PUSH1 0x3 PUSH1 0x20 MSTORE PUSH1 0x40 SWAP1 KECCAK256 PUSH2 0x6ED SWAP1 JUMPDEST SLOAD PUSH1 0xFF AND SWAP1 JUMP JUMPDEST PUSH2 0x6B0 JUMP JUMPDEST POP PUSH1 0x1 PUSH1 0x1 PUSH1 0xA0 SHL SUB DUP2 AND PUSH1 0x0 SWAP1 DUP2 MSTORE PUSH1 0x3 PUSH1 0x20 MSTORE PUSH1 0x40 SWAP1 KECCAK256 PUSH2 0x71C SWAP1 PUSH2 0x718 SWAP1 PUSH2 0x6E6 JUMP JUMPDEST ISZERO SWAP1 JUMP JUMPDEST PUSH2 0x668 JUMP JUMPDEST CALLVALUE PUSH2 0xF7 JUMPI PUSH1 0x60 CALLDATASIZE PUSH1 0x3 NOT ADD SLT PUSH2 0xF7 JUMPI PUSH1 0x20 PUSH2 0x745 PUSH1 0x44 CALLDATALOAD PUSH1 0x24 CALLDATALOAD PUSH1 0x4 CALLDATALOAD PUSH2 0x1285 JUMP JUMPDEST PUSH1 0x40 MLOAD SWAP1 DUP2 MSTORE RETURN JUMPDEST CALLVALUE PUSH2 0xF7 JUMPI PUSH1 0x20 CALLDATASIZE PUSH1 0x3 NOT ADD SLT PUSH2 0xF7 JUMPI PUSH1 0x4 CALLDATALOAD PUSH2 0x76A DUP2 PUSH2 0x25C JUMP JUMPDEST PUSH2 0x772 PUSH2 0x814 JUMP JUMPDEST PUSH1 0x1 PUSH1 0x1 PUSH1 0xA0 SHL SUB SWAP1 DUP2 AND DUP1 ISZERO PUSH2 0x7C0 JUMPI PUSH1 0x0 DUP1 SLOAD PUSH1 0x1 PUSH1 0x1 PUSH1 0xA0 SHL SUB NOT DUP2 AND DUP4 OR DUP3 SSTORE SWAP1 SWAP3 AND PUSH32 0x8BE0079C531659141344CD1FD0A4F28419497F9722A3DAAFE3B4186F6B6457E0 DUP4 DUP1 LOG3 DUP1 RETURN JUMPDEST PUSH1 0x40 MLOAD PUSH3 0x461BCD PUSH1 0xE5 SHL DUP2 MSTORE PUSH1 0x20 PUSH1 0x4 DUP3 ADD MSTORE PUSH1 0x26 PUSH1 0x24 DUP3 ADD MSTORE PUSH32 0x4F776E61626C653A206E6577206F776E657220697320746865207A65726F2061 PUSH1 0x44 DUP3 ADD MSTORE PUSH6 0x646472657373 PUSH1 0xD0 SHL PUSH1 0x64 DUP3 ADD MSTORE PUSH1 0x84 SWAP1 REVERT JUMPDEST PUSH1 0x0 SLOAD PUSH1 0x1 PUSH1 0x1 PUSH1 0xA0 SHL SUB AND CALLER SUB PUSH2 0x828 JUMPI JUMP JUMPDEST PUSH1 0x64 PUSH1 0x40 MLOAD PUSH3 0x461BCD PUSH1 0xE5 SHL DUP2 MSTORE PUSH1 0x20 PUSH1 0x4 DUP3 ADD MSTORE PUSH1 0x20 PUSH1 0x24 DUP3 ADD MSTORE PUSH32 0x4F776E61626C653A2063616C6C6572206973206E6F7420746865206F776E6572 PUSH1 0x44 DUP3 ADD MSTORE REVERT JUMPDEST ISZERO PUSH2 0x873 JUMPI JUMP JUMPDEST PUSH1 0x40 MLOAD PUSH3 0x461BCD PUSH1 0xE5 SHL DUP2 MSTORE PUSH1 0x20 PUSH1 0x4 DUP3 ADD MSTORE PUSH1 0x16 PUSH1 0x24 DUP3 ADD MSTORE PUSH22 0x496E76616C6964206F7261636C652061646472657373 PUSH1 0x50 SHL PUSH1 0x44 DUP3 ADD MSTORE PUSH1 0x64 SWAP1 REVERT JUMPDEST PUSH4 0x4E487B71 PUSH1 0xE0 SHL PUSH1 0x0 MSTORE PUSH1 0x11 PUSH1 0x4 MSTORE PUSH1 0x24 PUSH1 0x0 REVERT JUMPDEST DUP1 ISZERO PUSH2 0x8D4 JUMPI PUSH1 0x0 NOT ADD SWAP1 JUMP JUMPDEST PUSH2 0x8B1 JUMP JUMPDEST PUSH1 0x0 NOT DUP2 EQ PUSH2 0x8D4 JUMPI PUSH1 0x1 ADD SWAP1 JUMP JUMPDEST ISZERO PUSH2 0x8EF JUMPI JUMP JUMPDEST PUSH1 0x40 MLOAD PUSH3 0x461BCD PUSH1 0xE5 SHL DUP2 MSTORE PUSH1 0x20 PUSH1 0x4 DUP3 ADD MSTORE PUSH1 0x18 PUSH1 0x24 DUP3 ADD MSTORE PUSH32 0x496E76616C6964204833207370617469616C20696E6465780000000000000000 PUSH1 0x44 DUP3 ADD MSTORE PUSH1 0x64 SWAP1 REVERT JUMPDEST ISZERO PUSH2 0x93B JUMPI JUMP JUMPDEST PUSH1 0x40 MLOAD PUSH3 0x461BCD PUSH1 0xE5 SHL DUP2 MSTORE PUSH1 0x20 PUSH1 0x4 DUP3 ADD MSTORE PUSH1 0x18 PUSH1 0x24 DUP3 ADD MSTORE PUSH32 0x5072656D69756D207061796D656E742072657175697265640000000000000000 PUSH1 0x44 DUP3 ADD MSTORE PUSH1 0x64 SWAP1 REVERT JUMPDEST PUSH1 0x40 MLOAD RETURNDATASIZE PUSH1 0x0 DUP3 RETURNDATACOPY RETURNDATASIZE SWAP1 REVERT JUMPDEST ISZERO PUSH2 0x993 JUMPI JUMP JUMPDEST PUSH1 0x40 MLOAD PUSH3 0x461BCD PUSH1 0xE5 SHL DUP2 MSTORE PUSH1 0x20 PUSH1 0x4 DUP3 ADD MSTORE PUSH1 0x1D PUSH1 0x24 DUP3 ADD MSTORE PUSH32 0x556E617574686F72697A6564206F7261636C65207369676E6174757265000000 PUSH1 0x44 DUP3 ADD MSTORE PUSH1 0x64 SWAP1 REVERT JUMPDEST ISZERO PUSH2 0x9DF JUMPI JUMP JUMPDEST PUSH1 0x40 MLOAD PUSH3 0x461BCD PUSH1 0xE5 SHL DUP2 MSTORE PUSH1 0x20 PUSH1 0x4 DUP3 ADD MSTORE PUSH1 0x28 PUSH1 0x24 DUP3 ADD MSTORE PUSH32 0x4F7261636C6520616C7265616479207375626D697474656420666F7220746869 PUSH1 0x44 DUP3 ADD MSTORE PUSH8 0x732077696E646F77 PUSH1 0xC0 SHL PUSH1 0x64 DUP3 ADD MSTORE PUSH1 0x84 SWAP1 REVERT JUMPDEST PUSH1 0x2 PUSH1 0x40 PUSH2 0x514 SWAP4 DUP1 MLOAD DUP5 SSTORE PUSH1 0x20 DUP2 ADD MLOAD PUSH1 0x1 DUP6 ADD SSTORE ADD MLOAD ISZERO ISZERO SWAP2 ADD SWAP1 PUSH1 0xFF DUP1 NOT DUP4 SLOAD AND SWAP2 ISZERO ISZERO AND OR SWAP1 SSTORE JUMP JUMPDEST DUP1 SLOAD PUSH9 0x10000000000000000 DUP2 LT ISZERO PUSH2 0x4C4 JUMPI PUSH2 0xA84 SWAP2 PUSH1 0x1 DUP3 ADD DUP2 SSTORE PUSH2 0x159 JUMP JUMPDEST DUP2 SWAP3 SWAP2 SLOAD SWAP1 PUSH1 0x3 SHL SWAP2 PUSH1 0x1 DUP1 PUSH1 0xA0 SHL SUB DUP1 SWAP2 AND DUP4 SHL SWAP3 SHL NOT AND OR SWAP1 SSTORE JUMP JUMPDEST SWAP1 PUSH1 0x40 MLOAD SWAP2 DUP3 DUP2 SLOAD SWAP2 DUP3 DUP3 MSTORE PUSH1 0x20 SWAP3 DUP4 DUP4 ADD SWAP2 PUSH1 0x0 MSTORE DUP4 PUSH1 0x0 KECCAK256 SWAP4 PUSH1 0x0 SWAP1 JUMPDEST DUP3 DUP3 LT PUSH2 0xAD7 JUMPI POP POP POP PUSH2 0x514 SWAP3 POP SUB DUP4 PUSH2 0x4E5 JUMP JUMPDEST DUP6 SLOAD PUSH1 0x1 PUSH1 0x1 PUSH1 0xA0 SHL SUB AND DUP5 MSTORE PUSH1 0x1 SWAP6 DUP7 ADD SWAP6 DUP9 SWAP6 POP SWAP4 DUP2 ADD SWAP4 SWAP1 SWAP2 ADD SWAP1 PUSH2 0xAC1 JUMP JUMPDEST DUP1 MLOAD ISZERO PUSH2 0x171 JUMPI PUSH1 0x20 ADD SWAP1 JUMP JUMPDEST DUP1 MLOAD PUSH1 0x1 LT ISZERO PUSH2 0x171 JUMPI PUSH1 0x40 ADD SWAP1 JUMP JUMPDEST DUP1 MLOAD PUSH1 0x2 LT ISZERO PUSH2 0x171 JUMPI PUSH1 0x60 ADD SWAP1 JUMP JUMPDEST DUP1 MLOAD DUP3 LT ISZERO PUSH2 0x171 JUMPI PUSH1 0x20 SWAP2 PUSH1 0x5 SHL ADD ADD SWAP1 JUMP JUMPDEST SWAP4 DUP5 SWAP3 PUSH2 0xB93 PUSH2 0xC4D SWAP3 SWAP6 SWAP4 SWAP6 PUSH2 0xB54 PUSH2 0x35F DUP8 PUSH2 0x140E JUMP JUMPDEST PUSH1 0x40 DUP1 MLOAD PUSH1 0x20 DUP2 ADD DUP9 DUP2 MSTORE SWAP2 DUP2 ADD DUP10 SWAP1 MSTORE PUSH1 0x60 DUP2 ADD DUP6 SWAP1 MSTORE PUSH1 0x80 DUP1 DUP3 ADD DUP9 SWAP1 MSTORE DUP2 MSTORE PUSH2 0xB8E SWAP2 SWAP1 PUSH2 0xB86 PUSH1 0xA0 DUP3 PUSH2 0x4E5 JUMP JUMPDEST MLOAD SWAP1 KECCAK256 PUSH2 0x13CB JUMP JUMPDEST PUSH2 0x131E JUMP JUMPDEST SWAP3 PUSH2 0xBBB PUSH2 0xBB6 PUSH2 0x6E6 DUP7 PUSH1 0x1 DUP1 PUSH1 0xA0 SHL SUB AND PUSH1 0x0 MSTORE PUSH1 0x3 PUSH1 0x20 MSTORE PUSH1 0x40 PUSH1 0x0 KECCAK256 SWAP1 JUMP JUMPDEST PUSH2 0x98C JUMP JUMPDEST PUSH2 0xC15 PUSH2 0xC10 PUSH2 0x718 PUSH1 0x2 PUSH2 0xC08 DUP9 PUSH2 0xBF1 DUP13 PUSH2 0xBE2 DUP14 PUSH1 0x0 MSTORE PUSH1 0x5 PUSH1 0x20 MSTORE PUSH1 0x40 PUSH1 0x0 KECCAK256 SWAP1 JUMP JUMPDEST SWAP1 PUSH1 0x0 MSTORE PUSH1 0x20 MSTORE PUSH1 0x40 PUSH1 0x0 KECCAK256 SWAP1 JUMP JUMPDEST SWAP1 PUSH1 0x1 DUP1 PUSH1 0xA0 SHL SUB AND PUSH1 0x0 MSTORE PUSH1 0x20 MSTORE PUSH1 0x40 PUSH1 0x0 KECCAK256 SWAP1 JUMP JUMPDEST ADD SLOAD PUSH1 0xFF AND SWAP1 JUMP JUMPDEST PUSH2 0x9D8 JUMP JUMPDEST PUSH2 0xC1D PUSH2 0x507 JUMP JUMPDEST SWAP2 DUP3 MSTORE PUSH1 0x20 DUP3 ADD MSTORE PUSH1 0x1 PUSH1 0x40 DUP3 ADD MSTORE PUSH2 0xC48 DUP4 PUSH2 0xBF1 DUP8 PUSH2 0xBE2 DUP9 PUSH1 0x0 MSTORE PUSH1 0x5 PUSH1 0x20 MSTORE PUSH1 0x40 PUSH1 0x0 KECCAK256 SWAP1 JUMP JUMPDEST PUSH2 0xA35 JUMP JUMPDEST PUSH2 0xC6E DUP2 PUSH2 0xC69 DUP6 PUSH2 0xBE2 DUP7 PUSH1 0x0 MSTORE PUSH1 0x6 PUSH1 0x20 MSTORE PUSH1 0x40 PUSH1 0x0 KECCAK256 SWAP1 JUMP JUMPDEST PUSH2 0xA62 JUMP JUMPDEST PUSH1 0x40 MLOAD DUP4 DUP2 MSTORE PUSH1 0x1 PUSH1 0x1 PUSH1 0xA0 SHL SUB SWAP2 SWAP1 SWAP2 AND SWAP1 PUSH32 0xF64771EC9547F883A107F8226A072AD98743A848432DE28433576863C2EAB59 SWAP1 PUSH1 0x20 SWAP1 LOG3 PUSH1 0x3 PUSH2 0xCC1 DUP3 PUSH2 0xBE2 DUP6 PUSH1 0x0 MSTORE PUSH1 0x6 PUSH1 0x20 MSTORE PUSH1 0x40 PUSH1 0x0 KECCAK256 SWAP1 JUMP JUMPDEST SLOAD EQ PUSH2 0xCCB JUMPI POP POP JUMP JUMPDEST DUP2 DUP2 PUSH2 0xCE1 DUP3 PUSH1 0x0 MSTORE PUSH1 0x6 PUSH1 0x20 MSTORE PUSH1 0x40 PUSH1 0x0 KECCAK256 SWAP1 JUMP JUMPDEST PUSH1 0x0 SWAP2 DUP3 MSTORE PUSH1 0x20 MSTORE PUSH1 0x40 SWAP1 KECCAK256 PUSH2 0xCF6 SWAP1 PUSH2 0xAA2 JUMP JUMPDEST SWAP2 DUP1 PUSH2 0xD0C DUP4 PUSH1 0x0 MSTORE PUSH1 0x5 PUSH1 0x20 MSTORE PUSH1 0x40 PUSH1 0x0 KECCAK256 SWAP1 JUMP JUMPDEST PUSH1 0x0 SWAP2 DUP3 MSTORE PUSH1 0x20 MSTORE PUSH1 0x40 SWAP1 KECCAK256 PUSH2 0xD21 DUP5 PUSH2 0xAFA JUMP JUMPDEST MLOAD PUSH1 0x1 PUSH1 0x1 PUSH1 0xA0 SHL SUB AND PUSH1 0x1 PUSH1 0x1 PUSH1 0xA0 SHL SUB AND PUSH1 0x0 SWAP1 DUP2 MSTORE PUSH1 0x20 SWAP2 SWAP1 SWAP2 MSTORE PUSH1 0x40 SWAP1 KECCAK256 SLOAD SWAP3 DUP2 PUSH2 0xD5A DUP5 PUSH1 0x0 MSTORE PUSH1 0x5 PUSH1 0x20 MSTORE PUSH1 0x40 PUSH1 0x0 KECCAK256 SWAP1 JUMP JUMPDEST PUSH1 0x0 SWAP2 DUP3 MSTORE PUSH1 0x20 MSTORE PUSH1 0x40 SWAP1 KECCAK256 PUSH2 0xD6F DUP3 PUSH2 0xB07 JUMP JUMPDEST MLOAD PUSH1 0x1 PUSH1 0x1 PUSH1 0xA0 SHL SUB AND PUSH1 0x1 PUSH1 0x1 PUSH1 0xA0 SHL SUB AND PUSH1 0x0 SWAP1 DUP2 MSTORE PUSH1 0x20 SWAP2 SWAP1 SWAP2 MSTORE PUSH1 0x40 SWAP1 KECCAK256 SLOAD SWAP4 DUP3 PUSH2 0xDA8 DUP6 PUSH1 0x0 MSTORE PUSH1 0x5 PUSH1 0x20 MSTORE PUSH1 0x40 PUSH1 0x0 KECCAK256 SWAP1 JUMP JUMPDEST PUSH1 0x0 SWAP2 DUP3 MSTORE PUSH1 0x20 MSTORE PUSH1 0x40 SWAP1 KECCAK256 PUSH2 0xDBD DUP4 PUSH2 0xB17 JUMP JUMPDEST MLOAD PUSH1 0x1 PUSH1 0x1 PUSH1 0xA0 SHL SUB AND PUSH1 0x1 PUSH1 0x1 PUSH1 0xA0 SHL SUB AND PUSH1 0x0 SWAP1 DUP2 MSTORE PUSH1 0x20 SWAP2 SWAP1 SWAP2 MSTORE PUSH1 0x40 SWAP1 KECCAK256 SLOAD SWAP1 DUP4 PUSH2 0xDF6 DUP7 PUSH1 0x0 MSTORE PUSH1 0x5 PUSH1 0x20 MSTORE PUSH1 0x40 PUSH1 0x0 KECCAK256 SWAP1 JUMP JUMPDEST PUSH1 0x0 SWAP2 DUP3 MSTORE PUSH1 0x20 MSTORE PUSH1 0x40 SWAP1 KECCAK256 PUSH2 0xE0B DUP5 PUSH2 0xAFA JUMP JUMPDEST MLOAD PUSH1 0x1 PUSH1 0x1 PUSH1 0xA0 SHL SUB AND PUSH1 0x1 PUSH1 0x1 PUSH1 0xA0 SHL SUB AND PUSH1 0x0 SWAP1 DUP2 MSTORE PUSH1 0x20 SWAP2 SWAP1 SWAP2 MSTORE PUSH1 0x40 SWAP1 KECCAK256 PUSH1 0x1 ADD SLOAD SWAP2 DUP5 PUSH2 0xE47 DUP8 PUSH1 0x0 MSTORE PUSH1 0x5 PUSH1 0x20 MSTORE PUSH1 0x40 PUSH1 0x0 KECCAK256 SWAP1 JUMP JUMPDEST PUSH1 0x0 SWAP2 DUP3 MSTORE PUSH1 0x20 MSTORE PUSH1 0x40 SWAP1 KECCAK256 PUSH2 0xE5C DUP6 PUSH2 0xB07 JUMP JUMPDEST MLOAD PUSH1 0x1 PUSH1 0x1 PUSH1 0xA0 SHL SUB AND PUSH1 0x1 PUSH1 0x1 PUSH1 0xA0 SHL SUB AND PUSH1 0x0 SWAP1 DUP2 MSTORE PUSH1 0x20 SWAP2 SWAP1 SWAP2 MSTORE PUSH1 0x40 SWAP1 KECCAK256 PUSH1 0x1 ADD SLOAD SWAP4 DUP6 PUSH2 0xE98 DUP9 PUSH1 0x0 MSTORE PUSH1 0x5 PUSH1 0x20 MSTORE PUSH1 0x40 PUSH1 0x0 KECCAK256 SWAP1 JUMP JUMPDEST PUSH1 0x0 SWAP2 DUP3 MSTORE PUSH1 0x20 MSTORE PUSH1 0x40 SWAP1 KECCAK256 SWAP1 PUSH2 0xEAE SWAP1 PUSH2 0xB17 JUMP JUMPDEST MLOAD PUSH1 0x1 PUSH1 0x1 PUSH1 0xA0 SHL SUB AND PUSH1 0x0 SWAP1 DUP2 MSTORE PUSH1 0x20 SWAP2 SWAP1 SWAP2 MSTORE PUSH1 0x40 SWAP1 KECCAK256 PUSH1 0x1 ADD SLOAD SWAP7 PUSH2 0xED5 SWAP3 PUSH2 0x1285 JUMP JUMPDEST SWAP5 DUP6 SWAP3 PUSH2 0xEE1 SWAP3 PUSH2 0x1285 JUMP JUMPDEST PUSH1 0x40 DUP1 MLOAD SWAP4 DUP5 MSTORE PUSH1 0x20 DUP5 ADD SWAP3 SWAP1 SWAP3 MSTORE SWAP1 DUP3 ADD MSTORE PUSH32 0xCFF36DFFB395320017E6E2A92054400EB09B8AC406C40044FF3CF91BBBA1C1C1 SWAP1 PUSH1 0x60 SWAP1 LOG2 PUSH2 0x514 SWAP2 PUSH2 0xFED JUMP JUMPDEST SWAP1 PUSH1 0x20 SWAP1 DUP2 DUP4 DUP3 SUB SLT PUSH2 0xF7 JUMPI DUP3 MLOAD PUSH8 0xFFFFFFFFFFFFFFFF SWAP4 DUP5 DUP3 GT PUSH2 0xF7 JUMPI ADD DUP2 PUSH1 0x1F DUP3 ADD SLT ISZERO PUSH2 0xF7 JUMPI DUP1 MLOAD SWAP4 DUP5 GT PUSH2 0x4C4 JUMPI DUP4 PUSH1 0x5 SHL SWAP1 PUSH1 0x40 MLOAD SWAP5 PUSH2 0xF6D DUP6 DUP5 ADD DUP8 PUSH2 0x4E5 JUMP JUMPDEST DUP6 MSTORE DUP4 DUP1 DUP7 ADD SWAP3 DUP3 ADD ADD SWAP3 DUP4 GT PUSH2 0xF7 JUMPI DUP4 ADD SWAP1 JUMPDEST DUP3 DUP3 LT PUSH2 0xF90 JUMPI POP POP POP POP SWAP1 JUMP JUMPDEST DUP2 MLOAD DUP2 MSTORE SWAP1 DUP4 ADD SWAP1 DUP4 ADD PUSH2 0xF82 JUMP JUMPDEST SWAP1 DUP2 PUSH1 0xE0 SWAP2 SUB SLT PUSH2 0xF7 JUMPI DUP1 MLOAD SWAP2 PUSH1 0x20 DUP3 ADD MLOAD PUSH2 0xFBB DUP2 PUSH2 0x25C JUMP JUMPDEST SWAP2 PUSH1 0x40 DUP2 ADD MLOAD SWAP2 PUSH1 0x60 DUP3 ADD MLOAD SWAP2 PUSH1 0x80 DUP2 ADD MLOAD SWAP2 PUSH1 0xC0 PUSH1 0xA0 DUP4 ADD MLOAD PUSH2 0xFDE DUP2 PUSH2 0x5E2 JUMP JUMPDEST SWAP3 ADD MLOAD PUSH2 0xFEA DUP2 PUSH2 0x5E2 JUMP JUMPDEST SWAP1 JUMP JUMPDEST PUSH1 0x1 DUP1 SLOAD SWAP1 SWAP2 SWAP1 PUSH2 0x1006 SWAP1 PUSH1 0x1 PUSH1 0x1 PUSH1 0xA0 SHL SUB AND PUSH2 0x380 JUMP JUMPDEST PUSH1 0x40 SWAP4 DUP5 MLOAD DUP1 SWAP3 PUSH4 0x98414CA5 PUSH1 0xE0 SHL DUP3 MSTORE PUSH1 0x0 SWAP2 DUP3 SWAP2 DUP2 DUP1 PUSH2 0x1031 PUSH1 0x4 SWAP10 DUP11 DUP4 ADD SWAP2 SWAP1 PUSH1 0x20 DUP4 ADD SWAP3 MSTORE JUMP JUMPDEST SUB SWAP2 GAS STATICCALL DUP1 ISZERO PUSH2 0x47E JUMPI DUP6 SWAP4 DUP3 SWAP2 PUSH2 0x1263 JUMPI JUMPDEST POP DUP2 SWAP4 JUMPDEST PUSH2 0x1056 JUMPI JUMPDEST POP POP POP POP POP POP POP JUMP JUMPDEST DUP1 MLOAD DUP5 LT ISZERO PUSH2 0x125E JUMPI PUSH2 0x1069 DUP5 DUP3 PUSH2 0xB27 JUMP JUMPDEST MLOAD DUP7 SLOAD SWAP1 SWAP5 SWAP1 PUSH2 0x1081 SWAP1 PUSH1 0x1 PUSH1 0x1 PUSH1 0xA0 SHL SUB AND PUSH2 0x380 JUMP JUMPDEST DUP9 MLOAD SWAP1 PUSH4 0x2B07FCE3 PUSH1 0xE0 SHL DUP3 MSTORE PUSH1 0xE0 SWAP7 DUP8 DUP4 DUP1 PUSH2 0x10A5 DUP5 DUP14 DUP4 ADD SWAP2 SWAP1 PUSH1 0x20 DUP4 ADD SWAP3 MSTORE JUMP JUMPDEST SUB DUP2 DUP6 GAS STATICCALL SWAP2 DUP3 ISZERO PUSH2 0x47E JUMPI DUP11 SWAP9 DUP8 SWAP4 DUP9 SWAP1 DUP10 SWAP7 DUP11 SWAP4 DUP12 SWAP3 PUSH2 0x1220 JUMPI JUMPDEST POP POP DUP3 PUSH2 0x1217 JUMPI JUMPDEST POP DUP2 PUSH2 0x120D JUMPI JUMPDEST POP PUSH2 0x10EA JUMPI JUMPDEST POP POP POP POP PUSH2 0x10E4 SWAP1 PUSH2 0x8D9 JUMP JUMPDEST SWAP4 PUSH2 0x1048 JUMP JUMPDEST DUP1 SWAP2 SWAP3 SWAP4 SWAP9 POP EXTCODESIZE ISZERO PUSH2 0x11F6 JUMPI DUP11 MLOAD PUSH4 0x2340FEE9 PUSH1 0xE1 SHL DUP2 MSTORE DUP1 DUP11 ADD DUP4 DUP2 MSTORE SWAP1 SWAP2 DUP8 SWAP2 DUP4 SWAP2 SWAP1 DUP3 SWAP1 DUP5 SWAP1 DUP3 SWAP1 PUSH1 0x20 ADD SUB SWAP3 GAS CALL DUP1 ISZERO PUSH2 0x47E JUMPI PUSH2 0x11FA JUMPI JUMPDEST POP PUSH1 0x2 SLOAD PUSH2 0x113D SWAP1 PUSH1 0x1 PUSH1 0x1 PUSH1 0xA0 SHL SUB AND PUSH2 0x380 JUMP JUMPDEST PUSH1 0x1 PUSH1 0x1 PUSH1 0xA0 SHL SUB SWAP1 SWAP3 AND SWAP2 DUP1 EXTCODESIZE ISZERO PUSH2 0x11F6 JUMPI DUP11 MLOAD PUSH4 0xAE2F5D93 PUSH1 0xE0 SHL DUP2 MSTORE DUP1 DUP11 ADD DUP4 DUP2 MSTORE PUSH1 0x1 PUSH1 0x1 PUSH1 0xA0 SHL SUB DUP6 AND PUSH1 0x20 DUP3 ADD MSTORE PUSH1 0x40 DUP2 ADD DUP11 SWAP1 MSTORE SWAP1 SWAP9 SWAP5 SWAP4 SWAP3 SWAP2 DUP8 SWAP2 DUP11 SWAP2 SWAP1 DUP3 SWAP1 DUP5 SWAP1 DUP3 SWAP1 PUSH1 0x60 ADD SUB SWAP3 GAS CALL SWAP8 DUP9 ISZERO PUSH2 0x47E JUMPI PUSH2 0x11D7 PUSH2 0x10E4 SWAP6 PUSH32 0x7884580F743F908C98258AFAC53F9E0929CD6787B3488DF80E096DF15409EF8F SWAP3 DUP14 SWAP12 PUSH2 0x11E3 JUMPI JUMPDEST POP DUP14 MLOAD SWAP1 DUP2 MSTORE SWAP1 DUP2 SWAP1 PUSH1 0x20 DUP3 ADD SWAP1 JUMP JUMPDEST SUB SWAP1 LOG3 SWAP1 CODESIZE DUP1 DUP1 PUSH2 0x10D7 JUMP JUMPDEST DUP1 PUSH2 0x472 PUSH2 0x11F0 SWAP3 PUSH2 0x4B0 JUMP JUMPDEST CODESIZE PUSH2 0x11C7 JUMP JUMPDEST DUP6 DUP1 REVERT JUMPDEST DUP1 PUSH2 0x472 PUSH2 0x1207 SWAP3 PUSH2 0x4B0 JUMP JUMPDEST CODESIZE PUSH2 0x1127 JUMP JUMPDEST SWAP1 POP DUP9 LT CODESIZE PUSH2 0x10D1 JUMP JUMPDEST ISZERO SWAP2 POP CODESIZE PUSH2 0x10CA JUMP JUMPDEST SWAP4 POP SWAP4 SWAP6 POP POP POP PUSH2 0x1247 SWAP3 SWAP5 POP DUP1 RETURNDATASIZE LT PUSH2 0x1257 JUMPI JUMPDEST PUSH2 0x123F DUP2 DUP4 PUSH2 0x4E5 JUMP JUMPDEST DUP2 ADD SWAP1 PUSH2 0xF9F JUMP JUMPDEST SWAP2 SWAP8 SWAP5 SWAP7 SWAP5 SWAP6 POP SWAP3 POP CODESIZE DUP1 PUSH2 0x10C2 JUMP JUMPDEST POP RETURNDATASIZE PUSH2 0x1235 JUMP JUMPDEST PUSH2 0x104D JUMP JUMPDEST PUSH2 0x127F SWAP2 POP RETURNDATASIZE DUP1 DUP5 DUP4 RETURNDATACOPY PUSH2 0x1277 DUP2 DUP4 PUSH2 0x4E5 JUMP JUMPDEST DUP2 ADD SWAP1 PUSH2 0xF23 JUMP JUMPDEST CODESIZE PUSH2 0x1044 JUMP JUMPDEST SWAP1 SWAP2 DUP3 DUP3 GT ISZERO DUP1 DUP1 PUSH2 0x1302 JUMPI JUMPDEST DUP1 ISZERO PUSH2 0x12ED JUMPI JUMPDEST ISZERO PUSH2 0x12A4 JUMPI POP POP POP SWAP1 JUMP JUMPDEST SWAP1 SWAP2 DUP1 SWAP4 GT ISZERO SWAP1 DUP2 PUSH2 0x12E2 JUMPI JUMPDEST DUP2 ISZERO PUSH2 0x12C7 JUMPI JUMPDEST POP ISZERO PUSH2 0x12C2 JUMPI POP SWAP1 JUMP JUMPDEST SWAP1 POP SWAP1 JUMP JUMPDEST DUP4 DUP4 GT ISZERO SWAP2 POP DUP2 PUSH2 0x12DA JUMPI JUMPDEST POP CODESIZE PUSH2 0x12B8 JUMP JUMPDEST SWAP1 POP CODESIZE PUSH2 0x12D3 JUMP JUMPDEST DUP3 DUP5 GT ISZERO SWAP2 POP PUSH2 0x12B1 JUMP JUMPDEST POP DUP4 DUP3 GT ISZERO DUP1 ISZERO PUSH2 0x1299 JUMPI POP DUP3 DUP5 GT ISZERO PUSH2 0x1299 JUMP JUMPDEST POP DUP2 DUP5 GT ISZERO PUSH2 0x1292 JUMP JUMPDEST PUSH1 0xFF PUSH1 0x1B SWAP2 AND ADD SWAP1 PUSH1 0xFF DUP3 GT PUSH2 0x8D4 JUMPI JUMP JUMPDEST SWAP1 PUSH1 0x41 DUP2 MLOAD SUB PUSH2 0x13C4 JUMPI PUSH1 0x0 SWAP2 PUSH1 0x20 DUP3 ADD MLOAD SWAP3 PUSH1 0x60 PUSH1 0x40 DUP5 ADD MLOAD SWAP4 ADD MLOAD SWAP1 BYTE SWAP1 PUSH1 0x1B DUP3 LT PUSH2 0x13B4 JUMPI JUMPDEST PUSH1 0xFF DUP3 AND PUSH1 0x1B DUP2 EQ ISZERO SWAP1 DUP2 PUSH2 0x13A8 JUMPI JUMPDEST POP PUSH2 0x139F JUMPI PUSH2 0x138B PUSH1 0x0 SWAP4 PUSH1 0x20 SWAP6 PUSH1 0x40 MLOAD SWAP5 DUP6 SWAP5 DUP6 SWAP1 SWAP5 SWAP4 SWAP3 PUSH1 0xFF PUSH1 0x60 SWAP4 PUSH1 0x80 DUP5 ADD SWAP8 DUP5 MSTORE AND PUSH1 0x20 DUP4 ADD MSTORE PUSH1 0x40 DUP3 ADD MSTORE ADD MSTORE JUMP JUMPDEST DUP4 DUP1 MSTORE SUB SWAP1 PUSH1 0x1 GAS STATICCALL ISZERO PUSH2 0x47E JUMPI PUSH1 0x0 MLOAD SWAP1 JUMP JUMPDEST POP POP POP POP PUSH1 0x0 SWAP1 JUMP JUMPDEST PUSH1 0x1C SWAP2 POP EQ ISZERO CODESIZE PUSH2 0x1357 JUMP JUMPDEST SWAP1 PUSH2 0x13BE SWAP1 PUSH2 0x130C JUMP JUMPDEST SWAP1 PUSH2 0x1347 JUMP JUMPDEST POP POP PUSH1 0x0 SWAP1 JUMP JUMPDEST PUSH1 0x40 MLOAD PUSH1 0x20 DUP2 ADD SWAP2 PUSH32 0x19457468657265756D205369676E6564204D6573736167653A0A333200000000 DUP4 MSTORE PUSH1 0x3C DUP3 ADD MSTORE PUSH1 0x3C DUP2 MSTORE PUSH2 0x1408 DUP2 PUSH2 0x4C9 JUMP JUMPDEST MLOAD SWAP1 KECCAK256 SWAP1 JUMP JUMPDEST DUP1 ISZERO PUSH2 0x1439 JUMPI PUSH1 0x1 PUSH1 0xF DUP3 PUSH1 0x3B SHR AND SUB PUSH2 0x1439 JUMPI PUSH1 0xF DUP1 SWAP2 PUSH1 0x34 SHR AND GT PUSH2 0x1434 JUMPI PUSH1 0x1 SWAP1 JUMP JUMPDEST PUSH1 0x0 SWAP1 JUMP JUMPDEST POP PUSH1 0x0 SWAP1 JUMP INVALID LOG2 PUSH5 0x6970667358 0x22 SLT KECCAK256 0xCE PUSH9 0xAF3B45E53417D108F8 CALL LOG1 CODESIZE PUSH30 0xA1C0473C68B90F48478CF2A8EA99874F7564736F6C634300081400330000 "},"methodIdentifiers":{"escrowVault()":"8a2ae60b","getMedian(uint256,uint256,uint256)":"d96539a0","isAuthorizedOracle(address)":"bfe609da","oracleCount()":"613d8fcc","owner()":"8da5cb5b","policyRegistry()":"1c4dd7d0","registerPolicy(uint256,address,bytes32,uint256,uint256)":"ad5a15e6","renounceOwnership()":"715018a6","setAuthorizedOracle(address,bool)":"c7a6de4d","submissions(bytes32,uint256,address)":"8c41c699","submitData(bytes32,uint256,uint256,uint256,bytes)":"b9df9668","submitters(bytes32,uint256,uint256)":"6e74ba84","transferOwnership(address)":"f2fde38b"}}}}}