{"contracts/mocks/MockOracle.sol":{"MockOracle":{"abi":[{"inputs":[{"internalType":"address","name":"_oracle","type":"address"}],"stateMutability":"nonpayable","type":"constructor"},{"inputs":[],"name":"oracle","outputs":[{"internalType":"contract KilimaShieldOracle","name":"","type":"address"}],"stateMutability":"view","type":"function"},{"inputs":[{"internalType":"bytes32","name":"h3Index","type":"bytes32"},{"internalType":"uint256","name":"timestamp","type":"uint256"},{"internalType":"uint256","name":"rainfall","type":"uint256"},{"internalType":"uint256","name":"ndvi","type":"uint256"},{"internalType":"bytes","name":"signature","type":"bytes"}],"name":"submitMockData","outputs":[],"stateMutability":"nonpayable","type":"function"}],"evm":{"bytecode":{"linkReferences":{},"object":"60803461007457601f61022438819003918201601f19168301916001600160401b038311848410176100795780849260209460405283398101031261007457516001600160a01b0381169081900361007457600080546001600160a01b03191691909117905560405161019490816100908239f35b600080fd5b634e487b7160e01b600052604160045260246000fdfe608080604052600436101561001357600080fd5b600090813560e01c9081637dc0d1d01461013a575063ad5a19b41461003757600080fd5b346101375760a03660031901126101375760843567ffffffffffffffff80821161012f573660238301121561012f57828260040135928284116101335736602485830101116101335781546001600160a01b0316803b1561012f5760248360c487946040519889968795869363173bf2cd60e31b855260043560048601528135828601526044356044860152606435606486015260a060848601528260a486015201848401378181018301849052601f01601f191681010301925af1801561012457610101578280f35b81116101105760405238808280f35b634e487b7160e01b82526041600452602482fd5b6040513d85823e3d90fd5b8280fd5b5080fd5b80fd5b90503461013357816003193601126101335790546001600160a01b03168152602090f3fea2646970667358221220ade15bc2c5a4001d1972a844e66bd9f4e0ae101165b78155845e7d580c91cb4864736f6c63430008140033","opcodes":"PUSH1 0x80 CALLVALUE PUSH2 0x74 JUMPI PUSH1 0x1F PUSH2 0x224 CODESIZE DUP2 SWAP1 SUB SWAP2 DUP3 ADD PUSH1 0x1F NOT AND DUP4 ADD SWAP2 PUSH1 0x1 PUSH1 0x1 PUSH1 0x40 SHL SUB DUP4 GT DUP5 DUP5 LT OR PUSH2 0x79 JUMPI DUP1 DUP5 SWAP3 PUSH1 0x20 SWAP5 PUSH1 0x40 MSTORE DUP4 CODECOPY DUP2 ADD SUB SLT PUSH2 0x74 JUMPI MLOAD PUSH1 0x1 PUSH1 0x1 PUSH1 0xA0 SHL SUB DUP2 AND SWAP1 DUP2 SWAP1 SUB PUSH2 0x74 JUMPI PUSH1 0x0 DUP1 SLOAD PUSH1 0x1 PUSH1 0x1 PUSH1 0xA0 SHL SUB NOT AND SWAP2 SWAP1 SWAP2 OR SWAP1 SSTORE PUSH1 0x40 MLOAD PUSH2 0x194 SWAP1 DUP2 PUSH2 0x90 DUP3 CODECOPY RETURN JUMPDEST PUSH1 0x0 DUP1 REVERT JUMPDEST PUSH4 0x4E487B71 PUSH1 0xE0 SHL PUSH1 0x0 MSTORE PUSH1 0x41 PUSH1 0x4 MSTORE PUSH1 0x24 PUSH1 0x0 REVERT INVALID PUSH1 0x80 DUP1 PUSH1 0x40 MSTORE PUSH1 0x4 CALLDATASIZE LT ISZERO PUSH2 0x13 JUMPI PUSH1 0x0 DUP1 REVERT JUMPDEST PUSH1 0x0 SWAP1 DUP2 CALLDATALOAD PUSH1 0xE0 SHR SWAP1 DUP2 PUSH4 0x7DC0D1D0 EQ PUSH2 0x13A JUMPI POP PUSH4 0xAD5A19B4 EQ PUSH2 0x37 JUMPI PUSH1 0x0 DUP1 REVERT JUMPDEST CALLVALUE PUSH2 0x137 JUMPI PUSH1 0xA0 CALLDATASIZE PUSH1 0x3 NOT ADD SLT PUSH2 0x137 JUMPI PUSH1 0x84 CALLDATALOAD PUSH8 0xFFFFFFFFFFFFFFFF DUP1 DUP3 GT PUSH2 0x12F JUMPI CALLDATASIZE PUSH1 0x23 DUP4 ADD SLT ISZERO PUSH2 0x12F JUMPI DUP3 DUP3 PUSH1 0x4 ADD CALLDATALOAD SWAP3 DUP3 DUP5 GT PUSH2 0x133 JUMPI CALLDATASIZE PUSH1 0x24 DUP6 DUP4 ADD ADD GT PUSH2 0x133 JUMPI DUP2 SLOAD PUSH1 0x1 PUSH1 0x1 PUSH1 0xA0 SHL SUB AND DUP1 EXTCODESIZE ISZERO PUSH2 0x12F JUMPI PUSH1 0x24 DUP4 PUSH1 0xC4 DUP8 SWAP5 PUSH1 0x40 MLOAD SWAP9 DUP10 SWAP7 DUP8 SWAP6 DUP7 SWAP4 PUSH4 0x173BF2CD PUSH1 0xE3 SHL DUP6 MSTORE PUSH1 0x4 CALLDATALOAD PUSH1 0x4 DUP7 ADD MSTORE DUP2 CALLDATALOAD DUP3 DUP7 ADD MSTORE PUSH1 0x44 CALLDATALOAD PUSH1 0x44 DUP7 ADD MSTORE PUSH1 0x64 CALLDATALOAD PUSH1 0x64 DUP7 ADD MSTORE PUSH1 0xA0 PUSH1 0x84 DUP7 ADD MSTORE DUP3 PUSH1 0xA4 DUP7 ADD MSTORE ADD DUP5 DUP5 ADD CALLDATACOPY DUP2 DUP2 ADD DUP4 ADD DUP5 SWAP1 MSTORE PUSH1 0x1F ADD PUSH1 0x1F NOT AND DUP2 ADD SUB ADD SWAP3 GAS CALL DUP1 ISZERO PUSH2 0x124 JUMPI PUSH2 0x101 JUMPI DUP3 DUP1 RETURN JUMPDEST DUP2 GT PUSH2 0x110 JUMPI PUSH1 0x40 MSTORE CODESIZE DUP1 DUP3 DUP1 RETURN JUMPDEST PUSH4 0x4E487B71 PUSH1 0xE0 SHL DUP3 MSTORE PUSH1 0x41 PUSH1 0x4 MSTORE PUSH1 0x24 DUP3 REVERT JUMPDEST PUSH1 0x40 MLOAD RETURNDATASIZE DUP6 DUP3 RETURNDATACOPY RETURNDATASIZE SWAP1 REVERT JUMPDEST DUP3 DUP1 REVERT JUMPDEST POP DUP1 REVERT JUMPDEST DUP1 REVERT JUMPDEST SWAP1 POP CALLVALUE PUSH2 0x133 JUMPI DUP2 PUSH1 0x3 NOT CALLDATASIZE ADD SLT PUSH2 0x133 JUMPI SWAP1 SLOAD PUSH1 0x1 PUSH1 0x1 PUSH1 0xA0 SHL SUB AND DUP2 MSTORE PUSH1 0x20 SWAP1 RETURN INVALID LOG2 PUSH5 0x6970667358 0x22 SLT KECCAK256 0xAD 0xE1 JUMPDEST 0xC2 0xC5 LOG4 STOP SAR NOT PUSH19 0xA844E66BD9F4E0AE101165B78155845E7D580C SWAP2 0xCB BASEFEE PUSH5 0x736F6C6343 STOP ADDMOD EQ STOP CALLER "},"methodIdentifiers":{"oracle()":"7dc0d1d0","submitMockData(bytes32,uint256,uint256,uint256,bytes)":"ad5a19b4"}}}}}