{"contracts/mocks/MockWeatherFeed.sol":{"MockWeatherFeed":{"abi":[{"anonymous":false,"inputs":[{"indexed":true,"internalType":"bytes32","name":"h3Index","type":"bytes32"},{"indexed":false,"internalType":"uint256","name":"rainfall","type":"uint256"},{"indexed":false,"internalType":"uint256","name":"ndvi","type":"uint256"},{"indexed":false,"internalType":"uint256","name":"timestamp","type":"uint256"}],"name":"ReportUpdated","type":"event"},{"inputs":[{"internalType":"bytes32","name":"","type":"bytes32"}],"name":"reports","outputs":[{"internalType":"uint256","name":"rainfall","type":"uint256"},{"internalType":"uint256","name":"ndvi","type":"uint256"},{"internalType":"uint256","name":"timestamp","type":"uint256"}],"stateMutability":"view","type":"function"},{"inputs":[{"internalType":"bytes32","name":"h3Index","type":"bytes32"},{"internalType":"uint256","name":"rainfall","type":"uint256"},{"internalType":"uint256","name":"ndvi","type":"uint256"}],"name":"updateReport","outputs":[],"stateMutability":"nonpayable","type":"function"}],"evm":{"bytecode":{"linkReferences":{},"object":"6080806040523461001657610179908161001c8239f35b600080fdfe60806040818152600436101561001457600080fd5b600091823560e01c9081637e8036651461007b575063b39c48971461003857600080fd5b34610077576020366003190112610077576004358252602082815291819020805460018201546002909201549251908152928301526040820152606090f35b5080fd5b9190503461013f57606036600319011261013f576004359160243591604435916060810181811067ffffffffffffffff82111761012b5791610125917f31b69995c209bd81da3557942590dfc28441227b5e83086f5117bd61c515dc88959493825284815260026020820185815283830190428252898b528a602052848b209351845551600184015551910155519283924291846040919493926060820195825260208201520152565b0390a280f35b634e487b7160e01b87526041600452602487fd5b8280fdfea26469706673582212202bf46919156d852de0456ddbed77abace8f34b7ec884d722ed1fd9a115469cc064736f6c63430008140033","opcodes":"PUSH1 0x80 DUP1 PUSH1 0x40 MSTORE CALLVALUE PUSH2 0x16 JUMPI PUSH2 0x179 SWAP1 DUP2 PUSH2 0x1C DUP3 CODECOPY RETURN JUMPDEST PUSH1 0x0 DUP1 REVERT INVALID PUSH1 0x80 PUSH1 0x40 DUP2 DUP2 MSTORE PUSH1 0x4 CALLDATASIZE LT ISZERO PUSH2 0x14 JUMPI PUSH1 0x0 DUP1 REVERT JUMPDEST PUSH1 0x0 SWAP2 DUP3 CALLDATALOAD PUSH1 0xE0 SHR SWAP1 DUP2 PUSH4 0x7E803665 EQ PUSH2 0x7B JUMPI POP PUSH4 0xB39C4897 EQ PUSH2 0x38 JUMPI PUSH1 0x0 DUP1 REVERT JUMPDEST CALLVALUE PUSH2 0x77 JUMPI PUSH1 0x20 CALLDATASIZE PUSH1 0x3 NOT ADD SLT PUSH2 0x77 JUMPI PUSH1 0x4 CALLDATALOAD DUP3 MSTORE PUSH1 0x20 DUP3 DUP2 MSTORE SWAP2 DUP2 SWAP1 KECCAK256 DUP1 SLOAD PUSH1 0x1 DUP3 ADD SLOAD PUSH1 0x2 SWAP1 SWAP3 ADD SLOAD SWAP3 MLOAD SWAP1 DUP2 MSTORE SWAP3 DUP4 ADD MSTORE PUSH1 0x40 DUP3 ADD MSTORE PUSH1 0x60 SWAP1 RETURN JUMPDEST POP DUP1 REVERT JUMPDEST SWAP2 SWAP1 POP CALLVALUE PUSH2 0x13F JUMPI PUSH1 0x60 CALLDATASIZE PUSH1 0x3 NOT ADD SLT PUSH2 0x13F JUMPI PUSH1 0x4 CALLDATALOAD SWAP2 PUSH1 0x24 CALLDATALOAD SWAP2 PUSH1 0x44 CALLDATALOAD SWAP2 PUSH1 0x60 DUP2 ADD DUP2 DUP2 LT PUSH8 0xFFFFFFFFFFFFFFFF DUP3 GT OR PUSH2 0x12B JUMPI SWAP2 PUSH2 0x125 SWAP2 PUSH32 0x31B69995C209BD81DA3557942590DFC28441227B5E83086F5117BD61C515DC88 SWAP6 SWAP5 SWAP4 DUP3 MSTORE DUP5 DUP2 MSTORE PUSH1 0x2 PUSH1 0x20 DUP3 ADD DUP6 DUP2 MSTORE DUP4 DUP4 ADD SWAP1 TIMESTAMP DUP3 MSTORE DUP10 DUP12 MSTORE DUP11 PUSH1 0x20 MSTORE DUP5 DUP12 KECCAK256 SWAP4 MLOAD DUP5 SSTORE MLOAD PUSH1 0x1 DUP5 ADD SSTORE MLOAD SWAP2 ADD SSTORE MLOAD SWAP3 DUP4 SWAP3 TIMESTAMP SWAP2 DUP5 PUSH1 0x40 SWAP2 SWAP5 SWAP4 SWAP3 PUSH1 0x60 DUP3 ADD SWAP6 DUP3 MSTORE PUSH1 0x20 DUP3 ADD MSTORE ADD MSTORE JUMP JUMPDEST SUB SWAP1 LOG2 DUP1 RETURN JUMPDEST PUSH4 0x4E487B71 PUSH1 0xE0 SHL DUP8 MSTORE PUSH1 0x41 PUSH1 0x4 MSTORE PUSH1 0x24 DUP8 REVERT JUMPDEST DUP3 DUP1 REVERT INVALID LOG2 PUSH5 0x6970667358 0x22 SLT KECCAK256 0x2B DELEGATECALL PUSH10 0x19156D852DE0456DDBED PUSH24 0xABACE8F34B7EC884D722ED1FD9A115469CC064736F6C6343 STOP ADDMOD EQ STOP CALLER "},"methodIdentifiers":{"reports(bytes32)":"b39c4897","updateReport(bytes32,uint256,uint256)":"7e803665"}}}}}