{"contracts/tokens/BimaToken.sol":{"BimaToken":{"abi":[{"inputs":[{"internalType":"uint256","name":"initialSupply","type":"uint256"}],"stateMutability":"nonpayable","type":"constructor"},{"inputs":[],"name":"InvalidShortString","type":"error"},{"inputs":[{"internalType":"string","name":"str","type":"string"}],"name":"StringTooLong","type":"error"},{"anonymous":false,"inputs":[{"indexed":true,"internalType":"address","name":"owner","type":"address"},{"indexed":true,"internalType":"address","name":"spender","type":"address"},{"indexed":false,"internalType":"uint256","name":"value","type":"uint256"}],"name":"Approval","type":"event"},{"anonymous":false,"inputs":[{"indexed":true,"internalType":"address","name":"delegator","type":"address"},{"indexed":true,"internalType":"address","name":"fromDelegate","type":"address"},{"indexed":true,"internalType":"address","name":"toDelegate","type":"address"}],"name":"DelegateChanged","type":"event"},{"anonymous":false,"inputs":[{"indexed":true,"internalType":"address","name":"delegate","type":"address"},{"indexed":false,"internalType":"uint256","name":"previousBalance","type":"uint256"},{"indexed":false,"internalType":"uint256","name":"newBalance","type":"uint256"}],"name":"DelegateVotesChanged","type":"event"},{"anonymous":false,"inputs":[],"name":"EIP712DomainChanged","type":"event"},{"anonymous":false,"inputs":[{"indexed":true,"internalType":"address","name":"previousOwner","type":"address"},{"indexed":true,"internalType":"address","name":"newOwner","type":"address"}],"name":"OwnershipTransferred","type":"event"},{"anonymous":false,"inputs":[{"indexed":true,"internalType":"address","name":"from","type":"address"},{"indexed":true,"internalType":"address","name":"to","type":"address"},{"indexed":false,"internalType":"uint256","name":"value","type":"uint256"}],"name":"Transfer","type":"event"},{"inputs":[],"name":"CLOCK_MODE","outputs":[{"internalType":"string","name":"","type":"string"}],"stateMutability":"view","type":"function"},{"inputs":[],"name":"DOMAIN_SEPARATOR","outputs":[{"internalType":"bytes32","name":"","type":"bytes32"}],"stateMutability":"view","type":"function"},{"inputs":[{"internalType":"address","name":"owner","type":"address"},{"internalType":"address","name":"spender","type":"address"}],"name":"allowance","outputs":[{"internalType":"uint256","name":"","type":"uint256"}],"stateMutability":"view","type":"function"},{"inputs":[{"internalType":"address","name":"spender","type":"address"},{"internalType":"uint256","name":"amount","type":"uint256"}],"name":"approve","outputs":[{"internalType":"bool","name":"","type":"bool"}],"stateMutability":"nonpayable","type":"function"},{"inputs":[{"internalType":"address","name":"account","type":"address"}],"name":"balanceOf","outputs":[{"internalType":"uint256","name":"","type":"uint256"}],"stateMutability":"view","type":"function"},{"inputs":[{"internalType":"address","name":"account","type":"address"},{"internalType":"uint32","name":"pos","type":"uint32"}],"name":"checkpoints","outputs":[{"components":[{"internalType":"uint32","name":"fromBlock","type":"uint32"},{"internalType":"uint224","name":"votes","type":"uint224"}],"internalType":"struct ERC20Votes.Checkpoint","name":"","type":"tuple"}],"stateMutability":"view","type":"function"},{"inputs":[],"name":"clock","outputs":[{"internalType":"uint48","name":"","type":"uint48"}],"stateMutability":"view","type":"function"},{"inputs":[],"name":"decimals","outputs":[{"internalType":"uint8","name":"","type":"uint8"}],"stateMutability":"view","type":"function"},{"inputs":[{"internalType":"address","name":"spender","type":"address"},{"internalType":"uint256","name":"subtractedValue","type":"uint256"}],"name":"decreaseAllowance","outputs":[{"internalType":"bool","name":"","type":"bool"}],"stateMutability":"nonpayable","type":"function"},{"inputs":[{"internalType":"address","name":"delegatee","type":"address"}],"name":"delegate","outputs":[],"stateMutability":"nonpayable","type":"function"},{"inputs":[{"internalType":"address","name":"delegatee","type":"address"},{"internalType":"uint256","name":"nonce","type":"uint256"},{"internalType":"uint256","name":"expiry","type":"uint256"},{"internalType":"uint8","name":"v","type":"uint8"},{"internalType":"bytes32","name":"r","type":"bytes32"},{"internalType":"bytes32","name":"s","type":"bytes32"}],"name":"delegateBySig","outputs":[],"stateMutability":"nonpayable","type":"function"},{"inputs":[{"internalType":"address","name":"account","type":"address"}],"name":"delegates","outputs":[{"internalType":"address","name":"","type":"address"}],"stateMutability":"view","type":"function"},{"inputs":[],"name":"eip712Domain","outputs":[{"internalType":"bytes1","name":"fields","type":"bytes1"},{"internalType":"string","name":"name","type":"string"},{"internalType":"string","name":"version","type":"string"},{"internalType":"uint256","name":"chainId","type":"uint256"},{"internalType":"address","name":"verifyingContract","type":"address"},{"internalType":"bytes32","name":"salt","type":"bytes32"},{"internalType":"uint256[]","name":"extensions","type":"uint256[]"}],"stateMutability":"view","type":"function"},{"inputs":[{"internalType":"uint256","name":"timepoint","type":"uint256"}],"name":"getPastTotalSupply","outputs":[{"internalType":"uint256","name":"","type":"uint256"}],"stateMutability":"view","type":"function"},{"inputs":[{"internalType":"address","name":"account","type":"address"},{"internalType":"uint256","name":"timepoint","type":"uint256"}],"name":"getPastVotes","outputs":[{"internalType":"uint256","name":"","type":"uint256"}],"stateMutability":"view","type":"function"},{"inputs":[{"internalType":"address","name":"account","type":"address"}],"name":"getVotes","outputs":[{"internalType":"uint256","name":"","type":"uint256"}],"stateMutability":"view","type":"function"},{"inputs":[{"internalType":"address","name":"spender","type":"address"},{"internalType":"uint256","name":"addedValue","type":"uint256"}],"name":"increaseAllowance","outputs":[{"internalType":"bool","name":"","type":"bool"}],"stateMutability":"nonpayable","type":"function"},{"inputs":[{"internalType":"address","name":"to","type":"address"},{"internalType":"uint256","name":"amount","type":"uint256"}],"name":"mint","outputs":[],"stateMutability":"nonpayable","type":"function"},{"inputs":[],"name":"name","outputs":[{"internalType":"string","name":"","type":"string"}],"stateMutability":"view","type":"function"},{"inputs":[{"internalType":"address","name":"owner","type":"address"}],"name":"nonces","outputs":[{"internalType":"uint256","name":"","type":"uint256"}],"stateMutability":"view","type":"function"},{"inputs":[{"internalType":"address","name":"account","type":"address"}],"name":"numCheckpoints","outputs":[{"internalType":"uint32","name":"","type":"uint32"}],"stateMutability":"view","type":"function"},{"inputs":[],"name":"owner","outputs":[{"internalType":"address","name":"","type":"address"}],"stateMutability":"view","type":"function"},{"inputs":[{"internalType":"address","name":"owner","type":"address"},{"internalType":"address","name":"spender","type":"address"},{"internalType":"uint256","name":"value","type":"uint256"},{"internalType":"uint256","name":"deadline","type":"uint256"},{"internalType":"uint8","name":"v","type":"uint8"},{"internalType":"bytes32","name":"r","type":"bytes32"},{"internalType":"bytes32","name":"s","type":"bytes32"}],"name":"permit","outputs":[],"stateMutability":"nonpayable","type":"function"},{"inputs":[],"name":"renounceOwnership","outputs":[],"stateMutability":"nonpayable","type":"function"},{"inputs":[],"name":"symbol","outputs":[{"internalType":"string","name":"","type":"string"}],"stateMutability":"view","type":"function"},{"inputs":[],"name":"totalSupply","outputs":[{"internalType":"uint256","name":"","type":"uint256"}],"stateMutability":"view","type":"function"},{"inputs":[{"internalType":"address","name":"to","type":"address"},{"internalType":"uint256","name":"amount","type":"uint256"}],"name":"transfer","outputs":[{"internalType":"bool","name":"","type":"bool"}],"stateMutability":"nonpayable","type":"function"},{"inputs":[{"internalType":"address","name":"from","type":"address"},{"internalType":"address","name":"to","type":"address"},{"internalType":"uint256","name":"amount","type":"uint256"}],"name":"transferFrom","outputs":[{"internalType":"bool","name":"","type":"bool"}],"stateMutability":"nonpayable","type":"function"},{"inputs":[{"internalType":"address","name":"newOwner","type":"address"}],"name":"transferOwnership","outputs":[],"stateMutability":"nonpayable","type":"function"}],"evm":{"bytecode":{"linkReferences":{},"object":"610160806040523462000088576020620036e180380380916200002282620000a3565b843912620000885762000036905162000152565b6040516125d29081620010ef823960805181611f2a015260a05181611fe5015260c05181611ef4015260e05181611f7901526101005181611f9f0152610120518161099c015261014051816109c50152f35b600080fd5b634e487b7160e01b600052604160045260246000fd5b601f01601f1916610160908101906001600160401b03821190821017620000c957604052565b6200008d565b604081019081106001600160401b03821117620000c957604052565b60405190620000fa82620000cf565b565b604051906200010b82620000cf565b60048252565b604051906200012082620000cf565b60018252565b604051906200013582620000cf565b600e82526d2134b6b0a3b934b2102a37b5b2b760911b6020830152565b906200015d62000126565b916200016862000126565b9262000173620000fc565b906020906342494d4160e01b828401526200018d62000111565b9180830193603160f81b8552875160018060401b038111620000c957620001c181620001bb600354620002f3565b62000330565b82601f821160011462000260579080620002009392620000fa9a9b60009262000254575b50508160011b916000199060031b1c19161760035562000494565b6200020b82620005d0565b610120526200021a83620006e3565b61014052815191012060e052519020610100524660a0526200023b62000894565b6080523060c0526200024d3362000587565b3362000966565b015190503880620001e5565b6003600052601f198216997fc2575a0e9e593c00f959f8c92f12db2869c3395a3b0502d05e2516446f71f85b9a60005b818110620002db57509a6001928492620002009695620000fa9d9e10620002c1575b505050811b0160035562000494565b015160001960f88460031b161c19169055388080620002b2565b838301518d556001909c019b92860192860162000290565b90600182811c9216801562000325575b60208310146200030f57565b634e487b7160e01b600052602260045260246000fd5b91607f169162000303565b601f81116200033d575050565b6000906003825260208220906020601f850160051c830194106200037e575b601f0160051c01915b8281106200037257505050565b81815560010162000365565b90925082906200035c565b601f811162000396575050565b6000906004825260208220906020601f850160051c83019410620003d7575b601f0160051c01915b828110620003cb57505050565b818155600101620003be565b9092508290620003b5565b601f8111620003ef575050565b6000906005825260208220906020601f850160051c8301941062000430575b601f0160051c01915b8281106200042457505050565b81815560010162000417565b90925082906200040e565b601f811162000448575050565b6000906006825260208220906020601f850160051c8301941062000489575b601f0160051c01915b8281106200047d57505050565b81815560010162000470565b909250829062000467565b80519091906001600160401b038111620000c957620004c081620004ba600454620002f3565b62000389565b602080601f8311600114620004ff5750819293600092620004f3575b50508160011b916000199060031b1c191617600455565b015190503880620004dc565b6004600052601f198316949091907f8a35acfbc15ff81a39ae7d344fd709f28e8600b4aa8c65c6b64bfe7fe36bd19b926000905b8782106200056e57505083600195961062000554575b505050811b01600455565b015160001960f88460031b161c1916905538808062000549565b8060018596829496860151815501950193019062000533565b600c80546001600160a01b039283166001600160a01b0319821681179092559091167f8be0079c531659141344cd1fd0a4f28419497f9722a3daafe3b4186f6b6457e0600080a3565b9081516020808210600014620005f157505090620005ee9062000817565b90565b6001600160401b038211620000c957620006188262000612600554620002f3565b620003e2565b80601f83116001146200065857508192936000926200064c575b50508160011b916000199060031b1c19161760055560ff90565b01519050388062000632565b6005600052601f198316949091907f036b6384b5eca791c62761152d0c79bb0604c104a5fb6f4eb0703f3154bb3db0926000905b878210620006ca575050836001959610620006b0575b505050811b0160055560ff90565b015160001960f88460031b161c19169055388080620006a2565b806001859682949686015181550195019301906200068c565b90815160208082106000146200070157505090620005ee9062000817565b6001600160401b038211620000c957620007288262000722600654620002f3565b6200043b565b80601f83116001146200076857508192936000926200075c575b50508160011b916000199060031b1c19161760065560ff90565b01519050388062000742565b6006600052601f198316949091907ff652222313e28459528d920b65115c16c04f3efc82aaedc97be59f3f377c0d3f926000905b878210620007da575050836001959610620007c0575b505050811b0160065560ff90565b015160001960f88460031b161c19169055388080620007b2565b806001859682949686015181550195019301906200079c565b60208151910151906020811062000808575090565b6000199060200360031b1b1690565b601f81511162000832576200082c81620007f3565b90511790565b6040519063305a27a960e01b82528160208060048301528251908160248401526000935b8285106200087a575050604492506000838284010152601f80199101168101030190fd5b848101820151868601604401529381019385935062000856565b60e051610100516040519060208201927f8b73c3c69bb8fe3d512ecc4cf759cc79239f7b179b0ffacaa9a75d522b39400f8452604083015260608201524660808201523060a082015260a0815260c0810181811060018060401b03821117620000c95760405251902090565b156200090857565b60405162461bcd60e51b815260206004820152603060248201527f4552433230566f7465733a20746f74616c20737570706c79207269736b73206f60448201526f766572666c6f77696e6720766f74657360801b6064820152608490fd5b906001600160a01b038216801562000a105760025482810180911162000a0a5762000a0693620009e8926200099b8593600255565b6001600160a01b038216600090815260208181526040808320805487019055518581527fddf252ad1be2c89b69c2b068fc378daa952ba7f163c4a11628f55a4df523b3ef9190a362000fc4565b60025462000a00906001600160e01b03101562000900565b62000b75565b5050565b62000a55565b60405162461bcd60e51b815260206004820152601f60248201527f45524332303a206d696e7420746f20746865207a65726f2061646472657373006044820152606490fd5b634e487b7160e01b600052601160045260246000fd5b604080519192919081016001600160401b03811182821017620000c957604052602081935463ffffffff81168352811c910152565b600b549068010000000000000000821015620000c9576001820180600b5582101562000b0e57600b600052805160209182015190911b63ffffffff191663ffffffff91909116177f0175b7a638427703f0dbe7bb9bbf987a2551717b34e79f33b5b1008d1fa01db990910155565b634e487b7160e01b600052603260045260246000fd5b90815468010000000000000000811015620000c9576001810180845581101562000b0e57600092835260209283902082519284015190931b63ffffffff191663ffffffff9290921691909117910155565b600b549091811591821562000cbd5762000b8e620000eb565b60008152600060208201525b602081015162000bc79062000bbf906001600160e01b03165b6001600160e01b031690565b9586620010d2565b9315908162000c96575b501562000c2e57620000fa9062000c1762000bec8562000e8c565b600b600052917f0175b7a638427703f0dbe7bb9bbf987a2551717b34e79f33b5b1008d1fa01db80190565b9063ffffffff82549181199060201b169116179055565b50620000fa62000c5762000c5162000c464362000ef6565b65ffffffffffff1690565b62000f5e565b62000c9062000c668562000e8c565b62000c8062000c74620000eb565b63ffffffff9094168452565b6001600160e01b03166020830152565b62000aa0565b5163ffffffff16905063ffffffff62000cb362000c464362000ef6565b9116143862000bd1565b600b60005262000cf57f0175b7a638427703f0dbe7bb9bbf987a2551717b34e79f33b5b1008d1fa01db8820162000a6b565b62000a6b565b62000b9a565b90918154918215928360001462000dff5762000d16620000eb565b60008152600060208201525b602081015162000d489062000d40906001600160e01b031662000bb3565b9687620010e0565b9415908162000dd8575b501562000d7f5762000c17620000fa9262000d6d8662000e8c565b92600019019060005260206000200190565b50620000fa9062000d9862000c5162000c464362000ef6565b9062000dd262000da88662000e8c565b62000dc262000db6620000eb565b63ffffffff9095168552565b6001600160e01b03166020840152565b62000b24565b5163ffffffff16905063ffffffff62000df562000c464362000ef6565b9116143862000d52565b62000e1962000cef60001983018460005260206000200190565b62000d22565b90918154918215928360001462000e6c5762000e3a620000eb565b60008152600060208201525b602081015162000d489062000e64906001600160e01b031662000bb3565b9687620010d2565b62000e8662000cef60001983018460005260206000200190565b62000e46565b6001600160e01b039081811162000ea1571690565b60405162461bcd60e51b815260206004820152602760248201527f53616665436173743a2076616c756520646f65736e27742066697420696e20326044820152663234206269747360c81b6064820152608490fd5b65ffffffffffff9081811162000f0a571690565b60405162461bcd60e51b815260206004820152602660248201527f53616665436173743a2076616c756520646f65736e27742066697420696e203460448201526538206269747360d01b6064820152608490fd5b63ffffffff9081811162000f70571690565b60405162461bcd60e51b815260206004820152602660248201527f53616665436173743a2076616c756520646f65736e27742066697420696e203360448201526532206269747360d01b6064820152608490fd5b60096020527fec8156718a8372b1db44bb411437d0870f3e3790d4a08526d024ce1b0b668f6b546001600160a01b039182166000908152604081205483169392909116908184141580620010c8575b6200101f575b50505050565b82908262001087575b505050816200103a575b808062001019565b6001600160a01b0382166000908152600a60205260409020600080516020620036c1833981519152916200106e9162000e1f565b60408051928352602083019190915290a2388062001032565b600080516020620036c18339815191529160408285620010ae9452600a6020522062000cfb565b60408051928352602083019190915290a238818162001028565b5082151562001013565b90810180911162000a0a5790565b90810390811162000a0a579056fe6080604052600436101561001257600080fd5b60003560e01c806306fdde03146101e7578063095ea7b3146101e257806318160ddd146101dd57806323b872dd146101d8578063313ce567146101d35780633644e515146101ce57806339509351146101c95780633a46b1a8146101c457806340c10f19146101bf5780634bf5d7e9146101ba578063587cde1e146101b55780635c19a95c146101b05780636fcfff45146101ab57806370a08231146101a6578063715018a6146101a15780637ecebe001461019c57806384b0196e146101975780638da5cb5b146101925780638e539e8c1461018d57806391ddadf41461018857806395d89b41146101835780639ab24eb01461017e578063a457c2d714610179578063a9059cbb14610174578063c3cda5201461016f578063d505accf1461016a578063dd62ed3e14610165578063f1127ed8146101605763f2fde38b1461015b57600080fd5b611174565b6110ed565b611095565b610f4f565b610e24565b610dde565b610d30565b610cce565b610c27565b610bfb565b610aa2565b610a79565b610981565b610947565b6108e9565b6108af565b610867565b610845565b61080a565b610758565b610658565b610507565b6104af565b61048c565b610470565b6103a5565b610387565b610356565b610240565b919082519283825260005b848110610218575050826000602080949584010152601f8019910116010190565b6020818301810151848301820152016101f7565b90602061023d9281815201906101ec565b90565b346103255760008060031936011261032257604051908060035461026381611295565b808552916001918083169081156102f8575060011461029d575b6102998561028d8187038261133e565b6040519182918261022c565b0390f35b9250600383527fc2575a0e9e593c00f959f8c92f12db2869c3395a3b0502d05e2516446f71f85b5b8284106102e057505050810160200161028d8261029961027d565b805460208587018101919091529093019281016102c5565b8695506102999693506020925061028d94915060ff191682840152151560051b820101929361027d565b80fd5b600080fd5b600435906001600160a01b038216820361032557565b602435906001600160a01b038216820361032557565b346103255760403660031901126103255761037c61037261032a565b6024359033611552565b602060405160018152f35b34610325576000366003190112610325576020600254604051908152f35b34610325576060366003190112610325576103be61032a565b6103c6610340565b6001600160a01b03821660009081526001602090815260408083203384529091529020604435919054926001840161040f575b6104039350611444565b60405160018152602090f35b82841061042b576104268361040395033383611552565b6103f9565b60405162461bcd60e51b815260206004820152601d60248201527f45524332303a20696e73756666696369656e7420616c6c6f77616e63650000006044820152606490fd5b3461032557600036600319011261032557602060405160128152f35b346103255760003660031901126103255760206104a7611ef1565b604051908152f35b34610325576040366003190112610325576104c861032a565b3360009081526001602090815260408083206001600160a01b038516845290915290205460243581018091116105025761037c9133611552565b611360565b346103255760403660031901126103255761052061032a565b6024359061053f65ffffffffffff610537436123d4565b16831061172b565b6001600160a01b03166000908152600a6020526040812080549290918360058111610607575b50905b8382106105b65750508161058f575050602060005b6040516001600160e01b039091168152f35b6105aa6105b191602093600019019060005260206000200190565b5460201c90565b61057d565b90926105c28185612204565b908263ffffffff6105e76105dd858860005260206000200190565b5463ffffffff1690565b1611156105f75750925b90610568565b935061060290611376565b6105f1565b8061061761061d92969396612219565b90611777565b908263ffffffff6106386105dd858860005260206000200190565b1611156106485750925b38610565565b935061065390611376565b610642565b346103255760403660031901126103255761067161032a565b60243561067c61123d565b6001600160a01b03821691821561071357816106f691610711946106aa6106a584600254611384565b600255565b6001600160a01b038216600090815260208181526040808320805487019055518581527fddf252ad1be2c89b69c2b068fc378daa952ba7f163c4a11628f55a4df523b3ef9190a36124a0565b60025461070c906001600160e01b03101561251d565b611b21565b005b60405162461bcd60e51b815260206004820152601f60248201527f45524332303a206d696e7420746f20746865207a65726f2061646472657373006044820152606490fd5b34610325576000366003190112610325574365ffffffffffff61077a436123d4565b16036107c55761029960405161078f816112e5565b601d81527f6d6f64653d626c6f636b6e756d6265722666726f6d3d64656661756c7400000060208201526040519182918261022c565b60405162461bcd60e51b815260206004820152601d60248201527f4552433230566f7465733a2062726f6b656e20636c6f636b206d6f64650000006044820152606490fd5b346103255760203660031901126103255760206001600160a01b038061082e61032a565b166000526009825260406000205416604051908152f35b346103255760203660031901126103255761071161086161032a565b336117d0565b34610325576020366003190112610325576001600160a01b0361088861032a565b16600052600a60205260206108a160406000205461243b565b63ffffffff60405191168152f35b34610325576020366003190112610325576001600160a01b036108d061032a565b1660005260006020526020604060002054604051908152f35b34610325576000806003193601126103225761090361123d565b600c80546001600160a01b0319811690915581906001600160a01b03167f8be0079c531659141344cd1fd0a4f28419497f9722a3daafe3b4186f6b6457e08280a380f35b34610325576020366003190112610325576001600160a01b0361096861032a565b1660005260076020526020604060002054604051908152f35b346103255760008060031936011261032257610a2b906109c07f0000000000000000000000000000000000000000000000000000000000000000612031565b6109e97f000000000000000000000000000000000000000000000000000000000000000061212a565b91604051916109f783611306565b818352604051948594600f60f81b8652610a1d60209360e08589015260e08801906101ec565b9086820360408801526101ec565b904660608601523060808601528260a086015284820360c08601528080855193848152019401925b828110610a6257505050500390f35b835185528695509381019392810192600101610a53565b3461032557600036600319011261032557600c546040516001600160a01b039091168152602090f35b3461032557602036600319011261032557600435610ad165ffffffffffff610ac9436123d4565b16821061172b565b600b549060008260058111610b94575b50905b828210610b31578280610afe575060405160008152602090f35b600b6000526020906105b1907f0175b7a638427703f0dbe7bb9bbf987a2551717b34e79f33b5b1008d1fa01db8016105aa565b9091610b3d8184612204565b600b600052908263ffffffff610b747f0175b7a638427703f0dbe7bb9bbf987a2551717b34e79f33b5b1008d1fa01db985016105dd565b161115610b845750915b90610ae4565b9250610b8f90611376565b610b7e565b80610617610ba492959395612219565b600b600052908263ffffffff610bdb7f0175b7a638427703f0dbe7bb9bbf987a2551717b34e79f33b5b1008d1fa01db985016105dd565b161115610beb5750915b38610ae1565b9250610bf690611376565b610be5565b34610325576000366003190112610325576020610c17436123d4565b65ffffffffffff60405191168152f35b3461032557600080600319360112610322576040519080600454610c4a81611295565b808552916001918083169081156102f85750600114610c73576102998561028d8187038261133e565b9250600483527f8a35acfbc15ff81a39ae7d344fd709f28e8600b4aa8c65c6b64bfe7fe36bd19b5b828410610cb657505050810160200161028d8261029961027d565b80546020858701810191909152909301928101610c9b565b34610325576020366003190112610325576001600160a01b03610cef61032a565b16600052600a602052604060002080548015600014610d1657505060405160008152602090f35b602091610d279160001901906116db565b5054811c61057d565b3461032557604036600319011261032557610d4961032a565b60243590336000526001602052610d768160406000209060018060a01b0316600052602052604060002090565b5491808310610d8b5761040392039033611552565b60405162461bcd60e51b815260206004820152602560248201527f45524332303a2064656372656173656420616c6c6f77616e63652062656c6f77604482015264207a65726f60d81b6064820152608490fd5b346103255760403660031901126103255761037c610dfa61032a565b6024359033611444565b6064359060ff8216820361032557565b6084359060ff8216820361032557565b346103255760c036600319011261032557610e3d61032a565b60443590602435610e4c610e04565b92804211610f0a57610edc610f05916107119560405190610ec482610eb66020820195898b8860609194939260808201957fe48329057bfd03d55e49b547132e39cffd9c1820ad7b9d4c5307691425d15adf835260018060a01b0316602083015260408201520152565b03601f19810184528361133e565b610ed760a435936084359351902061200b565b611d0b565b6001600160a01b0381166000908152600760205260409020805460018101909155909214611784565b6117d0565b60405162461bcd60e51b815260206004820152601d60248201527f4552433230566f7465733a207369676e617475726520657870697265640000006044820152606490fd5b346103255760e036600319011261032557610f6861032a565b610f70610340565b6044359060643592610f80610e14565b938042116110505761103861104b91610eb661071197611025610fbe8760018060a01b03166000526007602052604060002090815491600183019055565b604080517f6e71edae12b1b97f4d1f60370fef10105fa2faae0126114a169c64845d6126c9602082019081526001600160a01b03808c1693830193909352918b166060820152608081018c905260a081019290925260c082019590955292839060e0820190565b610ed760c4359360a4359351902061200b565b6001600160a01b03838116911614611682565b611552565b60405162461bcd60e51b815260206004820152601d60248201527f45524332305065726d69743a206578706972656420646561646c696e650000006044820152606490fd5b346103255760403660031901126103255760206110e46110b361032a565b6110bb610340565b6001600160a01b0391821660009081526001855260408082209290931681526020919091522090565b54604051908152f35b346103255760403660031901126103255761110661032a565b63ffffffff60243581811681036103255761115061115691604094600060208751611130816112e5565b82815201526001600160a01b03166000908152600a6020528590206116db565b50611709565b8251815190921682526020908101516001600160e01b031690820152f35b346103255760203660031901126103255761118d61032a565b61119561123d565b6001600160a01b039081169081156111e957600c54826bffffffffffffffffffffffff60a01b821617600c55167f8be0079c531659141344cd1fd0a4f28419497f9722a3daafe3b4186f6b6457e0600080a3005b60405162461bcd60e51b815260206004820152602660248201527f4f776e61626c653a206e6577206f776e657220697320746865207a65726f206160448201526564647265737360d01b6064820152608490fd5b600c546001600160a01b0316330361125157565b606460405162461bcd60e51b815260206004820152602060248201527f4f776e61626c653a2063616c6c6572206973206e6f7420746865206f776e65726044820152fd5b90600182811c921680156112c5575b60208310146112af57565b634e487b7160e01b600052602260045260246000fd5b91607f16916112a4565b634e487b7160e01b600052604160045260246000fd5b6040810190811067ffffffffffffffff82111761130157604052565b6112cf565b6020810190811067ffffffffffffffff82111761130157604052565b60c0810190811067ffffffffffffffff82111761130157604052565b90601f8019910116810190811067ffffffffffffffff82111761130157604052565b634e487b7160e01b600052601160045260246000fd5b906001820180921161050257565b9190820180921161050257565b1561139857565b60405162461bcd60e51b815260206004820152602360248201527f45524332303a207472616e7366657220746f20746865207a65726f206164647260448201526265737360e81b6064820152608490fd5b156113f057565b60405162461bcd60e51b815260206004820152602660248201527f45524332303a207472616e7366657220616d6f756e7420657863656564732062604482015265616c616e636560d01b6064820152608490fd5b6001600160a01b0392919083811680156114ff576114fd9483169061146a821515611391565b6001600160a01b0383166000908152602081905260409020859054611491828210156113e9565b036114ae8460018060a01b03166000526000602052604060002090565b556001600160a01b0384166000908152602081815260409182902080548801905590518681527fddf252ad1be2c89b69c2b068fc378daa952ba7f163c4a11628f55a4df523b3ef9190a36124eb565b565b60405162461bcd60e51b815260206004820152602560248201527f45524332303a207472616e736665722066726f6d20746865207a65726f206164604482015264647265737360d81b6064820152608490fd5b6001600160a01b0380821692919083156116315782169384156115e157806115cb7f8c5be1e5ebec7d5bd14f71427d1e84f3dd0314c0f7b2291e5b200ac8c7c3b925946115b46115dc9560018060a01b03166000526001602052604060002090565b9060018060a01b0316600052602052604060002090565b556040519081529081906020820190565b0390a3565b60405162461bcd60e51b815260206004820152602260248201527f45524332303a20617070726f766520746f20746865207a65726f206164647265604482015261737360f01b6064820152608490fd5b60405162461bcd60e51b8152602060048201526024808201527f45524332303a20617070726f76652066726f6d20746865207a65726f206164646044820152637265737360e01b6064820152608490fd5b1561168957565b60405162461bcd60e51b815260206004820152601e60248201527f45524332305065726d69743a20696e76616c6964207369676e617475726500006044820152606490fd5b604051906114fd826112e5565b80548210156116f35760005260206000200190600090565b634e487b7160e01b600052603260045260246000fd5b90604051611716816112e5565b602081935463ffffffff81168352811c910152565b1561173257565b60405162461bcd60e51b815260206004820152601960248201527f4552433230566f7465733a20667574757265206c6f6f6b7570000000000000006044820152606490fd5b9190820391821161050257565b1561178b57565b60405162461bcd60e51b815260206004820152601960248201527f4552433230566f7465733a20696e76616c6964206e6f6e6365000000000000006044820152606490fd5b6114fd9160018060a01b038092166000928184526009602052806040852054168092856020527f3134e8a2e6d97e929a7e54011ea5485d7d196dd5f0ba4d4ef95803e8e3fc257f60408720549660096020526040812094871694856bffffffffffffffffffffffff60a01b82541617905580a45b6001600160a01b03808316939291168084141580611a57575b611868575b50505050565b806118d6575b508261187b575b80611862565b6001600160a01b03166000908152600a602052604090207fdec2bacdd2f05b59de34da9b523dff8be42e5e38e818c82fdb0bae774387a724916118bd91611c52565b60408051928352602083019190915290a2388080611875565b80600052600a6020527fdec2bacdd2f05b59de34da9b523dff8be42e5e38e818c82fdb0bae774387a7246040600020805480159182600014611a345761191a6116ce565b6000815260006020820152915b6020830151611946906001600160e01b03165b6001600160e01b031690565b926119518985612582565b94159081611a11575b50156119af57611982611999926119708661236b565b92600019019060005260206000200190565b9063ffffffff82549181199060201b169116179055565b604080519182526020820192909252a23861186e565b50611a0c906119d36119ce6119c3436123d4565b65ffffffffffff1690565b61243b565b90611a076119e08661236b565b6119f76119eb6116ce565b63ffffffff9095168552565b6001600160e01b03166020840152565b611ac7565b611999565b5163ffffffff16905063ffffffff611a2b6119c3436123d4565b9116143861195a565b611a51611a4c60001984018360005260206000200190565b611709565b91611927565b5082151561185d565b600b5490600160401b821015611301576001820180600b558210156116f357600b600052805160209182015190911b63ffffffff191663ffffffff91909116177f0175b7a638427703f0dbe7bb9bbf987a2551717b34e79f33b5b1008d1fa01db990910155565b8054600160401b81101561130157611ae4916001820181556116db565b611b0b57815160209283015190921b63ffffffff191663ffffffff92909216919091179055565b634e487b7160e01b600052600060045260246000fd5b600b5490918115918215611c1d57611b376116ce565b60008152600060208201525b6020810151611b6590611b5e906001600160e01b031661193a565b958661258f565b93159081611bfa575b5015611baf576114fd90611982611b848561236b565b600b600052917f0175b7a638427703f0dbe7bb9bbf987a2551717b34e79f33b5b1008d1fa01db80190565b506114fd611bc26119ce6119c3436123d4565b611bf5611bce8561236b565b611be5611bd96116ce565b63ffffffff9094168452565b6001600160e01b03166020830152565b611a60565b5163ffffffff16905063ffffffff611c146119c3436123d4565b91161438611b6e565b600b600052611c4d7f0175b7a638427703f0dbe7bb9bbf987a2551717b34e79f33b5b1008d1fa01db88201611709565b611b43565b909181549182159283600014611cee57611c6a6116ce565b60008152600060208201525b6020810151611c9890611c91906001600160e01b031661193a565b968761258f565b94159081611ccb575b5015611cb7576119826114fd926119708661236b565b506114fd906119d36119ce6119c3436123d4565b5163ffffffff16905063ffffffff611ce56119c3436123d4565b91161438611ca1565b611d06611a4c60001983018460005260206000200190565b611c76565b9161023d9391611d1a93611e62565b919091611d42565b60051115611d2c57565b634e487b7160e01b600052602160045260246000fd5b611d4b81611d22565b80611d535750565b611d5c81611d22565b60018103611da95760405162461bcd60e51b815260206004820152601860248201527f45434453413a20696e76616c6964207369676e617475726500000000000000006044820152606490fd5b611db281611d22565b60028103611dff5760405162461bcd60e51b815260206004820152601f60248201527f45434453413a20696e76616c6964207369676e6174757265206c656e677468006044820152606490fd5b80611e0b600392611d22565b14611e1257565b60405162461bcd60e51b815260206004820152602260248201527f45434453413a20696e76616c6964207369676e6174757265202773272076616c604482015261756560f01b6064820152608490fd5b9291907f7fffffffffffffffffffffffffffffff5d576e7357a4501ddfe92f46681b20a08311611ee55791608094939160ff602094604051948552168484015260408301526060820152600093849182805260015afa15611ed85781516001600160a01b03811615611ed2579190565b50600190565b50604051903d90823e3d90fd5b50505050600090600390565b307f00000000000000000000000000000000000000000000000000000000000000006001600160a01b03161480611fe2575b15611f4c577f000000000000000000000000000000000000000000000000000000000000000090565b60405160208101907f8b73c3c69bb8fe3d512ecc4cf759cc79239f7b179b0ffacaa9a75d522b39400f82527f000000000000000000000000000000000000000000000000000000000000000060408201527f000000000000000000000000000000000000000000000000000000000000000060608201524660808201523060a082015260a08152611fdc81611322565b51902090565b507f00000000000000000000000000000000000000000000000000000000000000004614611f23565b604290612016611ef1565b906040519161190160f01b8352600283015260228201522090565b60ff811461206f5760ff811690601f821161205d5760405191612053836112e5565b8252602082015290565b604051632cd44ac360e21b8152600490fd5b5060405160055481600061208283611295565b8083529260019081811690811561210857506001146120a9575b5061023d9250038261133e565b6005600090815291507f036b6384b5eca791c62761152d0c79bb0604c104a5fb6f4eb0703f3154bb3db05b8483106120ed575061023d93505081016020013861209c565b819350908160209254838589010152019101909184926120d4565b90506020925061023d94915060ff191682840152151560051b8201013861209c565b60ff811461214c5760ff811690601f821161205d5760405191612053836112e5565b5060405160065481600061215f83611295565b808352926001908181169081156121085750600114612185575061023d9250038261133e565b6006600090815291507ff652222313e28459528d920b65115c16c04f3efc82aaedc97be59f3f377c0d3f5b8483106121c9575061023d93505081016020013861209c565b819350908160209254838589010152019101909184926121b0565b81156121ee570490565b634e487b7160e01b600052601260045260246000fd5b90808216911860011c81018091116105025790565b801561235357806122ec6122e56122db6122d16122c76122bd6122b36122a9600161023d9a6000908b60801c80612347575b508060401c8061233a575b508060201c8061232d575b508060101c80612320575b508060081c80612313575b508060041c80612306575b508060021c806122f9575b50821c6122f2575b811c1b6122a2818b6121e4565b0160011c90565b6122a2818a6121e4565b6122a281896121e4565b6122a281886121e4565b6122a281876121e4565b6122a281866121e4565b6122a281856121e4565b80926121e4565b90612359565b8101612295565b600291509101903861228d565b6004915091019038612282565b6008915091019038612277565b601091509101903861226c565b6020915091019038612261565b6040915091019038612256565b9150506080903861224b565b50600090565b9080821015612366575090565b905090565b6001600160e01b039081811161237f571690565b60405162461bcd60e51b815260206004820152602760248201527f53616665436173743a2076616c756520646f65736e27742066697420696e20326044820152663234206269747360c81b6064820152608490fd5b65ffffffffffff908181116123e7571690565b60405162461bcd60e51b815260206004820152602660248201527f53616665436173743a2076616c756520646f65736e27742066697420696e203460448201526538206269747360d01b6064820152608490fd5b63ffffffff9081811161244c571690565b60405162461bcd60e51b815260206004820152602660248201527f53616665436173743a2076616c756520646f65736e27742066697420696e203360448201526532206269747360d01b6064820152608490fd5b60096020527fec8156718a8372b1db44bb411437d0870f3e3790d4a08526d024ce1b0b668f6b546001600160a01b03918216600090815260409020546114fd93929081169116611844565b6001600160a01b039081166000908152600960205260408082205493831682529020546114fd93929082169116611844565b1561252457565b60405162461bcd60e51b815260206004820152603060248201527f4552433230566f7465733a20746f74616c20737570706c79207269736b73206f60448201526f766572666c6f77696e6720766f74657360801b6064820152608490fd5b9081039081116105025790565b908101809111610502579056fea2646970667358221220f113c3b8afdfbf4b425fa9fa363690c7c9d875e9d5264c949518843c29112c8664736f6c63430008140033dec2bacdd2f05b59de34da9b523dff8be42e5e38e818c82fdb0bae774387a724","opcodes":"PUSH2 0x160 DUP1 PUSH1 0x40 MSTORE CALLVALUE PUSH3 0x88 JUMPI PUSH1 0x20 PUSH3 0x36E1 DUP1 CODESIZE SUB DUP1 SWAP2 PUSH3 0x22 DUP3 PUSH3 0xA3 JUMP JUMPDEST DUP5 CODECOPY SLT PUSH3 0x88 JUMPI PUSH3 0x36 SWAP1 MLOAD PUSH3 0x152 JUMP JUMPDEST PUSH1 0x40 MLOAD PUSH2 0x25D2 SWAP1 DUP2 PUSH3 0x10EF DUP3 CODECOPY PUSH1 0x80 MLOAD DUP2 PUSH2 0x1F2A ADD MSTORE PUSH1 0xA0 MLOAD DUP2 PUSH2 0x1FE5 ADD MSTORE PUSH1 0xC0 MLOAD DUP2 PUSH2 0x1EF4 ADD MSTORE PUSH1 0xE0 MLOAD DUP2 PUSH2 0x1F79 ADD MSTORE PUSH2 0x100 MLOAD DUP2 PUSH2 0x1F9F ADD MSTORE PUSH2 0x120 MLOAD DUP2 PUSH2 0x99C ADD MSTORE PUSH2 0x140 MLOAD DUP2 PUSH2 0x9C5 ADD MSTORE RETURN JUMPDEST PUSH1 0x0 DUP1 REVERT JUMPDEST PUSH4 0x4E487B71 PUSH1 0xE0 SHL PUSH1 0x0 MSTORE PUSH1 0x41 PUSH1 0x4 MSTORE PUSH1 0x24 PUSH1 0x0 REVERT JUMPDEST PUSH1 0x1F ADD PUSH1 0x1F NOT AND PUSH2 0x160 SWAP1 DUP2 ADD SWAP1 PUSH1 0x1 PUSH1 0x1 PUSH1 0x40 SHL SUB DUP3 GT SWAP1 DUP3 LT OR PUSH3 0xC9 JUMPI PUSH1 0x40 MSTORE JUMP JUMPDEST PUSH3 0x8D JUMP JUMPDEST PUSH1 0x40 DUP2 ADD SWAP1 DUP2 LT PUSH1 0x1 PUSH1 0x1 PUSH1 0x40 SHL SUB DUP3 GT OR PUSH3 0xC9 JUMPI PUSH1 0x40 MSTORE JUMP JUMPDEST PUSH1 0x40 MLOAD SWAP1 PUSH3 0xFA DUP3 PUSH3 0xCF JUMP JUMPDEST JUMP JUMPDEST PUSH1 0x40 MLOAD SWAP1 PUSH3 0x10B DUP3 PUSH3 0xCF JUMP JUMPDEST PUSH1 0x4 DUP3 MSTORE JUMP JUMPDEST PUSH1 0x40 MLOAD SWAP1 PUSH3 0x120 DUP3 PUSH3 0xCF JUMP JUMPDEST PUSH1 0x1 DUP3 MSTORE JUMP JUMPDEST PUSH1 0x40 MLOAD SWAP1 PUSH3 0x135 DUP3 PUSH3 0xCF JUMP JUMPDEST PUSH1 0xE DUP3 MSTORE PUSH14 0x2134B6B0A3B934B2102A37B5B2B7 PUSH1 0x91 SHL PUSH1 0x20 DUP4 ADD MSTORE JUMP JUMPDEST SWAP1 PUSH3 0x15D PUSH3 0x126 JUMP JUMPDEST SWAP2 PUSH3 0x168 PUSH3 0x126 JUMP JUMPDEST SWAP3 PUSH3 0x173 PUSH3 0xFC JUMP JUMPDEST SWAP1 PUSH1 0x20 SWAP1 PUSH4 0x42494D41 PUSH1 0xE0 SHL DUP3 DUP5 ADD MSTORE PUSH3 0x18D PUSH3 0x111 JUMP JUMPDEST SWAP2 DUP1 DUP4 ADD SWAP4 PUSH1 0x31 PUSH1 0xF8 SHL DUP6 MSTORE DUP8 MLOAD PUSH1 0x1 DUP1 PUSH1 0x40 SHL SUB DUP2 GT PUSH3 0xC9 JUMPI PUSH3 0x1C1 DUP2 PUSH3 0x1BB PUSH1 0x3 SLOAD PUSH3 0x2F3 JUMP JUMPDEST PUSH3 0x330 JUMP JUMPDEST DUP3 PUSH1 0x1F DUP3 GT PUSH1 0x1 EQ PUSH3 0x260 JUMPI SWAP1 DUP1 PUSH3 0x200 SWAP4 SWAP3 PUSH3 0xFA SWAP11 SWAP12 PUSH1 0x0 SWAP3 PUSH3 0x254 JUMPI JUMPDEST POP POP DUP2 PUSH1 0x1 SHL SWAP2 PUSH1 0x0 NOT SWAP1 PUSH1 0x3 SHL SHR NOT AND OR PUSH1 0x3 SSTORE PUSH3 0x494 JUMP JUMPDEST PUSH3 0x20B DUP3 PUSH3 0x5D0 JUMP JUMPDEST PUSH2 0x120 MSTORE PUSH3 0x21A DUP4 PUSH3 0x6E3 JUMP JUMPDEST PUSH2 0x140 MSTORE DUP2 MLOAD SWAP2 ADD KECCAK256 PUSH1 0xE0 MSTORE MLOAD SWAP1 KECCAK256 PUSH2 0x100 MSTORE CHAINID PUSH1 0xA0 MSTORE PUSH3 0x23B PUSH3 0x894 JUMP JUMPDEST PUSH1 0x80 MSTORE ADDRESS PUSH1 0xC0 MSTORE PUSH3 0x24D CALLER PUSH3 0x587 JUMP JUMPDEST CALLER PUSH3 0x966 JUMP JUMPDEST ADD MLOAD SWAP1 POP CODESIZE DUP1 PUSH3 0x1E5 JUMP JUMPDEST PUSH1 0x3 PUSH1 0x0 MSTORE PUSH1 0x1F NOT DUP3 AND SWAP10 PUSH32 0xC2575A0E9E593C00F959F8C92F12DB2869C3395A3B0502D05E2516446F71F85B SWAP11 PUSH1 0x0 JUMPDEST DUP2 DUP2 LT PUSH3 0x2DB JUMPI POP SWAP11 PUSH1 0x1 SWAP3 DUP5 SWAP3 PUSH3 0x200 SWAP7 SWAP6 PUSH3 0xFA SWAP14 SWAP15 LT PUSH3 0x2C1 JUMPI JUMPDEST POP POP POP DUP2 SHL ADD PUSH1 0x3 SSTORE PUSH3 0x494 JUMP JUMPDEST ADD MLOAD PUSH1 0x0 NOT PUSH1 0xF8 DUP5 PUSH1 0x3 SHL AND SHR NOT AND SWAP1 SSTORE CODESIZE DUP1 DUP1 PUSH3 0x2B2 JUMP JUMPDEST DUP4 DUP4 ADD MLOAD DUP14 SSTORE PUSH1 0x1 SWAP1 SWAP13 ADD SWAP12 SWAP3 DUP7 ADD SWAP3 DUP7 ADD PUSH3 0x290 JUMP JUMPDEST SWAP1 PUSH1 0x1 DUP3 DUP2 SHR SWAP3 AND DUP1 ISZERO PUSH3 0x325 JUMPI JUMPDEST PUSH1 0x20 DUP4 LT EQ PUSH3 0x30F JUMPI JUMP JUMPDEST PUSH4 0x4E487B71 PUSH1 0xE0 SHL PUSH1 0x0 MSTORE PUSH1 0x22 PUSH1 0x4 MSTORE PUSH1 0x24 PUSH1 0x0 REVERT JUMPDEST SWAP2 PUSH1 0x7F AND SWAP2 PUSH3 0x303 JUMP JUMPDEST PUSH1 0x1F DUP2 GT PUSH3 0x33D JUMPI POP POP JUMP JUMPDEST PUSH1 0x0 SWAP1 PUSH1 0x3 DUP3 MSTORE PUSH1 0x20 DUP3 KECCAK256 SWAP1 PUSH1 0x20 PUSH1 0x1F DUP6 ADD PUSH1 0x5 SHR DUP4 ADD SWAP5 LT PUSH3 0x37E JUMPI JUMPDEST PUSH1 0x1F ADD PUSH1 0x5 SHR ADD SWAP2 JUMPDEST DUP3 DUP2 LT PUSH3 0x372 JUMPI POP POP POP JUMP JUMPDEST DUP2 DUP2 SSTORE PUSH1 0x1 ADD PUSH3 0x365 JUMP JUMPDEST SWAP1 SWAP3 POP DUP3 SWAP1 PUSH3 0x35C JUMP JUMPDEST PUSH1 0x1F DUP2 GT PUSH3 0x396 JUMPI POP POP JUMP JUMPDEST PUSH1 0x0 SWAP1 PUSH1 0x4 DUP3 MSTORE PUSH1 0x20 DUP3 KECCAK256 SWAP1 PUSH1 0x20 PUSH1 0x1F DUP6 ADD PUSH1 0x5 SHR DUP4 ADD SWAP5 LT PUSH3 0x3D7 JUMPI JUMPDEST PUSH1 0x1F ADD PUSH1 0x5 SHR ADD SWAP2 JUMPDEST DUP3 DUP2 LT PUSH3 0x3CB JUMPI POP POP POP JUMP JUMPDEST DUP2 DUP2 SSTORE PUSH1 0x1 ADD PUSH3 0x3BE JUMP JUMPDEST SWAP1 SWAP3 POP DUP3 SWAP1 PUSH3 0x3B5 JUMP JUMPDEST PUSH1 0x1F DUP2 GT PUSH3 0x3EF JUMPI POP POP JUMP JUMPDEST PUSH1 0x0 SWAP1 PUSH1 0x5 DUP3 MSTORE PUSH1 0x20 DUP3 KECCAK256 SWAP1 PUSH1 0x20 PUSH1 0x1F DUP6 ADD PUSH1 0x5 SHR DUP4 ADD SWAP5 LT PUSH3 0x430 JUMPI JUMPDEST PUSH1 0x1F ADD PUSH1 0x5 SHR ADD SWAP2 JUMPDEST DUP3 DUP2 LT PUSH3 0x424 JUMPI POP POP POP JUMP JUMPDEST DUP2 DUP2 SSTORE PUSH1 0x1 ADD PUSH3 0x417 JUMP JUMPDEST SWAP1 SWAP3 POP DUP3 SWAP1 PUSH3 0x40E JUMP JUMPDEST PUSH1 0x1F DUP2 GT PUSH3 0x448 JUMPI POP POP JUMP JUMPDEST PUSH1 0x0 SWAP1 PUSH1 0x6 DUP3 MSTORE PUSH1 0x20 DUP3 KECCAK256 SWAP1 PUSH1 0x20 PUSH1 0x1F DUP6 ADD PUSH1 0x5 SHR DUP4 ADD SWAP5 LT PUSH3 0x489 JUMPI JUMPDEST PUSH1 0x1F ADD PUSH1 0x5 SHR ADD SWAP2 JUMPDEST DUP3 DUP2 LT PUSH3 0x47D JUMPI POP POP POP JUMP JUMPDEST DUP2 DUP2 SSTORE PUSH1 0x1 ADD PUSH3 0x470 JUMP JUMPDEST SWAP1 SWAP3 POP DUP3 SWAP1 PUSH3 0x467 JUMP JUMPDEST DUP1 MLOAD SWAP1 SWAP2 SWAP1 PUSH1 0x1 PUSH1 0x1 PUSH1 0x40 SHL SUB DUP2 GT PUSH3 0xC9 JUMPI PUSH3 0x4C0 DUP2 PUSH3 0x4BA PUSH1 0x4 SLOAD PUSH3 0x2F3 JUMP JUMPDEST PUSH3 0x389 JUMP JUMPDEST PUSH1 0x20 DUP1 PUSH1 0x1F DUP4 GT PUSH1 0x1 EQ PUSH3 0x4FF JUMPI POP DUP2 SWAP3 SWAP4 PUSH1 0x0 SWAP3 PUSH3 0x4F3 JUMPI JUMPDEST POP POP DUP2 PUSH1 0x1 SHL SWAP2 PUSH1 0x0 NOT SWAP1 PUSH1 0x3 SHL SHR NOT AND OR PUSH1 0x4 SSTORE JUMP JUMPDEST ADD MLOAD SWAP1 POP CODESIZE DUP1 PUSH3 0x4DC JUMP JUMPDEST PUSH1 0x4 PUSH1 0x0 MSTORE PUSH1 0x1F NOT DUP4 AND SWAP5 SWAP1 SWAP2 SWAP1 PUSH32 0x8A35ACFBC15FF81A39AE7D344FD709F28E8600B4AA8C65C6B64BFE7FE36BD19B SWAP3 PUSH1 0x0 SWAP1 JUMPDEST DUP8 DUP3 LT PUSH3 0x56E JUMPI POP POP DUP4 PUSH1 0x1 SWAP6 SWAP7 LT PUSH3 0x554 JUMPI JUMPDEST POP POP POP DUP2 SHL ADD PUSH1 0x4 SSTORE JUMP JUMPDEST ADD MLOAD PUSH1 0x0 NOT PUSH1 0xF8 DUP5 PUSH1 0x3 SHL AND SHR NOT AND SWAP1 SSTORE CODESIZE DUP1 DUP1 PUSH3 0x549 JUMP JUMPDEST DUP1 PUSH1 0x1 DUP6 SWAP7 DUP3 SWAP5 SWAP7 DUP7 ADD MLOAD DUP2 SSTORE ADD SWAP6 ADD SWAP4 ADD SWAP1 PUSH3 0x533 JUMP JUMPDEST PUSH1 0xC DUP1 SLOAD PUSH1 0x1 PUSH1 0x1 PUSH1 0xA0 SHL SUB SWAP3 DUP4 AND PUSH1 0x1 PUSH1 0x1 PUSH1 0xA0 SHL SUB NOT DUP3 AND DUP2 OR SWAP1 SWAP3 SSTORE SWAP1 SWAP2 AND PUSH32 0x8BE0079C531659141344CD1FD0A4F28419497F9722A3DAAFE3B4186F6B6457E0 PUSH1 0x0 DUP1 LOG3 JUMP JUMPDEST SWAP1 DUP2 MLOAD PUSH1 0x20 DUP1 DUP3 LT PUSH1 0x0 EQ PUSH3 0x5F1 JUMPI POP POP SWAP1 PUSH3 0x5EE SWAP1 PUSH3 0x817 JUMP JUMPDEST SWAP1 JUMP JUMPDEST PUSH1 0x1 PUSH1 0x1 PUSH1 0x40 SHL SUB DUP3 GT PUSH3 0xC9 JUMPI PUSH3 0x618 DUP3 PUSH3 0x612 PUSH1 0x5 SLOAD PUSH3 0x2F3 JUMP JUMPDEST PUSH3 0x3E2 JUMP JUMPDEST DUP1 PUSH1 0x1F DUP4 GT PUSH1 0x1 EQ PUSH3 0x658 JUMPI POP DUP2 SWAP3 SWAP4 PUSH1 0x0 SWAP3 PUSH3 0x64C JUMPI JUMPDEST POP POP DUP2 PUSH1 0x1 SHL SWAP2 PUSH1 0x0 NOT SWAP1 PUSH1 0x3 SHL SHR NOT AND OR PUSH1 0x5 SSTORE PUSH1 0xFF SWAP1 JUMP JUMPDEST ADD MLOAD SWAP1 POP CODESIZE DUP1 PUSH3 0x632 JUMP JUMPDEST PUSH1 0x5 PUSH1 0x0 MSTORE PUSH1 0x1F NOT DUP4 AND SWAP5 SWAP1 SWAP2 SWAP1 PUSH32 0x36B6384B5ECA791C62761152D0C79BB0604C104A5FB6F4EB0703F3154BB3DB0 SWAP3 PUSH1 0x0 SWAP1 JUMPDEST DUP8 DUP3 LT PUSH3 0x6CA JUMPI POP POP DUP4 PUSH1 0x1 SWAP6 SWAP7 LT PUSH3 0x6B0 JUMPI JUMPDEST POP POP POP DUP2 SHL ADD PUSH1 0x5 SSTORE PUSH1 0xFF SWAP1 JUMP JUMPDEST ADD MLOAD PUSH1 0x0 NOT PUSH1 0xF8 DUP5 PUSH1 0x3 SHL AND SHR NOT AND SWAP1 SSTORE CODESIZE DUP1 DUP1 PUSH3 0x6A2 JUMP JUMPDEST DUP1 PUSH1 0x1 DUP6 SWAP7 DUP3 SWAP5 SWAP7 DUP7 ADD MLOAD DUP2 SSTORE ADD SWAP6 ADD SWAP4 ADD SWAP1 PUSH3 0x68C JUMP JUMPDEST SWAP1 DUP2 MLOAD PUSH1 0x20 DUP1 DUP3 LT PUSH1 0x0 EQ PUSH3 0x701 JUMPI POP POP SWAP1 PUSH3 0x5EE SWAP1 PUSH3 0x817 JUMP JUMPDEST PUSH1 0x1 PUSH1 0x1 PUSH1 0x40 SHL SUB DUP3 GT PUSH3 0xC9 JUMPI PUSH3 0x728 DUP3 PUSH3 0x722 PUSH1 0x6 SLOAD PUSH3 0x2F3 JUMP JUMPDEST PUSH3 0x43B JUMP JUMPDEST DUP1 PUSH1 0x1F DUP4 GT PUSH1 0x1 EQ PUSH3 0x768 JUMPI POP DUP2 SWAP3 SWAP4 PUSH1 0x0 SWAP3 PUSH3 0x75C JUMPI JUMPDEST POP POP DUP2 PUSH1 0x1 SHL SWAP2 PUSH1 0x0 NOT SWAP1 PUSH1 0x3 SHL SHR NOT AND OR PUSH1 0x6 SSTORE PUSH1 0xFF SWAP1 JUMP JUMPDEST ADD MLOAD SWAP1 POP CODESIZE DUP1 PUSH3 0x742 JUMP JUMPDEST PUSH1 0x6 PUSH1 0x0 MSTORE PUSH1 0x1F NOT DUP4 AND SWAP5 SWAP1 SWAP2 SWAP1 PUSH32 0xF652222313E28459528D920B65115C16C04F3EFC82AAEDC97BE59F3F377C0D3F SWAP3 PUSH1 0x0 SWAP1 JUMPDEST DUP8 DUP3 LT PUSH3 0x7DA JUMPI POP POP DUP4 PUSH1 0x1 SWAP6 SWAP7 LT PUSH3 0x7C0 JUMPI JUMPDEST POP POP POP DUP2 SHL ADD PUSH1 0x6 SSTORE PUSH1 0xFF SWAP1 JUMP JUMPDEST ADD MLOAD PUSH1 0x0 NOT PUSH1 0xF8 DUP5 PUSH1 0x3 SHL AND SHR NOT AND SWAP1 SSTORE CODESIZE DUP1 DUP1 PUSH3 0x7B2 JUMP JUMPDEST DUP1 PUSH1 0x1 DUP6 SWAP7 DUP3 SWAP5 SWAP7 DUP7 ADD MLOAD DUP2 SSTORE ADD SWAP6 ADD SWAP4 ADD SWAP1 PUSH3 0x79C JUMP JUMPDEST PUSH1 0x20 DUP2 MLOAD SWAP2 ADD MLOAD SWAP1 PUSH1 0x20 DUP2 LT PUSH3 0x808 JUMPI POP SWAP1 JUMP JUMPDEST PUSH1 0x0 NOT SWAP1 PUSH1 0x20 SUB PUSH1 0x3 SHL SHL AND SWAP1 JUMP JUMPDEST PUSH1 0x1F DUP2 MLOAD GT PUSH3 0x832 JUMPI PUSH3 0x82C DUP2 PUSH3 0x7F3 JUMP JUMPDEST SWAP1 MLOAD OR SWAP1 JUMP JUMPDEST PUSH1 0x40 MLOAD SWAP1 PUSH4 0x305A27A9 PUSH1 0xE0 SHL DUP3 MSTORE DUP2 PUSH1 0x20 DUP1 PUSH1 0x4 DUP4 ADD MSTORE DUP3 MLOAD SWAP1 DUP2 PUSH1 0x24 DUP5 ADD MSTORE PUSH1 0x0 SWAP4 JUMPDEST DUP3 DUP6 LT PUSH3 0x87A JUMPI POP POP PUSH1 0x44 SWAP3 POP PUSH1 0x0 DUP4 DUP3 DUP5 ADD ADD MSTORE PUSH1 0x1F DUP1 NOT SWAP2 ADD AND DUP2 ADD SUB ADD SWAP1 REVERT JUMPDEST DUP5 DUP2 ADD DUP3 ADD MLOAD DUP7 DUP7 ADD PUSH1 0x44 ADD MSTORE SWAP4 DUP2 ADD SWAP4 DUP6 SWAP4 POP PUSH3 0x856 JUMP JUMPDEST PUSH1 0xE0 MLOAD PUSH2 0x100 MLOAD PUSH1 0x40 MLOAD SWAP1 PUSH1 0x20 DUP3 ADD SWAP3 PUSH32 0x8B73C3C69BB8FE3D512ECC4CF759CC79239F7B179B0FFACAA9A75D522B39400F DUP5 MSTORE PUSH1 0x40 DUP4 ADD MSTORE PUSH1 0x60 DUP3 ADD MSTORE CHAINID PUSH1 0x80 DUP3 ADD MSTORE ADDRESS PUSH1 0xA0 DUP3 ADD MSTORE PUSH1 0xA0 DUP2 MSTORE PUSH1 0xC0 DUP2 ADD DUP2 DUP2 LT PUSH1 0x1 DUP1 PUSH1 0x40 SHL SUB DUP3 GT OR PUSH3 0xC9 JUMPI PUSH1 0x40 MSTORE MLOAD SWAP1 KECCAK256 SWAP1 JUMP JUMPDEST ISZERO PUSH3 0x908 JUMPI JUMP JUMPDEST PUSH1 0x40 MLOAD PUSH3 0x461BCD PUSH1 0xE5 SHL DUP2 MSTORE PUSH1 0x20 PUSH1 0x4 DUP3 ADD MSTORE PUSH1 0x30 PUSH1 0x24 DUP3 ADD MSTORE PUSH32 0x4552433230566F7465733A20746F74616C20737570706C79207269736B73206F PUSH1 0x44 DUP3 ADD MSTORE PUSH16 0x766572666C6F77696E6720766F746573 PUSH1 0x80 SHL PUSH1 0x64 DUP3 ADD MSTORE PUSH1 0x84 SWAP1 REVERT JUMPDEST SWAP1 PUSH1 0x1 PUSH1 0x1 PUSH1 0xA0 SHL SUB DUP3 AND DUP1 ISZERO PUSH3 0xA10 JUMPI PUSH1 0x2 SLOAD DUP3 DUP2 ADD DUP1 SWAP2 GT PUSH3 0xA0A JUMPI PUSH3 0xA06 SWAP4 PUSH3 0x9E8 SWAP3 PUSH3 0x99B DUP6 SWAP4 PUSH1 0x2 SSTORE JUMP JUMPDEST PUSH1 0x1 PUSH1 0x1 PUSH1 0xA0 SHL SUB DUP3 AND PUSH1 0x0 SWAP1 DUP2 MSTORE PUSH1 0x20 DUP2 DUP2 MSTORE PUSH1 0x40 DUP1 DUP4 KECCAK256 DUP1 SLOAD DUP8 ADD SWAP1 SSTORE MLOAD DUP6 DUP2 MSTORE PUSH32 0xDDF252AD1BE2C89B69C2B068FC378DAA952BA7F163C4A11628F55A4DF523B3EF SWAP2 SWAP1 LOG3 PUSH3 0xFC4 JUMP JUMPDEST PUSH1 0x2 SLOAD PUSH3 0xA00 SWAP1 PUSH1 0x1 PUSH1 0x1 PUSH1 0xE0 SHL SUB LT ISZERO PUSH3 0x900 JUMP JUMPDEST PUSH3 0xB75 JUMP JUMPDEST POP POP JUMP JUMPDEST PUSH3 0xA55 JUMP JUMPDEST PUSH1 0x40 MLOAD PUSH3 0x461BCD PUSH1 0xE5 SHL DUP2 MSTORE PUSH1 0x20 PUSH1 0x4 DUP3 ADD MSTORE PUSH1 0x1F PUSH1 0x24 DUP3 ADD MSTORE PUSH32 0x45524332303A206D696E7420746F20746865207A65726F206164647265737300 PUSH1 0x44 DUP3 ADD MSTORE PUSH1 0x64 SWAP1 REVERT JUMPDEST PUSH4 0x4E487B71 PUSH1 0xE0 SHL PUSH1 0x0 MSTORE PUSH1 0x11 PUSH1 0x4 MSTORE PUSH1 0x24 PUSH1 0x0 REVERT JUMPDEST PUSH1 0x40 DUP1 MLOAD SWAP2 SWAP3 SWAP2 SWAP1 DUP2 ADD PUSH1 0x1 PUSH1 0x1 PUSH1 0x40 SHL SUB DUP2 GT DUP3 DUP3 LT OR PUSH3 0xC9 JUMPI PUSH1 0x40 MSTORE PUSH1 0x20 DUP2 SWAP4 SLOAD PUSH4 0xFFFFFFFF DUP2 AND DUP4 MSTORE DUP2 SHR SWAP2 ADD MSTORE JUMP JUMPDEST PUSH1 0xB SLOAD SWAP1 PUSH9 0x10000000000000000 DUP3 LT ISZERO PUSH3 0xC9 JUMPI PUSH1 0x1 DUP3 ADD DUP1 PUSH1 0xB SSTORE DUP3 LT ISZERO PUSH3 0xB0E JUMPI PUSH1 0xB PUSH1 0x0 MSTORE DUP1 MLOAD PUSH1 0x20 SWAP2 DUP3 ADD MLOAD SWAP1 SWAP2 SHL PUSH4 0xFFFFFFFF NOT AND PUSH4 0xFFFFFFFF SWAP2 SWAP1 SWAP2 AND OR PUSH32 0x175B7A638427703F0DBE7BB9BBF987A2551717B34E79F33B5B1008D1FA01DB9 SWAP1 SWAP2 ADD SSTORE JUMP JUMPDEST PUSH4 0x4E487B71 PUSH1 0xE0 SHL PUSH1 0x0 MSTORE PUSH1 0x32 PUSH1 0x4 MSTORE PUSH1 0x24 PUSH1 0x0 REVERT JUMPDEST SWAP1 DUP2 SLOAD PUSH9 0x10000000000000000 DUP2 LT ISZERO PUSH3 0xC9 JUMPI PUSH1 0x1 DUP2 ADD DUP1 DUP5 SSTORE DUP2 LT ISZERO PUSH3 0xB0E JUMPI PUSH1 0x0 SWAP3 DUP4 MSTORE PUSH1 0x20 SWAP3 DUP4 SWAP1 KECCAK256 DUP3 MLOAD SWAP3 DUP5 ADD MLOAD SWAP1 SWAP4 SHL PUSH4 0xFFFFFFFF NOT AND PUSH4 0xFFFFFFFF SWAP3 SWAP1 SWAP3 AND SWAP2 SWAP1 SWAP2 OR SWAP2 ADD SSTORE JUMP JUMPDEST PUSH1 0xB SLOAD SWAP1 SWAP2 DUP2 ISZERO SWAP2 DUP3 ISZERO PUSH3 0xCBD JUMPI PUSH3 0xB8E PUSH3 0xEB JUMP JUMPDEST PUSH1 0x0 DUP2 MSTORE PUSH1 0x0 PUSH1 0x20 DUP3 ADD MSTORE JUMPDEST PUSH1 0x20 DUP2 ADD MLOAD PUSH3 0xBC7 SWAP1 PUSH3 0xBBF SWAP1 PUSH1 0x1 PUSH1 0x1 PUSH1 0xE0 SHL SUB AND JUMPDEST PUSH1 0x1 PUSH1 0x1 PUSH1 0xE0 SHL SUB AND SWAP1 JUMP JUMPDEST SWAP6 DUP7 PUSH3 0x10D2 JUMP JUMPDEST SWAP4 ISZERO SWAP1 DUP2 PUSH3 0xC96 JUMPI JUMPDEST POP ISZERO PUSH3 0xC2E JUMPI PUSH3 0xFA SWAP1 PUSH3 0xC17 PUSH3 0xBEC DUP6 PUSH3 0xE8C JUMP JUMPDEST PUSH1 0xB PUSH1 0x0 MSTORE SWAP2 PUSH32 0x175B7A638427703F0DBE7BB9BBF987A2551717B34E79F33B5B1008D1FA01DB8 ADD SWAP1 JUMP JUMPDEST SWAP1 PUSH4 0xFFFFFFFF DUP3 SLOAD SWAP2 DUP2 NOT SWAP1 PUSH1 0x20 SHL AND SWAP2 AND OR SWAP1 SSTORE JUMP JUMPDEST POP PUSH3 0xFA PUSH3 0xC57 PUSH3 0xC51 PUSH3 0xC46 NUMBER PUSH3 0xEF6 JUMP JUMPDEST PUSH6 0xFFFFFFFFFFFF AND SWAP1 JUMP JUMPDEST PUSH3 0xF5E JUMP JUMPDEST PUSH3 0xC90 PUSH3 0xC66 DUP6 PUSH3 0xE8C JUMP JUMPDEST PUSH3 0xC80 PUSH3 0xC74 PUSH3 0xEB JUMP JUMPDEST PUSH4 0xFFFFFFFF SWAP1 SWAP5 AND DUP5 MSTORE JUMP JUMPDEST PUSH1 0x1 PUSH1 0x1 PUSH1 0xE0 SHL SUB AND PUSH1 0x20 DUP4 ADD MSTORE JUMP JUMPDEST PUSH3 0xAA0 JUMP JUMPDEST MLOAD PUSH4 0xFFFFFFFF AND SWAP1 POP PUSH4 0xFFFFFFFF PUSH3 0xCB3 PUSH3 0xC46 NUMBER PUSH3 0xEF6 JUMP JUMPDEST SWAP2 AND EQ CODESIZE PUSH3 0xBD1 JUMP JUMPDEST PUSH1 0xB PUSH1 0x0 MSTORE PUSH3 0xCF5 PUSH32 0x175B7A638427703F0DBE7BB9BBF987A2551717B34E79F33B5B1008D1FA01DB8 DUP3 ADD PUSH3 0xA6B JUMP JUMPDEST PUSH3 0xA6B JUMP JUMPDEST PUSH3 0xB9A JUMP JUMPDEST SWAP1 SWAP2 DUP2 SLOAD SWAP2 DUP3 ISZERO SWAP3 DUP4 PUSH1 0x0 EQ PUSH3 0xDFF JUMPI PUSH3 0xD16 PUSH3 0xEB JUMP JUMPDEST PUSH1 0x0 DUP2 MSTORE PUSH1 0x0 PUSH1 0x20 DUP3 ADD MSTORE JUMPDEST PUSH1 0x20 DUP2 ADD MLOAD PUSH3 0xD48 SWAP1 PUSH3 0xD40 SWAP1 PUSH1 0x1 PUSH1 0x1 PUSH1 0xE0 SHL SUB AND PUSH3 0xBB3 JUMP JUMPDEST SWAP7 DUP8 PUSH3 0x10E0 JUMP JUMPDEST SWAP5 ISZERO SWAP1 DUP2 PUSH3 0xDD8 JUMPI JUMPDEST POP ISZERO PUSH3 0xD7F JUMPI PUSH3 0xC17 PUSH3 0xFA SWAP3 PUSH3 0xD6D DUP7 PUSH3 0xE8C JUMP JUMPDEST SWAP3 PUSH1 0x0 NOT ADD SWAP1 PUSH1 0x0 MSTORE PUSH1 0x20 PUSH1 0x0 KECCAK256 ADD SWAP1 JUMP JUMPDEST POP PUSH3 0xFA SWAP1 PUSH3 0xD98 PUSH3 0xC51 PUSH3 0xC46 NUMBER PUSH3 0xEF6 JUMP JUMPDEST SWAP1 PUSH3 0xDD2 PUSH3 0xDA8 DUP7 PUSH3 0xE8C JUMP JUMPDEST PUSH3 0xDC2 PUSH3 0xDB6 PUSH3 0xEB JUMP JUMPDEST PUSH4 0xFFFFFFFF SWAP1 SWAP6 AND DUP6 MSTORE JUMP JUMPDEST PUSH1 0x1 PUSH1 0x1 PUSH1 0xE0 SHL SUB AND PUSH1 0x20 DUP5 ADD MSTORE JUMP JUMPDEST PUSH3 0xB24 JUMP JUMPDEST MLOAD PUSH4 0xFFFFFFFF AND SWAP1 POP PUSH4 0xFFFFFFFF PUSH3 0xDF5 PUSH3 0xC46 NUMBER PUSH3 0xEF6 JUMP JUMPDEST SWAP2 AND EQ CODESIZE PUSH3 0xD52 JUMP JUMPDEST PUSH3 0xE19 PUSH3 0xCEF PUSH1 0x0 NOT DUP4 ADD DUP5 PUSH1 0x0 MSTORE PUSH1 0x20 PUSH1 0x0 KECCAK256 ADD SWAP1 JUMP JUMPDEST PUSH3 0xD22 JUMP JUMPDEST SWAP1 SWAP2 DUP2 SLOAD SWAP2 DUP3 ISZERO SWAP3 DUP4 PUSH1 0x0 EQ PUSH3 0xE6C JUMPI PUSH3 0xE3A PUSH3 0xEB JUMP JUMPDEST PUSH1 0x0 DUP2 MSTORE PUSH1 0x0 PUSH1 0x20 DUP3 ADD MSTORE JUMPDEST PUSH1 0x20 DUP2 ADD MLOAD PUSH3 0xD48 SWAP1 PUSH3 0xE64 SWAP1 PUSH1 0x1 PUSH1 0x1 PUSH1 0xE0 SHL SUB AND PUSH3 0xBB3 JUMP JUMPDEST SWAP7 DUP8 PUSH3 0x10D2 JUMP JUMPDEST PUSH3 0xE86 PUSH3 0xCEF PUSH1 0x0 NOT DUP4 ADD DUP5 PUSH1 0x0 MSTORE PUSH1 0x20 PUSH1 0x0 KECCAK256 ADD SWAP1 JUMP JUMPDEST PUSH3 0xE46 JUMP JUMPDEST PUSH1 0x1 PUSH1 0x1 PUSH1 0xE0 SHL SUB SWAP1 DUP2 DUP2 GT PUSH3 0xEA1 JUMPI AND SWAP1 JUMP JUMPDEST PUSH1 0x40 MLOAD PUSH3 0x461BCD PUSH1 0xE5 SHL DUP2 MSTORE PUSH1 0x20 PUSH1 0x4 DUP3 ADD MSTORE PUSH1 0x27 PUSH1 0x24 DUP3 ADD MSTORE PUSH32 0x53616665436173743A2076616C756520646F65736E27742066697420696E2032 PUSH1 0x44 DUP3 ADD MSTORE PUSH7 0x32342062697473 PUSH1 0xC8 SHL PUSH1 0x64 DUP3 ADD MSTORE PUSH1 0x84 SWAP1 REVERT JUMPDEST PUSH6 0xFFFFFFFFFFFF SWAP1 DUP2 DUP2 GT PUSH3 0xF0A JUMPI AND SWAP1 JUMP JUMPDEST PUSH1 0x40 MLOAD PUSH3 0x461BCD PUSH1 0xE5 SHL DUP2 MSTORE PUSH1 0x20 PUSH1 0x4 DUP3 ADD MSTORE PUSH1 0x26 PUSH1 0x24 DUP3 ADD MSTORE PUSH32 0x53616665436173743A2076616C756520646F65736E27742066697420696E2034 PUSH1 0x44 DUP3 ADD MSTORE PUSH6 0x382062697473 PUSH1 0xD0 SHL PUSH1 0x64 DUP3 ADD MSTORE PUSH1 0x84 SWAP1 REVERT JUMPDEST PUSH4 0xFFFFFFFF SWAP1 DUP2 DUP2 GT PUSH3 0xF70 JUMPI AND SWAP1 JUMP JUMPDEST PUSH1 0x40 MLOAD PUSH3 0x461BCD PUSH1 0xE5 SHL DUP2 MSTORE PUSH1 0x20 PUSH1 0x4 DUP3 ADD MSTORE PUSH1 0x26 PUSH1 0x24 DUP3 ADD MSTORE PUSH32 0x53616665436173743A2076616C756520646F65736E27742066697420696E2033 PUSH1 0x44 DUP3 ADD MSTORE PUSH6 0x322062697473 PUSH1 0xD0 SHL PUSH1 0x64 DUP3 ADD MSTORE PUSH1 0x84 SWAP1 REVERT JUMPDEST PUSH1 0x9 PUSH1 0x20 MSTORE PUSH32 0xEC8156718A8372B1DB44BB411437D0870F3E3790D4A08526D024CE1B0B668F6B SLOAD PUSH1 0x1 PUSH1 0x1 PUSH1 0xA0 SHL SUB SWAP2 DUP3 AND PUSH1 0x0 SWAP1 DUP2 MSTORE PUSH1 0x40 DUP2 KECCAK256 SLOAD DUP4 AND SWAP4 SWAP3 SWAP1 SWAP2 AND SWAP1 DUP2 DUP5 EQ ISZERO DUP1 PUSH3 0x10C8 JUMPI JUMPDEST PUSH3 0x101F JUMPI JUMPDEST POP POP POP POP JUMP JUMPDEST DUP3 SWAP1 DUP3 PUSH3 0x1087 JUMPI JUMPDEST POP POP POP DUP2 PUSH3 0x103A JUMPI JUMPDEST DUP1 DUP1 PUSH3 0x1019 JUMP JUMPDEST PUSH1 0x1 PUSH1 0x1 PUSH1 0xA0 SHL SUB DUP3 AND PUSH1 0x0 SWAP1 DUP2 MSTORE PUSH1 0xA PUSH1 0x20 MSTORE PUSH1 0x40 SWAP1 KECCAK256 PUSH1 0x0 DUP1 MLOAD PUSH1 0x20 PUSH3 0x36C1 DUP4 CODECOPY DUP2 MLOAD SWAP2 MSTORE SWAP2 PUSH3 0x106E SWAP2 PUSH3 0xE1F JUMP JUMPDEST PUSH1 0x40 DUP1 MLOAD SWAP3 DUP4 MSTORE PUSH1 0x20 DUP4 ADD SWAP2 SWAP1 SWAP2 MSTORE SWAP1 LOG2 CODESIZE DUP1 PUSH3 0x1032 JUMP JUMPDEST PUSH1 0x0 DUP1 MLOAD PUSH1 0x20 PUSH3 0x36C1 DUP4 CODECOPY DUP2 MLOAD SWAP2 MSTORE SWAP2 PUSH1 0x40 DUP3 DUP6 PUSH3 0x10AE SWAP5 MSTORE PUSH1 0xA PUSH1 0x20 MSTORE KECCAK256 PUSH3 0xCFB JUMP JUMPDEST PUSH1 0x40 DUP1 MLOAD SWAP3 DUP4 MSTORE PUSH1 0x20 DUP4 ADD SWAP2 SWAP1 SWAP2 MSTORE SWAP1 LOG2 CODESIZE DUP2 DUP2 PUSH3 0x1028 JUMP JUMPDEST POP DUP3 ISZERO ISZERO PUSH3 0x1013 JUMP JUMPDEST SWAP1 DUP2 ADD DUP1 SWAP2 GT PUSH3 0xA0A JUMPI SWAP1 JUMP JUMPDEST SWAP1 DUP2 SUB SWAP1 DUP2 GT PUSH3 0xA0A JUMPI SWAP1 JUMP INVALID PUSH1 0x80 PUSH1 0x40 MSTORE PUSH1 0x4 CALLDATASIZE LT ISZERO PUSH2 0x12 JUMPI PUSH1 0x0 DUP1 REVERT JUMPDEST PUSH1 0x0 CALLDATALOAD PUSH1 0xE0 SHR DUP1 PUSH4 0x6FDDE03 EQ PUSH2 0x1E7 JUMPI DUP1 PUSH4 0x95EA7B3 EQ PUSH2 0x1E2 JUMPI DUP1 PUSH4 0x18160DDD EQ PUSH2 0x1DD JUMPI DUP1 PUSH4 0x23B872DD EQ PUSH2 0x1D8 JUMPI DUP1 PUSH4 0x313CE567 EQ PUSH2 0x1D3 JUMPI DUP1 PUSH4 0x3644E515 EQ PUSH2 0x1CE JUMPI DUP1 PUSH4 0x39509351 EQ PUSH2 0x1C9 JUMPI DUP1 PUSH4 0x3A46B1A8 EQ PUSH2 0x1C4 JUMPI DUP1 PUSH4 0x40C10F19 EQ PUSH2 0x1BF JUMPI DUP1 PUSH4 0x4BF5D7E9 EQ PUSH2 0x1BA JUMPI DUP1 PUSH4 0x587CDE1E EQ PUSH2 0x1B5 JUMPI DUP1 PUSH4 0x5C19A95C EQ PUSH2 0x1B0 JUMPI DUP1 PUSH4 0x6FCFFF45 EQ PUSH2 0x1AB JUMPI DUP1 PUSH4 0x70A08231 EQ PUSH2 0x1A6 JUMPI DUP1 PUSH4 0x715018A6 EQ PUSH2 0x1A1 JUMPI DUP1 PUSH4 0x7ECEBE00 EQ PUSH2 0x19C JUMPI DUP1 PUSH4 0x84B0196E EQ PUSH2 0x197 JUMPI DUP1 PUSH4 0x8DA5CB5B EQ PUSH2 0x192 JUMPI DUP1 PUSH4 0x8E539E8C EQ PUSH2 0x18D JUMPI DUP1 PUSH4 0x91DDADF4 EQ PUSH2 0x188 JUMPI DUP1 PUSH4 0x95D89B41 EQ PUSH2 0x183 JUMPI DUP1 PUSH4 0x9AB24EB0 EQ PUSH2 0x17E JUMPI DUP1 PUSH4 0xA457C2D7 EQ PUSH2 0x179 JUMPI DUP1 PUSH4 0xA9059CBB EQ PUSH2 0x174 JUMPI DUP1 PUSH4 0xC3CDA520 EQ PUSH2 0x16F JUMPI DUP1 PUSH4 0xD505ACCF EQ PUSH2 0x16A JUMPI DUP1 PUSH4 0xDD62ED3E EQ PUSH2 0x165 JUMPI DUP1 PUSH4 0xF1127ED8 EQ PUSH2 0x160 JUMPI PUSH4 0xF2FDE38B EQ PUSH2 0x15B JUMPI PUSH1 0x0 DUP1 REVERT JUMPDEST PUSH2 0x1174 JUMP JUMPDEST PUSH2 0x10ED JUMP JUMPDEST PUSH2 0x1095 JUMP JUMPDEST PUSH2 0xF4F JUMP JUMPDEST PUSH2 0xE24 JUMP JUMPDEST PUSH2 0xDDE JUMP JUMPDEST PUSH2 0xD30 JUMP JUMPDEST PUSH2 0xCCE JUMP JUMPDEST PUSH2 0xC27 JUMP JUMPDEST PUSH2 0xBFB JUMP JUMPDEST PUSH2 0xAA2 JUMP JUMPDEST PUSH2 0xA79 JUMP JUMPDEST PUSH2 0x981 JUMP JUMPDEST PUSH2 0x947 JUMP JUMPDEST PUSH2 0x8E9 JUMP JUMPDEST PUSH2 0x8AF JUMP JUMPDEST PUSH2 0x867 JUMP JUMPDEST PUSH2 0x845 JUMP JUMPDEST PUSH2 0x80A JUMP JUMPDEST PUSH2 0x758 JUMP JUMPDEST PUSH2 0x658 JUMP JUMPDEST PUSH2 0x507 JUMP JUMPDEST PUSH2 0x4AF JUMP JUMPDEST PUSH2 0x48C JUMP JUMPDEST PUSH2 0x470 JUMP JUMPDEST PUSH2 0x3A5 JUMP JUMPDEST PUSH2 0x387 JUMP JUMPDEST PUSH2 0x356 JUMP JUMPDEST PUSH2 0x240 JUMP JUMPDEST SWAP2 SWAP1 DUP3 MLOAD SWAP3 DUP4 DUP3 MSTORE PUSH1 0x0 JUMPDEST DUP5 DUP2 LT PUSH2 0x218 JUMPI POP POP DUP3 PUSH1 0x0 PUSH1 0x20 DUP1 SWAP5 SWAP6 DUP5 ADD ADD MSTORE PUSH1 0x1F DUP1 NOT SWAP2 ADD AND ADD ADD SWAP1 JUMP JUMPDEST PUSH1 0x20 DUP2 DUP4 ADD DUP2 ADD MLOAD DUP5 DUP4 ADD DUP3 ADD MSTORE ADD PUSH2 0x1F7 JUMP JUMPDEST SWAP1 PUSH1 0x20 PUSH2 0x23D SWAP3 DUP2 DUP2 MSTORE ADD SWAP1 PUSH2 0x1EC JUMP JUMPDEST SWAP1 JUMP JUMPDEST CALLVALUE PUSH2 0x325 JUMPI PUSH1 0x0 DUP1 PUSH1 0x3 NOT CALLDATASIZE ADD SLT PUSH2 0x322 JUMPI PUSH1 0x40 MLOAD SWAP1 DUP1 PUSH1 0x3 SLOAD PUSH2 0x263 DUP2 PUSH2 0x1295 JUMP JUMPDEST DUP1 DUP6 MSTORE SWAP2 PUSH1 0x1 SWAP2 DUP1 DUP4 AND SWAP1 DUP2 ISZERO PUSH2 0x2F8 JUMPI POP PUSH1 0x1 EQ PUSH2 0x29D JUMPI JUMPDEST PUSH2 0x299 DUP6 PUSH2 0x28D DUP2 DUP8 SUB DUP3 PUSH2 0x133E JUMP JUMPDEST PUSH1 0x40 MLOAD SWAP2 DUP3 SWAP2 DUP3 PUSH2 0x22C JUMP JUMPDEST SUB SWAP1 RETURN JUMPDEST SWAP3 POP PUSH1 0x3 DUP4 MSTORE PUSH32 0xC2575A0E9E593C00F959F8C92F12DB2869C3395A3B0502D05E2516446F71F85B JUMPDEST DUP3 DUP5 LT PUSH2 0x2E0 JUMPI POP POP POP DUP2 ADD PUSH1 0x20 ADD PUSH2 0x28D DUP3 PUSH2 0x299 PUSH2 0x27D JUMP JUMPDEST DUP1 SLOAD PUSH1 0x20 DUP6 DUP8 ADD DUP2 ADD SWAP2 SWAP1 SWAP2 MSTORE SWAP1 SWAP4 ADD SWAP3 DUP2 ADD PUSH2 0x2C5 JUMP JUMPDEST DUP7 SWAP6 POP PUSH2 0x299 SWAP7 SWAP4 POP PUSH1 0x20 SWAP3 POP PUSH2 0x28D SWAP5 SWAP2 POP PUSH1 0xFF NOT AND DUP3 DUP5 ADD MSTORE ISZERO ISZERO PUSH1 0x5 SHL DUP3 ADD ADD SWAP3 SWAP4 PUSH2 0x27D JUMP JUMPDEST DUP1 REVERT JUMPDEST PUSH1 0x0 DUP1 REVERT JUMPDEST PUSH1 0x4 CALLDATALOAD SWAP1 PUSH1 0x1 PUSH1 0x1 PUSH1 0xA0 SHL SUB DUP3 AND DUP3 SUB PUSH2 0x325 JUMPI JUMP JUMPDEST PUSH1 0x24 CALLDATALOAD SWAP1 PUSH1 0x1 PUSH1 0x1 PUSH1 0xA0 SHL SUB DUP3 AND DUP3 SUB PUSH2 0x325 JUMPI JUMP JUMPDEST CALLVALUE PUSH2 0x325 JUMPI PUSH1 0x40 CALLDATASIZE PUSH1 0x3 NOT ADD SLT PUSH2 0x325 JUMPI PUSH2 0x37C PUSH2 0x372 PUSH2 0x32A JUMP JUMPDEST PUSH1 0x24 CALLDATALOAD SWAP1 CALLER PUSH2 0x1552 JUMP JUMPDEST PUSH1 0x20 PUSH1 0x40 MLOAD PUSH1 0x1 DUP2 MSTORE RETURN JUMPDEST CALLVALUE PUSH2 0x325 JUMPI PUSH1 0x0 CALLDATASIZE PUSH1 0x3 NOT ADD SLT PUSH2 0x325 JUMPI PUSH1 0x20 PUSH1 0x2 SLOAD PUSH1 0x40 MLOAD SWAP1 DUP2 MSTORE RETURN JUMPDEST CALLVALUE PUSH2 0x325 JUMPI PUSH1 0x60 CALLDATASIZE PUSH1 0x3 NOT ADD SLT PUSH2 0x325 JUMPI PUSH2 0x3BE PUSH2 0x32A JUMP JUMPDEST PUSH2 0x3C6 PUSH2 0x340 JUMP JUMPDEST PUSH1 0x1 PUSH1 0x1 PUSH1 0xA0 SHL SUB DUP3 AND PUSH1 0x0 SWAP1 DUP2 MSTORE PUSH1 0x1 PUSH1 0x20 SWAP1 DUP2 MSTORE PUSH1 0x40 DUP1 DUP4 KECCAK256 CALLER DUP5 MSTORE SWAP1 SWAP2 MSTORE SWAP1 KECCAK256 PUSH1 0x44 CALLDATALOAD SWAP2 SWAP1 SLOAD SWAP3 PUSH1 0x1 DUP5 ADD PUSH2 0x40F JUMPI JUMPDEST PUSH2 0x403 SWAP4 POP PUSH2 0x1444 JUMP JUMPDEST PUSH1 0x40 MLOAD PUSH1 0x1 DUP2 MSTORE PUSH1 0x20 SWAP1 RETURN JUMPDEST DUP3 DUP5 LT PUSH2 0x42B JUMPI PUSH2 0x426 DUP4 PUSH2 0x403 SWAP6 SUB CALLER DUP4 PUSH2 0x1552 JUMP JUMPDEST PUSH2 0x3F9 JUMP JUMPDEST PUSH1 0x40 MLOAD PUSH3 0x461BCD PUSH1 0xE5 SHL DUP2 MSTORE PUSH1 0x20 PUSH1 0x4 DUP3 ADD MSTORE PUSH1 0x1D PUSH1 0x24 DUP3 ADD MSTORE PUSH32 0x45524332303A20696E73756666696369656E7420616C6C6F77616E6365000000 PUSH1 0x44 DUP3 ADD MSTORE PUSH1 0x64 SWAP1 REVERT JUMPDEST CALLVALUE PUSH2 0x325 JUMPI PUSH1 0x0 CALLDATASIZE PUSH1 0x3 NOT ADD SLT PUSH2 0x325 JUMPI PUSH1 0x20 PUSH1 0x40 MLOAD PUSH1 0x12 DUP2 MSTORE RETURN JUMPDEST CALLVALUE PUSH2 0x325 JUMPI PUSH1 0x0 CALLDATASIZE PUSH1 0x3 NOT ADD SLT PUSH2 0x325 JUMPI PUSH1 0x20 PUSH2 0x4A7 PUSH2 0x1EF1 JUMP JUMPDEST PUSH1 0x40 MLOAD SWAP1 DUP2 MSTORE RETURN JUMPDEST CALLVALUE PUSH2 0x325 JUMPI PUSH1 0x40 CALLDATASIZE PUSH1 0x3 NOT ADD SLT PUSH2 0x325 JUMPI PUSH2 0x4C8 PUSH2 0x32A JUMP JUMPDEST CALLER PUSH1 0x0 SWAP1 DUP2 MSTORE PUSH1 0x1 PUSH1 0x20 SWAP1 DUP2 MSTORE PUSH1 0x40 DUP1 DUP4 KECCAK256 PUSH1 0x1 PUSH1 0x1 PUSH1 0xA0 SHL SUB DUP6 AND DUP5 MSTORE SWAP1 SWAP2 MSTORE SWAP1 KECCAK256 SLOAD PUSH1 0x24 CALLDATALOAD DUP2 ADD DUP1 SWAP2 GT PUSH2 0x502 JUMPI PUSH2 0x37C SWAP2 CALLER PUSH2 0x1552 JUMP JUMPDEST PUSH2 0x1360 JUMP JUMPDEST CALLVALUE PUSH2 0x325 JUMPI PUSH1 0x40 CALLDATASIZE PUSH1 0x3 NOT ADD SLT PUSH2 0x325 JUMPI PUSH2 0x520 PUSH2 0x32A JUMP JUMPDEST PUSH1 0x24 CALLDATALOAD SWAP1 PUSH2 0x53F PUSH6 0xFFFFFFFFFFFF PUSH2 0x537 NUMBER PUSH2 0x23D4 JUMP JUMPDEST AND DUP4 LT PUSH2 0x172B JUMP JUMPDEST PUSH1 0x1 PUSH1 0x1 PUSH1 0xA0 SHL SUB AND PUSH1 0x0 SWAP1 DUP2 MSTORE PUSH1 0xA PUSH1 0x20 MSTORE PUSH1 0x40 DUP2 KECCAK256 DUP1 SLOAD SWAP3 SWAP1 SWAP2 DUP4 PUSH1 0x5 DUP2 GT PUSH2 0x607 JUMPI JUMPDEST POP SWAP1 JUMPDEST DUP4 DUP3 LT PUSH2 0x5B6 JUMPI POP POP DUP2 PUSH2 0x58F JUMPI POP POP PUSH1 0x20 PUSH1 0x0 JUMPDEST PUSH1 0x40 MLOAD PUSH1 0x1 PUSH1 0x1 PUSH1 0xE0 SHL SUB SWAP1 SWAP2 AND DUP2 MSTORE RETURN JUMPDEST PUSH2 0x5AA PUSH2 0x5B1 SWAP2 PUSH1 0x20 SWAP4 PUSH1 0x0 NOT ADD SWAP1 PUSH1 0x0 MSTORE PUSH1 0x20 PUSH1 0x0 KECCAK256 ADD SWAP1 JUMP JUMPDEST SLOAD PUSH1 0x20 SHR SWAP1 JUMP JUMPDEST PUSH2 0x57D JUMP JUMPDEST SWAP1 SWAP3 PUSH2 0x5C2 DUP2 DUP6 PUSH2 0x2204 JUMP JUMPDEST SWAP1 DUP3 PUSH4 0xFFFFFFFF PUSH2 0x5E7 PUSH2 0x5DD DUP6 DUP9 PUSH1 0x0 MSTORE PUSH1 0x20 PUSH1 0x0 KECCAK256 ADD SWAP1 JUMP JUMPDEST SLOAD PUSH4 0xFFFFFFFF AND SWAP1 JUMP JUMPDEST AND GT ISZERO PUSH2 0x5F7 JUMPI POP SWAP3 JUMPDEST SWAP1 PUSH2 0x568 JUMP JUMPDEST SWAP4 POP PUSH2 0x602 SWAP1 PUSH2 0x1376 JUMP JUMPDEST PUSH2 0x5F1 JUMP JUMPDEST DUP1 PUSH2 0x617 PUSH2 0x61D SWAP3 SWAP7 SWAP4 SWAP7 PUSH2 0x2219 JUMP JUMPDEST SWAP1 PUSH2 0x1777 JUMP JUMPDEST SWAP1 DUP3 PUSH4 0xFFFFFFFF PUSH2 0x638 PUSH2 0x5DD DUP6 DUP9 PUSH1 0x0 MSTORE PUSH1 0x20 PUSH1 0x0 KECCAK256 ADD SWAP1 JUMP JUMPDEST AND GT ISZERO PUSH2 0x648 JUMPI POP SWAP3 JUMPDEST CODESIZE PUSH2 0x565 JUMP JUMPDEST SWAP4 POP PUSH2 0x653 SWAP1 PUSH2 0x1376 JUMP JUMPDEST PUSH2 0x642 JUMP JUMPDEST CALLVALUE PUSH2 0x325 JUMPI PUSH1 0x40 CALLDATASIZE PUSH1 0x3 NOT ADD SLT PUSH2 0x325 JUMPI PUSH2 0x671 PUSH2 0x32A JUMP JUMPDEST PUSH1 0x24 CALLDATALOAD PUSH2 0x67C PUSH2 0x123D JUMP JUMPDEST PUSH1 0x1 PUSH1 0x1 PUSH1 0xA0 SHL SUB DUP3 AND SWAP2 DUP3 ISZERO PUSH2 0x713 JUMPI DUP2 PUSH2 0x6F6 SWAP2 PUSH2 0x711 SWAP5 PUSH2 0x6AA PUSH2 0x6A5 DUP5 PUSH1 0x2 SLOAD PUSH2 0x1384 JUMP JUMPDEST PUSH1 0x2 SSTORE JUMP JUMPDEST PUSH1 0x1 PUSH1 0x1 PUSH1 0xA0 SHL SUB DUP3 AND PUSH1 0x0 SWAP1 DUP2 MSTORE PUSH1 0x20 DUP2 DUP2 MSTORE PUSH1 0x40 DUP1 DUP4 KECCAK256 DUP1 SLOAD DUP8 ADD SWAP1 SSTORE MLOAD DUP6 DUP2 MSTORE PUSH32 0xDDF252AD1BE2C89B69C2B068FC378DAA952BA7F163C4A11628F55A4DF523B3EF SWAP2 SWAP1 LOG3 PUSH2 0x24A0 JUMP JUMPDEST PUSH1 0x2 SLOAD PUSH2 0x70C SWAP1 PUSH1 0x1 PUSH1 0x1 PUSH1 0xE0 SHL SUB LT ISZERO PUSH2 0x251D JUMP JUMPDEST PUSH2 0x1B21 JUMP JUMPDEST STOP JUMPDEST PUSH1 0x40 MLOAD PUSH3 0x461BCD PUSH1 0xE5 SHL DUP2 MSTORE PUSH1 0x20 PUSH1 0x4 DUP3 ADD MSTORE PUSH1 0x1F PUSH1 0x24 DUP3 ADD MSTORE PUSH32 0x45524332303A206D696E7420746F20746865207A65726F206164647265737300 PUSH1 0x44 DUP3 ADD MSTORE PUSH1 0x64 SWAP1 REVERT JUMPDEST CALLVALUE PUSH2 0x325 JUMPI PUSH1 0x0 CALLDATASIZE PUSH1 0x3 NOT ADD SLT PUSH2 0x325 JUMPI NUMBER PUSH6 0xFFFFFFFFFFFF PUSH2 0x77A NUMBER PUSH2 0x23D4 JUMP JUMPDEST AND SUB PUSH2 0x7C5 JUMPI PUSH2 0x299 PUSH1 0x40 MLOAD PUSH2 0x78F DUP2 PUSH2 0x12E5 JUMP JUMPDEST PUSH1 0x1D DUP2 MSTORE PUSH32 0x6D6F64653D626C6F636B6E756D6265722666726F6D3D64656661756C74000000 PUSH1 0x20 DUP3 ADD MSTORE PUSH1 0x40 MLOAD SWAP2 DUP3 SWAP2 DUP3 PUSH2 0x22C JUMP JUMPDEST PUSH1 0x40 MLOAD PUSH3 0x461BCD PUSH1 0xE5 SHL DUP2 MSTORE PUSH1 0x20 PUSH1 0x4 DUP3 ADD MSTORE PUSH1 0x1D PUSH1 0x24 DUP3 ADD MSTORE PUSH32 0x4552433230566F7465733A2062726F6B656E20636C6F636B206D6F6465000000 PUSH1 0x44 DUP3 ADD MSTORE PUSH1 0x64 SWAP1 REVERT JUMPDEST CALLVALUE PUSH2 0x325 JUMPI PUSH1 0x20 CALLDATASIZE PUSH1 0x3 NOT ADD SLT PUSH2 0x325 JUMPI PUSH1 0x20 PUSH1 0x1 PUSH1 0x1 PUSH1 0xA0 SHL SUB DUP1 PUSH2 0x82E PUSH2 0x32A JUMP JUMPDEST AND PUSH1 0x0 MSTORE PUSH1 0x9 DUP3 MSTORE PUSH1 0x40 PUSH1 0x0 KECCAK256 SLOAD AND PUSH1 0x40 MLOAD SWAP1 DUP2 MSTORE RETURN JUMPDEST CALLVALUE PUSH2 0x325 JUMPI PUSH1 0x20 CALLDATASIZE PUSH1 0x3 NOT ADD SLT PUSH2 0x325 JUMPI PUSH2 0x711 PUSH2 0x861 PUSH2 0x32A JUMP JUMPDEST CALLER PUSH2 0x17D0 JUMP JUMPDEST CALLVALUE PUSH2 0x325 JUMPI PUSH1 0x20 CALLDATASIZE PUSH1 0x3 NOT ADD SLT PUSH2 0x325 JUMPI PUSH1 0x1 PUSH1 0x1 PUSH1 0xA0 SHL SUB PUSH2 0x888 PUSH2 0x32A JUMP JUMPDEST AND PUSH1 0x0 MSTORE PUSH1 0xA PUSH1 0x20 MSTORE PUSH1 0x20 PUSH2 0x8A1 PUSH1 0x40 PUSH1 0x0 KECCAK256 SLOAD PUSH2 0x243B JUMP JUMPDEST PUSH4 0xFFFFFFFF PUSH1 0x40 MLOAD SWAP2 AND DUP2 MSTORE RETURN JUMPDEST CALLVALUE PUSH2 0x325 JUMPI PUSH1 0x20 CALLDATASIZE PUSH1 0x3 NOT ADD SLT PUSH2 0x325 JUMPI PUSH1 0x1 PUSH1 0x1 PUSH1 0xA0 SHL SUB PUSH2 0x8D0 PUSH2 0x32A JUMP JUMPDEST AND PUSH1 0x0 MSTORE PUSH1 0x0 PUSH1 0x20 MSTORE PUSH1 0x20 PUSH1 0x40 PUSH1 0x0 KECCAK256 SLOAD PUSH1 0x40 MLOAD SWAP1 DUP2 MSTORE RETURN JUMPDEST CALLVALUE PUSH2 0x325 JUMPI PUSH1 0x0 DUP1 PUSH1 0x3 NOT CALLDATASIZE ADD SLT PUSH2 0x322 JUMPI PUSH2 0x903 PUSH2 0x123D JUMP JUMPDEST PUSH1 0xC DUP1 SLOAD PUSH1 0x1 PUSH1 0x1 PUSH1 0xA0 SHL SUB NOT DUP2 AND SWAP1 SWAP2 SSTORE DUP2 SWAP1 PUSH1 0x1 PUSH1 0x1 PUSH1 0xA0 SHL SUB AND PUSH32 0x8BE0079C531659141344CD1FD0A4F28419497F9722A3DAAFE3B4186F6B6457E0 DUP3 DUP1 LOG3 DUP1 RETURN JUMPDEST CALLVALUE PUSH2 0x325 JUMPI PUSH1 0x20 CALLDATASIZE PUSH1 0x3 NOT ADD SLT PUSH2 0x325 JUMPI PUSH1 0x1 PUSH1 0x1 PUSH1 0xA0 SHL SUB PUSH2 0x968 PUSH2 0x32A JUMP JUMPDEST AND PUSH1 0x0 MSTORE PUSH1 0x7 PUSH1 0x20 MSTORE PUSH1 0x20 PUSH1 0x40 PUSH1 0x0 KECCAK256 SLOAD PUSH1 0x40 MLOAD SWAP1 DUP2 MSTORE RETURN JUMPDEST CALLVALUE PUSH2 0x325 JUMPI PUSH1 0x0 DUP1 PUSH1 0x3 NOT CALLDATASIZE ADD SLT PUSH2 0x322 JUMPI PUSH2 0xA2B SWAP1 PUSH2 0x9C0 PUSH32 0x0 PUSH2 0x2031 JUMP JUMPDEST PUSH2 0x9E9 PUSH32 0x0 PUSH2 0x212A JUMP JUMPDEST SWAP2 PUSH1 0x40 MLOAD SWAP2 PUSH2 0x9F7 DUP4 PUSH2 0x1306 JUMP JUMPDEST DUP2 DUP4 MSTORE PUSH1 0x40 MLOAD SWAP5 DUP6 SWAP5 PUSH1 0xF PUSH1 0xF8 SHL DUP7 MSTORE PUSH2 0xA1D PUSH1 0x20 SWAP4 PUSH1 0xE0 DUP6 DUP10 ADD MSTORE PUSH1 0xE0 DUP9 ADD SWAP1 PUSH2 0x1EC JUMP JUMPDEST SWAP1 DUP7 DUP3 SUB PUSH1 0x40 DUP9 ADD MSTORE PUSH2 0x1EC JUMP JUMPDEST SWAP1 CHAINID PUSH1 0x60 DUP7 ADD MSTORE ADDRESS PUSH1 0x80 DUP7 ADD MSTORE DUP3 PUSH1 0xA0 DUP7 ADD MSTORE DUP5 DUP3 SUB PUSH1 0xC0 DUP7 ADD MSTORE DUP1 DUP1 DUP6 MLOAD SWAP4 DUP5 DUP2 MSTORE ADD SWAP5 ADD SWAP3 JUMPDEST DUP3 DUP2 LT PUSH2 0xA62 JUMPI POP POP POP POP SUB SWAP1 RETURN JUMPDEST DUP4 MLOAD DUP6 MSTORE DUP7 SWAP6 POP SWAP4 DUP2 ADD SWAP4 SWAP3 DUP2 ADD SWAP3 PUSH1 0x1 ADD PUSH2 0xA53 JUMP JUMPDEST CALLVALUE PUSH2 0x325 JUMPI PUSH1 0x0 CALLDATASIZE PUSH1 0x3 NOT ADD SLT PUSH2 0x325 JUMPI PUSH1 0xC SLOAD PUSH1 0x40 MLOAD PUSH1 0x1 PUSH1 0x1 PUSH1 0xA0 SHL SUB SWAP1 SWAP2 AND DUP2 MSTORE PUSH1 0x20 SWAP1 RETURN JUMPDEST CALLVALUE PUSH2 0x325 JUMPI PUSH1 0x20 CALLDATASIZE PUSH1 0x3 NOT ADD SLT PUSH2 0x325 JUMPI PUSH1 0x4 CALLDATALOAD PUSH2 0xAD1 PUSH6 0xFFFFFFFFFFFF PUSH2 0xAC9 NUMBER PUSH2 0x23D4 JUMP JUMPDEST AND DUP3 LT PUSH2 0x172B JUMP JUMPDEST PUSH1 0xB SLOAD SWAP1 PUSH1 0x0 DUP3 PUSH1 0x5 DUP2 GT PUSH2 0xB94 JUMPI JUMPDEST POP SWAP1 JUMPDEST DUP3 DUP3 LT PUSH2 0xB31 JUMPI DUP3 DUP1 PUSH2 0xAFE JUMPI POP PUSH1 0x40 MLOAD PUSH1 0x0 DUP2 MSTORE PUSH1 0x20 SWAP1 RETURN JUMPDEST PUSH1 0xB PUSH1 0x0 MSTORE PUSH1 0x20 SWAP1 PUSH2 0x5B1 SWAP1 PUSH32 0x175B7A638427703F0DBE7BB9BBF987A2551717B34E79F33B5B1008D1FA01DB8 ADD PUSH2 0x5AA JUMP JUMPDEST SWAP1 SWAP2 PUSH2 0xB3D DUP2 DUP5 PUSH2 0x2204 JUMP JUMPDEST PUSH1 0xB PUSH1 0x0 MSTORE SWAP1 DUP3 PUSH4 0xFFFFFFFF PUSH2 0xB74 PUSH32 0x175B7A638427703F0DBE7BB9BBF987A2551717B34E79F33B5B1008D1FA01DB9 DUP6 ADD PUSH2 0x5DD JUMP JUMPDEST AND GT ISZERO PUSH2 0xB84 JUMPI POP SWAP2 JUMPDEST SWAP1 PUSH2 0xAE4 JUMP JUMPDEST SWAP3 POP PUSH2 0xB8F SWAP1 PUSH2 0x1376 JUMP JUMPDEST PUSH2 0xB7E JUMP JUMPDEST DUP1 PUSH2 0x617 PUSH2 0xBA4 SWAP3 SWAP6 SWAP4 SWAP6 PUSH2 0x2219 JUMP JUMPDEST PUSH1 0xB PUSH1 0x0 MSTORE SWAP1 DUP3 PUSH4 0xFFFFFFFF PUSH2 0xBDB PUSH32 0x175B7A638427703F0DBE7BB9BBF987A2551717B34E79F33B5B1008D1FA01DB9 DUP6 ADD PUSH2 0x5DD JUMP JUMPDEST AND GT ISZERO PUSH2 0xBEB JUMPI POP SWAP2 JUMPDEST CODESIZE PUSH2 0xAE1 JUMP JUMPDEST SWAP3 POP PUSH2 0xBF6 SWAP1 PUSH2 0x1376 JUMP JUMPDEST PUSH2 0xBE5 JUMP JUMPDEST CALLVALUE PUSH2 0x325 JUMPI PUSH1 0x0 CALLDATASIZE PUSH1 0x3 NOT ADD SLT PUSH2 0x325 JUMPI PUSH1 0x20 PUSH2 0xC17 NUMBER PUSH2 0x23D4 JUMP JUMPDEST PUSH6 0xFFFFFFFFFFFF PUSH1 0x40 MLOAD SWAP2 AND DUP2 MSTORE RETURN JUMPDEST CALLVALUE PUSH2 0x325 JUMPI PUSH1 0x0 DUP1 PUSH1 0x3 NOT CALLDATASIZE ADD SLT PUSH2 0x322 JUMPI PUSH1 0x40 MLOAD SWAP1 DUP1 PUSH1 0x4 SLOAD PUSH2 0xC4A DUP2 PUSH2 0x1295 JUMP JUMPDEST DUP1 DUP6 MSTORE SWAP2 PUSH1 0x1 SWAP2 DUP1 DUP4 AND SWAP1 DUP2 ISZERO PUSH2 0x2F8 JUMPI POP PUSH1 0x1 EQ PUSH2 0xC73 JUMPI PUSH2 0x299 DUP6 PUSH2 0x28D DUP2 DUP8 SUB DUP3 PUSH2 0x133E JUMP JUMPDEST SWAP3 POP PUSH1 0x4 DUP4 MSTORE PUSH32 0x8A35ACFBC15FF81A39AE7D344FD709F28E8600B4AA8C65C6B64BFE7FE36BD19B JUMPDEST DUP3 DUP5 LT PUSH2 0xCB6 JUMPI POP POP POP DUP2 ADD PUSH1 0x20 ADD PUSH2 0x28D DUP3 PUSH2 0x299 PUSH2 0x27D JUMP JUMPDEST DUP1 SLOAD PUSH1 0x20 DUP6 DUP8 ADD DUP2 ADD SWAP2 SWAP1 SWAP2 MSTORE SWAP1 SWAP4 ADD SWAP3 DUP2 ADD PUSH2 0xC9B JUMP JUMPDEST CALLVALUE PUSH2 0x325 JUMPI PUSH1 0x20 CALLDATASIZE PUSH1 0x3 NOT ADD SLT PUSH2 0x325 JUMPI PUSH1 0x1 PUSH1 0x1 PUSH1 0xA0 SHL SUB PUSH2 0xCEF PUSH2 0x32A JUMP JUMPDEST AND PUSH1 0x0 MSTORE PUSH1 0xA PUSH1 0x20 MSTORE PUSH1 0x40 PUSH1 0x0 KECCAK256 DUP1 SLOAD DUP1 ISZERO PUSH1 0x0 EQ PUSH2 0xD16 JUMPI POP POP PUSH1 0x40 MLOAD PUSH1 0x0 DUP2 MSTORE PUSH1 0x20 SWAP1 RETURN JUMPDEST PUSH1 0x20 SWAP2 PUSH2 0xD27 SWAP2 PUSH1 0x0 NOT ADD SWAP1 PUSH2 0x16DB JUMP JUMPDEST POP SLOAD DUP2 SHR PUSH2 0x57D JUMP JUMPDEST CALLVALUE PUSH2 0x325 JUMPI PUSH1 0x40 CALLDATASIZE PUSH1 0x3 NOT ADD SLT PUSH2 0x325 JUMPI PUSH2 0xD49 PUSH2 0x32A JUMP JUMPDEST PUSH1 0x24 CALLDATALOAD SWAP1 CALLER PUSH1 0x0 MSTORE PUSH1 0x1 PUSH1 0x20 MSTORE PUSH2 0xD76 DUP2 PUSH1 0x40 PUSH1 0x0 KECCAK256 SWAP1 PUSH1 0x1 DUP1 PUSH1 0xA0 SHL SUB AND PUSH1 0x0 MSTORE PUSH1 0x20 MSTORE PUSH1 0x40 PUSH1 0x0 KECCAK256 SWAP1 JUMP JUMPDEST SLOAD SWAP2 DUP1 DUP4 LT PUSH2 0xD8B JUMPI PUSH2 0x403 SWAP3 SUB SWAP1 CALLER PUSH2 0x1552 JUMP JUMPDEST PUSH1 0x40 MLOAD PUSH3 0x461BCD PUSH1 0xE5 SHL DUP2 MSTORE PUSH1 0x20 PUSH1 0x4 DUP3 ADD MSTORE PUSH1 0x25 PUSH1 0x24 DUP3 ADD MSTORE PUSH32 0x45524332303A2064656372656173656420616C6C6F77616E63652062656C6F77 PUSH1 0x44 DUP3 ADD MSTORE PUSH5 0x207A65726F PUSH1 0xD8 SHL PUSH1 0x64 DUP3 ADD MSTORE PUSH1 0x84 SWAP1 REVERT JUMPDEST CALLVALUE PUSH2 0x325 JUMPI PUSH1 0x40 CALLDATASIZE PUSH1 0x3 NOT ADD SLT PUSH2 0x325 JUMPI PUSH2 0x37C PUSH2 0xDFA PUSH2 0x32A JUMP JUMPDEST PUSH1 0x24 CALLDATALOAD SWAP1 CALLER PUSH2 0x1444 JUMP JUMPDEST PUSH1 0x64 CALLDATALOAD SWAP1 PUSH1 0xFF DUP3 AND DUP3 SUB PUSH2 0x325 JUMPI JUMP JUMPDEST PUSH1 0x84 CALLDATALOAD SWAP1 PUSH1 0xFF DUP3 AND DUP3 SUB PUSH2 0x325 JUMPI JUMP JUMPDEST CALLVALUE PUSH2 0x325 JUMPI PUSH1 0xC0 CALLDATASIZE PUSH1 0x3 NOT ADD SLT PUSH2 0x325 JUMPI PUSH2 0xE3D PUSH2 0x32A JUMP JUMPDEST PUSH1 0x44 CALLDATALOAD SWAP1 PUSH1 0x24 CALLDATALOAD PUSH2 0xE4C PUSH2 0xE04 JUMP JUMPDEST SWAP3 DUP1 TIMESTAMP GT PUSH2 0xF0A JUMPI PUSH2 0xEDC PUSH2 0xF05 SWAP2 PUSH2 0x711 SWAP6 PUSH1 0x40 MLOAD SWAP1 PUSH2 0xEC4 DUP3 PUSH2 0xEB6 PUSH1 0x20 DUP3 ADD SWAP6 DUP10 DUP12 DUP9 PUSH1 0x60 SWAP2 SWAP5 SWAP4 SWAP3 PUSH1 0x80 DUP3 ADD SWAP6 PUSH32 0xE48329057BFD03D55E49B547132E39CFFD9C1820AD7B9D4C5307691425D15ADF DUP4 MSTORE PUSH1 0x1 DUP1 PUSH1 0xA0 SHL SUB AND PUSH1 0x20 DUP4 ADD MSTORE PUSH1 0x40 DUP3 ADD MSTORE ADD MSTORE JUMP JUMPDEST SUB PUSH1 0x1F NOT DUP2 ADD DUP5 MSTORE DUP4 PUSH2 0x133E JUMP JUMPDEST PUSH2 0xED7 PUSH1 0xA4 CALLDATALOAD SWAP4 PUSH1 0x84 CALLDATALOAD SWAP4 MLOAD SWAP1 KECCAK256 PUSH2 0x200B JUMP JUMPDEST PUSH2 0x1D0B JUMP JUMPDEST PUSH1 0x1 PUSH1 0x1 PUSH1 0xA0 SHL SUB DUP2 AND PUSH1 0x0 SWAP1 DUP2 MSTORE PUSH1 0x7 PUSH1 0x20 MSTORE PUSH1 0x40 SWAP1 KECCAK256 DUP1 SLOAD PUSH1 0x1 DUP2 ADD SWAP1 SWAP2 SSTORE SWAP1 SWAP3 EQ PUSH2 0x1784 JUMP JUMPDEST PUSH2 0x17D0 JUMP JUMPDEST PUSH1 0x40 MLOAD PUSH3 0x461BCD PUSH1 0xE5 SHL DUP2 MSTORE PUSH1 0x20 PUSH1 0x4 DUP3 ADD MSTORE PUSH1 0x1D PUSH1 0x24 DUP3 ADD MSTORE PUSH32 0x4552433230566F7465733A207369676E61747572652065787069726564000000 PUSH1 0x44 DUP3 ADD MSTORE PUSH1 0x64 SWAP1 REVERT JUMPDEST CALLVALUE PUSH2 0x325 JUMPI PUSH1 0xE0 CALLDATASIZE PUSH1 0x3 NOT ADD SLT PUSH2 0x325 JUMPI PUSH2 0xF68 PUSH2 0x32A JUMP JUMPDEST PUSH2 0xF70 PUSH2 0x340 JUMP JUMPDEST PUSH1 0x44 CALLDATALOAD SWAP1 PUSH1 0x64 CALLDATALOAD SWAP3 PUSH2 0xF80 PUSH2 0xE14 JUMP JUMPDEST SWAP4 DUP1 TIMESTAMP GT PUSH2 0x1050 JUMPI PUSH2 0x1038 PUSH2 0x104B SWAP2 PUSH2 0xEB6 PUSH2 0x711 SWAP8 PUSH2 0x1025 PUSH2 0xFBE DUP8 PUSH1 0x1 DUP1 PUSH1 0xA0 SHL SUB AND PUSH1 0x0 MSTORE PUSH1 0x7 PUSH1 0x20 MSTORE PUSH1 0x40 PUSH1 0x0 KECCAK256 SWAP1 DUP2 SLOAD SWAP2 PUSH1 0x1 DUP4 ADD SWAP1 SSTORE JUMP JUMPDEST PUSH1 0x40 DUP1 MLOAD PUSH32 0x6E71EDAE12B1B97F4D1F60370FEF10105FA2FAAE0126114A169C64845D6126C9 PUSH1 0x20 DUP3 ADD SWAP1 DUP2 MSTORE PUSH1 0x1 PUSH1 0x1 PUSH1 0xA0 SHL SUB DUP1 DUP13 AND SWAP4 DUP4 ADD SWAP4 SWAP1 SWAP4 MSTORE SWAP2 DUP12 AND PUSH1 0x60 DUP3 ADD MSTORE PUSH1 0x80 DUP2 ADD DUP13 SWAP1 MSTORE PUSH1 0xA0 DUP2 ADD SWAP3 SWAP1 SWAP3 MSTORE PUSH1 0xC0 DUP3 ADD SWAP6 SWAP1 SWAP6 MSTORE SWAP3 DUP4 SWAP1 PUSH1 0xE0 DUP3 ADD SWAP1 JUMP JUMPDEST PUSH2 0xED7 PUSH1 0xC4 CALLDATALOAD SWAP4 PUSH1 0xA4 CALLDATALOAD SWAP4 MLOAD SWAP1 KECCAK256 PUSH2 0x200B JUMP JUMPDEST PUSH1 0x1 PUSH1 0x1 PUSH1 0xA0 SHL SUB DUP4 DUP2 AND SWAP2 AND EQ PUSH2 0x1682 JUMP JUMPDEST PUSH2 0x1552 JUMP JUMPDEST PUSH1 0x40 MLOAD PUSH3 0x461BCD PUSH1 0xE5 SHL DUP2 MSTORE PUSH1 0x20 PUSH1 0x4 DUP3 ADD MSTORE PUSH1 0x1D PUSH1 0x24 DUP3 ADD MSTORE PUSH32 0x45524332305065726D69743A206578706972656420646561646C696E65000000 PUSH1 0x44 DUP3 ADD MSTORE PUSH1 0x64 SWAP1 REVERT JUMPDEST CALLVALUE PUSH2 0x325 JUMPI PUSH1 0x40 CALLDATASIZE PUSH1 0x3 NOT ADD SLT PUSH2 0x325 JUMPI PUSH1 0x20 PUSH2 0x10E4 PUSH2 0x10B3 PUSH2 0x32A JUMP JUMPDEST PUSH2 0x10BB PUSH2 0x340 JUMP JUMPDEST PUSH1 0x1 PUSH1 0x1 PUSH1 0xA0 SHL SUB SWAP2 DUP3 AND PUSH1 0x0 SWAP1 DUP2 MSTORE PUSH1 0x1 DUP6 MSTORE PUSH1 0x40 DUP1 DUP3 KECCAK256 SWAP3 SWAP1 SWAP4 AND DUP2 MSTORE PUSH1 0x20 SWAP2 SWAP1 SWAP2 MSTORE KECCAK256 SWAP1 JUMP JUMPDEST SLOAD PUSH1 0x40 MLOAD SWAP1 DUP2 MSTORE RETURN JUMPDEST CALLVALUE PUSH2 0x325 JUMPI PUSH1 0x40 CALLDATASIZE PUSH1 0x3 NOT ADD SLT PUSH2 0x325 JUMPI PUSH2 0x1106 PUSH2 0x32A JUMP JUMPDEST PUSH4 0xFFFFFFFF PUSH1 0x24 CALLDATALOAD DUP2 DUP2 AND DUP2 SUB PUSH2 0x325 JUMPI PUSH2 0x1150 PUSH2 0x1156 SWAP2 PUSH1 0x40 SWAP5 PUSH1 0x0 PUSH1 0x20 DUP8 MLOAD PUSH2 0x1130 DUP2 PUSH2 0x12E5 JUMP JUMPDEST DUP3 DUP2 MSTORE ADD MSTORE PUSH1 0x1 PUSH1 0x1 PUSH1 0xA0 SHL SUB AND PUSH1 0x0 SWAP1 DUP2 MSTORE PUSH1 0xA PUSH1 0x20 MSTORE DUP6 SWAP1 KECCAK256 PUSH2 0x16DB JUMP JUMPDEST POP PUSH2 0x1709 JUMP JUMPDEST DUP3 MLOAD DUP2 MLOAD SWAP1 SWAP3 AND DUP3 MSTORE PUSH1 0x20 SWAP1 DUP2 ADD MLOAD PUSH1 0x1 PUSH1 0x1 PUSH1 0xE0 SHL SUB AND SWAP1 DUP3 ADD MSTORE RETURN JUMPDEST CALLVALUE PUSH2 0x325 JUMPI PUSH1 0x20 CALLDATASIZE PUSH1 0x3 NOT ADD SLT PUSH2 0x325 JUMPI PUSH2 0x118D PUSH2 0x32A JUMP JUMPDEST PUSH2 0x1195 PUSH2 0x123D JUMP JUMPDEST PUSH1 0x1 PUSH1 0x1 PUSH1 0xA0 SHL SUB SWAP1 DUP2 AND SWAP1 DUP2 ISZERO PUSH2 0x11E9 JUMPI PUSH1 0xC SLOAD DUP3 PUSH12 0xFFFFFFFFFFFFFFFFFFFFFFFF PUSH1 0xA0 SHL DUP3 AND OR PUSH1 0xC SSTORE AND PUSH32 0x8BE0079C531659141344CD1FD0A4F28419497F9722A3DAAFE3B4186F6B6457E0 PUSH1 0x0 DUP1 LOG3 STOP JUMPDEST PUSH1 0x40 MLOAD PUSH3 0x461BCD PUSH1 0xE5 SHL DUP2 MSTORE PUSH1 0x20 PUSH1 0x4 DUP3 ADD MSTORE PUSH1 0x26 PUSH1 0x24 DUP3 ADD MSTORE PUSH32 0x4F776E61626C653A206E6577206F776E657220697320746865207A65726F2061 PUSH1 0x44 DUP3 ADD MSTORE PUSH6 0x646472657373 PUSH1 0xD0 SHL PUSH1 0x64 DUP3 ADD MSTORE PUSH1 0x84 SWAP1 REVERT JUMPDEST PUSH1 0xC SLOAD PUSH1 0x1 PUSH1 0x1 PUSH1 0xA0 SHL SUB AND CALLER SUB PUSH2 0x1251 JUMPI JUMP JUMPDEST PUSH1 0x64 PUSH1 0x40 MLOAD PUSH3 0x461BCD PUSH1 0xE5 SHL DUP2 MSTORE PUSH1 0x20 PUSH1 0x4 DUP3 ADD MSTORE PUSH1 0x20 PUSH1 0x24 DUP3 ADD MSTORE PUSH32 0x4F776E61626C653A2063616C6C6572206973206E6F7420746865206F776E6572 PUSH1 0x44 DUP3 ADD MSTORE REVERT JUMPDEST SWAP1 PUSH1 0x1 DUP3 DUP2 SHR SWAP3 AND DUP1 ISZERO PUSH2 0x12C5 JUMPI JUMPDEST PUSH1 0x20 DUP4 LT EQ PUSH2 0x12AF JUMPI JUMP JUMPDEST PUSH4 0x4E487B71 PUSH1 0xE0 SHL PUSH1 0x0 MSTORE PUSH1 0x22 PUSH1 0x4 MSTORE PUSH1 0x24 PUSH1 0x0 REVERT JUMPDEST SWAP2 PUSH1 0x7F AND SWAP2 PUSH2 0x12A4 JUMP JUMPDEST PUSH4 0x4E487B71 PUSH1 0xE0 SHL PUSH1 0x0 MSTORE PUSH1 0x41 PUSH1 0x4 MSTORE PUSH1 0x24 PUSH1 0x0 REVERT JUMPDEST PUSH1 0x40 DUP2 ADD SWAP1 DUP2 LT PUSH8 0xFFFFFFFFFFFFFFFF DUP3 GT OR PUSH2 0x1301 JUMPI PUSH1 0x40 MSTORE JUMP JUMPDEST PUSH2 0x12CF JUMP JUMPDEST PUSH1 0x20 DUP2 ADD SWAP1 DUP2 LT PUSH8 0xFFFFFFFFFFFFFFFF DUP3 GT OR PUSH2 0x1301 JUMPI PUSH1 0x40 MSTORE JUMP JUMPDEST PUSH1 0xC0 DUP2 ADD SWAP1 DUP2 LT PUSH8 0xFFFFFFFFFFFFFFFF DUP3 GT OR PUSH2 0x1301 JUMPI PUSH1 0x40 MSTORE JUMP JUMPDEST SWAP1 PUSH1 0x1F DUP1 NOT SWAP2 ADD AND DUP2 ADD SWAP1 DUP2 LT PUSH8 0xFFFFFFFFFFFFFFFF DUP3 GT OR PUSH2 0x1301 JUMPI PUSH1 0x40 MSTORE JUMP JUMPDEST PUSH4 0x4E487B71 PUSH1 0xE0 SHL PUSH1 0x0 MSTORE PUSH1 0x11 PUSH1 0x4 MSTORE PUSH1 0x24 PUSH1 0x0 REVERT JUMPDEST SWAP1 PUSH1 0x1 DUP3 ADD DUP1 SWAP3 GT PUSH2 0x502 JUMPI JUMP JUMPDEST SWAP2 SWAP1 DUP3 ADD DUP1 SWAP3 GT PUSH2 0x502 JUMPI JUMP JUMPDEST ISZERO PUSH2 0x1398 JUMPI JUMP JUMPDEST PUSH1 0x40 MLOAD PUSH3 0x461BCD PUSH1 0xE5 SHL DUP2 MSTORE PUSH1 0x20 PUSH1 0x4 DUP3 ADD MSTORE PUSH1 0x23 PUSH1 0x24 DUP3 ADD MSTORE PUSH32 0x45524332303A207472616E7366657220746F20746865207A65726F2061646472 PUSH1 0x44 DUP3 ADD MSTORE PUSH3 0x657373 PUSH1 0xE8 SHL PUSH1 0x64 DUP3 ADD MSTORE PUSH1 0x84 SWAP1 REVERT JUMPDEST ISZERO PUSH2 0x13F0 JUMPI JUMP JUMPDEST PUSH1 0x40 MLOAD PUSH3 0x461BCD PUSH1 0xE5 SHL DUP2 MSTORE PUSH1 0x20 PUSH1 0x4 DUP3 ADD MSTORE PUSH1 0x26 PUSH1 0x24 DUP3 ADD MSTORE PUSH32 0x45524332303A207472616E7366657220616D6F756E7420657863656564732062 PUSH1 0x44 DUP3 ADD MSTORE PUSH6 0x616C616E6365 PUSH1 0xD0 SHL PUSH1 0x64 DUP3 ADD MSTORE PUSH1 0x84 SWAP1 REVERT JUMPDEST PUSH1 0x1 PUSH1 0x1 PUSH1 0xA0 SHL SUB SWAP3 SWAP2 SWAP1 DUP4 DUP2 AND DUP1 ISZERO PUSH2 0x14FF JUMPI PUSH2 0x14FD SWAP5 DUP4 AND SWAP1 PUSH2 0x146A DUP3 ISZERO ISZERO PUSH2 0x1391 JUMP JUMPDEST PUSH1 0x1 PUSH1 0x1 PUSH1 0xA0 SHL SUB DUP4 AND PUSH1 0x0 SWAP1 DUP2 MSTORE PUSH1 0x20 DUP2 SWAP1 MSTORE PUSH1 0x40 SWAP1 KECCAK256 DUP6 SWAP1 SLOAD PUSH2 0x1491 DUP3 DUP3 LT ISZERO PUSH2 0x13E9 JUMP JUMPDEST SUB PUSH2 0x14AE DUP5 PUSH1 0x1 DUP1 PUSH1 0xA0 SHL SUB AND PUSH1 0x0 MSTORE PUSH1 0x0 PUSH1 0x20 MSTORE PUSH1 0x40 PUSH1 0x0 KECCAK256 SWAP1 JUMP JUMPDEST SSTORE PUSH1 0x1 PUSH1 0x1 PUSH1 0xA0 SHL SUB DUP5 AND PUSH1 0x0 SWAP1 DUP2 MSTORE PUSH1 0x20 DUP2 DUP2 MSTORE PUSH1 0x40 SWAP2 DUP3 SWAP1 KECCAK256 DUP1 SLOAD DUP9 ADD SWAP1 SSTORE SWAP1 MLOAD DUP7 DUP2 MSTORE PUSH32 0xDDF252AD1BE2C89B69C2B068FC378DAA952BA7F163C4A11628F55A4DF523B3EF SWAP2 SWAP1 LOG3 PUSH2 0x24EB JUMP JUMPDEST JUMP JUMPDEST PUSH1 0x40 MLOAD PUSH3 0x461BCD PUSH1 0xE5 SHL DUP2 MSTORE PUSH1 0x20 PUSH1 0x4 DUP3 ADD MSTORE PUSH1 0x25 PUSH1 0x24 DUP3 ADD MSTORE PUSH32 0x45524332303A207472616E736665722066726F6D20746865207A65726F206164 PUSH1 0x44 DUP3 ADD MSTORE PUSH5 0x6472657373 PUSH1 0xD8 SHL PUSH1 0x64 DUP3 ADD MSTORE PUSH1 0x84 SWAP1 REVERT JUMPDEST PUSH1 0x1 PUSH1 0x1 PUSH1 0xA0 SHL SUB DUP1 DUP3 AND SWAP3 SWAP2 SWAP1 DUP4 ISZERO PUSH2 0x1631 JUMPI DUP3 AND SWAP4 DUP5 ISZERO PUSH2 0x15E1 JUMPI DUP1 PUSH2 0x15CB PUSH32 0x8C5BE1E5EBEC7D5BD14F71427D1E84F3DD0314C0F7B2291E5B200AC8C7C3B925 SWAP5 PUSH2 0x15B4 PUSH2 0x15DC SWAP6 PUSH1 0x1 DUP1 PUSH1 0xA0 SHL SUB AND PUSH1 0x0 MSTORE PUSH1 0x1 PUSH1 0x20 MSTORE PUSH1 0x40 PUSH1 0x0 KECCAK256 SWAP1 JUMP JUMPDEST SWAP1 PUSH1 0x1 DUP1 PUSH1 0xA0 SHL SUB AND PUSH1 0x0 MSTORE PUSH1 0x20 MSTORE PUSH1 0x40 PUSH1 0x0 KECCAK256 SWAP1 JUMP JUMPDEST SSTORE PUSH1 0x40 MLOAD SWAP1 DUP2 MSTORE SWAP1 DUP2 SWAP1 PUSH1 0x20 DUP3 ADD SWAP1 JUMP JUMPDEST SUB SWAP1 LOG3 JUMP JUMPDEST PUSH1 0x40 MLOAD PUSH3 0x461BCD PUSH1 0xE5 SHL DUP2 MSTORE PUSH1 0x20 PUSH1 0x4 DUP3 ADD MSTORE PUSH1 0x22 PUSH1 0x24 DUP3 ADD MSTORE PUSH32 0x45524332303A20617070726F766520746F20746865207A65726F206164647265 PUSH1 0x44 DUP3 ADD MSTORE PUSH2 0x7373 PUSH1 0xF0 SHL PUSH1 0x64 DUP3 ADD MSTORE PUSH1 0x84 SWAP1 REVERT JUMPDEST PUSH1 0x40 MLOAD PUSH3 0x461BCD PUSH1 0xE5 SHL DUP2 MSTORE PUSH1 0x20 PUSH1 0x4 DUP3 ADD MSTORE PUSH1 0x24 DUP1 DUP3 ADD MSTORE PUSH32 0x45524332303A20617070726F76652066726F6D20746865207A65726F20616464 PUSH1 0x44 DUP3 ADD MSTORE PUSH4 0x72657373 PUSH1 0xE0 SHL PUSH1 0x64 DUP3 ADD MSTORE PUSH1 0x84 SWAP1 REVERT JUMPDEST ISZERO PUSH2 0x1689 JUMPI JUMP JUMPDEST PUSH1 0x40 MLOAD PUSH3 0x461BCD PUSH1 0xE5 SHL DUP2 MSTORE PUSH1 0x20 PUSH1 0x4 DUP3 ADD MSTORE PUSH1 0x1E PUSH1 0x24 DUP3 ADD MSTORE PUSH32 0x45524332305065726D69743A20696E76616C6964207369676E61747572650000 PUSH1 0x44 DUP3 ADD MSTORE PUSH1 0x64 SWAP1 REVERT JUMPDEST PUSH1 0x40 MLOAD SWAP1 PUSH2 0x14FD DUP3 PUSH2 0x12E5 JUMP JUMPDEST DUP1 SLOAD DUP3 LT ISZERO PUSH2 0x16F3 JUMPI PUSH1 0x0 MSTORE PUSH1 0x20 PUSH1 0x0 KECCAK256 ADD SWAP1 PUSH1 0x0 SWAP1 JUMP JUMPDEST PUSH4 0x4E487B71 PUSH1 0xE0 SHL PUSH1 0x0 MSTORE PUSH1 0x32 PUSH1 0x4 MSTORE PUSH1 0x24 PUSH1 0x0 REVERT JUMPDEST SWAP1 PUSH1 0x40 MLOAD PUSH2 0x1716 DUP2 PUSH2 0x12E5 JUMP JUMPDEST PUSH1 0x20 DUP2 SWAP4 SLOAD PUSH4 0xFFFFFFFF DUP2 AND DUP4 MSTORE DUP2 SHR SWAP2 ADD MSTORE JUMP JUMPDEST ISZERO PUSH2 0x1732 JUMPI JUMP JUMPDEST PUSH1 0x40 MLOAD PUSH3 0x461BCD PUSH1 0xE5 SHL DUP2 MSTORE PUSH1 0x20 PUSH1 0x4 DUP3 ADD MSTORE PUSH1 0x19 PUSH1 0x24 DUP3 ADD MSTORE PUSH32 0x4552433230566F7465733A20667574757265206C6F6F6B757000000000000000 PUSH1 0x44 DUP3 ADD MSTORE PUSH1 0x64 SWAP1 REVERT JUMPDEST SWAP2 SWAP1 DUP3 SUB SWAP2 DUP3 GT PUSH2 0x502 JUMPI JUMP JUMPDEST ISZERO PUSH2 0x178B JUMPI JUMP JUMPDEST PUSH1 0x40 MLOAD PUSH3 0x461BCD PUSH1 0xE5 SHL DUP2 MSTORE PUSH1 0x20 PUSH1 0x4 DUP3 ADD MSTORE PUSH1 0x19 PUSH1 0x24 DUP3 ADD MSTORE PUSH32 0x4552433230566F7465733A20696E76616C6964206E6F6E636500000000000000 PUSH1 0x44 DUP3 ADD MSTORE PUSH1 0x64 SWAP1 REVERT JUMPDEST PUSH2 0x14FD SWAP2 PUSH1 0x1 DUP1 PUSH1 0xA0 SHL SUB DUP1 SWAP3 AND PUSH1 0x0 SWAP3 DUP2 DUP5 MSTORE PUSH1 0x9 PUSH1 0x20 MSTORE DUP1 PUSH1 0x40 DUP6 KECCAK256 SLOAD AND DUP1 SWAP3 DUP6 PUSH1 0x20 MSTORE PUSH32 0x3134E8A2E6D97E929A7E54011EA5485D7D196DD5F0BA4D4EF95803E8E3FC257F PUSH1 0x40 DUP8 KECCAK256 SLOAD SWAP7 PUSH1 0x9 PUSH1 0x20 MSTORE PUSH1 0x40 DUP2 KECCAK256 SWAP5 DUP8 AND SWAP5 DUP6 PUSH12 0xFFFFFFFFFFFFFFFFFFFFFFFF PUSH1 0xA0 SHL DUP3 SLOAD AND OR SWAP1 SSTORE DUP1 LOG4 JUMPDEST PUSH1 0x1 PUSH1 0x1 PUSH1 0xA0 SHL SUB DUP1 DUP4 AND SWAP4 SWAP3 SWAP2 AND DUP1 DUP5 EQ ISZERO DUP1 PUSH2 0x1A57 JUMPI JUMPDEST PUSH2 0x1868 JUMPI JUMPDEST POP POP POP POP JUMP JUMPDEST DUP1 PUSH2 0x18D6 JUMPI JUMPDEST POP DUP3 PUSH2 0x187B JUMPI JUMPDEST DUP1 PUSH2 0x1862 JUMP JUMPDEST PUSH1 0x1 PUSH1 0x1 PUSH1 0xA0 SHL SUB AND PUSH1 0x0 SWAP1 DUP2 MSTORE PUSH1 0xA PUSH1 0x20 MSTORE PUSH1 0x40 SWAP1 KECCAK256 PUSH32 0xDEC2BACDD2F05B59DE34DA9B523DFF8BE42E5E38E818C82FDB0BAE774387A724 SWAP2 PUSH2 0x18BD SWAP2 PUSH2 0x1C52 JUMP JUMPDEST PUSH1 0x40 DUP1 MLOAD SWAP3 DUP4 MSTORE PUSH1 0x20 DUP4 ADD SWAP2 SWAP1 SWAP2 MSTORE SWAP1 LOG2 CODESIZE DUP1 DUP1 PUSH2 0x1875 JUMP JUMPDEST DUP1 PUSH1 0x0 MSTORE PUSH1 0xA PUSH1 0x20 MSTORE PUSH32 0xDEC2BACDD2F05B59DE34DA9B523DFF8BE42E5E38E818C82FDB0BAE774387A724 PUSH1 0x40 PUSH1 0x0 KECCAK256 DUP1 SLOAD DUP1 ISZERO SWAP2 DUP3 PUSH1 0x0 EQ PUSH2 0x1A34 JUMPI PUSH2 0x191A PUSH2 0x16CE JUMP JUMPDEST PUSH1 0x0 DUP2 MSTORE PUSH1 0x0 PUSH1 0x20 DUP3 ADD MSTORE SWAP2 JUMPDEST PUSH1 0x20 DUP4 ADD MLOAD PUSH2 0x1946 SWAP1 PUSH1 0x1 PUSH1 0x1 PUSH1 0xE0 SHL SUB AND JUMPDEST PUSH1 0x1 PUSH1 0x1 PUSH1 0xE0 SHL SUB AND SWAP1 JUMP JUMPDEST SWAP3 PUSH2 0x1951 DUP10 DUP6 PUSH2 0x2582 JUMP JUMPDEST SWAP5 ISZERO SWAP1 DUP2 PUSH2 0x1A11 JUMPI JUMPDEST POP ISZERO PUSH2 0x19AF JUMPI PUSH2 0x1982 PUSH2 0x1999 SWAP3 PUSH2 0x1970 DUP7 PUSH2 0x236B JUMP JUMPDEST SWAP3 PUSH1 0x0 NOT ADD SWAP1 PUSH1 0x0 MSTORE PUSH1 0x20 PUSH1 0x0 KECCAK256 ADD SWAP1 JUMP JUMPDEST SWAP1 PUSH4 0xFFFFFFFF DUP3 SLOAD SWAP2 DUP2 NOT SWAP1 PUSH1 0x20 SHL AND SWAP2 AND OR SWAP1 SSTORE JUMP JUMPDEST PUSH1 0x40 DUP1 MLOAD SWAP2 DUP3 MSTORE PUSH1 0x20 DUP3 ADD SWAP3 SWAP1 SWAP3 MSTORE LOG2 CODESIZE PUSH2 0x186E JUMP JUMPDEST POP PUSH2 0x1A0C SWAP1 PUSH2 0x19D3 PUSH2 0x19CE PUSH2 0x19C3 NUMBER PUSH2 0x23D4 JUMP JUMPDEST PUSH6 0xFFFFFFFFFFFF AND SWAP1 JUMP JUMPDEST PUSH2 0x243B JUMP JUMPDEST SWAP1 PUSH2 0x1A07 PUSH2 0x19E0 DUP7 PUSH2 0x236B JUMP JUMPDEST PUSH2 0x19F7 PUSH2 0x19EB PUSH2 0x16CE JUMP JUMPDEST PUSH4 0xFFFFFFFF SWAP1 SWAP6 AND DUP6 MSTORE JUMP JUMPDEST PUSH1 0x1 PUSH1 0x1 PUSH1 0xE0 SHL SUB AND PUSH1 0x20 DUP5 ADD MSTORE JUMP JUMPDEST PUSH2 0x1AC7 JUMP JUMPDEST PUSH2 0x1999 JUMP JUMPDEST MLOAD PUSH4 0xFFFFFFFF AND SWAP1 POP PUSH4 0xFFFFFFFF PUSH2 0x1A2B PUSH2 0x19C3 NUMBER PUSH2 0x23D4 JUMP JUMPDEST SWAP2 AND EQ CODESIZE PUSH2 0x195A JUMP JUMPDEST PUSH2 0x1A51 PUSH2 0x1A4C PUSH1 0x0 NOT DUP5 ADD DUP4 PUSH1 0x0 MSTORE PUSH1 0x20 PUSH1 0x0 KECCAK256 ADD SWAP1 JUMP JUMPDEST PUSH2 0x1709 JUMP JUMPDEST SWAP2 PUSH2 0x1927 JUMP JUMPDEST POP DUP3 ISZERO ISZERO PUSH2 0x185D JUMP JUMPDEST PUSH1 0xB SLOAD SWAP1 PUSH1 0x1 PUSH1 0x40 SHL DUP3 LT ISZERO PUSH2 0x1301 JUMPI PUSH1 0x1 DUP3 ADD DUP1 PUSH1 0xB SSTORE DUP3 LT ISZERO PUSH2 0x16F3 JUMPI PUSH1 0xB PUSH1 0x0 MSTORE DUP1 MLOAD PUSH1 0x20 SWAP2 DUP3 ADD MLOAD SWAP1 SWAP2 SHL PUSH4 0xFFFFFFFF NOT AND PUSH4 0xFFFFFFFF SWAP2 SWAP1 SWAP2 AND OR PUSH32 0x175B7A638427703F0DBE7BB9BBF987A2551717B34E79F33B5B1008D1FA01DB9 SWAP1 SWAP2 ADD SSTORE JUMP JUMPDEST DUP1 SLOAD PUSH1 0x1 PUSH1 0x40 SHL DUP2 LT ISZERO PUSH2 0x1301 JUMPI PUSH2 0x1AE4 SWAP2 PUSH1 0x1 DUP3 ADD DUP2 SSTORE PUSH2 0x16DB JUMP JUMPDEST PUSH2 0x1B0B JUMPI DUP2 MLOAD PUSH1 0x20 SWAP3 DUP4 ADD MLOAD SWAP1 SWAP3 SHL PUSH4 0xFFFFFFFF NOT AND PUSH4 0xFFFFFFFF SWAP3 SWAP1 SWAP3 AND SWAP2 SWAP1 SWAP2 OR SWAP1 SSTORE JUMP JUMPDEST PUSH4 0x4E487B71 PUSH1 0xE0 SHL PUSH1 0x0 MSTORE PUSH1 0x0 PUSH1 0x4 MSTORE PUSH1 0x24 PUSH1 0x0 REVERT JUMPDEST PUSH1 0xB SLOAD SWAP1 SWAP2 DUP2 ISZERO SWAP2 DUP3 ISZERO PUSH2 0x1C1D JUMPI PUSH2 0x1B37 PUSH2 0x16CE JUMP JUMPDEST PUSH1 0x0 DUP2 MSTORE PUSH1 0x0 PUSH1 0x20 DUP3 ADD MSTORE JUMPDEST PUSH1 0x20 DUP2 ADD MLOAD PUSH2 0x1B65 SWAP1 PUSH2 0x1B5E SWAP1 PUSH1 0x1 PUSH1 0x1 PUSH1 0xE0 SHL SUB AND PUSH2 0x193A JUMP JUMPDEST SWAP6 DUP7 PUSH2 0x258F JUMP JUMPDEST SWAP4 ISZERO SWAP1 DUP2 PUSH2 0x1BFA JUMPI JUMPDEST POP ISZERO PUSH2 0x1BAF JUMPI PUSH2 0x14FD SWAP1 PUSH2 0x1982 PUSH2 0x1B84 DUP6 PUSH2 0x236B JUMP JUMPDEST PUSH1 0xB PUSH1 0x0 MSTORE SWAP2 PUSH32 0x175B7A638427703F0DBE7BB9BBF987A2551717B34E79F33B5B1008D1FA01DB8 ADD SWAP1 JUMP JUMPDEST POP PUSH2 0x14FD PUSH2 0x1BC2 PUSH2 0x19CE PUSH2 0x19C3 NUMBER PUSH2 0x23D4 JUMP JUMPDEST PUSH2 0x1BF5 PUSH2 0x1BCE DUP6 PUSH2 0x236B JUMP JUMPDEST PUSH2 0x1BE5 PUSH2 0x1BD9 PUSH2 0x16CE JUMP JUMPDEST PUSH4 0xFFFFFFFF SWAP1 SWAP5 AND DUP5 MSTORE JUMP JUMPDEST PUSH1 0x1 PUSH1 0x1 PUSH1 0xE0 SHL SUB AND PUSH1 0x20 DUP4 ADD MSTORE JUMP JUMPDEST PUSH2 0x1A60 JUMP JUMPDEST MLOAD PUSH4 0xFFFFFFFF AND SWAP1 POP PUSH4 0xFFFFFFFF PUSH2 0x1C14 PUSH2 0x19C3 NUMBER PUSH2 0x23D4 JUMP JUMPDEST SWAP2 AND EQ CODESIZE PUSH2 0x1B6E JUMP JUMPDEST PUSH1 0xB PUSH1 0x0 MSTORE PUSH2 0x1C4D PUSH32 0x175B7A638427703F0DBE7BB9BBF987A2551717B34E79F33B5B1008D1FA01DB8 DUP3 ADD PUSH2 0x1709 JUMP JUMPDEST PUSH2 0x1B43 JUMP JUMPDEST SWAP1 SWAP2 DUP2 SLOAD SWAP2 DUP3 ISZERO SWAP3 DUP4 PUSH1 0x0 EQ PUSH2 0x1CEE JUMPI PUSH2 0x1C6A PUSH2 0x16CE JUMP JUMPDEST PUSH1 0x0 DUP2 MSTORE PUSH1 0x0 PUSH1 0x20 DUP3 ADD MSTORE JUMPDEST PUSH1 0x20 DUP2 ADD MLOAD PUSH2 0x1C98 SWAP1 PUSH2 0x1C91 SWAP1 PUSH1 0x1 PUSH1 0x1 PUSH1 0xE0 SHL SUB AND PUSH2 0x193A JUMP JUMPDEST SWAP7 DUP8 PUSH2 0x258F JUMP JUMPDEST SWAP5 ISZERO SWAP1 DUP2 PUSH2 0x1CCB JUMPI JUMPDEST POP ISZERO PUSH2 0x1CB7 JUMPI PUSH2 0x1982 PUSH2 0x14FD SWAP3 PUSH2 0x1970 DUP7 PUSH2 0x236B JUMP JUMPDEST POP PUSH2 0x14FD SWAP1 PUSH2 0x19D3 PUSH2 0x19CE PUSH2 0x19C3 NUMBER PUSH2 0x23D4 JUMP JUMPDEST MLOAD PUSH4 0xFFFFFFFF AND SWAP1 POP PUSH4 0xFFFFFFFF PUSH2 0x1CE5 PUSH2 0x19C3 NUMBER PUSH2 0x23D4 JUMP JUMPDEST SWAP2 AND EQ CODESIZE PUSH2 0x1CA1 JUMP JUMPDEST PUSH2 0x1D06 PUSH2 0x1A4C PUSH1 0x0 NOT DUP4 ADD DUP5 PUSH1 0x0 MSTORE PUSH1 0x20 PUSH1 0x0 KECCAK256 ADD SWAP1 JUMP JUMPDEST PUSH2 0x1C76 JUMP JUMPDEST SWAP2 PUSH2 0x23D SWAP4 SWAP2 PUSH2 0x1D1A SWAP4 PUSH2 0x1E62 JUMP JUMPDEST SWAP2 SWAP1 SWAP2 PUSH2 0x1D42 JUMP JUMPDEST PUSH1 0x5 GT ISZERO PUSH2 0x1D2C JUMPI JUMP JUMPDEST PUSH4 0x4E487B71 PUSH1 0xE0 SHL PUSH1 0x0 MSTORE PUSH1 0x21 PUSH1 0x4 MSTORE PUSH1 0x24 PUSH1 0x0 REVERT JUMPDEST PUSH2 0x1D4B DUP2 PUSH2 0x1D22 JUMP JUMPDEST DUP1 PUSH2 0x1D53 JUMPI POP JUMP JUMPDEST PUSH2 0x1D5C DUP2 PUSH2 0x1D22 JUMP JUMPDEST PUSH1 0x1 DUP2 SUB PUSH2 0x1DA9 JUMPI PUSH1 0x40 MLOAD PUSH3 0x461BCD PUSH1 0xE5 SHL DUP2 MSTORE PUSH1 0x20 PUSH1 0x4 DUP3 ADD MSTORE PUSH1 0x18 PUSH1 0x24 DUP3 ADD MSTORE PUSH32 0x45434453413A20696E76616C6964207369676E61747572650000000000000000 PUSH1 0x44 DUP3 ADD MSTORE PUSH1 0x64 SWAP1 REVERT JUMPDEST PUSH2 0x1DB2 DUP2 PUSH2 0x1D22 JUMP JUMPDEST PUSH1 0x2 DUP2 SUB PUSH2 0x1DFF JUMPI PUSH1 0x40 MLOAD PUSH3 0x461BCD PUSH1 0xE5 SHL DUP2 MSTORE PUSH1 0x20 PUSH1 0x4 DUP3 ADD MSTORE PUSH1 0x1F PUSH1 0x24 DUP3 ADD MSTORE PUSH32 0x45434453413A20696E76616C6964207369676E6174757265206C656E67746800 PUSH1 0x44 DUP3 ADD MSTORE PUSH1 0x64 SWAP1 REVERT JUMPDEST DUP1 PUSH2 0x1E0B PUSH1 0x3 SWAP3 PUSH2 0x1D22 JUMP JUMPDEST EQ PUSH2 0x1E12 JUMPI JUMP JUMPDEST PUSH1 0x40 MLOAD PUSH3 0x461BCD PUSH1 0xE5 SHL DUP2 MSTORE PUSH1 0x20 PUSH1 0x4 DUP3 ADD MSTORE PUSH1 0x22 PUSH1 0x24 DUP3 ADD MSTORE PUSH32 0x45434453413A20696E76616C6964207369676E6174757265202773272076616C PUSH1 0x44 DUP3 ADD MSTORE PUSH2 0x7565 PUSH1 0xF0 SHL PUSH1 0x64 DUP3 ADD MSTORE PUSH1 0x84 SWAP1 REVERT JUMPDEST SWAP3 SWAP2 SWAP1 PUSH32 0x7FFFFFFFFFFFFFFFFFFFFFFFFFFFFFFF5D576E7357A4501DDFE92F46681B20A0 DUP4 GT PUSH2 0x1EE5 JUMPI SWAP2 PUSH1 0x80 SWAP5 SWAP4 SWAP2 PUSH1 0xFF PUSH1 0x20 SWAP5 PUSH1 0x40 MLOAD SWAP5 DUP6 MSTORE AND DUP5 DUP5 ADD MSTORE PUSH1 0x40 DUP4 ADD MSTORE PUSH1 0x60 DUP3 ADD MSTORE PUSH1 0x0 SWAP4 DUP5 SWAP2 DUP3 DUP1 MSTORE PUSH1 0x1 GAS STATICCALL ISZERO PUSH2 0x1ED8 JUMPI DUP2 MLOAD PUSH1 0x1 PUSH1 0x1 PUSH1 0xA0 SHL SUB DUP2 AND ISZERO PUSH2 0x1ED2 JUMPI SWAP2 SWAP1 JUMP JUMPDEST POP PUSH1 0x1 SWAP1 JUMP JUMPDEST POP PUSH1 0x40 MLOAD SWAP1 RETURNDATASIZE SWAP1 DUP3 RETURNDATACOPY RETURNDATASIZE SWAP1 REVERT JUMPDEST POP POP POP POP PUSH1 0x0 SWAP1 PUSH1 0x3 SWAP1 JUMP JUMPDEST ADDRESS PUSH32 0x0 PUSH1 0x1 PUSH1 0x1 PUSH1 0xA0 SHL SUB AND EQ DUP1 PUSH2 0x1FE2 JUMPI JUMPDEST ISZERO PUSH2 0x1F4C JUMPI PUSH32 0x0 SWAP1 JUMP JUMPDEST PUSH1 0x40 MLOAD PUSH1 0x20 DUP2 ADD SWAP1 PUSH32 0x8B73C3C69BB8FE3D512ECC4CF759CC79239F7B179B0FFACAA9A75D522B39400F DUP3 MSTORE PUSH32 0x0 PUSH1 0x40 DUP3 ADD MSTORE PUSH32 0x0 PUSH1 0x60 DUP3 ADD MSTORE CHAINID PUSH1 0x80 DUP3 ADD MSTORE ADDRESS PUSH1 0xA0 DUP3 ADD MSTORE PUSH1 0xA0 DUP2 MSTORE PUSH2 0x1FDC DUP2 PUSH2 0x1322 JUMP JUMPDEST MLOAD SWAP1 KECCAK256 SWAP1 JUMP JUMPDEST POP PUSH32 0x0 CHAINID EQ PUSH2 0x1F23 JUMP JUMPDEST PUSH1 0x42 SWAP1 PUSH2 0x2016 PUSH2 0x1EF1 JUMP JUMPDEST SWAP1 PUSH1 0x40 MLOAD SWAP2 PUSH2 0x1901 PUSH1 0xF0 SHL DUP4 MSTORE PUSH1 0x2 DUP4 ADD MSTORE PUSH1 0x22 DUP3 ADD MSTORE KECCAK256 SWAP1 JUMP JUMPDEST PUSH1 0xFF DUP2 EQ PUSH2 0x206F JUMPI PUSH1 0xFF DUP2 AND SWAP1 PUSH1 0x1F DUP3 GT PUSH2 0x205D JUMPI PUSH1 0x40 MLOAD SWAP2 PUSH2 0x2053 DUP4 PUSH2 0x12E5 JUMP JUMPDEST DUP3 MSTORE PUSH1 0x20 DUP3 ADD MSTORE SWAP1 JUMP JUMPDEST PUSH1 0x40 MLOAD PUSH4 0x2CD44AC3 PUSH1 0xE2 SHL DUP2 MSTORE PUSH1 0x4 SWAP1 REVERT JUMPDEST POP PUSH1 0x40 MLOAD PUSH1 0x5 SLOAD DUP2 PUSH1 0x0 PUSH2 0x2082 DUP4 PUSH2 0x1295 JUMP JUMPDEST DUP1 DUP4 MSTORE SWAP3 PUSH1 0x1 SWAP1 DUP2 DUP2 AND SWAP1 DUP2 ISZERO PUSH2 0x2108 JUMPI POP PUSH1 0x1 EQ PUSH2 0x20A9 JUMPI JUMPDEST POP PUSH2 0x23D SWAP3 POP SUB DUP3 PUSH2 0x133E JUMP JUMPDEST PUSH1 0x5 PUSH1 0x0 SWAP1 DUP2 MSTORE SWAP2 POP PUSH32 0x36B6384B5ECA791C62761152D0C79BB0604C104A5FB6F4EB0703F3154BB3DB0 JUMPDEST DUP5 DUP4 LT PUSH2 0x20ED JUMPI POP PUSH2 0x23D SWAP4 POP POP DUP2 ADD PUSH1 0x20 ADD CODESIZE PUSH2 0x209C JUMP JUMPDEST DUP2 SWAP4 POP SWAP1 DUP2 PUSH1 0x20 SWAP3 SLOAD DUP4 DUP6 DUP10 ADD ADD MSTORE ADD SWAP2 ADD SWAP1 SWAP2 DUP5 SWAP3 PUSH2 0x20D4 JUMP JUMPDEST SWAP1 POP PUSH1 0x20 SWAP3 POP PUSH2 0x23D SWAP5 SWAP2 POP PUSH1 0xFF NOT AND DUP3 DUP5 ADD MSTORE ISZERO ISZERO PUSH1 0x5 SHL DUP3 ADD ADD CODESIZE PUSH2 0x209C JUMP JUMPDEST PUSH1 0xFF DUP2 EQ PUSH2 0x214C JUMPI PUSH1 0xFF DUP2 AND SWAP1 PUSH1 0x1F DUP3 GT PUSH2 0x205D JUMPI PUSH1 0x40 MLOAD SWAP2 PUSH2 0x2053 DUP4 PUSH2 0x12E5 JUMP JUMPDEST POP PUSH1 0x40 MLOAD PUSH1 0x6 SLOAD DUP2 PUSH1 0x0 PUSH2 0x215F DUP4 PUSH2 0x1295 JUMP JUMPDEST DUP1 DUP4 MSTORE SWAP3 PUSH1 0x1 SWAP1 DUP2 DUP2 AND SWAP1 DUP2 ISZERO PUSH2 0x2108 JUMPI POP PUSH1 0x1 EQ PUSH2 0x2185 JUMPI POP PUSH2 0x23D SWAP3 POP SUB DUP3 PUSH2 0x133E JUMP JUMPDEST PUSH1 0x6 PUSH1 0x0 SWAP1 DUP2 MSTORE SWAP2 POP PUSH32 0xF652222313E28459528D920B65115C16C04F3EFC82AAEDC97BE59F3F377C0D3F JUMPDEST DUP5 DUP4 LT PUSH2 0x21C9 JUMPI POP PUSH2 0x23D SWAP4 POP POP DUP2 ADD PUSH1 0x20 ADD CODESIZE PUSH2 0x209C JUMP JUMPDEST DUP2 SWAP4 POP SWAP1 DUP2 PUSH1 0x20 SWAP3 SLOAD DUP4 DUP6 DUP10 ADD ADD MSTORE ADD SWAP2 ADD SWAP1 SWAP2 DUP5 SWAP3 PUSH2 0x21B0 JUMP JUMPDEST DUP2 ISZERO PUSH2 0x21EE JUMPI DIV SWAP1 JUMP JUMPDEST PUSH4 0x4E487B71 PUSH1 0xE0 SHL PUSH1 0x0 MSTORE PUSH1 0x12 PUSH1 0x4 MSTORE PUSH1 0x24 PUSH1 0x0 REVERT JUMPDEST SWAP1 DUP1 DUP3 AND SWAP2 XOR PUSH1 0x1 SHR DUP2 ADD DUP1 SWAP2 GT PUSH2 0x502 JUMPI SWAP1 JUMP JUMPDEST DUP1 ISZERO PUSH2 0x2353 JUMPI DUP1 PUSH2 0x22EC PUSH2 0x22E5 PUSH2 0x22DB PUSH2 0x22D1 PUSH2 0x22C7 PUSH2 0x22BD PUSH2 0x22B3 PUSH2 0x22A9 PUSH1 0x1 PUSH2 0x23D SWAP11 PUSH1 0x0 SWAP1 DUP12 PUSH1 0x80 SHR DUP1 PUSH2 0x2347 JUMPI JUMPDEST POP DUP1 PUSH1 0x40 SHR DUP1 PUSH2 0x233A JUMPI JUMPDEST POP DUP1 PUSH1 0x20 SHR DUP1 PUSH2 0x232D JUMPI JUMPDEST POP DUP1 PUSH1 0x10 SHR DUP1 PUSH2 0x2320 JUMPI JUMPDEST POP DUP1 PUSH1 0x8 SHR DUP1 PUSH2 0x2313 JUMPI JUMPDEST POP DUP1 PUSH1 0x4 SHR DUP1 PUSH2 0x2306 JUMPI JUMPDEST POP DUP1 PUSH1 0x2 SHR DUP1 PUSH2 0x22F9 JUMPI JUMPDEST POP DUP3 SHR PUSH2 0x22F2 JUMPI JUMPDEST DUP2 SHR SHL PUSH2 0x22A2 DUP2 DUP12 PUSH2 0x21E4 JUMP JUMPDEST ADD PUSH1 0x1 SHR SWAP1 JUMP JUMPDEST PUSH2 0x22A2 DUP2 DUP11 PUSH2 0x21E4 JUMP JUMPDEST PUSH2 0x22A2 DUP2 DUP10 PUSH2 0x21E4 JUMP JUMPDEST PUSH2 0x22A2 DUP2 DUP9 PUSH2 0x21E4 JUMP JUMPDEST PUSH2 0x22A2 DUP2 DUP8 PUSH2 0x21E4 JUMP JUMPDEST PUSH2 0x22A2 DUP2 DUP7 PUSH2 0x21E4 JUMP JUMPDEST PUSH2 0x22A2 DUP2 DUP6 PUSH2 0x21E4 JUMP JUMPDEST DUP1 SWAP3 PUSH2 0x21E4 JUMP JUMPDEST SWAP1 PUSH2 0x2359 JUMP JUMPDEST DUP2 ADD PUSH2 0x2295 JUMP JUMPDEST PUSH1 0x2 SWAP2 POP SWAP2 ADD SWAP1 CODESIZE PUSH2 0x228D JUMP JUMPDEST PUSH1 0x4 SWAP2 POP SWAP2 ADD SWAP1 CODESIZE PUSH2 0x2282 JUMP JUMPDEST PUSH1 0x8 SWAP2 POP SWAP2 ADD SWAP1 CODESIZE PUSH2 0x2277 JUMP JUMPDEST PUSH1 0x10 SWAP2 POP SWAP2 ADD SWAP1 CODESIZE PUSH2 0x226C JUMP JUMPDEST PUSH1 0x20 SWAP2 POP SWAP2 ADD SWAP1 CODESIZE PUSH2 0x2261 JUMP JUMPDEST PUSH1 0x40 SWAP2 POP SWAP2 ADD SWAP1 CODESIZE PUSH2 0x2256 JUMP JUMPDEST SWAP2 POP POP PUSH1 0x80 SWAP1 CODESIZE PUSH2 0x224B JUMP JUMPDEST POP PUSH1 0x0 SWAP1 JUMP JUMPDEST SWAP1 DUP1 DUP3 LT ISZERO PUSH2 0x2366 JUMPI POP SWAP1 JUMP JUMPDEST SWAP1 POP SWAP1 JUMP JUMPDEST PUSH1 0x1 PUSH1 0x1 PUSH1 0xE0 SHL SUB SWAP1 DUP2 DUP2 GT PUSH2 0x237F JUMPI AND SWAP1 JUMP JUMPDEST PUSH1 0x40 MLOAD PUSH3 0x461BCD PUSH1 0xE5 SHL DUP2 MSTORE PUSH1 0x20 PUSH1 0x4 DUP3 ADD MSTORE PUSH1 0x27 PUSH1 0x24 DUP3 ADD MSTORE PUSH32 0x53616665436173743A2076616C756520646F65736E27742066697420696E2032 PUSH1 0x44 DUP3 ADD MSTORE PUSH7 0x32342062697473 PUSH1 0xC8 SHL PUSH1 0x64 DUP3 ADD MSTORE PUSH1 0x84 SWAP1 REVERT JUMPDEST PUSH6 0xFFFFFFFFFFFF SWAP1 DUP2 DUP2 GT PUSH2 0x23E7 JUMPI AND SWAP1 JUMP JUMPDEST PUSH1 0x40 MLOAD PUSH3 0x461BCD PUSH1 0xE5 SHL DUP2 MSTORE PUSH1 0x20 PUSH1 0x4 DUP3 ADD MSTORE PUSH1 0x26 PUSH1 0x24 DUP3 ADD MSTORE PUSH32 0x53616665436173743A2076616C756520646F65736E27742066697420696E2034 PUSH1 0x44 DUP3 ADD MSTORE PUSH6 0x382062697473 PUSH1 0xD0 SHL PUSH1 0x64 DUP3 ADD MSTORE PUSH1 0x84 SWAP1 REVERT JUMPDEST PUSH4 0xFFFFFFFF SWAP1 DUP2 DUP2 GT PUSH2 0x244C JUMPI AND SWAP1 JUMP JUMPDEST PUSH1 0x40 MLOAD PUSH3 0x461BCD PUSH1 0xE5 SHL DUP2 MSTORE PUSH1 0x20 PUSH1 0x4 DUP3 ADD MSTORE PUSH1 0x26 PUSH1 0x24 DUP3 ADD MSTORE PUSH32 0x53616665436173743A2076616C756520646F65736E27742066697420696E2033 PUSH1 0x44 DUP3 ADD MSTORE PUSH6 0x322062697473 PUSH1 0xD0 SHL PUSH1 0x64 DUP3 ADD MSTORE PUSH1 0x84 SWAP1 REVERT JUMPDEST PUSH1 0x9 PUSH1 0x20 MSTORE PUSH32 0xEC8156718A8372B1DB44BB411437D0870F3E3790D4A08526D024CE1B0B668F6B SLOAD PUSH1 0x1 PUSH1 0x1 PUSH1 0xA0 SHL SUB SWAP2 DUP3 AND PUSH1 0x0 SWAP1 DUP2 MSTORE PUSH1 0x40 SWAP1 KECCAK256 SLOAD PUSH2 0x14FD SWAP4 SWAP3 SWAP1 DUP2 AND SWAP2 AND PUSH2 0x1844 JUMP JUMPDEST PUSH1 0x1 PUSH1 0x1 PUSH1 0xA0 SHL SUB SWAP1 DUP2 AND PUSH1 0x0 SWAP1 DUP2 MSTORE PUSH1 0x9 PUSH1 0x20 MSTORE PUSH1 0x40 DUP1 DUP3 KECCAK256 SLOAD SWAP4 DUP4 AND DUP3 MSTORE SWAP1 KECCAK256 SLOAD PUSH2 0x14FD SWAP4 SWAP3 SWAP1 DUP3 AND SWAP2 AND PUSH2 0x1844 JUMP JUMPDEST ISZERO PUSH2 0x2524 JUMPI JUMP JUMPDEST PUSH1 0x40 MLOAD PUSH3 0x461BCD PUSH1 0xE5 SHL DUP2 MSTORE PUSH1 0x20 PUSH1 0x4 DUP3 ADD MSTORE PUSH1 0x30 PUSH1 0x24 DUP3 ADD MSTORE PUSH32 0x4552433230566F7465733A20746F74616C20737570706C79207269736B73206F PUSH1 0x44 DUP3 ADD MSTORE PUSH16 0x766572666C6F77696E6720766F746573 PUSH1 0x80 SHL PUSH1 0x64 DUP3 ADD MSTORE PUSH1 0x84 SWAP1 REVERT JUMPDEST SWAP1 DUP2 SUB SWAP1 DUP2 GT PUSH2 0x502 JUMPI SWAP1 JUMP JUMPDEST SWAP1 DUP2 ADD DUP1 SWAP2 GT PUSH2 0x502 JUMPI SWAP1 JUMP INVALID LOG2 PUSH5 0x6970667358 0x22 SLT KECCAK256 CALL SGT 0xC3 0xB8 0xAF 0xDF 0xBF 0x4B TIMESTAMP PUSH0 0xA9 STATICCALL CALLDATASIZE CALLDATASIZE SWAP1 0xC7 0xC9 0xD8 PUSH22 0xE9D5264C949518843C29112C8664736F6C6343000814 STOP CALLER 0xDE 0xC2 0xBA 0xCD 0xD2 CREATE JUMPDEST MSIZE 0xDE CALLVALUE 0xDA SWAP12 MSTORE RETURNDATASIZE SELFDESTRUCT DUP12 0xE4 0x2E 0x5E CODESIZE 0xE8 XOR 0xC8 0x2F 0xDB SIGNEXTEND 0xAE PUSH24 0x4387A7240000000000000000000000000000000000000000 "},"methodIdentifiers":{"CLOCK_MODE()":"4bf5d7e9","DOMAIN_SEPARATOR()":"3644e515","allowance(address,address)":"dd62ed3e","approve(address,uint256)":"095ea7b3","balanceOf(address)":"70a08231","checkpoints(address,uint32)":"f1127ed8","clock()":"91ddadf4","decimals()":"313ce567","decreaseAllowance(address,uint256)":"a457c2d7","delegate(address)":"5c19a95c","delegateBySig(address,uint256,uint256,uint8,bytes32,bytes32)":"c3cda520","delegates(address)":"587cde1e","eip712Domain()":"84b0196e","getPastTotalSupply(uint256)":"8e539e8c","getPastVotes(address,uint256)":"3a46b1a8","getVotes(address)":"9ab24eb0","increaseAllowance(address,uint256)":"39509351","mint(address,uint256)":"40c10f19","name()":"06fdde03","nonces(address)":"7ecebe00","numCheckpoints(address)":"6fcfff45","owner()":"8da5cb5b","permit(address,address,uint256,uint256,uint8,bytes32,bytes32)":"d505accf","renounceOwnership()":"715018a6","symbol()":"95d89b41","totalSupply()":"18160ddd","transfer(address,uint256)":"a9059cbb","transferFrom(address,address,uint256)":"23b872dd","transferOwnership(address)":"f2fde38b"}}}}}