{"contracts/core/MitigationVerifier.sol":{"MitigationVerifier":{"abi":[{"inputs":[],"stateMutability":"nonpayable","type":"constructor"},{"anonymous":false,"inputs":[{"indexed":false,"internalType":"string","name":"mitigationType","type":"string"},{"indexed":false,"internalType":"uint256","name":"discountPercent","type":"uint256"}],"name":"DiscountUpdated","type":"event"},{"anonymous":false,"inputs":[{"indexed":true,"internalType":"uint256","name":"policyId","type":"uint256"},{"indexed":false,"internalType":"string","name":"mitigationType","type":"string"}],"name":"MitigationVerified","type":"event"},{"anonymous":false,"inputs":[{"indexed":true,"internalType":"address","name":"previousOwner","type":"address"},{"indexed":true,"internalType":"address","name":"newOwner","type":"address"}],"name":"OwnershipTransferred","type":"event"},{"inputs":[{"internalType":"uint256","name":"policyId","type":"uint256"}],"name":"calculateDiscount","outputs":[{"internalType":"uint256","name":"","type":"uint256"}],"stateMutability":"view","type":"function"},{"inputs":[{"internalType":"uint256","name":"policyId","type":"uint256"}],"name":"getPolicyMitigations","outputs":[{"internalType":"string[]","name":"","type":"string[]"}],"stateMutability":"view","type":"function"},{"inputs":[{"internalType":"string","name":"","type":"string"}],"name":"mitigationDiscounts","outputs":[{"internalType":"uint256","name":"","type":"uint256"}],"stateMutability":"view","type":"function"},{"inputs":[],"name":"owner","outputs":[{"internalType":"address","name":"","type":"address"}],"stateMutability":"view","type":"function"},{"inputs":[],"name":"renounceOwnership","outputs":[],"stateMutability":"nonpayable","type":"function"},{"inputs":[{"internalType":"string","name":"mitigationType","type":"string"},{"internalType":"uint256","name":"discountPercent","type":"uint256"}],"name":"setMitigationDiscount","outputs":[],"stateMutability":"nonpayable","type":"function"},{"inputs":[{"internalType":"address","name":"newOwner","type":"address"}],"name":"transferOwnership","outputs":[],"stateMutability":"nonpayable","type":"function"},{"inputs":[{"internalType":"uint256","name":"policyId","type":"uint256"},{"internalType":"string","name":"mitigationType","type":"string"}],"name":"verifyMitigation","outputs":[],"stateMutability":"nonpayable","type":"function"}],"evm":{"bytecode":{"linkReferences":{},"object":"608080604052346100c25760008054336001600160a01b03198216811783556105dc93602f9390926001600160a01b0316907f8be0079c531659141344cd1fd0a4f28419497f9722a3daafe3b4186f6b6457e09080a36e323934b82fb4b93934b3b0ba34b7b760891b81526002600f82015220556103e8602a60405169736f696c5f62756e647360b01b81526002600a82015220556101f46028604051676d756c6368696e6760c01b8152600260088201522055604051610a4290816100c88239f35b600080fdfe60406080815260048036101561001457600080fd5b600091823560e01c80634a002523146106c157806362e3e06d1461060f578063715018a6146105b5578063749e654e146104d05780638da5cb5b146104a4578063d694b7ae14610314578063f2fde38b1461024b5763fad5cee71461007857600080fd5b346102475760209283600319360112610244578235815260019081855282812093845467ffffffffffffffff8111610231579491908451956005936100c18983871b01896108fe565b818852835287832083908989015b8383106101835750505050908391819682955b610107575b5050505050506113888083116100ff575b5051908152f35b9150386100f8565b909192939594979681518910156101795761013688808b8a1b8501015181895193828580945193849201610936565b810160028152030190205481018091116101665795600019891461016657848096979899019593929190946100e2565b634e487b7160e01b845260118352602484fd5b96978596506100e7565b878b8a9b9697989b519289938d865461019b816109d2565b808452918187169182156102135750506001146101d4575b506101c181859603826108fe565b81520192019201919098959493986100cf565b868c52838c208c96505b8187106101f55750509384018201936101c16101b3565b8096949295919396548386880101520192019390928b938f936101de565b60ff19168685015291151590911b8201840195506101c190506101b3565b634e487b7160e01b835260418252602483fd5b80fd5b8280fd5b5034610247576020366003190112610247576001600160a01b038235818116939192908490036103105761027d610959565b83156102be57505082546001600160a01b0319811683178455167f8be0079c531659141344cd1fd0a4f28419497f9722a3daafe3b4186f6b6457e08380a380f35b906020608492519162461bcd60e51b8352820152602660248201527f4f776e61626c653a206e6577206f776e657220697320746865207a65726f206160448201526564647265737360d01b6064820152fd5b8480fd5b509034610247576020928360031936011261024457813581526001938481528382209283549067ffffffffffffffff82116104915750908495939551916005906103628382841b01856108fe565b8084528284018098865283862086915b8383106103e95750505050855195828701938388525180945283818801921b8701019693905b8382106103a55786880387f35b9091929394838080839a603f198b820301865289516103cf81518092818552858086019101610936565b601f01601f19160101999701959493919091019101610398565b88868b9c9a9c9996979899519287938554610403816109d2565b80835290858116908115610476575060011461043e575b5061042881859603826108fe565b8152019201920191909997999695949396610372565b868a52838a208a96505b81871061045f57505093840182019361042861041a565b805483880186015293909501948f948c9401610448565b60ff1916858401525015158a1b81018301945061042861041a565b634e487b7160e01b845260419052602483fd5b8382346104cc57816003193601126104cc57905490516001600160a01b039091168152602090f35b5080fd5b508290346104cc57806003193601126104cc57823567ffffffffffffffff81116102475761050190369085016108cb565b91909360243590610510610959565b612710821161057257506105667fff36434c60a57603c4973c4617cbcd719612bc0e08e478de6c12eef2b087533394958284518683823760208188810160028152030190205583519484869586528501916109b1565b9060208301520390a180f35b606490602084519162461bcd60e51b8352820152601b60248201527f446973636f756e742063616e6e6f7420657863656564203130302500000000006044820152fd5b83346102445780600319360112610244576105ce610959565b80546001600160a01b03198116825581906001600160a01b03167f8be0079c531659141344cd1fd0a4f28419497f9722a3daafe3b4186f6b6457e08280a380f35b50823461024457602092836003193601126104cc5780359167ffffffffffffffff918284116104cc57366023850112156104cc57838101359283116106ae5750835191610665601f8201601f19168701846108fe565b80835285830193366024838301011161024757918682819593602461069c9896018637830101528451938492839251928391610936565b81016002815203019020549051908152f35b634e487b7160e01b825260419052602490fd5b503461024757806003193601126102475781359167ffffffffffffffff6024358181116108c7576106f590369084016108cb565b939091610700610959565b8587526001602094818652838920805490680100000000000000008210156108b4578382018082558210156108a1578a52868a200192871161088e575061074782546109d2565b601f8111610848575b5087601f87116001146107c2579186806107b195937f3cd6065284b5742025092d6959f2050b77c2cfa94df597792213bc87c355d70b999897958c936107b7575b501b906000198860031b1c19161790555b519383859485528401916109b1565b0390a280f35b860135925038610791565b82895285892090601f1988168a5b8181106108335750916107b1959391897f3cd6065284b5742025092d6959f2050b77c2cfa94df597792213bc87c355d70b9a9998969410610819575b505086811b0190556107a2565b85013560001960038a901b60f8161c19169055388061080c565b878301358455928401929188019188016107d0565b828952858920601f880160051c810191878910610884575b601f0160051c019082905b828110610879575050610750565b8a815501829061086b565b9091508190610860565b634e487b7160e01b895260419052602488fd5b634e487b7160e01b8b526032835260248bfd5b634e487b7160e01b8b526041835260248bfd5b8580fd5b9181601f840112156108f95782359167ffffffffffffffff83116108f957602083818601950101116108f957565b600080fd5b90601f8019910116810190811067ffffffffffffffff82111761092057604052565b634e487b7160e01b600052604160045260246000fd5b60005b8381106109495750506000910152565b8181015183820152602001610939565b6000546001600160a01b0316330361096d57565b606460405162461bcd60e51b815260206004820152602060248201527f4f776e61626c653a2063616c6c6572206973206e6f7420746865206f776e65726044820152fd5b908060209392818452848401376000828201840152601f01601f1916010190565b90600182811c92168015610a02575b60208310146109ec57565b634e487b7160e01b600052602260045260246000fd5b91607f16916109e156fea2646970667358221220b08cf58fc81830dbe9994cfc2013e18884252a63a1846865487d6cecd0d719dd64736f6c63430008140033","opcodes":"PUSH1 0x80 DUP1 PUSH1 0x40 MSTORE CALLVALUE PUSH2 0xC2 JUMPI PUSH1 0x0 DUP1 SLOAD CALLER PUSH1 0x1 PUSH1 0x1 PUSH1 0xA0 SHL SUB NOT DUP3 AND DUP2 OR DUP4 SSTORE PUSH2 0x5DC SWAP4 PUSH1 0x2F SWAP4 SWAP1 SWAP3 PUSH1 0x1 PUSH1 0x1 PUSH1 0xA0 SHL SUB AND SWAP1 PUSH32 0x8BE0079C531659141344CD1FD0A4F28419497F9722A3DAAFE3B4186F6B6457E0 SWAP1 DUP1 LOG3 PUSH15 0x323934B82FB4B93934B3B0BA34B7B7 PUSH1 0x89 SHL DUP2 MSTORE PUSH1 0x2 PUSH1 0xF DUP3 ADD MSTORE KECCAK256 SSTORE PUSH2 0x3E8 PUSH1 0x2A PUSH1 0x40 MLOAD PUSH10 0x736F696C5F62756E6473 PUSH1 0xB0 SHL DUP2 MSTORE PUSH1 0x2 PUSH1 0xA DUP3 ADD MSTORE KECCAK256 SSTORE PUSH2 0x1F4 PUSH1 0x28 PUSH1 0x40 MLOAD PUSH8 0x6D756C6368696E67 PUSH1 0xC0 SHL DUP2 MSTORE PUSH1 0x2 PUSH1 0x8 DUP3 ADD MSTORE KECCAK256 SSTORE PUSH1 0x40 MLOAD PUSH2 0xA42 SWAP1 DUP2 PUSH2 0xC8 DUP3 CODECOPY RETURN JUMPDEST PUSH1 0x0 DUP1 REVERT INVALID PUSH1 0x40 PUSH1 0x80 DUP2 MSTORE PUSH1 0x4 DUP1 CALLDATASIZE LT ISZERO PUSH2 0x14 JUMPI PUSH1 0x0 DUP1 REVERT JUMPDEST PUSH1 0x0 SWAP2 DUP3 CALLDATALOAD PUSH1 0xE0 SHR DUP1 PUSH4 0x4A002523 EQ PUSH2 0x6C1 JUMPI DUP1 PUSH4 0x62E3E06D EQ PUSH2 0x60F JUMPI DUP1 PUSH4 0x715018A6 EQ PUSH2 0x5B5 JUMPI DUP1 PUSH4 0x749E654E EQ PUSH2 0x4D0 JUMPI DUP1 PUSH4 0x8DA5CB5B EQ PUSH2 0x4A4 JUMPI DUP1 PUSH4 0xD694B7AE EQ PUSH2 0x314 JUMPI DUP1 PUSH4 0xF2FDE38B EQ PUSH2 0x24B JUMPI PUSH4 0xFAD5CEE7 EQ PUSH2 0x78 JUMPI PUSH1 0x0 DUP1 REVERT JUMPDEST CALLVALUE PUSH2 0x247 JUMPI PUSH1 0x20 SWAP3 DUP4 PUSH1 0x3 NOT CALLDATASIZE ADD SLT PUSH2 0x244 JUMPI DUP3 CALLDATALOAD DUP2 MSTORE PUSH1 0x1 SWAP1 DUP2 DUP6 MSTORE DUP3 DUP2 KECCAK256 SWAP4 DUP5 SLOAD PUSH8 0xFFFFFFFFFFFFFFFF DUP2 GT PUSH2 0x231 JUMPI SWAP5 SWAP2 SWAP1 DUP5 MLOAD SWAP6 PUSH1 0x5 SWAP4 PUSH2 0xC1 DUP10 DUP4 DUP8 SHL ADD DUP10 PUSH2 0x8FE JUMP JUMPDEST DUP2 DUP9 MSTORE DUP4 MSTORE DUP8 DUP4 KECCAK256 DUP4 SWAP1 DUP10 DUP10 ADD JUMPDEST DUP4 DUP4 LT PUSH2 0x183 JUMPI POP POP POP POP SWAP1 DUP4 SWAP2 DUP2 SWAP7 DUP3 SWAP6 JUMPDEST PUSH2 0x107 JUMPI JUMPDEST POP POP POP POP POP POP PUSH2 0x1388 DUP1 DUP4 GT PUSH2 0xFF JUMPI JUMPDEST POP MLOAD SWAP1 DUP2 MSTORE RETURN JUMPDEST SWAP2 POP CODESIZE PUSH2 0xF8 JUMP JUMPDEST SWAP1 SWAP2 SWAP3 SWAP4 SWAP6 SWAP5 SWAP8 SWAP7 DUP2 MLOAD DUP10 LT ISZERO PUSH2 0x179 JUMPI PUSH2 0x136 DUP9 DUP1 DUP12 DUP11 SHL DUP6 ADD ADD MLOAD DUP2 DUP10 MLOAD SWAP4 DUP3 DUP6 DUP1 SWAP5 MLOAD SWAP4 DUP5 SWAP3 ADD PUSH2 0x936 JUMP JUMPDEST DUP2 ADD PUSH1 0x2 DUP2 MSTORE SUB ADD SWAP1 KECCAK256 SLOAD DUP2 ADD DUP1 SWAP2 GT PUSH2 0x166 JUMPI SWAP6 PUSH1 0x0 NOT DUP10 EQ PUSH2 0x166 JUMPI DUP5 DUP1 SWAP7 SWAP8 SWAP9 SWAP10 ADD SWAP6 SWAP4 SWAP3 SWAP2 SWAP1 SWAP5 PUSH2 0xE2 JUMP JUMPDEST PUSH4 0x4E487B71 PUSH1 0xE0 SHL DUP5 MSTORE PUSH1 0x11 DUP4 MSTORE PUSH1 0x24 DUP5 REVERT JUMPDEST SWAP7 SWAP8 DUP6 SWAP7 POP PUSH2 0xE7 JUMP JUMPDEST DUP8 DUP12 DUP11 SWAP12 SWAP7 SWAP8 SWAP9 SWAP12 MLOAD SWAP3 DUP10 SWAP4 DUP14 DUP7 SLOAD PUSH2 0x19B DUP2 PUSH2 0x9D2 JUMP JUMPDEST DUP1 DUP5 MSTORE SWAP2 DUP2 DUP8 AND SWAP2 DUP3 ISZERO PUSH2 0x213 JUMPI POP POP PUSH1 0x1 EQ PUSH2 0x1D4 JUMPI JUMPDEST POP PUSH2 0x1C1 DUP2 DUP6 SWAP7 SUB DUP3 PUSH2 0x8FE JUMP JUMPDEST DUP2 MSTORE ADD SWAP3 ADD SWAP3 ADD SWAP2 SWAP1 SWAP9 SWAP6 SWAP5 SWAP4 SWAP9 PUSH2 0xCF JUMP JUMPDEST DUP7 DUP13 MSTORE DUP4 DUP13 KECCAK256 DUP13 SWAP7 POP JUMPDEST DUP2 DUP8 LT PUSH2 0x1F5 JUMPI POP POP SWAP4 DUP5 ADD DUP3 ADD SWAP4 PUSH2 0x1C1 PUSH2 0x1B3 JUMP JUMPDEST DUP1 SWAP7 SWAP5 SWAP3 SWAP6 SWAP2 SWAP4 SWAP7 SLOAD DUP4 DUP7 DUP9 ADD ADD MSTORE ADD SWAP3 ADD SWAP4 SWAP1 SWAP3 DUP12 SWAP4 DUP16 SWAP4 PUSH2 0x1DE JUMP JUMPDEST PUSH1 0xFF NOT AND DUP7 DUP6 ADD MSTORE SWAP2 ISZERO ISZERO SWAP1 SWAP2 SHL DUP3 ADD DUP5 ADD SWAP6 POP PUSH2 0x1C1 SWAP1 POP PUSH2 0x1B3 JUMP JUMPDEST PUSH4 0x4E487B71 PUSH1 0xE0 SHL DUP4 MSTORE PUSH1 0x41 DUP3 MSTORE PUSH1 0x24 DUP4 REVERT JUMPDEST DUP1 REVERT JUMPDEST DUP3 DUP1 REVERT JUMPDEST POP CALLVALUE PUSH2 0x247 JUMPI PUSH1 0x20 CALLDATASIZE PUSH1 0x3 NOT ADD SLT PUSH2 0x247 JUMPI PUSH1 0x1 PUSH1 0x1 PUSH1 0xA0 SHL SUB DUP3 CALLDATALOAD DUP2 DUP2 AND SWAP4 SWAP2 SWAP3 SWAP1 DUP5 SWAP1 SUB PUSH2 0x310 JUMPI PUSH2 0x27D PUSH2 0x959 JUMP JUMPDEST DUP4 ISZERO PUSH2 0x2BE JUMPI POP POP DUP3 SLOAD PUSH1 0x1 PUSH1 0x1 PUSH1 0xA0 SHL SUB NOT DUP2 AND DUP4 OR DUP5 SSTORE AND PUSH32 0x8BE0079C531659141344CD1FD0A4F28419497F9722A3DAAFE3B4186F6B6457E0 DUP4 DUP1 LOG3 DUP1 RETURN JUMPDEST SWAP1 PUSH1 0x20 PUSH1 0x84 SWAP3 MLOAD SWAP2 PUSH3 0x461BCD PUSH1 0xE5 SHL DUP4 MSTORE DUP3 ADD MSTORE PUSH1 0x26 PUSH1 0x24 DUP3 ADD MSTORE PUSH32 0x4F776E61626C653A206E6577206F776E657220697320746865207A65726F2061 PUSH1 0x44 DUP3 ADD MSTORE PUSH6 0x646472657373 PUSH1 0xD0 SHL PUSH1 0x64 DUP3 ADD MSTORE REVERT JUMPDEST DUP5 DUP1 REVERT JUMPDEST POP SWAP1 CALLVALUE PUSH2 0x247 JUMPI PUSH1 0x20 SWAP3 DUP4 PUSH1 0x3 NOT CALLDATASIZE ADD SLT PUSH2 0x244 JUMPI DUP2 CALLDATALOAD DUP2 MSTORE PUSH1 0x1 SWAP4 DUP5 DUP2 MSTORE DUP4 DUP3 KECCAK256 SWAP3 DUP4 SLOAD SWAP1 PUSH8 0xFFFFFFFFFFFFFFFF DUP3 GT PUSH2 0x491 JUMPI POP SWAP1 DUP5 SWAP6 SWAP4 SWAP6 MLOAD SWAP2 PUSH1 0x5 SWAP1 PUSH2 0x362 DUP4 DUP3 DUP5 SHL ADD DUP6 PUSH2 0x8FE JUMP JUMPDEST DUP1 DUP5 MSTORE DUP3 DUP5 ADD DUP1 SWAP9 DUP7 MSTORE DUP4 DUP7 KECCAK256 DUP7 SWAP2 JUMPDEST DUP4 DUP4 LT PUSH2 0x3E9 JUMPI POP POP POP POP DUP6 MLOAD SWAP6 DUP3 DUP8 ADD SWAP4 DUP4 DUP9 MSTORE MLOAD DUP1 SWAP5 MSTORE DUP4 DUP2 DUP9 ADD SWAP3 SHL DUP8 ADD ADD SWAP7 SWAP4 SWAP1 JUMPDEST DUP4 DUP3 LT PUSH2 0x3A5 JUMPI DUP7 DUP9 SUB DUP8 RETURN JUMPDEST SWAP1 SWAP2 SWAP3 SWAP4 SWAP5 DUP4 DUP1 DUP1 DUP4 SWAP11 PUSH1 0x3F NOT DUP12 DUP3 SUB ADD DUP7 MSTORE DUP10 MLOAD PUSH2 0x3CF DUP2 MLOAD DUP1 SWAP3 DUP2 DUP6 MSTORE DUP6 DUP1 DUP7 ADD SWAP2 ADD PUSH2 0x936 JUMP JUMPDEST PUSH1 0x1F ADD PUSH1 0x1F NOT AND ADD ADD SWAP10 SWAP8 ADD SWAP6 SWAP5 SWAP4 SWAP2 SWAP1 SWAP2 ADD SWAP2 ADD PUSH2 0x398 JUMP JUMPDEST DUP9 DUP7 DUP12 SWAP13 SWAP11 SWAP13 SWAP10 SWAP7 SWAP8 SWAP9 SWAP10 MLOAD SWAP3 DUP8 SWAP4 DUP6 SLOAD PUSH2 0x403 DUP2 PUSH2 0x9D2 JUMP JUMPDEST DUP1 DUP4 MSTORE SWAP1 DUP6 DUP2 AND SWAP1 DUP2 ISZERO PUSH2 0x476 JUMPI POP PUSH1 0x1 EQ PUSH2 0x43E JUMPI JUMPDEST POP PUSH2 0x428 DUP2 DUP6 SWAP7 SUB DUP3 PUSH2 0x8FE JUMP JUMPDEST DUP2 MSTORE ADD SWAP3 ADD SWAP3 ADD SWAP2 SWAP1 SWAP10 SWAP8 SWAP10 SWAP7 SWAP6 SWAP5 SWAP4 SWAP7 PUSH2 0x372 JUMP JUMPDEST DUP7 DUP11 MSTORE DUP4 DUP11 KECCAK256 DUP11 SWAP7 POP JUMPDEST DUP2 DUP8 LT PUSH2 0x45F JUMPI POP POP SWAP4 DUP5 ADD DUP3 ADD SWAP4 PUSH2 0x428 PUSH2 0x41A JUMP JUMPDEST DUP1 SLOAD DUP4 DUP9 ADD DUP7 ADD MSTORE SWAP4 SWAP1 SWAP6 ADD SWAP5 DUP16 SWAP5 DUP13 SWAP5 ADD PUSH2 0x448 JUMP JUMPDEST PUSH1 0xFF NOT AND DUP6 DUP5 ADD MSTORE POP ISZERO ISZERO DUP11 SHL DUP2 ADD DUP4 ADD SWAP5 POP PUSH2 0x428 PUSH2 0x41A JUMP JUMPDEST PUSH4 0x4E487B71 PUSH1 0xE0 SHL DUP5 MSTORE PUSH1 0x41 SWAP1 MSTORE PUSH1 0x24 DUP4 REVERT JUMPDEST DUP4 DUP3 CALLVALUE PUSH2 0x4CC JUMPI DUP2 PUSH1 0x3 NOT CALLDATASIZE ADD SLT PUSH2 0x4CC JUMPI SWAP1 SLOAD SWAP1 MLOAD PUSH1 0x1 PUSH1 0x1 PUSH1 0xA0 SHL SUB SWAP1 SWAP2 AND DUP2 MSTORE PUSH1 0x20 SWAP1 RETURN JUMPDEST POP DUP1 REVERT JUMPDEST POP DUP3 SWAP1 CALLVALUE PUSH2 0x4CC JUMPI DUP1 PUSH1 0x3 NOT CALLDATASIZE ADD SLT PUSH2 0x4CC JUMPI DUP3 CALLDATALOAD PUSH8 0xFFFFFFFFFFFFFFFF DUP2 GT PUSH2 0x247 JUMPI PUSH2 0x501 SWAP1 CALLDATASIZE SWAP1 DUP6 ADD PUSH2 0x8CB JUMP JUMPDEST SWAP2 SWAP1 SWAP4 PUSH1 0x24 CALLDATALOAD SWAP1 PUSH2 0x510 PUSH2 0x959 JUMP JUMPDEST PUSH2 0x2710 DUP3 GT PUSH2 0x572 JUMPI POP PUSH2 0x566 PUSH32 0xFF36434C60A57603C4973C4617CBCD719612BC0E08E478DE6C12EEF2B0875333 SWAP5 SWAP6 DUP3 DUP5 MLOAD DUP7 DUP4 DUP3 CALLDATACOPY PUSH1 0x20 DUP2 DUP9 DUP2 ADD PUSH1 0x2 DUP2 MSTORE SUB ADD SWAP1 KECCAK256 SSTORE DUP4 MLOAD SWAP5 DUP5 DUP7 SWAP6 DUP7 MSTORE DUP6 ADD SWAP2 PUSH2 0x9B1 JUMP JUMPDEST SWAP1 PUSH1 0x20 DUP4 ADD MSTORE SUB SWAP1 LOG1 DUP1 RETURN JUMPDEST PUSH1 0x64 SWAP1 PUSH1 0x20 DUP5 MLOAD SWAP2 PUSH3 0x461BCD PUSH1 0xE5 SHL DUP4 MSTORE DUP3 ADD MSTORE PUSH1 0x1B PUSH1 0x24 DUP3 ADD MSTORE PUSH32 0x446973636F756E742063616E6E6F742065786365656420313030250000000000 PUSH1 0x44 DUP3 ADD MSTORE REVERT JUMPDEST DUP4 CALLVALUE PUSH2 0x244 JUMPI DUP1 PUSH1 0x3 NOT CALLDATASIZE ADD SLT PUSH2 0x244 JUMPI PUSH2 0x5CE PUSH2 0x959 JUMP JUMPDEST DUP1 SLOAD PUSH1 0x1 PUSH1 0x1 PUSH1 0xA0 SHL SUB NOT DUP2 AND DUP3 SSTORE DUP2 SWAP1 PUSH1 0x1 PUSH1 0x1 PUSH1 0xA0 SHL SUB AND PUSH32 0x8BE0079C531659141344CD1FD0A4F28419497F9722A3DAAFE3B4186F6B6457E0 DUP3 DUP1 LOG3 DUP1 RETURN JUMPDEST POP DUP3 CALLVALUE PUSH2 0x244 JUMPI PUSH1 0x20 SWAP3 DUP4 PUSH1 0x3 NOT CALLDATASIZE ADD SLT PUSH2 0x4CC JUMPI DUP1 CALLDATALOAD SWAP2 PUSH8 0xFFFFFFFFFFFFFFFF SWAP2 DUP3 DUP5 GT PUSH2 0x4CC JUMPI CALLDATASIZE PUSH1 0x23 DUP6 ADD SLT ISZERO PUSH2 0x4CC JUMPI DUP4 DUP2 ADD CALLDATALOAD SWAP3 DUP4 GT PUSH2 0x6AE JUMPI POP DUP4 MLOAD SWAP2 PUSH2 0x665 PUSH1 0x1F DUP3 ADD PUSH1 0x1F NOT AND DUP8 ADD DUP5 PUSH2 0x8FE JUMP JUMPDEST DUP1 DUP4 MSTORE DUP6 DUP4 ADD SWAP4 CALLDATASIZE PUSH1 0x24 DUP4 DUP4 ADD ADD GT PUSH2 0x247 JUMPI SWAP2 DUP7 DUP3 DUP2 SWAP6 SWAP4 PUSH1 0x24 PUSH2 0x69C SWAP9 SWAP7 ADD DUP7 CALLDATACOPY DUP4 ADD ADD MSTORE DUP5 MLOAD SWAP4 DUP5 SWAP3 DUP4 SWAP3 MLOAD SWAP3 DUP4 SWAP2 PUSH2 0x936 JUMP JUMPDEST DUP2 ADD PUSH1 0x2 DUP2 MSTORE SUB ADD SWAP1 KECCAK256 SLOAD SWAP1 MLOAD SWAP1 DUP2 MSTORE RETURN JUMPDEST PUSH4 0x4E487B71 PUSH1 0xE0 SHL DUP3 MSTORE PUSH1 0x41 SWAP1 MSTORE PUSH1 0x24 SWAP1 REVERT JUMPDEST POP CALLVALUE PUSH2 0x247 JUMPI DUP1 PUSH1 0x3 NOT CALLDATASIZE ADD SLT PUSH2 0x247 JUMPI DUP2 CALLDATALOAD SWAP2 PUSH8 0xFFFFFFFFFFFFFFFF PUSH1 0x24 CALLDATALOAD DUP2 DUP2 GT PUSH2 0x8C7 JUMPI PUSH2 0x6F5 SWAP1 CALLDATASIZE SWAP1 DUP5 ADD PUSH2 0x8CB JUMP JUMPDEST SWAP4 SWAP1 SWAP2 PUSH2 0x700 PUSH2 0x959 JUMP JUMPDEST DUP6 DUP8 MSTORE PUSH1 0x1 PUSH1 0x20 SWAP5 DUP2 DUP7 MSTORE DUP4 DUP10 KECCAK256 DUP1 SLOAD SWAP1 PUSH9 0x10000000000000000 DUP3 LT ISZERO PUSH2 0x8B4 JUMPI DUP4 DUP3 ADD DUP1 DUP3 SSTORE DUP3 LT ISZERO PUSH2 0x8A1 JUMPI DUP11 MSTORE DUP7 DUP11 KECCAK256 ADD SWAP3 DUP8 GT PUSH2 0x88E JUMPI POP PUSH2 0x747 DUP3 SLOAD PUSH2 0x9D2 JUMP JUMPDEST PUSH1 0x1F DUP2 GT PUSH2 0x848 JUMPI JUMPDEST POP DUP8 PUSH1 0x1F DUP8 GT PUSH1 0x1 EQ PUSH2 0x7C2 JUMPI SWAP2 DUP7 DUP1 PUSH2 0x7B1 SWAP6 SWAP4 PUSH32 0x3CD6065284B5742025092D6959F2050B77C2CFA94DF597792213BC87C355D70B SWAP10 SWAP9 SWAP8 SWAP6 DUP13 SWAP4 PUSH2 0x7B7 JUMPI JUMPDEST POP SHL SWAP1 PUSH1 0x0 NOT DUP9 PUSH1 0x3 SHL SHR NOT AND OR SWAP1 SSTORE JUMPDEST MLOAD SWAP4 DUP4 DUP6 SWAP5 DUP6 MSTORE DUP5 ADD SWAP2 PUSH2 0x9B1 JUMP JUMPDEST SUB SWAP1 LOG2 DUP1 RETURN JUMPDEST DUP7 ADD CALLDATALOAD SWAP3 POP CODESIZE PUSH2 0x791 JUMP JUMPDEST DUP3 DUP10 MSTORE DUP6 DUP10 KECCAK256 SWAP1 PUSH1 0x1F NOT DUP9 AND DUP11 JUMPDEST DUP2 DUP2 LT PUSH2 0x833 JUMPI POP SWAP2 PUSH2 0x7B1 SWAP6 SWAP4 SWAP2 DUP10 PUSH32 0x3CD6065284B5742025092D6959F2050B77C2CFA94DF597792213BC87C355D70B SWAP11 SWAP10 SWAP9 SWAP7 SWAP5 LT PUSH2 0x819 JUMPI JUMPDEST POP POP DUP7 DUP2 SHL ADD SWAP1 SSTORE PUSH2 0x7A2 JUMP JUMPDEST DUP6 ADD CALLDATALOAD PUSH1 0x0 NOT PUSH1 0x3 DUP11 SWAP1 SHL PUSH1 0xF8 AND SHR NOT AND SWAP1 SSTORE CODESIZE DUP1 PUSH2 0x80C JUMP JUMPDEST DUP8 DUP4 ADD CALLDATALOAD DUP5 SSTORE SWAP3 DUP5 ADD SWAP3 SWAP2 DUP9 ADD SWAP2 DUP9 ADD PUSH2 0x7D0 JUMP JUMPDEST DUP3 DUP10 MSTORE DUP6 DUP10 KECCAK256 PUSH1 0x1F DUP9 ADD PUSH1 0x5 SHR DUP2 ADD SWAP2 DUP8 DUP10 LT PUSH2 0x884 JUMPI JUMPDEST PUSH1 0x1F ADD PUSH1 0x5 SHR ADD SWAP1 DUP3 SWAP1 JUMPDEST DUP3 DUP2 LT PUSH2 0x879 JUMPI POP POP PUSH2 0x750 JUMP JUMPDEST DUP11 DUP2 SSTORE ADD DUP3 SWAP1 PUSH2 0x86B JUMP JUMPDEST SWAP1 SWAP2 POP DUP2 SWAP1 PUSH2 0x860 JUMP JUMPDEST PUSH4 0x4E487B71 PUSH1 0xE0 SHL DUP10 MSTORE PUSH1 0x41 SWAP1 MSTORE PUSH1 0x24 DUP9 REVERT JUMPDEST PUSH4 0x4E487B71 PUSH1 0xE0 SHL DUP12 MSTORE PUSH1 0x32 DUP4 MSTORE PUSH1 0x24 DUP12 REVERT JUMPDEST PUSH4 0x4E487B71 PUSH1 0xE0 SHL DUP12 MSTORE PUSH1 0x41 DUP4 MSTORE PUSH1 0x24 DUP12 REVERT JUMPDEST DUP6 DUP1 REVERT JUMPDEST SWAP2 DUP2 PUSH1 0x1F DUP5 ADD SLT ISZERO PUSH2 0x8F9 JUMPI DUP3 CALLDATALOAD SWAP2 PUSH8 0xFFFFFFFFFFFFFFFF DUP4 GT PUSH2 0x8F9 JUMPI PUSH1 0x20 DUP4 DUP2 DUP7 ADD SWAP6 ADD ADD GT PUSH2 0x8F9 JUMPI JUMP JUMPDEST PUSH1 0x0 DUP1 REVERT JUMPDEST SWAP1 PUSH1 0x1F DUP1 NOT SWAP2 ADD AND DUP2 ADD SWAP1 DUP2 LT PUSH8 0xFFFFFFFFFFFFFFFF DUP3 GT OR PUSH2 0x920 JUMPI PUSH1 0x40 MSTORE JUMP JUMPDEST PUSH4 0x4E487B71 PUSH1 0xE0 SHL PUSH1 0x0 MSTORE PUSH1 0x41 PUSH1 0x4 MSTORE PUSH1 0x24 PUSH1 0x0 REVERT JUMPDEST PUSH1 0x0 JUMPDEST DUP4 DUP2 LT PUSH2 0x949 JUMPI POP POP PUSH1 0x0 SWAP2 ADD MSTORE JUMP JUMPDEST DUP2 DUP2 ADD MLOAD DUP4 DUP3 ADD MSTORE PUSH1 0x20 ADD PUSH2 0x939 JUMP JUMPDEST PUSH1 0x0 SLOAD PUSH1 0x1 PUSH1 0x1 PUSH1 0xA0 SHL SUB AND CALLER SUB PUSH2 0x96D JUMPI JUMP JUMPDEST PUSH1 0x64 PUSH1 0x40 MLOAD PUSH3 0x461BCD PUSH1 0xE5 SHL DUP2 MSTORE PUSH1 0x20 PUSH1 0x4 DUP3 ADD MSTORE PUSH1 0x20 PUSH1 0x24 DUP3 ADD MSTORE PUSH32 0x4F776E61626C653A2063616C6C6572206973206E6F7420746865206F776E6572 PUSH1 0x44 DUP3 ADD MSTORE REVERT JUMPDEST SWAP1 DUP1 PUSH1 0x20 SWAP4 SWAP3 DUP2 DUP5 MSTORE DUP5 DUP5 ADD CALLDATACOPY PUSH1 0x0 DUP3 DUP3 ADD DUP5 ADD MSTORE PUSH1 0x1F ADD PUSH1 0x1F NOT AND ADD ADD SWAP1 JUMP JUMPDEST SWAP1 PUSH1 0x1 DUP3 DUP2 SHR SWAP3 AND DUP1 ISZERO PUSH2 0xA02 JUMPI JUMPDEST PUSH1 0x20 DUP4 LT EQ PUSH2 0x9EC JUMPI JUMP JUMPDEST PUSH4 0x4E487B71 PUSH1 0xE0 SHL PUSH1 0x0 MSTORE PUSH1 0x22 PUSH1 0x4 MSTORE PUSH1 0x24 PUSH1 0x0 REVERT JUMPDEST SWAP2 PUSH1 0x7F AND SWAP2 PUSH2 0x9E1 JUMP INVALID LOG2 PUSH5 0x6970667358 0x22 SLT KECCAK256 0xB0 DUP13 CREATE2 DUP16 0xC8 XOR ADDRESS 0xDB 0xE9 SWAP10 0x4C 0xFC KECCAK256 SGT 0xE1 DUP9 DUP5 0x25 0x2A PUSH4 0xA1846865 BASEFEE PUSH30 0x6CECD0D719DD64736F6C6343000814003300000000000000000000000000 "},"methodIdentifiers":{"calculateDiscount(uint256)":"fad5cee7","getPolicyMitigations(uint256)":"d694b7ae","mitigationDiscounts(string)":"62e3e06d","owner()":"8da5cb5b","renounceOwnership()":"715018a6","setMitigationDiscount(string,uint256)":"749e654e","transferOwnership(address)":"f2fde38b","verifyMitigation(uint256,string)":"4a002523"}}}}}