{"contracts/core/PolicyRegistry.sol":{"PolicyRegistry":{"abi":[{"anonymous":false,"inputs":[{"indexed":false,"internalType":"address","name":"caller","type":"address"},{"indexed":false,"internalType":"bool","name":"authorized","type":"bool"}],"name":"CallerAuthorized","type":"event"},{"anonymous":false,"inputs":[{"indexed":true,"internalType":"address","name":"previousOwner","type":"address"},{"indexed":true,"internalType":"address","name":"newOwner","type":"address"}],"name":"OwnershipTransferred","type":"event"},{"anonymous":false,"inputs":[{"indexed":true,"internalType":"uint256","name":"policyId","type":"uint256"}],"name":"PolicyDeactivated","type":"event"},{"anonymous":false,"inputs":[{"indexed":true,"internalType":"uint256","name":"policyId","type":"uint256"}],"name":"PolicyPaidOut","type":"event"},{"anonymous":false,"inputs":[{"indexed":true,"internalType":"uint256","name":"policyId","type":"uint256"},{"indexed":true,"internalType":"address","name":"farmer","type":"address"},{"indexed":true,"internalType":"bytes32","name":"h3Index","type":"bytes32"}],"name":"PolicyRegistered","type":"event"},{"inputs":[{"internalType":"address","name":"","type":"address"}],"name":"authorizedCallers","outputs":[{"internalType":"bool","name":"","type":"bool"}],"stateMutability":"view","type":"function"},{"inputs":[{"internalType":"uint256","name":"policyId","type":"uint256"}],"name":"deactivatePolicy","outputs":[],"stateMutability":"nonpayable","type":"function"},{"inputs":[{"internalType":"bytes32","name":"h3Index","type":"bytes32"}],"name":"getPoliciesByH3","outputs":[{"internalType":"uint256[]","name":"","type":"uint256[]"}],"stateMutability":"view","type":"function"},{"inputs":[{"internalType":"uint256","name":"policyId","type":"uint256"}],"name":"getPolicy","outputs":[{"internalType":"uint256","name":"id","type":"uint256"},{"internalType":"address","name":"farmer","type":"address"},{"internalType":"bytes32","name":"h3Index","type":"bytes32"},{"internalType":"uint256","name":"threshold","type":"uint256"},{"internalType":"uint256","name":"payoutAmount","type":"uint256"},{"internalType":"bool","name":"isActive","type":"bool"},{"internalType":"bool","name":"paidOut","type":"bool"}],"stateMutability":"view","type":"function"},{"inputs":[{"internalType":"uint256","name":"policyId","type":"uint256"}],"name":"markPaidOut","outputs":[],"stateMutability":"nonpayable","type":"function"},{"inputs":[],"name":"owner","outputs":[{"internalType":"address","name":"","type":"address"}],"stateMutability":"view","type":"function"},{"inputs":[{"internalType":"uint256","name":"","type":"uint256"}],"name":"policies","outputs":[{"internalType":"uint256","name":"id","type":"uint256"},{"internalType":"address","name":"farmer","type":"address"},{"internalType":"bytes32","name":"h3Index","type":"bytes32"},{"internalType":"uint256","name":"threshold","type":"uint256"},{"internalType":"uint256","name":"payoutAmount","type":"uint256"},{"internalType":"bool","name":"isActive","type":"bool"},{"internalType":"bool","name":"paidOut","type":"bool"}],"stateMutability":"view","type":"function"},{"inputs":[{"internalType":"uint256","name":"policyId","type":"uint256"},{"internalType":"address","name":"farmer","type":"address"},{"internalType":"bytes32","name":"h3Index","type":"bytes32"},{"internalType":"uint256","name":"threshold","type":"uint256"},{"internalType":"uint256","name":"payoutAmount","type":"uint256"}],"name":"registerPolicy","outputs":[],"stateMutability":"nonpayable","type":"function"},{"inputs":[],"name":"renounceOwnership","outputs":[],"stateMutability":"nonpayable","type":"function"},{"inputs":[{"internalType":"address","name":"caller","type":"address"},{"internalType":"bool","name":"authorized","type":"bool"}],"name":"setAuthorizedCaller","outputs":[],"stateMutability":"nonpayable","type":"function"},{"inputs":[{"internalType":"address","name":"newOwner","type":"address"}],"name":"transferOwnership","outputs":[],"stateMutability":"nonpayable","type":"function"}],"evm":{"bytecode":{"linkReferences":{},"object":"6080806040523461005b5760008054336001600160a01b0319821681178355916001600160a01b03909116907f8be0079c531659141344cd1fd0a4f28419497f9722a3daafe3b4186f6b6457e09080a3610a8d90816100618239f35b600080fdfe6080604081815260048036101561001557600080fd5b600092833560e01c9081632b07fce31461086157508063454bbd29146107d55780634681fdd214610688578063536fff6c1461064a578063715018a6146105f05780638da5cb5b146105c857806398414ca5146104fe578063ad5a15e61461028c578063d3e89483146101fe578063eb4a4645146101615763f2fde38b1461009c57600080fd5b3461015d57602036600319011261015d576100b561092a565b906100be610945565b6001600160a01b0391821692831561010b57505082546001600160a01b0319811683178455167f8be0079c531659141344cd1fd0a4f28419497f9722a3daafe3b4186f6b6457e08380a380f35b906020608492519162461bcd60e51b8352820152602660248201527f4f776e61626c653a206e6577206f776e657220697320746865207a65726f206160448201526564647265737360d01b6064820152fd5b8280fd5b503461015d57602036600319011261015d5760059035916101af60018060a01b0380865416331480156101e9575b6101989061099d565b848652600160205260018387200154161515610a13565b8284526001602052832001805460ff191690557fa040c05c2aea9ad7da426cefbf383fc472d4759806d4aa7d1257f00f0faadd018280a280f35b5033865260036020528286205460ff1661018f565b50913461028957602036600319011261028957823581526001602081815291839020805491810154600282015460038301549683015460059093015495519384526001600160a01b039091169383019390935260408201929092526060810193909352608083015260ff808216151560a084015260089190911c16151560c082015260e090f35b0390f35b80fd5b508290346104fa5760a03660031901126104fa576024926001600160a01b0384358181169284359290918490036104f657604435946084359282885416331480156104e1575b6102db9061099d565b8488526001936020938585528086848c200154166104a757871561046c57811561042a5761039660058688948a8d8f968e908a898b82519861031c8a6109e1565b878a52808a01958652838a0196875260608a0197606435895260808b01998a5260a08b019e8f5260c08b019d8e5283525220955186558d86019151166bffffffffffffffffffffffff60a01b82541617905551600284015551600383015551878201550192511515839060ff801983541691151516179055565b51151561ff0082549160081b169061ff0019161790558688526002835287209081549368010000000000000000851015610418578401808355841015610406575086528520018190557fcf3a4893cb3f0add7f10e3efef2991b7863b597aefd01e4174e48be4cca3f4768480a480f35b634e487b7160e01b8852603290528787fd5b634e487b7160e01b8952604182528989fd5b825162461bcd60e51b8152808501869052601e818d01527f5061796f757420616d6f756e74206d75737420626520706f73697469766500006044820152606490fd5b825162461bcd60e51b81528085018690526016818d015275496e76616c6964206661726d6572206164647265737360501b6044820152606490fd5b825162461bcd60e51b81528085018690526015818d015274506f6c69637920616c72656164792065786973747360581b6044820152606490fd5b5033885260036020528088205460ff166102d2565b8580fd5b5080fd5b509190346104fa5760208060031936011261015d57833583526002815281832092825192838386549182815201908196845284842090845b868282106105b45750505050849003601f01601f191684019567ffffffffffffffff8711858810176105a1575085815282865292518583018190528594938501939290915b82811061058a57505050500390f35b83518552869550938101939281019260010161057b565b634e487b7160e01b835260419052602482fd5b835485529093019260019283019201610536565b5050346104fa57816003193601126104fa57905490516001600160a01b039091168152602090f35b8334610289578060031936011261028957610609610945565b80546001600160a01b03198116825581906001600160a01b03167f8be0079c531659141344cd1fd0a4f28419497f9722a3daafe3b4186f6b6457e08280a380f35b5050346104fa5760203660031901126104fa5760209160ff9082906001600160a01b0361067561092a565b1681526003855220541690519015158152f35b50903461015d576020806003193601126107d1578235926106d560018060a01b0380875416331480156107bd575b6106bf9061099d565b8587526001845260018588200154161515610a13565b8385526001825260ff600584872001541615610785578385526001825260ff6005848720015460081c166107445750828452600190528220600501805461ffff19166101001790557ff2f9221adad21a2d6a9450707b14e7948b23ae67555194d29a8cb05b8a1532878280a280f35b915162461bcd60e51b815291820152601760248201527f506f6c69637920616c72656164792070616964206f75740000000000000000006044820152606490fd5b915162461bcd60e51b8152918201526014602482015273506f6c696379206973206e6f742061637469766560601b6044820152606490fd5b50338752600384528487205460ff166106b6565b8380fd5b5050346104fa57806003193601126104fa576107ef61092a565b9060243580151580820361085d5761084f7f100c9fd652c7b273c9266f92f22ac2352eb8d7232013ac0439e9066a9227f3699461082a610945565b60018060a01b03169283875260036020528487209060ff801983541691151516179055565b82519182526020820152a180f35b8480fd5b9050833461028957602036600319011261028957610285918460c09285358152600160205220610890826109e1565b80549485835260018060a01b0360018301541696876020850152600283015490818186015260056003850154938460608801528501549485608088015201549460ff8087161515968760a084015260081c16151596879101525197889788959260c09592989794919860e0880199885260018060a01b03166020880152604087015260608601526080850152151560a08401521515910152565b600435906001600160a01b038216820361094057565b600080fd5b6000546001600160a01b0316330361095957565b606460405162461bcd60e51b815260206004820152602060248201527f4f776e61626c653a2063616c6c6572206973206e6f7420746865206f776e65726044820152fd5b156109a457565b60405162461bcd60e51b815260206004820152601560248201527410d85b1b195c881b9bdd08185d5d1a1bdc9a5e9959605a1b6044820152606490fd5b60e0810190811067ffffffffffffffff8211176109fd57604052565b634e487b7160e01b600052604160045260246000fd5b15610a1a57565b60405162461bcd60e51b8152602060048201526015602482015274141bdb1a58de48191bd95cc81b9bdd08195e1a5cdd605a1b6044820152606490fdfea2646970667358221220996627f2d431321ab7cb9a43573df8cd3fc90561f690810985cb362f48d5ae1d64736f6c63430008140033","opcodes":"PUSH1 0x80 DUP1 PUSH1 0x40 MSTORE CALLVALUE PUSH2 0x5B JUMPI PUSH1 0x0 DUP1 SLOAD CALLER PUSH1 0x1 PUSH1 0x1 PUSH1 0xA0 SHL SUB NOT DUP3 AND DUP2 OR DUP4 SSTORE SWAP2 PUSH1 0x1 PUSH1 0x1 PUSH1 0xA0 SHL SUB SWAP1 SWAP2 AND SWAP1 PUSH32 0x8BE0079C531659141344CD1FD0A4F28419497F9722A3DAAFE3B4186F6B6457E0 SWAP1 DUP1 LOG3 PUSH2 0xA8D SWAP1 DUP2 PUSH2 0x61 DUP3 CODECOPY RETURN JUMPDEST PUSH1 0x0 DUP1 REVERT INVALID PUSH1 0x80 PUSH1 0x40 DUP2 DUP2 MSTORE PUSH1 0x4 DUP1 CALLDATASIZE LT ISZERO PUSH2 0x15 JUMPI PUSH1 0x0 DUP1 REVERT JUMPDEST PUSH1 0x0 SWAP3 DUP4 CALLDATALOAD PUSH1 0xE0 SHR SWAP1 DUP2 PUSH4 0x2B07FCE3 EQ PUSH2 0x861 JUMPI POP DUP1 PUSH4 0x454BBD29 EQ PUSH2 0x7D5 JUMPI DUP1 PUSH4 0x4681FDD2 EQ PUSH2 0x688 JUMPI DUP1 PUSH4 0x536FFF6C EQ PUSH2 0x64A JUMPI DUP1 PUSH4 0x715018A6 EQ PUSH2 0x5F0 JUMPI DUP1 PUSH4 0x8DA5CB5B EQ PUSH2 0x5C8 JUMPI DUP1 PUSH4 0x98414CA5 EQ PUSH2 0x4FE JUMPI DUP1 PUSH4 0xAD5A15E6 EQ PUSH2 0x28C JUMPI DUP1 PUSH4 0xD3E89483 EQ PUSH2 0x1FE JUMPI DUP1 PUSH4 0xEB4A4645 EQ PUSH2 0x161 JUMPI PUSH4 0xF2FDE38B EQ PUSH2 0x9C JUMPI PUSH1 0x0 DUP1 REVERT JUMPDEST CALLVALUE PUSH2 0x15D JUMPI PUSH1 0x20 CALLDATASIZE PUSH1 0x3 NOT ADD SLT PUSH2 0x15D JUMPI PUSH2 0xB5 PUSH2 0x92A JUMP JUMPDEST SWAP1 PUSH2 0xBE PUSH2 0x945 JUMP JUMPDEST PUSH1 0x1 PUSH1 0x1 PUSH1 0xA0 SHL SUB SWAP2 DUP3 AND SWAP3 DUP4 ISZERO PUSH2 0x10B JUMPI POP POP DUP3 SLOAD PUSH1 0x1 PUSH1 0x1 PUSH1 0xA0 SHL SUB NOT DUP2 AND DUP4 OR DUP5 SSTORE AND PUSH32 0x8BE0079C531659141344CD1FD0A4F28419497F9722A3DAAFE3B4186F6B6457E0 DUP4 DUP1 LOG3 DUP1 RETURN JUMPDEST SWAP1 PUSH1 0x20 PUSH1 0x84 SWAP3 MLOAD SWAP2 PUSH3 0x461BCD PUSH1 0xE5 SHL DUP4 MSTORE DUP3 ADD MSTORE PUSH1 0x26 PUSH1 0x24 DUP3 ADD MSTORE PUSH32 0x4F776E61626C653A206E6577206F776E657220697320746865207A65726F2061 PUSH1 0x44 DUP3 ADD MSTORE PUSH6 0x646472657373 PUSH1 0xD0 SHL PUSH1 0x64 DUP3 ADD MSTORE REVERT JUMPDEST DUP3 DUP1 REVERT JUMPDEST POP CALLVALUE PUSH2 0x15D JUMPI PUSH1 0x20 CALLDATASIZE PUSH1 0x3 NOT ADD SLT PUSH2 0x15D JUMPI PUSH1 0x5 SWAP1 CALLDATALOAD SWAP2 PUSH2 0x1AF PUSH1 0x1 DUP1 PUSH1 0xA0 SHL SUB DUP1 DUP7 SLOAD AND CALLER EQ DUP1 ISZERO PUSH2 0x1E9 JUMPI JUMPDEST PUSH2 0x198 SWAP1 PUSH2 0x99D JUMP JUMPDEST DUP5 DUP7 MSTORE PUSH1 0x1 PUSH1 0x20 MSTORE PUSH1 0x1 DUP4 DUP8 KECCAK256 ADD SLOAD AND ISZERO ISZERO PUSH2 0xA13 JUMP JUMPDEST DUP3 DUP5 MSTORE PUSH1 0x1 PUSH1 0x20 MSTORE DUP4 KECCAK256 ADD DUP1 SLOAD PUSH1 0xFF NOT AND SWAP1 SSTORE PUSH32 0xA040C05C2AEA9AD7DA426CEFBF383FC472D4759806D4AA7D1257F00F0FAADD01 DUP3 DUP1 LOG2 DUP1 RETURN JUMPDEST POP CALLER DUP7 MSTORE PUSH1 0x3 PUSH1 0x20 MSTORE DUP3 DUP7 KECCAK256 SLOAD PUSH1 0xFF AND PUSH2 0x18F JUMP JUMPDEST POP SWAP2 CALLVALUE PUSH2 0x289 JUMPI PUSH1 0x20 CALLDATASIZE PUSH1 0x3 NOT ADD SLT PUSH2 0x289 JUMPI DUP3 CALLDATALOAD DUP2 MSTORE PUSH1 0x1 PUSH1 0x20 DUP2 DUP2 MSTORE SWAP2 DUP4 SWAP1 KECCAK256 DUP1 SLOAD SWAP2 DUP2 ADD SLOAD PUSH1 0x2 DUP3 ADD SLOAD PUSH1 0x3 DUP4 ADD SLOAD SWAP7 DUP4 ADD SLOAD PUSH1 0x5 SWAP1 SWAP4 ADD SLOAD SWAP6 MLOAD SWAP4 DUP5 MSTORE PUSH1 0x1 PUSH1 0x1 PUSH1 0xA0 SHL SUB SWAP1 SWAP2 AND SWAP4 DUP4 ADD SWAP4 SWAP1 SWAP4 MSTORE PUSH1 0x40 DUP3 ADD SWAP3 SWAP1 SWAP3 MSTORE PUSH1 0x60 DUP2 ADD SWAP4 SWAP1 SWAP4 MSTORE PUSH1 0x80 DUP4 ADD MSTORE PUSH1 0xFF DUP1 DUP3 AND ISZERO ISZERO PUSH1 0xA0 DUP5 ADD MSTORE PUSH1 0x8 SWAP2 SWAP1 SWAP2 SHR AND ISZERO ISZERO PUSH1 0xC0 DUP3 ADD MSTORE PUSH1 0xE0 SWAP1 RETURN JUMPDEST SUB SWAP1 RETURN JUMPDEST DUP1 REVERT JUMPDEST POP DUP3 SWAP1 CALLVALUE PUSH2 0x4FA JUMPI PUSH1 0xA0 CALLDATASIZE PUSH1 0x3 NOT ADD SLT PUSH2 0x4FA JUMPI PUSH1 0x24 SWAP3 PUSH1 0x1 PUSH1 0x1 PUSH1 0xA0 SHL SUB DUP5 CALLDATALOAD DUP2 DUP2 AND SWAP3 DUP5 CALLDATALOAD SWAP3 SWAP1 SWAP2 DUP5 SWAP1 SUB PUSH2 0x4F6 JUMPI PUSH1 0x44 CALLDATALOAD SWAP5 PUSH1 0x84 CALLDATALOAD SWAP3 DUP3 DUP9 SLOAD AND CALLER EQ DUP1 ISZERO PUSH2 0x4E1 JUMPI JUMPDEST PUSH2 0x2DB SWAP1 PUSH2 0x99D JUMP JUMPDEST DUP5 DUP9 MSTORE PUSH1 0x1 SWAP4 PUSH1 0x20 SWAP4 DUP6 DUP6 MSTORE DUP1 DUP7 DUP5 DUP13 KECCAK256 ADD SLOAD AND PUSH2 0x4A7 JUMPI DUP8 ISZERO PUSH2 0x46C JUMPI DUP2 ISZERO PUSH2 0x42A JUMPI PUSH2 0x396 PUSH1 0x5 DUP7 DUP9 SWAP5 DUP11 DUP14 DUP16 SWAP7 DUP15 SWAP1 DUP11 DUP10 DUP12 DUP3 MLOAD SWAP9 PUSH2 0x31C DUP11 PUSH2 0x9E1 JUMP JUMPDEST DUP8 DUP11 MSTORE DUP1 DUP11 ADD SWAP6 DUP7 MSTORE DUP4 DUP11 ADD SWAP7 DUP8 MSTORE PUSH1 0x60 DUP11 ADD SWAP8 PUSH1 0x64 CALLDATALOAD DUP10 MSTORE PUSH1 0x80 DUP12 ADD SWAP10 DUP11 MSTORE PUSH1 0xA0 DUP12 ADD SWAP15 DUP16 MSTORE PUSH1 0xC0 DUP12 ADD SWAP14 DUP15 MSTORE DUP4 MSTORE MSTORE KECCAK256 SWAP6 MLOAD DUP7 SSTORE DUP14 DUP7 ADD SWAP2 MLOAD AND PUSH12 0xFFFFFFFFFFFFFFFFFFFFFFFF PUSH1 0xA0 SHL DUP3 SLOAD AND OR SWAP1 SSTORE MLOAD PUSH1 0x2 DUP5 ADD SSTORE MLOAD PUSH1 0x3 DUP4 ADD SSTORE MLOAD DUP8 DUP3 ADD SSTORE ADD SWAP3 MLOAD ISZERO ISZERO DUP4 SWAP1 PUSH1 0xFF DUP1 NOT DUP4 SLOAD AND SWAP2 ISZERO ISZERO AND OR SWAP1 SSTORE JUMP JUMPDEST MLOAD ISZERO ISZERO PUSH2 0xFF00 DUP3 SLOAD SWAP2 PUSH1 0x8 SHL AND SWAP1 PUSH2 0xFF00 NOT AND OR SWAP1 SSTORE DUP7 DUP9 MSTORE PUSH1 0x2 DUP4 MSTORE DUP8 KECCAK256 SWAP1 DUP2 SLOAD SWAP4 PUSH9 0x10000000000000000 DUP6 LT ISZERO PUSH2 0x418 JUMPI DUP5 ADD DUP1 DUP4 SSTORE DUP5 LT ISZERO PUSH2 0x406 JUMPI POP DUP7 MSTORE DUP6 KECCAK256 ADD DUP2 SWAP1 SSTORE PUSH32 0xCF3A4893CB3F0ADD7F10E3EFEF2991B7863B597AEFD01E4174E48BE4CCA3F476 DUP5 DUP1 LOG4 DUP1 RETURN JUMPDEST PUSH4 0x4E487B71 PUSH1 0xE0 SHL DUP9 MSTORE PUSH1 0x32 SWAP1 MSTORE DUP8 DUP8 REVERT JUMPDEST PUSH4 0x4E487B71 PUSH1 0xE0 SHL DUP10 MSTORE PUSH1 0x41 DUP3 MSTORE DUP10 DUP10 REVERT JUMPDEST DUP3 MLOAD PUSH3 0x461BCD PUSH1 0xE5 SHL DUP2 MSTORE DUP1 DUP6 ADD DUP7 SWAP1 MSTORE PUSH1 0x1E DUP2 DUP14 ADD MSTORE PUSH32 0x5061796F757420616D6F756E74206D75737420626520706F7369746976650000 PUSH1 0x44 DUP3 ADD MSTORE PUSH1 0x64 SWAP1 REVERT JUMPDEST DUP3 MLOAD PUSH3 0x461BCD PUSH1 0xE5 SHL DUP2 MSTORE DUP1 DUP6 ADD DUP7 SWAP1 MSTORE PUSH1 0x16 DUP2 DUP14 ADD MSTORE PUSH22 0x496E76616C6964206661726D65722061646472657373 PUSH1 0x50 SHL PUSH1 0x44 DUP3 ADD MSTORE PUSH1 0x64 SWAP1 REVERT JUMPDEST DUP3 MLOAD PUSH3 0x461BCD PUSH1 0xE5 SHL DUP2 MSTORE DUP1 DUP6 ADD DUP7 SWAP1 MSTORE PUSH1 0x15 DUP2 DUP14 ADD MSTORE PUSH21 0x506F6C69637920616C726561647920657869737473 PUSH1 0x58 SHL PUSH1 0x44 DUP3 ADD MSTORE PUSH1 0x64 SWAP1 REVERT JUMPDEST POP CALLER DUP9 MSTORE PUSH1 0x3 PUSH1 0x20 MSTORE DUP1 DUP9 KECCAK256 SLOAD PUSH1 0xFF AND PUSH2 0x2D2 JUMP JUMPDEST DUP6 DUP1 REVERT JUMPDEST POP DUP1 REVERT JUMPDEST POP SWAP2 SWAP1 CALLVALUE PUSH2 0x4FA JUMPI PUSH1 0x20 DUP1 PUSH1 0x3 NOT CALLDATASIZE ADD SLT PUSH2 0x15D JUMPI DUP4 CALLDATALOAD DUP4 MSTORE PUSH1 0x2 DUP2 MSTORE DUP2 DUP4 KECCAK256 SWAP3 DUP3 MLOAD SWAP3 DUP4 DUP4 DUP7 SLOAD SWAP2 DUP3 DUP2 MSTORE ADD SWAP1 DUP2 SWAP7 DUP5 MSTORE DUP5 DUP5 KECCAK256 SWAP1 DUP5 JUMPDEST DUP7 DUP3 DUP3 LT PUSH2 0x5B4 JUMPI POP POP POP POP DUP5 SWAP1 SUB PUSH1 0x1F ADD PUSH1 0x1F NOT AND DUP5 ADD SWAP6 PUSH8 0xFFFFFFFFFFFFFFFF DUP8 GT DUP6 DUP9 LT OR PUSH2 0x5A1 JUMPI POP DUP6 DUP2 MSTORE DUP3 DUP7 MSTORE SWAP3 MLOAD DUP6 DUP4 ADD DUP2 SWAP1 MSTORE DUP6 SWAP5 SWAP4 DUP6 ADD SWAP4 SWAP3 SWAP1 SWAP2 JUMPDEST DUP3 DUP2 LT PUSH2 0x58A JUMPI POP POP POP POP SUB SWAP1 RETURN JUMPDEST DUP4 MLOAD DUP6 MSTORE DUP7 SWAP6 POP SWAP4 DUP2 ADD SWAP4 SWAP3 DUP2 ADD SWAP3 PUSH1 0x1 ADD PUSH2 0x57B JUMP JUMPDEST PUSH4 0x4E487B71 PUSH1 0xE0 SHL DUP4 MSTORE PUSH1 0x41 SWAP1 MSTORE PUSH1 0x24 DUP3 REVERT JUMPDEST DUP4 SLOAD DUP6 MSTORE SWAP1 SWAP4 ADD SWAP3 PUSH1 0x1 SWAP3 DUP4 ADD SWAP3 ADD PUSH2 0x536 JUMP JUMPDEST POP POP CALLVALUE PUSH2 0x4FA JUMPI DUP2 PUSH1 0x3 NOT CALLDATASIZE ADD SLT PUSH2 0x4FA JUMPI SWAP1 SLOAD SWAP1 MLOAD PUSH1 0x1 PUSH1 0x1 PUSH1 0xA0 SHL SUB SWAP1 SWAP2 AND DUP2 MSTORE PUSH1 0x20 SWAP1 RETURN JUMPDEST DUP4 CALLVALUE PUSH2 0x289 JUMPI DUP1 PUSH1 0x3 NOT CALLDATASIZE ADD SLT PUSH2 0x289 JUMPI PUSH2 0x609 PUSH2 0x945 JUMP JUMPDEST DUP1 SLOAD PUSH1 0x1 PUSH1 0x1 PUSH1 0xA0 SHL SUB NOT DUP2 AND DUP3 SSTORE DUP2 SWAP1 PUSH1 0x1 PUSH1 0x1 PUSH1 0xA0 SHL SUB AND PUSH32 0x8BE0079C531659141344CD1FD0A4F28419497F9722A3DAAFE3B4186F6B6457E0 DUP3 DUP1 LOG3 DUP1 RETURN JUMPDEST POP POP CALLVALUE PUSH2 0x4FA JUMPI PUSH1 0x20 CALLDATASIZE PUSH1 0x3 NOT ADD SLT PUSH2 0x4FA JUMPI PUSH1 0x20 SWAP2 PUSH1 0xFF SWAP1 DUP3 SWAP1 PUSH1 0x1 PUSH1 0x1 PUSH1 0xA0 SHL SUB PUSH2 0x675 PUSH2 0x92A JUMP JUMPDEST AND DUP2 MSTORE PUSH1 0x3 DUP6 MSTORE KECCAK256 SLOAD AND SWAP1 MLOAD SWAP1 ISZERO ISZERO DUP2 MSTORE RETURN JUMPDEST POP SWAP1 CALLVALUE PUSH2 0x15D JUMPI PUSH1 0x20 DUP1 PUSH1 0x3 NOT CALLDATASIZE ADD SLT PUSH2 0x7D1 JUMPI DUP3 CALLDATALOAD SWAP3 PUSH2 0x6D5 PUSH1 0x1 DUP1 PUSH1 0xA0 SHL SUB DUP1 DUP8 SLOAD AND CALLER EQ DUP1 ISZERO PUSH2 0x7BD JUMPI JUMPDEST PUSH2 0x6BF SWAP1 PUSH2 0x99D JUMP JUMPDEST DUP6 DUP8 MSTORE PUSH1 0x1 DUP5 MSTORE PUSH1 0x1 DUP6 DUP9 KECCAK256 ADD SLOAD AND ISZERO ISZERO PUSH2 0xA13 JUMP JUMPDEST DUP4 DUP6 MSTORE PUSH1 0x1 DUP3 MSTORE PUSH1 0xFF PUSH1 0x5 DUP5 DUP8 KECCAK256 ADD SLOAD AND ISZERO PUSH2 0x785 JUMPI DUP4 DUP6 MSTORE PUSH1 0x1 DUP3 MSTORE PUSH1 0xFF PUSH1 0x5 DUP5 DUP8 KECCAK256 ADD SLOAD PUSH1 0x8 SHR AND PUSH2 0x744 JUMPI POP DUP3 DUP5 MSTORE PUSH1 0x1 SWAP1 MSTORE DUP3 KECCAK256 PUSH1 0x5 ADD DUP1 SLOAD PUSH2 0xFFFF NOT AND PUSH2 0x100 OR SWAP1 SSTORE PUSH32 0xF2F9221ADAD21A2D6A9450707B14E7948B23AE67555194D29A8CB05B8A153287 DUP3 DUP1 LOG2 DUP1 RETURN JUMPDEST SWAP2 MLOAD PUSH3 0x461BCD PUSH1 0xE5 SHL DUP2 MSTORE SWAP2 DUP3 ADD MSTORE PUSH1 0x17 PUSH1 0x24 DUP3 ADD MSTORE PUSH32 0x506F6C69637920616C72656164792070616964206F7574000000000000000000 PUSH1 0x44 DUP3 ADD MSTORE PUSH1 0x64 SWAP1 REVERT JUMPDEST SWAP2 MLOAD PUSH3 0x461BCD PUSH1 0xE5 SHL DUP2 MSTORE SWAP2 DUP3 ADD MSTORE PUSH1 0x14 PUSH1 0x24 DUP3 ADD MSTORE PUSH20 0x506F6C696379206973206E6F7420616374697665 PUSH1 0x60 SHL PUSH1 0x44 DUP3 ADD MSTORE PUSH1 0x64 SWAP1 REVERT JUMPDEST POP CALLER DUP8 MSTORE PUSH1 0x3 DUP5 MSTORE DUP5 DUP8 KECCAK256 SLOAD PUSH1 0xFF AND PUSH2 0x6B6 JUMP JUMPDEST DUP4 DUP1 REVERT JUMPDEST POP POP CALLVALUE PUSH2 0x4FA JUMPI DUP1 PUSH1 0x3 NOT CALLDATASIZE ADD SLT PUSH2 0x4FA JUMPI PUSH2 0x7EF PUSH2 0x92A JUMP JUMPDEST SWAP1 PUSH1 0x24 CALLDATALOAD DUP1 ISZERO ISZERO DUP1 DUP3 SUB PUSH2 0x85D JUMPI PUSH2 0x84F PUSH32 0x100C9FD652C7B273C9266F92F22AC2352EB8D7232013AC0439E9066A9227F369 SWAP5 PUSH2 0x82A PUSH2 0x945 JUMP JUMPDEST PUSH1 0x1 DUP1 PUSH1 0xA0 SHL SUB AND SWAP3 DUP4 DUP8 MSTORE PUSH1 0x3 PUSH1 0x20 MSTORE DUP5 DUP8 KECCAK256 SWAP1 PUSH1 0xFF DUP1 NOT DUP4 SLOAD AND SWAP2 ISZERO ISZERO AND OR SWAP1 SSTORE JUMP JUMPDEST DUP3 MLOAD SWAP2 DUP3 MSTORE PUSH1 0x20 DUP3 ADD MSTORE LOG1 DUP1 RETURN JUMPDEST DUP5 DUP1 REVERT JUMPDEST SWAP1 POP DUP4 CALLVALUE PUSH2 0x289 JUMPI PUSH1 0x20 CALLDATASIZE PUSH1 0x3 NOT ADD SLT PUSH2 0x289 JUMPI PUSH2 0x285 SWAP2 DUP5 PUSH1 0xC0 SWAP3 DUP6 CALLDATALOAD DUP2 MSTORE PUSH1 0x1 PUSH1 0x20 MSTORE KECCAK256 PUSH2 0x890 DUP3 PUSH2 0x9E1 JUMP JUMPDEST DUP1 SLOAD SWAP5 DUP6 DUP4 MSTORE PUSH1 0x1 DUP1 PUSH1 0xA0 SHL SUB PUSH1 0x1 DUP4 ADD SLOAD AND SWAP7 DUP8 PUSH1 0x20 DUP6 ADD MSTORE PUSH1 0x2 DUP4 ADD SLOAD SWAP1 DUP2 DUP2 DUP7 ADD MSTORE PUSH1 0x5 PUSH1 0x3 DUP6 ADD SLOAD SWAP4 DUP5 PUSH1 0x60 DUP9 ADD MSTORE DUP6 ADD SLOAD SWAP5 DUP6 PUSH1 0x80 DUP9 ADD MSTORE ADD SLOAD SWAP5 PUSH1 0xFF DUP1 DUP8 AND ISZERO ISZERO SWAP7 DUP8 PUSH1 0xA0 DUP5 ADD MSTORE PUSH1 0x8 SHR AND ISZERO ISZERO SWAP7 DUP8 SWAP2 ADD MSTORE MLOAD SWAP8 DUP9 SWAP8 DUP9 SWAP6 SWAP3 PUSH1 0xC0 SWAP6 SWAP3 SWAP9 SWAP8 SWAP5 SWAP2 SWAP9 PUSH1 0xE0 DUP9 ADD SWAP10 DUP9 MSTORE PUSH1 0x1 DUP1 PUSH1 0xA0 SHL SUB AND PUSH1 0x20 DUP9 ADD MSTORE PUSH1 0x40 DUP8 ADD MSTORE PUSH1 0x60 DUP7 ADD MSTORE PUSH1 0x80 DUP6 ADD MSTORE ISZERO ISZERO PUSH1 0xA0 DUP5 ADD MSTORE ISZERO ISZERO SWAP2 ADD MSTORE JUMP JUMPDEST PUSH1 0x4 CALLDATALOAD SWAP1 PUSH1 0x1 PUSH1 0x1 PUSH1 0xA0 SHL SUB DUP3 AND DUP3 SUB PUSH2 0x940 JUMPI JUMP JUMPDEST PUSH1 0x0 DUP1 REVERT JUMPDEST PUSH1 0x0 SLOAD PUSH1 0x1 PUSH1 0x1 PUSH1 0xA0 SHL SUB AND CALLER SUB PUSH2 0x959 JUMPI JUMP JUMPDEST PUSH1 0x64 PUSH1 0x40 MLOAD PUSH3 0x461BCD PUSH1 0xE5 SHL DUP2 MSTORE PUSH1 0x20 PUSH1 0x4 DUP3 ADD MSTORE PUSH1 0x20 PUSH1 0x24 DUP3 ADD MSTORE PUSH32 0x4F776E61626C653A2063616C6C6572206973206E6F7420746865206F776E6572 PUSH1 0x44 DUP3 ADD MSTORE REVERT JUMPDEST ISZERO PUSH2 0x9A4 JUMPI JUMP JUMPDEST PUSH1 0x40 MLOAD PUSH3 0x461BCD PUSH1 0xE5 SHL DUP2 MSTORE PUSH1 0x20 PUSH1 0x4 DUP3 ADD MSTORE PUSH1 0x15 PUSH1 0x24 DUP3 ADD MSTORE PUSH21 0x10D85B1B195C881B9BDD08185D5D1A1BDC9A5E9959 PUSH1 0x5A SHL PUSH1 0x44 DUP3 ADD MSTORE PUSH1 0x64 SWAP1 REVERT JUMPDEST PUSH1 0xE0 DUP2 ADD SWAP1 DUP2 LT PUSH8 0xFFFFFFFFFFFFFFFF DUP3 GT OR PUSH2 0x9FD JUMPI PUSH1 0x40 MSTORE JUMP JUMPDEST PUSH4 0x4E487B71 PUSH1 0xE0 SHL PUSH1 0x0 MSTORE PUSH1 0x41 PUSH1 0x4 MSTORE PUSH1 0x24 PUSH1 0x0 REVERT JUMPDEST ISZERO PUSH2 0xA1A JUMPI JUMP JUMPDEST PUSH1 0x40 MLOAD PUSH3 0x461BCD PUSH1 0xE5 SHL DUP2 MSTORE PUSH1 0x20 PUSH1 0x4 DUP3 ADD MSTORE PUSH1 0x15 PUSH1 0x24 DUP3 ADD MSTORE PUSH21 0x141BDB1A58DE48191BD95CC81B9BDD08195E1A5CDD PUSH1 0x5A SHL PUSH1 0x44 DUP3 ADD MSTORE PUSH1 0x64 SWAP1 REVERT INVALID LOG2 PUSH5 0x6970667358 0x22 SLT KECCAK256 SWAP10 PUSH7 0x27F2D431321AB7 0xCB SWAP11 NUMBER JUMPI RETURNDATASIZE 0xF8 0xCD EXTCODEHASH 0xC9 SDIV PUSH2 0xF690 DUP2 MULMOD DUP6 0xCB CALLDATASIZE 0x2F BASEFEE 0xD5 0xAE SAR PUSH5 0x736F6C6343 STOP ADDMOD EQ STOP CALLER "},"methodIdentifiers":{"authorizedCallers(address)":"536fff6c","deactivatePolicy(uint256)":"eb4a4645","getPoliciesByH3(bytes32)":"98414ca5","getPolicy(uint256)":"2b07fce3","markPaidOut(uint256)":"4681fdd2","owner()":"8da5cb5b","policies(uint256)":"d3e89483","registerPolicy(uint256,address,bytes32,uint256,uint256)":"ad5a15e6","renounceOwnership()":"715018a6","setAuthorizedCaller(address,bool)":"454bbd29","transferOwnership(address)":"f2fde38b"}}}}}