{"contracts/core/EscrowVault.sol":{"EscrowVault":{"abi":[{"anonymous":false,"inputs":[{"indexed":false,"internalType":"address","name":"caller","type":"address"},{"indexed":false,"internalType":"bool","name":"authorized","type":"bool"}],"name":"CallerAuthorized","type":"event"},{"anonymous":false,"inputs":[{"indexed":true,"internalType":"address","name":"previousOwner","type":"address"},{"indexed":true,"internalType":"address","name":"newOwner","type":"address"}],"name":"OwnershipTransferred","type":"event"},{"anonymous":false,"inputs":[{"indexed":true,"internalType":"uint256","name":"policyId","type":"uint256"},{"indexed":true,"internalType":"address","name":"farmer","type":"address"},{"indexed":false,"internalType":"uint256","name":"amount","type":"uint256"}],"name":"PayoutExecuted","type":"event"},{"anonymous":false,"inputs":[{"indexed":true,"internalType":"uint256","name":"policyId","type":"uint256"},{"indexed":false,"internalType":"uint256","name":"amount","type":"uint256"}],"name":"PremiumDeposited","type":"event"},{"anonymous":false,"inputs":[{"indexed":true,"internalType":"uint256","name":"policyId","type":"uint256"},{"indexed":true,"internalType":"address","name":"farmer","type":"address"},{"indexed":false,"internalType":"uint256","name":"amount","type":"uint256"}],"name":"RefundExecuted","type":"event"},{"inputs":[{"internalType":"address","name":"","type":"address"}],"name":"authorizedCallers","outputs":[{"internalType":"bool","name":"","type":"bool"}],"stateMutability":"view","type":"function"},{"inputs":[{"internalType":"uint256","name":"policyId","type":"uint256"}],"name":"depositPremium","outputs":[],"stateMutability":"payable","type":"function"},{"inputs":[],"name":"owner","outputs":[{"internalType":"address","name":"","type":"address"}],"stateMutability":"view","type":"function"},{"inputs":[{"internalType":"uint256","name":"policyId","type":"uint256"},{"internalType":"address payable","name":"farmer","type":"address"},{"internalType":"uint256","name":"amount","type":"uint256"}],"name":"payout","outputs":[],"stateMutability":"nonpayable","type":"function"},{"inputs":[{"internalType":"uint256","name":"","type":"uint256"}],"name":"premiums","outputs":[{"internalType":"uint256","name":"","type":"uint256"}],"stateMutability":"view","type":"function"},{"inputs":[{"internalType":"uint256","name":"policyId","type":"uint256"},{"internalType":"address payable","name":"farmer","type":"address"},{"internalType":"uint256","name":"amount","type":"uint256"}],"name":"refundPremium","outputs":[],"stateMutability":"nonpayable","type":"function"},{"inputs":[],"name":"renounceOwnership","outputs":[],"stateMutability":"nonpayable","type":"function"},{"inputs":[{"internalType":"address","name":"caller","type":"address"},{"internalType":"bool","name":"authorized","type":"bool"}],"name":"setAuthorizedCaller","outputs":[],"stateMutability":"nonpayable","type":"function"},{"inputs":[{"internalType":"address","name":"newOwner","type":"address"}],"name":"transferOwnership","outputs":[],"stateMutability":"nonpayable","type":"function"},{"stateMutability":"payable","type":"receive"}],"evm":{"bytecode":{"linkReferences":{},"object":"6080806040523461005f5760008054336001600160a01b0319821681178355916001600160a01b03909116907f8be0079c531659141344cd1fd0a4f28419497f9722a3daafe3b4186f6b6457e09080a36001805561083a90816100658239f35b600080fdfe60806040818152600480361015610021575b505050361561001f57600080fd5b005b600092833560e01c90816309464261146105b557508063454bbd2914610530578063536fff6c146104f2578063715018a6146104955780638da5cb5b146104695780638e65d63214610337578063ae2f5d9314610205578063eeab8ed0146101525763f2fde38b03610011573461014e57602036600319011261014e576100a66105db565b906100af610620565b6001600160a01b039182169283156100fc57505082546001600160a01b0319811683178455167f8be0079c531659141344cd1fd0a4f28419497f9722a3daafe3b4186f6b6457e08380a380f35b906020608492519162461bcd60e51b8352820152602660248201527f4f776e61626c653a206e6577206f776e657220697320746865207a65726f206160448201526564647265737360d01b6064820152fd5b8280fd5b5090602036600319011261014e5781359134156101c35782845260026020528184208054913483018093116101b0575055513481527f450e6679419a88571339543f4388d600bc5484457d8810dc154bb8ad5710f7de90602090a280f35b634e487b7160e01b865260119052602485fd5b6020606492519162461bcd60e51b8352820152601e60248201527f5072656d69756d206d7573742062652067726561746572207468616e203000006044820152fd5b50903461014e57610215366105f6565b91929060018060a01b03908187541633148015610322575b61023690610678565b61023e6107ae565b169361024b8515156106bc565b82156102e05761025d83471015610701565b8580808086895af161026d61074d565b50156102a557507fbeaa99d72a600712e4656a7da04b2cabe31fb50fbf8f5b5f96513b0a4f495c1a9160209151908152a36001805580f35b6020606492519162461bcd60e51b8352820152601660248201527514185e5bdd5d081d1c985b9cd9995c8819985a5b195960521b6044820152fd5b6020606492519162461bcd60e51b8352820152601e60248201527f5061796f757420616d6f756e74206d75737420626520706f73697469766500006044820152fd5b5033875260036020528287205460ff1661022d565b50903461014e57610347366105f6565b91929060018060a01b03908187541633148015610454575b61036890610678565b6103706107ae565b169361037d8515156106bc565b82156104125761038f83471015610701565b8580808086895af161039f61074d565b50156103d757507ff47bd3b34312618818076f12fa50bab574e63247f56bdee4fb64eb79ef39d5849160209151908152a36001805580f35b6020606492519162461bcd60e51b835282015260166024820152751499599d5b99081d1c985b9cd9995c8819985a5b195960521b6044820152fd5b6020606492519162461bcd60e51b8352820152601e60248201527f526566756e6420616d6f756e74206d75737420626520706f73697469766500006044820152fd5b5033875260036020528287205460ff1661035f565b505034610491578160031936011261049157905490516001600160a01b039091168152602090f35b5080fd5b83346104ef57806003193601126104ef576104ae610620565b80546001600160a01b03198116825581906001600160a01b03167f8be0079c531659141344cd1fd0a4f28419497f9722a3daafe3b4186f6b6457e08280a380f35b80fd5b5050346104915760203660031901126104915760209160ff9082906001600160a01b0361051d6105db565b1681526003855220541690519015158152f35b50503461049157806003193601126104915761054a6105db565b906024358015158091036105b1577f100c9fd652c7b273c9266f92f22ac2352eb8d7232013ac0439e9066a9227f36992610582610620565b60018060a01b031690818552600360205282852060ff1981541660ff831617905582519182526020820152a180f35b8380fd5b92919050346105b15760203660031901126105b157926020933581526002845220548152f35b600435906001600160a01b03821682036105f157565b600080fd5b60609060031901126105f157600435906024356001600160a01b03811681036105f1579060443590565b6000546001600160a01b0316330361063457565b606460405162461bcd60e51b815260206004820152602060248201527f4f776e61626c653a2063616c6c6572206973206e6f7420746865206f776e65726044820152fd5b1561067f57565b60405162461bcd60e51b815260206004820152601560248201527410d85b1b195c881b9bdd08185d5d1a1bdc9a5e9959605a1b6044820152606490fd5b156106c357565b60405162461bcd60e51b8152602060048201526016602482015275496e76616c6964206661726d6572206164647265737360501b6044820152606490fd5b1561070857565b60405162461bcd60e51b815260206004820152601d60248201527f496e73756666696369656e7420636f6e74726163742062616c616e63650000006044820152606490fd5b3d156107a95767ffffffffffffffff903d8281116107935760405192601f8201601f19908116603f01168401908111848210176107935760405282523d6000602084013e565b634e487b7160e01b600052604160045260246000fd5b606090565b6002600154146107bf576002600155565b60405162461bcd60e51b815260206004820152601f60248201527f5265656e7472616e637947756172643a207265656e7472616e742063616c6c006044820152606490fdfea2646970667358221220e4a21968bd6ee54c7f77953815dab47fce86160be8b33a8a7266072b11b5c02464736f6c63430008140033","opcodes":"PUSH1 0x80 DUP1 PUSH1 0x40 MSTORE CALLVALUE PUSH2 0x5F JUMPI PUSH1 0x0 DUP1 SLOAD CALLER PUSH1 0x1 PUSH1 0x1 PUSH1 0xA0 SHL SUB NOT DUP3 AND DUP2 OR DUP4 SSTORE SWAP2 PUSH1 0x1 PUSH1 0x1 PUSH1 0xA0 SHL SUB SWAP1 SWAP2 AND SWAP1 PUSH32 0x8BE0079C531659141344CD1FD0A4F28419497F9722A3DAAFE3B4186F6B6457E0 SWAP1 DUP1 LOG3 PUSH1 0x1 DUP1 SSTORE PUSH2 0x83A SWAP1 DUP2 PUSH2 0x65 DUP3 CODECOPY RETURN JUMPDEST PUSH1 0x0 DUP1 REVERT INVALID PUSH1 0x80 PUSH1 0x40 DUP2 DUP2 MSTORE PUSH1 0x4 DUP1 CALLDATASIZE LT ISZERO PUSH2 0x21 JUMPI JUMPDEST POP POP POP CALLDATASIZE ISZERO PUSH2 0x1F JUMPI PUSH1 0x0 DUP1 REVERT JUMPDEST STOP JUMPDEST PUSH1 0x0 SWAP3 DUP4 CALLDATALOAD PUSH1 0xE0 SHR SWAP1 DUP2 PUSH4 0x9464261 EQ PUSH2 0x5B5 JUMPI POP DUP1 PUSH4 0x454BBD29 EQ PUSH2 0x530 JUMPI DUP1 PUSH4 0x536FFF6C EQ PUSH2 0x4F2 JUMPI DUP1 PUSH4 0x715018A6 EQ PUSH2 0x495 JUMPI DUP1 PUSH4 0x8DA5CB5B EQ PUSH2 0x469 JUMPI DUP1 PUSH4 0x8E65D632 EQ PUSH2 0x337 JUMPI DUP1 PUSH4 0xAE2F5D93 EQ PUSH2 0x205 JUMPI DUP1 PUSH4 0xEEAB8ED0 EQ PUSH2 0x152 JUMPI PUSH4 0xF2FDE38B SUB PUSH2 0x11 JUMPI CALLVALUE PUSH2 0x14E JUMPI PUSH1 0x20 CALLDATASIZE PUSH1 0x3 NOT ADD SLT PUSH2 0x14E JUMPI PUSH2 0xA6 PUSH2 0x5DB JUMP JUMPDEST SWAP1 PUSH2 0xAF PUSH2 0x620 JUMP JUMPDEST PUSH1 0x1 PUSH1 0x1 PUSH1 0xA0 SHL SUB SWAP2 DUP3 AND SWAP3 DUP4 ISZERO PUSH2 0xFC JUMPI POP POP DUP3 SLOAD PUSH1 0x1 PUSH1 0x1 PUSH1 0xA0 SHL SUB NOT DUP2 AND DUP4 OR DUP5 SSTORE AND PUSH32 0x8BE0079C531659141344CD1FD0A4F28419497F9722A3DAAFE3B4186F6B6457E0 DUP4 DUP1 LOG3 DUP1 RETURN JUMPDEST SWAP1 PUSH1 0x20 PUSH1 0x84 SWAP3 MLOAD SWAP2 PUSH3 0x461BCD PUSH1 0xE5 SHL DUP4 MSTORE DUP3 ADD MSTORE PUSH1 0x26 PUSH1 0x24 DUP3 ADD MSTORE PUSH32 0x4F776E61626C653A206E6577206F776E657220697320746865207A65726F2061 PUSH1 0x44 DUP3 ADD MSTORE PUSH6 0x646472657373 PUSH1 0xD0 SHL PUSH1 0x64 DUP3 ADD MSTORE REVERT JUMPDEST DUP3 DUP1 REVERT JUMPDEST POP SWAP1 PUSH1 0x20 CALLDATASIZE PUSH1 0x3 NOT ADD SLT PUSH2 0x14E JUMPI DUP2 CALLDATALOAD SWAP2 CALLVALUE ISZERO PUSH2 0x1C3 JUMPI DUP3 DUP5 MSTORE PUSH1 0x2 PUSH1 0x20 MSTORE DUP2 DUP5 KECCAK256 DUP1 SLOAD SWAP2 CALLVALUE DUP4 ADD DUP1 SWAP4 GT PUSH2 0x1B0 JUMPI POP SSTORE MLOAD CALLVALUE DUP2 MSTORE PUSH32 0x450E6679419A88571339543F4388D600BC5484457D8810DC154BB8AD5710F7DE SWAP1 PUSH1 0x20 SWAP1 LOG2 DUP1 RETURN JUMPDEST PUSH4 0x4E487B71 PUSH1 0xE0 SHL DUP7 MSTORE PUSH1 0x11 SWAP1 MSTORE PUSH1 0x24 DUP6 REVERT JUMPDEST PUSH1 0x20 PUSH1 0x64 SWAP3 MLOAD SWAP2 PUSH3 0x461BCD PUSH1 0xE5 SHL DUP4 MSTORE DUP3 ADD MSTORE PUSH1 0x1E PUSH1 0x24 DUP3 ADD MSTORE PUSH32 0x5072656D69756D206D7573742062652067726561746572207468616E20300000 PUSH1 0x44 DUP3 ADD MSTORE REVERT JUMPDEST POP SWAP1 CALLVALUE PUSH2 0x14E JUMPI PUSH2 0x215 CALLDATASIZE PUSH2 0x5F6 JUMP JUMPDEST SWAP2 SWAP3 SWAP1 PUSH1 0x1 DUP1 PUSH1 0xA0 SHL SUB SWAP1 DUP2 DUP8 SLOAD AND CALLER EQ DUP1 ISZERO PUSH2 0x322 JUMPI JUMPDEST PUSH2 0x236 SWAP1 PUSH2 0x678 JUMP JUMPDEST PUSH2 0x23E PUSH2 0x7AE JUMP JUMPDEST AND SWAP4 PUSH2 0x24B DUP6 ISZERO ISZERO PUSH2 0x6BC JUMP JUMPDEST DUP3 ISZERO PUSH2 0x2E0 JUMPI PUSH2 0x25D DUP4 SELFBALANCE LT ISZERO PUSH2 0x701 JUMP JUMPDEST DUP6 DUP1 DUP1 DUP1 DUP7 DUP10 GAS CALL PUSH2 0x26D PUSH2 0x74D JUMP JUMPDEST POP ISZERO PUSH2 0x2A5 JUMPI POP PUSH32 0xBEAA99D72A600712E4656A7DA04B2CABE31FB50FBF8F5B5F96513B0A4F495C1A SWAP2 PUSH1 0x20 SWAP2 MLOAD SWAP1 DUP2 MSTORE LOG3 PUSH1 0x1 DUP1 SSTORE DUP1 RETURN JUMPDEST PUSH1 0x20 PUSH1 0x64 SWAP3 MLOAD SWAP2 PUSH3 0x461BCD PUSH1 0xE5 SHL DUP4 MSTORE DUP3 ADD MSTORE PUSH1 0x16 PUSH1 0x24 DUP3 ADD MSTORE PUSH22 0x14185E5BDD5D081D1C985B9CD9995C8819985A5B1959 PUSH1 0x52 SHL PUSH1 0x44 DUP3 ADD MSTORE REVERT JUMPDEST PUSH1 0x20 PUSH1 0x64 SWAP3 MLOAD SWAP2 PUSH3 0x461BCD PUSH1 0xE5 SHL DUP4 MSTORE DUP3 ADD MSTORE PUSH1 0x1E PUSH1 0x24 DUP3 ADD MSTORE PUSH32 0x5061796F757420616D6F756E74206D75737420626520706F7369746976650000 PUSH1 0x44 DUP3 ADD MSTORE REVERT JUMPDEST POP CALLER DUP8 MSTORE PUSH1 0x3 PUSH1 0x20 MSTORE DUP3 DUP8 KECCAK256 SLOAD PUSH1 0xFF AND PUSH2 0x22D JUMP JUMPDEST POP SWAP1 CALLVALUE PUSH2 0x14E JUMPI PUSH2 0x347 CALLDATASIZE PUSH2 0x5F6 JUMP JUMPDEST SWAP2 SWAP3 SWAP1 PUSH1 0x1 DUP1 PUSH1 0xA0 SHL SUB SWAP1 DUP2 DUP8 SLOAD AND CALLER EQ DUP1 ISZERO PUSH2 0x454 JUMPI JUMPDEST PUSH2 0x368 SWAP1 PUSH2 0x678 JUMP JUMPDEST PUSH2 0x370 PUSH2 0x7AE JUMP JUMPDEST AND SWAP4 PUSH2 0x37D DUP6 ISZERO ISZERO PUSH2 0x6BC JUMP JUMPDEST DUP3 ISZERO PUSH2 0x412 JUMPI PUSH2 0x38F DUP4 SELFBALANCE LT ISZERO PUSH2 0x701 JUMP JUMPDEST DUP6 DUP1 DUP1 DUP1 DUP7 DUP10 GAS CALL PUSH2 0x39F PUSH2 0x74D JUMP JUMPDEST POP ISZERO PUSH2 0x3D7 JUMPI POP PUSH32 0xF47BD3B34312618818076F12FA50BAB574E63247F56BDEE4FB64EB79EF39D584 SWAP2 PUSH1 0x20 SWAP2 MLOAD SWAP1 DUP2 MSTORE LOG3 PUSH1 0x1 DUP1 SSTORE DUP1 RETURN JUMPDEST PUSH1 0x20 PUSH1 0x64 SWAP3 MLOAD SWAP2 PUSH3 0x461BCD PUSH1 0xE5 SHL DUP4 MSTORE DUP3 ADD MSTORE PUSH1 0x16 PUSH1 0x24 DUP3 ADD MSTORE PUSH22 0x1499599D5B99081D1C985B9CD9995C8819985A5B1959 PUSH1 0x52 SHL PUSH1 0x44 DUP3 ADD MSTORE REVERT JUMPDEST PUSH1 0x20 PUSH1 0x64 SWAP3 MLOAD SWAP2 PUSH3 0x461BCD PUSH1 0xE5 SHL DUP4 MSTORE DUP3 ADD MSTORE PUSH1 0x1E PUSH1 0x24 DUP3 ADD MSTORE PUSH32 0x526566756E6420616D6F756E74206D75737420626520706F7369746976650000 PUSH1 0x44 DUP3 ADD MSTORE REVERT JUMPDEST POP CALLER DUP8 MSTORE PUSH1 0x3 PUSH1 0x20 MSTORE DUP3 DUP8 KECCAK256 SLOAD PUSH1 0xFF AND PUSH2 0x35F JUMP JUMPDEST POP POP CALLVALUE PUSH2 0x491 JUMPI DUP2 PUSH1 0x3 NOT CALLDATASIZE ADD SLT PUSH2 0x491 JUMPI SWAP1 SLOAD SWAP1 MLOAD PUSH1 0x1 PUSH1 0x1 PUSH1 0xA0 SHL SUB SWAP1 SWAP2 AND DUP2 MSTORE PUSH1 0x20 SWAP1 RETURN JUMPDEST POP DUP1 REVERT JUMPDEST DUP4 CALLVALUE PUSH2 0x4EF JUMPI DUP1 PUSH1 0x3 NOT CALLDATASIZE ADD SLT PUSH2 0x4EF JUMPI PUSH2 0x4AE PUSH2 0x620 JUMP JUMPDEST DUP1 SLOAD PUSH1 0x1 PUSH1 0x1 PUSH1 0xA0 SHL SUB NOT DUP2 AND DUP3 SSTORE DUP2 SWAP1 PUSH1 0x1 PUSH1 0x1 PUSH1 0xA0 SHL SUB AND PUSH32 0x8BE0079C531659141344CD1FD0A4F28419497F9722A3DAAFE3B4186F6B6457E0 DUP3 DUP1 LOG3 DUP1 RETURN JUMPDEST DUP1 REVERT JUMPDEST POP POP CALLVALUE PUSH2 0x491 JUMPI PUSH1 0x20 CALLDATASIZE PUSH1 0x3 NOT ADD SLT PUSH2 0x491 JUMPI PUSH1 0x20 SWAP2 PUSH1 0xFF SWAP1 DUP3 SWAP1 PUSH1 0x1 PUSH1 0x1 PUSH1 0xA0 SHL SUB PUSH2 0x51D PUSH2 0x5DB JUMP JUMPDEST AND DUP2 MSTORE PUSH1 0x3 DUP6 MSTORE KECCAK256 SLOAD AND SWAP1 MLOAD SWAP1 ISZERO ISZERO DUP2 MSTORE RETURN JUMPDEST POP POP CALLVALUE PUSH2 0x491 JUMPI DUP1 PUSH1 0x3 NOT CALLDATASIZE ADD SLT PUSH2 0x491 JUMPI PUSH2 0x54A PUSH2 0x5DB JUMP JUMPDEST SWAP1 PUSH1 0x24 CALLDATALOAD DUP1 ISZERO ISZERO DUP1 SWAP2 SUB PUSH2 0x5B1 JUMPI PUSH32 0x100C9FD652C7B273C9266F92F22AC2352EB8D7232013AC0439E9066A9227F369 SWAP3 PUSH2 0x582 PUSH2 0x620 JUMP JUMPDEST PUSH1 0x1 DUP1 PUSH1 0xA0 SHL SUB AND SWAP1 DUP2 DUP6 MSTORE PUSH1 0x3 PUSH1 0x20 MSTORE DUP3 DUP6 KECCAK256 PUSH1 0xFF NOT DUP2 SLOAD AND PUSH1 0xFF DUP4 AND OR SWAP1 SSTORE DUP3 MLOAD SWAP2 DUP3 MSTORE PUSH1 0x20 DUP3 ADD MSTORE LOG1 DUP1 RETURN JUMPDEST DUP4 DUP1 REVERT JUMPDEST SWAP3 SWAP2 SWAP1 POP CALLVALUE PUSH2 0x5B1 JUMPI PUSH1 0x20 CALLDATASIZE PUSH1 0x3 NOT ADD SLT PUSH2 0x5B1 JUMPI SWAP3 PUSH1 0x20 SWAP4 CALLDATALOAD DUP2 MSTORE PUSH1 0x2 DUP5 MSTORE KECCAK256 SLOAD DUP2 MSTORE RETURN JUMPDEST PUSH1 0x4 CALLDATALOAD SWAP1 PUSH1 0x1 PUSH1 0x1 PUSH1 0xA0 SHL SUB DUP3 AND DUP3 SUB PUSH2 0x5F1 JUMPI JUMP JUMPDEST PUSH1 0x0 DUP1 REVERT JUMPDEST PUSH1 0x60 SWAP1 PUSH1 0x3 NOT ADD SLT PUSH2 0x5F1 JUMPI PUSH1 0x4 CALLDATALOAD SWAP1 PUSH1 0x24 CALLDATALOAD PUSH1 0x1 PUSH1 0x1 PUSH1 0xA0 SHL SUB DUP2 AND DUP2 SUB PUSH2 0x5F1 JUMPI SWAP1 PUSH1 0x44 CALLDATALOAD SWAP1 JUMP JUMPDEST PUSH1 0x0 SLOAD PUSH1 0x1 PUSH1 0x1 PUSH1 0xA0 SHL SUB AND CALLER SUB PUSH2 0x634 JUMPI JUMP JUMPDEST PUSH1 0x64 PUSH1 0x40 MLOAD PUSH3 0x461BCD PUSH1 0xE5 SHL DUP2 MSTORE PUSH1 0x20 PUSH1 0x4 DUP3 ADD MSTORE PUSH1 0x20 PUSH1 0x24 DUP3 ADD MSTORE PUSH32 0x4F776E61626C653A2063616C6C6572206973206E6F7420746865206F776E6572 PUSH1 0x44 DUP3 ADD MSTORE REVERT JUMPDEST ISZERO PUSH2 0x67F JUMPI JUMP JUMPDEST PUSH1 0x40 MLOAD PUSH3 0x461BCD PUSH1 0xE5 SHL DUP2 MSTORE PUSH1 0x20 PUSH1 0x4 DUP3 ADD MSTORE PUSH1 0x15 PUSH1 0x24 DUP3 ADD MSTORE PUSH21 0x10D85B1B195C881B9BDD08185D5D1A1BDC9A5E9959 PUSH1 0x5A SHL PUSH1 0x44 DUP3 ADD MSTORE PUSH1 0x64 SWAP1 REVERT JUMPDEST ISZERO PUSH2 0x6C3 JUMPI JUMP JUMPDEST PUSH1 0x40 MLOAD PUSH3 0x461BCD PUSH1 0xE5 SHL DUP2 MSTORE PUSH1 0x20 PUSH1 0x4 DUP3 ADD MSTORE PUSH1 0x16 PUSH1 0x24 DUP3 ADD MSTORE PUSH22 0x496E76616C6964206661726D65722061646472657373 PUSH1 0x50 SHL PUSH1 0x44 DUP3 ADD MSTORE PUSH1 0x64 SWAP1 REVERT JUMPDEST ISZERO PUSH2 0x708 JUMPI JUMP JUMPDEST PUSH1 0x40 MLOAD PUSH3 0x461BCD PUSH1 0xE5 SHL DUP2 MSTORE PUSH1 0x20 PUSH1 0x4 DUP3 ADD MSTORE PUSH1 0x1D PUSH1 0x24 DUP3 ADD MSTORE PUSH32 0x496E73756666696369656E7420636F6E74726163742062616C616E6365000000 PUSH1 0x44 DUP3 ADD MSTORE PUSH1 0x64 SWAP1 REVERT JUMPDEST RETURNDATASIZE ISZERO PUSH2 0x7A9 JUMPI PUSH8 0xFFFFFFFFFFFFFFFF SWAP1 RETURNDATASIZE DUP3 DUP2 GT PUSH2 0x793 JUMPI PUSH1 0x40 MLOAD SWAP3 PUSH1 0x1F DUP3 ADD PUSH1 0x1F NOT SWAP1 DUP2 AND PUSH1 0x3F ADD AND DUP5 ADD SWAP1 DUP2 GT DUP5 DUP3 LT OR PUSH2 0x793 JUMPI PUSH1 0x40 MSTORE DUP3 MSTORE RETURNDATASIZE PUSH1 0x0 PUSH1 0x20 DUP5 ADD RETURNDATACOPY JUMP JUMPDEST PUSH4 0x4E487B71 PUSH1 0xE0 SHL PUSH1 0x0 MSTORE PUSH1 0x41 PUSH1 0x4 MSTORE PUSH1 0x24 PUSH1 0x0 REVERT JUMPDEST PUSH1 0x60 SWAP1 JUMP JUMPDEST PUSH1 0x2 PUSH1 0x1 SLOAD EQ PUSH2 0x7BF JUMPI PUSH1 0x2 PUSH1 0x1 SSTORE JUMP JUMPDEST PUSH1 0x40 MLOAD PUSH3 0x461BCD PUSH1 0xE5 SHL DUP2 MSTORE PUSH1 0x20 PUSH1 0x4 DUP3 ADD MSTORE PUSH1 0x1F PUSH1 0x24 DUP3 ADD MSTORE PUSH32 0x5265656E7472616E637947756172643A207265656E7472616E742063616C6C00 PUSH1 0x44 DUP3 ADD MSTORE PUSH1 0x64 SWAP1 REVERT INVALID LOG2 PUSH5 0x6970667358 0x22 SLT KECCAK256 0xE4 LOG2 NOT PUSH9 0xBD6EE54C7F77953815 0xDA 0xB4 PUSH32 0xCE86160BE8B33A8A7266072B11B5C02464736F6C634300081400330000000000 "},"methodIdentifiers":{"authorizedCallers(address)":"536fff6c","depositPremium(uint256)":"eeab8ed0","owner()":"8da5cb5b","payout(uint256,address,uint256)":"ae2f5d93","premiums(uint256)":"09464261","refundPremium(uint256,address,uint256)":"8e65d632","renounceOwnership()":"715018a6","setAuthorizedCaller(address,bool)":"454bbd29","transferOwnership(address)":"f2fde38b"}}}}}