{
  "_format": "hh-sol-artifact-1",
  "contractName": "BimaGridPolicy",
  "sourceName": "contracts/core/BimaGridPolicy.sol",
  "abi": [
    {
      "inputs": [],
      "stateMutability": "nonpayable",
      "type": "constructor"
    },
    {
      "anonymous": false,
      "inputs": [
        {
          "indexed": true,
          "internalType": "uint256",
          "name": "policyId",
          "type": "uint256"
        },
        {
          "indexed": true,
          "internalType": "address",
          "name": "farmer",
          "type": "address"
        },
        {
          "indexed": false,
          "internalType": "uint256",
          "name": "amount",
          "type": "uint256"
        }
      ],
      "name": "PayoutTriggered",
      "type": "event"
    },
    {
      "anonymous": false,
      "inputs": [
        {
          "indexed": true,
          "internalType": "uint256",
          "name": "policyId",
          "type": "uint256"
        },
        {
          "indexed": true,
          "internalType": "address",
          "name": "farmer",
          "type": "address"
        },
        {
          "indexed": false,
          "internalType": "uint256",
          "name": "payoutAmount",
          "type": "uint256"
        }
      ],
      "name": "PolicyCreated",
      "type": "event"
    },
    {
      "inputs": [
        {
          "internalType": "address",
          "name": "_farmer",
          "type": "address"
        },
        {
          "internalType": "uint256",
          "name": "_payoutAmount",
          "type": "uint256"
        }
      ],
      "name": "createPolicy",
      "outputs": [
        {
          "internalType": "uint256",
          "name": "",
          "type": "uint256"
        }
      ],
      "stateMutability": "nonpayable",
      "type": "function"
    },
    {
      "inputs": [],
      "name": "nextPolicyId",
      "outputs": [
        {
          "internalType": "uint256",
          "name": "",
          "type": "uint256"
        }
      ],
      "stateMutability": "view",
      "type": "function"
    },
    {
      "inputs": [],
      "name": "oracleNode",
      "outputs": [
        {
          "internalType": "address",
          "name": "",
          "type": "address"
        }
      ],
      "stateMutability": "view",
      "type": "function"
    },
    {
      "inputs": [],
      "name": "owner",
      "outputs": [
        {
          "internalType": "address",
          "name": "",
          "type": "address"
        }
      ],
      "stateMutability": "view",
      "type": "function"
    },
    {
      "inputs": [
        {
          "internalType": "uint256",
          "name": "",
          "type": "uint256"
        }
      ],
      "name": "policies",
      "outputs": [
        {
          "internalType": "address",
          "name": "farmer",
          "type": "address"
        },
        {
          "internalType": "uint256",
          "name": "payoutAmount",
          "type": "uint256"
        },
        {
          "internalType": "bool",
          "name": "isActive",
          "type": "bool"
        }
      ],
      "stateMutability": "view",
      "type": "function"
    },
    {
      "inputs": [
        {
          "internalType": "address",
          "name": "_oracleNode",
          "type": "address"
        }
      ],
      "name": "setOracleNode",
      "outputs": [],
      "stateMutability": "nonpayable",
      "type": "function"
    },
    {
      "inputs": [
        {
          "internalType": "uint256",
          "name": "_policyId",
          "type": "uint256"
        }
      ],
      "name": "triggerPayout",
      "outputs": [],
      "stateMutability": "nonpayable",
      "type": "function"
    }
  ],
  "bytecode": "0x6080806040523461003757600160035560018060a01b0319338160005416176000553390600154161760015561048b908161003d8239f35b600080fdfe6040608081526004908136101561001557600080fd5b600091823560e01c806339febe8b1461039157806380cc0dda146103685780638da5cb5b146103405780639abb9a281461022e578063b1b358d4146100e0578063cad0b8db146100bd5763d3e894831461006e57600080fd5b346100b95760203660031901126100b95760609282913581526002602052209060018060a01b038254169160ff60026001830154920154169082519384526020840152151590820152f35b8280fd5b5050346100dc57816003193601126100dc576020906003549051908152f35b5080fd5b509190346100dc576020806003193601126100b9576001546001600160a01b039480359291861633036101e1578285526002825283852095600287019687549760ff8916156101a757600182015493841561016c57507f7884580f743f908c98258afac53f9e0929cd6787b3488df80e096df15409ef8f9596979860ff1916905554169451908152a380f35b875162461bcd60e51b815290810186905260156024820152745061796f757420616d6f756e74206973207a65726f60581b6044820152606490fd5b865162461bcd60e51b81528085018690526014602482015273506f6c696379206973206e6f742061637469766560601b6044820152606490fd5b60849184519162461bcd60e51b8352820152602360248201527f4f6e6c79206f7261636c652063616e20706572666f726d20746869732061637460448201526234b7b760e91b6064820152fd5b509190346100dc57806003193601126100dc576102496103e3565b9160243560018060a01b03916102638382541633146103fe565b60035494600019861461032d57600186016003558451906060820182811067ffffffffffffffff82111761031a57602098509260028993878a97947f601882301d3e3fce7fe3a99d4bb17ef5b6699b417bdd29f2bfb82e19fcbcb660978b521697888252858201908582528a80840195600187528a8152858952209251166bffffffffffffffffffffffff60a01b835416178255516001820155019051151560ff801983541691161790558551908152a351908152f35b634e487b7160e01b845260418952602484fd5b634e487b7160e01b825260118752602482fd5b5050346100dc57816003193601126100dc57905490516001600160a01b039091168152602090f35b5050346100dc57816003193601126100dc5760015490516001600160a01b039091168152602090f35b83346103e05760203660031901126103e0576103ab6103e3565b81546001600160a01b0391906103c490831633146103fe565b166bffffffffffffffffffffffff60a01b600154161760015580f35b80fd5b600435906001600160a01b03821682036103f957565b600080fd5b1561040557565b60405162461bcd60e51b815260206004820152602260248201527f4f6e6c79206f776e65722063616e20706572666f726d2074686973206163746960448201526137b760f11b6064820152608490fdfea2646970667358221220e0b14a4f2a666ffc2f859d3b7c20ba025da896f0c756c404d94bbed958f8ddd164736f6c63430008140033",
  "linkReferences": {},
  "deployedLinkReferences": {}
}