{
  "_format": "hh-sol-artifact-1",
  "contractName": "KilimaShieldOracle",
  "sourceName": "contracts/core/KilimaShieldOracle.sol",
  "abi": [
    {
      "inputs": [
        {
          "internalType": "address",
          "name": "_policyRegistry",
          "type": "address"
        },
        {
          "internalType": "address payable",
          "name": "_escrowVault",
          "type": "address"
        }
      ],
      "stateMutability": "nonpayable",
      "type": "constructor"
    },
    {
      "inputs": [
        {
          "internalType": "address",
          "name": "oracle",
          "type": "address"
        },
        {
          "internalType": "bytes32",
          "name": "h3Index",
          "type": "bytes32"
        },
        {
          "internalType": "uint256",
          "name": "timestamp",
          "type": "uint256"
        }
      ],
      "name": "DuplicateSubmission",
      "type": "error"
    },
    {
      "inputs": [
        {
          "internalType": "bytes32",
          "name": "h3Index",
          "type": "bytes32"
        }
      ],
      "name": "InvalidH3Index",
      "type": "error"
    },
    {
      "inputs": [],
      "name": "InvalidOracleAddress",
      "type": "error"
    },
    {
      "inputs": [],
      "name": "PremiumRequired",
      "type": "error"
    },
    {
      "inputs": [
        {
          "internalType": "address",
          "name": "signer",
          "type": "address"
        }
      ],
      "name": "UnauthorizedOracle",
      "type": "error"
    },
    {
      "inputs": [],
      "name": "ZeroAddress",
      "type": "error"
    },
    {
      "anonymous": false,
      "inputs": [
        {
          "indexed": true,
          "internalType": "bytes32",
          "name": "h3Index",
          "type": "bytes32"
        },
        {
          "indexed": false,
          "internalType": "uint256",
          "name": "timestamp",
          "type": "uint256"
        },
        {
          "indexed": false,
          "internalType": "uint256",
          "name": "medianRainfall",
          "type": "uint256"
        },
        {
          "indexed": false,
          "internalType": "uint256",
          "name": "medianNdvi",
          "type": "uint256"
        }
      ],
      "name": "ConsensusReached",
      "type": "event"
    },
    {
      "anonymous": false,
      "inputs": [
        {
          "indexed": true,
          "internalType": "address",
          "name": "oracle",
          "type": "address"
        },
        {
          "indexed": true,
          "internalType": "bytes32",
          "name": "h3Index",
          "type": "bytes32"
        },
        {
          "indexed": false,
          "internalType": "uint256",
          "name": "timestamp",
          "type": "uint256"
        }
      ],
      "name": "DataSubmitted",
      "type": "event"
    },
    {
      "anonymous": false,
      "inputs": [
        {
          "indexed": true,
          "internalType": "address",
          "name": "oracle",
          "type": "address"
        },
        {
          "indexed": false,
          "internalType": "bool",
          "name": "authorized",
          "type": "bool"
        }
      ],
      "name": "OracleAuthorized",
      "type": "event"
    },
    {
      "anonymous": false,
      "inputs": [
        {
          "indexed": true,
          "internalType": "address",
          "name": "previousOwner",
          "type": "address"
        },
        {
          "indexed": true,
          "internalType": "address",
          "name": "newOwner",
          "type": "address"
        }
      ],
      "name": "OwnershipTransferred",
      "type": "event"
    },
    {
      "anonymous": false,
      "inputs": [
        {
          "indexed": true,
          "internalType": "uint256",
          "name": "policyId",
          "type": "uint256"
        },
        {
          "indexed": true,
          "internalType": "address",
          "name": "farmer",
          "type": "address"
        },
        {
          "indexed": false,
          "internalType": "uint256",
          "name": "amount",
          "type": "uint256"
        }
      ],
      "name": "PayoutTriggered",
      "type": "event"
    },
    {
      "anonymous": false,
      "inputs": [
        {
          "indexed": true,
          "internalType": "uint256",
          "name": "policyId",
          "type": "uint256"
        },
        {
          "indexed": true,
          "internalType": "address",
          "name": "farmer",
          "type": "address"
        },
        {
          "indexed": true,
          "internalType": "bytes32",
          "name": "h3Index",
          "type": "bytes32"
        }
      ],
      "name": "PolicyRegistered",
      "type": "event"
    },
    {
      "inputs": [],
      "name": "escrowVault",
      "outputs": [
        {
          "internalType": "contract EscrowVault",
          "name": "",
          "type": "address"
        }
      ],
      "stateMutability": "view",
      "type": "function"
    },
    {
      "inputs": [
        {
          "internalType": "uint256",
          "name": "a",
          "type": "uint256"
        },
        {
          "internalType": "uint256",
          "name": "b",
          "type": "uint256"
        },
        {
          "internalType": "uint256",
          "name": "c",
          "type": "uint256"
        }
      ],
      "name": "getMedian",
      "outputs": [
        {
          "internalType": "uint256",
          "name": "",
          "type": "uint256"
        }
      ],
      "stateMutability": "pure",
      "type": "function"
    },
    {
      "inputs": [
        {
          "internalType": "address",
          "name": "",
          "type": "address"
        }
      ],
      "name": "isAuthorizedOracle",
      "outputs": [
        {
          "internalType": "bool",
          "name": "",
          "type": "bool"
        }
      ],
      "stateMutability": "view",
      "type": "function"
    },
    {
      "inputs": [],
      "name": "oracleCount",
      "outputs": [
        {
          "internalType": "uint256",
          "name": "",
          "type": "uint256"
        }
      ],
      "stateMutability": "view",
      "type": "function"
    },
    {
      "inputs": [],
      "name": "owner",
      "outputs": [
        {
          "internalType": "address",
          "name": "",
          "type": "address"
        }
      ],
      "stateMutability": "view",
      "type": "function"
    },
    {
      "inputs": [],
      "name": "policyRegistry",
      "outputs": [
        {
          "internalType": "contract PolicyRegistry",
          "name": "",
          "type": "address"
        }
      ],
      "stateMutability": "view",
      "type": "function"
    },
    {
      "inputs": [
        {
          "internalType": "uint256",
          "name": "policyId",
          "type": "uint256"
        },
        {
          "internalType": "address",
          "name": "farmer",
          "type": "address"
        },
        {
          "internalType": "bytes32",
          "name": "h3Index",
          "type": "bytes32"
        },
        {
          "internalType": "uint128",
          "name": "threshold",
          "type": "uint128"
        },
        {
          "internalType": "uint128",
          "name": "payoutAmount",
          "type": "uint128"
        }
      ],
      "name": "registerPolicy",
      "outputs": [],
      "stateMutability": "payable",
      "type": "function"
    },
    {
      "inputs": [],
      "name": "renounceOwnership",
      "outputs": [],
      "stateMutability": "nonpayable",
      "type": "function"
    },
    {
      "inputs": [
        {
          "internalType": "address",
          "name": "oracle",
          "type": "address"
        },
        {
          "internalType": "bool",
          "name": "authorized",
          "type": "bool"
        }
      ],
      "name": "setAuthorizedOracle",
      "outputs": [],
      "stateMutability": "nonpayable",
      "type": "function"
    },
    {
      "inputs": [
        {
          "internalType": "bytes32",
          "name": "",
          "type": "bytes32"
        },
        {
          "internalType": "uint256",
          "name": "",
          "type": "uint256"
        },
        {
          "internalType": "address",
          "name": "",
          "type": "address"
        }
      ],
      "name": "submissions",
      "outputs": [
        {
          "internalType": "uint128",
          "name": "rainfall",
          "type": "uint128"
        },
        {
          "internalType": "uint112",
          "name": "ndvi",
          "type": "uint112"
        },
        {
          "internalType": "bool",
          "name": "exists",
          "type": "bool"
        }
      ],
      "stateMutability": "view",
      "type": "function"
    },
    {
      "inputs": [
        {
          "internalType": "bytes32",
          "name": "h3Index",
          "type": "bytes32"
        },
        {
          "internalType": "uint256",
          "name": "timestamp",
          "type": "uint256"
        },
        {
          "internalType": "uint256",
          "name": "rainfall",
          "type": "uint256"
        },
        {
          "internalType": "uint256",
          "name": "ndvi",
          "type": "uint256"
        },
        {
          "internalType": "bytes",
          "name": "signature",
          "type": "bytes"
        }
      ],
      "name": "submitData",
      "outputs": [],
      "stateMutability": "nonpayable",
      "type": "function"
    },
    {
      "inputs": [
        {
          "internalType": "bytes32",
          "name": "",
          "type": "bytes32"
        },
        {
          "internalType": "uint256",
          "name": "",
          "type": "uint256"
        },
        {
          "internalType": "uint256",
          "name": "",
          "type": "uint256"
        }
      ],
      "name": "submitters",
      "outputs": [
        {
          "internalType": "address",
          "name": "",
          "type": "address"
        }
      ],
      "stateMutability": "view",
      "type": "function"
    },
    {
      "inputs": [
        {
          "internalType": "address",
          "name": "newOwner",
          "type": "address"
        }
      ],
      "name": "transferOwnership",
      "outputs": [],
      "stateMutability": "nonpayable",
      "type": "function"
    }
  ],
  "bytecode": "0x6080346100f257601f61151638819003918201601f19168301916001600160401b038311848410176100f75780849260409485528339810103126100f25780516001600160a01b038082169290918390036100f25760200151918183168093036100f2576000549160018060a01b0319923384821617600055604051913391167f8be0079c531659141344cd1fd0a4f28419497f9722a3daafe3b4186f6b6457e0600080a381156100e3575082156100d1578160015416176001556002541617600255604051611408908161010e8239f35b60405163d92e233d60e01b8152600490fd5b63d92e233d60e01b8152600490fd5b600080fd5b634e487b7160e01b600052604160045260246000fdfe6080604052600436101561001257600080fd5b60003560e01c80631c4dd7d0146100e7578063613d8fcc146100e25780636e74ba84146100dd578063715018a6146100d85780638a2ae60b146100d35780638c41c699146100ce5780638da5cb5b146100c9578063b9df9668146100c4578063bfe609da146100bf578063c7a6de4d146100ba578063d4d85c4b146100b5578063d96539a0146100b05763f2fde38b146100ab57600080fd5b610719565b6106ed565b610539565b6103e6565b61039a565b610339565b610310565b610287565b610233565b6101d8565b610176565b610125565b6100fc565b60009103126100f757565b600080fd5b346100f75760003660031901126100f7576001546040516001600160a01b039091168152602090f35b346100f75760003660031901126100f7576020600454604051908152f35b634e487b7160e01b600052603260045260246000fd5b80548210156101715760005260206000200190600090565b610143565b346100f75760603660031901126100f757604435600060043581526006602052604081206024358252602052604081209081548310156101d55760206101bc8484610159565b905460405160039290921b1c6001600160a01b03168152f35b80fd5b346100f7576000806003193601126101d5576101f26107e0565b80546001600160a01b03198116825581906001600160a01b03167f8be0079c531659141344cd1fd0a4f28419497f9722a3daafe3b4186f6b6457e08280a380f35b346100f75760003660031901126100f7576002546040516001600160a01b039091168152602090f35b6001600160a01b038116036100f757565b6001600160a01b0316600090815260036020526040902090565b346100f75760603660031901126100f75760606102de6044356102a98161025c565b6004356000526005602052604060002060243560005260205260406000209060018060a01b0316600052602052604060002090565b5460ff604051916001600160801b03811683526001600160701b038160801c16602084015260f01c1615156040820152f35b346100f75760003660031901126100f7576000546040516001600160a01b039091168152602090f35b346100f75760a03660031901126100f75760843567ffffffffffffffff8082116100f757366023830112156100f75781600401359081116100f75736602482840101116100f7576024610398920160643560443560243560043561097e565b005b346100f75760203660031901126100f7576004356103b78161025c565b60018060a01b03166000526003602052602060ff604060002054166040519015158152f35b801515036100f757565b346100f75760403660031901126100f7576004356104038161025c565b60243561040f816103dc565b6104176107e0565b6001600160a01b03821691821561051657816104868161047561049894827f82a8fb1e779ea45ad427cc612e47087f5386a567e49dce488185e40646fa48d597906104e7575b1561049d5761026d610470600454610860565b600455565b9060ff801983541691151516179055565b60405190151581529081906020820190565b0390a2005b8215806104bd575b1561026d576104b861047060045461084e565b61026d565b506001600160a01b03811660009081526003602052604090206104e2905b5460ff1690565b6104a5565b506001600160a01b03811660009081526003602052604090206105119061050d906104db565b1590565b61045d565b604051635521068160e01b8152600490fd5b6001600160801b038116036100f757565b60a03660031901126100f7576024356004356105548261025c565b604435906064359261056584610528565b60843561057181610528565b6105796107e0565b61058561050d856113a1565b6106d45734156106c2576001546105ac906001600160a01b03165b6001600160a01b031690565b90813b156100f75760405163d4d85c4b60e01b8152600481018590526001600160a01b0384166024820152604481018690526001600160801b03968716606482015295166084860152600094908590829060a490829084905af180156106a6576106af575b50600254610627906001600160a01b03166105a0565b803b156106ab57604051630eeab8ed60e41b8152600481018490529085908290602490829034905af180156106a65761068d575b506001600160a01b0316907fcf3a4893cb3f0add7f10e3efef2991b7863b597aefd01e4174e48be4cca3f4768480a480f35b8061069a6106a092610885565b806100ec565b3861065b565b6108dc565b8480fd5b8061069a6106bc92610885565b38610611565b604051637e1e0e5b60e01b8152600490fd5b60405163706272a960e11b815260048101859052602490fd5b346100f75760603660031901126100f757602061071160443560243560043561121c565b604051908152f35b346100f75760203660031901126100f7576004356107368161025c565b61073e6107e0565b6001600160a01b03908116801561078c57600080546001600160a01b03198116831782559092167f8be0079c531659141344cd1fd0a4f28419497f9722a3daafe3b4186f6b6457e08380a380f35b60405162461bcd60e51b815260206004820152602660248201527f4f776e61626c653a206e6577206f776e657220697320746865207a65726f206160448201526564647265737360d01b6064820152608490fd5b6000546001600160a01b031633036107f457565b606460405162461bcd60e51b815260206004820152602060248201527f4f776e61626c653a2063616c6c6572206973206e6f7420746865206f776e65726044820152fd5b634e487b7160e01b600052601160045260246000fd5b801561085b576000190190565b610838565b600019811461085b5760010190565b634e487b7160e01b600052604160045260246000fd5b67ffffffffffffffff811161089957604052565b61086f565b6060810190811067ffffffffffffffff82111761089957604052565b90601f8019910116810190811067ffffffffffffffff82111761089957604052565b6040513d6000823e3d90fd5b604051906108f58261089e565b565b92919267ffffffffffffffff82116108995760405191610921601f8201601f1916602001846108ba565b8294818452818301116100f7578281602093846000960137010152565b8054680100000000000000008110156108995761096091600182018155610159565b819291549060031b9160018060a01b03809116831b921b1916179055565b94909361098d61050d876113a1565b610c0557906109ec6109f2926109e488866109dc8a6109ce8b6040519485936020850197889290916080949284526020840152604083015260608201520190565b03601f1981018352826108ba565b51902061135e565b9236916108f7565b906112b1565b91610a1561050d6104db8560018060a01b03166000526003602052604060002090565b610be457610a68610a5e84610a4787610a388a6000526005602052604060002090565b90600052602052604060002090565b9060018060a01b0316600052602052604060002090565b5460f01c60ff1690565b610bb557849291610ab36001600160701b03610b2e93610aa26001600160801b03610a916108e8565b951685906001600160801b03169052565b166001600160701b03166020830152565b60016040820152610ad683610a4787610a38886000526005602052604060002090565b81518154602084015160409094015160ff60f01b90151560f01b166dffffffffffffffffffffffffffff60801b60809590951b949094166001600160801b039092166001600160f81b03199091161717919091179055565b610b4f81610b4a85610a38866000526006602052604060002090565b61093e565b6040518381526001600160a01b0391909116907f0f64771ec9547f883a107f8226a072ad98743a848432de28433576863c2eab5990602090a36003610ba282610a38856000526006602052604060002090565b5414610bac575050565b6108f591610d05565b60405163a49df9db60e01b81526001600160a01b03841660048201526024810186905260448101859052606490fd5b6040516391e4784360e01b81526001600160a01b0384166004820152602490fd5b60405163706272a960e11b815260048101879052602490fd5b9060405191828154918282526020928383019160005283600020936000905b828210610c53575050506108f5925003836108ba565b85546001600160a01b031684526001958601958895509381019390910190610c3d565b8051156101715760200190565b8051600110156101715760400190565b8051600210156101715760600190565b80518210156101715760209160051b010190565b906040516060810181811067ffffffffffffffff82111761089957604052604060ff8294546001600160801b03811684526001600160701b038160801c16602085015260f01c161515910152565b806020917fcff36dffb395320017e6e2a92054400eb09b8ac406c40044ff3cf91bbba1c1c16108f594610d4e610d4982610a38866000526006602052604060002090565b610c1e565b90610ea7610e8a85610dfd610da9610dae610da9610d7a88610a38876000526005602052604060002090565b610d93610d868b610c76565b516001600160a01b031690565b60018060a01b0316600052602052604060002090565b610cb7565b96610d93610d86610df789610a38610de6610da9610dda84610a388d6000526005602052604060002090565b610d93610d868a610c83565b986000526005602052604060002090565b92610c93565b90610e448a610e6e81610e5f610e4e610e1d8c516001600160801b031690565b87516001600160801b0316906001600160801b038080610e448d516001600160801b031690565b169316911661121c565b9e8f9b01516001600160701b031690565b9401516001600160701b031690565b936001600160701b03928392839201516001600160701b031690565b604051938493846040919493926060820195825260208201520152565b0390a2610f8b565b9060209081838203126100f757825167ffffffffffffffff938482116100f7570181601f820112156100f7578051938411610899578360051b9060405194610ef9858401876108ba565b855283808601928201019283116100f7578301905b828210610f1c575050505090565b81518152908301908301610f0e565b908160e09103126100f7578051916020820151610f478161025c565b916040810151916060820151610f5c81610528565b916080810151610f6b81610528565b9160c060a0830151610f7c816103dc565b920151610f88816103dc565b90565b6001805490929190610fa5906001600160a01b03166105a0565b604080516398414ca560e01b8152600480820194909452936000929091908390869060249082905afa9485156106a65783956111f8575b50845194835b868110610ff3575050505050505050565b610ffd8183610ca3565b518854909190611015906001600160a01b03166105a0565b8451632b07fce360e01b8152888101848152909360e092918390869081906020010381855afa9182156106a657898d9681948291839784926111ba575b5050826111b1575b508161119e575b50611071575b5050505001610fe2565b8091929395503b15611187578651632340fee960e11b8152808b0183815290918a9183919082908490829060200103925af180156106a65761118b575b506002546110c4906001600160a01b03166105a0565b6001600160a01b0390921691803b1561118757865163ae2f5d9360e01b8152808b018381526001600160a01b03851660208201526001600160801b038716604082015290918a9183919082908490829060600103925af180156106a6578c957f7884580f743f908c98258afac53f9e0929cd6787b3488df80e096df15409ef8f9261116892611174575b5088516001600160801b0390911681529081906020820190565b0390a338808080611067565b8061069a61118192610885565b3861114e565b8880fd5b8061069a61119892610885565b386110ae565b6001600160801b03915016891038611061565b1591503861105a565b935093955050506111e1929450803d106111f1575b6111d981836108ba565b810190610f2b565b9197949694955092503880611052565b503d6111cf565b6112159195503d8085833e61120d81836108ba565b810190610eaf565b9338610fdc565b9080821115908180611295575b8015611280575b61127957821015908161126e575b8115611253575b5061124e575090565b905090565b82841115915081611266575b5038611245565b90503861125f565b83831115915061123e565b9250505090565b50808411158015611230575082811115611230565b5083811115611229565b60ff601b9116019060ff821161085b57565b9060418151036113575760009160208201519260606040840151930151901a90601b8210611347575b60ff8216601b811415908161133b575b506113325761131e600093602095604051948594859094939260ff6060936080840197845216602083015260408201520152565b838052039060015afa156106a65760005190565b50505050600090565b601c91501415386112ea565b906113519061129f565b906112da565b5050600090565b60405160208101917f19457468657265756d205369676e6564204d6573736167653a0a3332000000008352603c820152603c815261139b8161089e565b51902090565b80156113cc576001600f82603b1c16036113cc57600f809160341c16116113c757600190565b600090565b5060009056fea2646970667358221220e29c905ceedfc68d3c9530ce5e0b7a4706931680ed4308f346aecd529034afd464736f6c63430008140033",
  "linkReferences": {},
  "deployedLinkReferences": {}
}