{
  "_format": "hh-sol-artifact-1",
  "contractName": "MitigationVerifier",
  "sourceName": "contracts/core/MitigationVerifier.sol",
  "abi": [
    {
      "inputs": [],
      "stateMutability": "nonpayable",
      "type": "constructor"
    },
    {
      "anonymous": false,
      "inputs": [
        {
          "indexed": false,
          "internalType": "string",
          "name": "mitigationType",
          "type": "string"
        },
        {
          "indexed": false,
          "internalType": "uint256",
          "name": "discountPercent",
          "type": "uint256"
        }
      ],
      "name": "DiscountUpdated",
      "type": "event"
    },
    {
      "anonymous": false,
      "inputs": [
        {
          "indexed": true,
          "internalType": "uint256",
          "name": "policyId",
          "type": "uint256"
        },
        {
          "indexed": false,
          "internalType": "string",
          "name": "mitigationType",
          "type": "string"
        }
      ],
      "name": "MitigationVerified",
      "type": "event"
    },
    {
      "anonymous": false,
      "inputs": [
        {
          "indexed": true,
          "internalType": "address",
          "name": "previousOwner",
          "type": "address"
        },
        {
          "indexed": true,
          "internalType": "address",
          "name": "newOwner",
          "type": "address"
        }
      ],
      "name": "OwnershipTransferred",
      "type": "event"
    },
    {
      "inputs": [
        {
          "internalType": "uint256",
          "name": "policyId",
          "type": "uint256"
        }
      ],
      "name": "calculateDiscount",
      "outputs": [
        {
          "internalType": "uint256",
          "name": "",
          "type": "uint256"
        }
      ],
      "stateMutability": "view",
      "type": "function"
    },
    {
      "inputs": [
        {
          "internalType": "uint256",
          "name": "policyId",
          "type": "uint256"
        }
      ],
      "name": "getPolicyMitigations",
      "outputs": [
        {
          "internalType": "string[]",
          "name": "",
          "type": "string[]"
        }
      ],
      "stateMutability": "view",
      "type": "function"
    },
    {
      "inputs": [
        {
          "internalType": "string",
          "name": "",
          "type": "string"
        }
      ],
      "name": "mitigationDiscounts",
      "outputs": [
        {
          "internalType": "uint256",
          "name": "",
          "type": "uint256"
        }
      ],
      "stateMutability": "view",
      "type": "function"
    },
    {
      "inputs": [],
      "name": "owner",
      "outputs": [
        {
          "internalType": "address",
          "name": "",
          "type": "address"
        }
      ],
      "stateMutability": "view",
      "type": "function"
    },
    {
      "inputs": [],
      "name": "renounceOwnership",
      "outputs": [],
      "stateMutability": "nonpayable",
      "type": "function"
    },
    {
      "inputs": [
        {
          "internalType": "string",
          "name": "mitigationType",
          "type": "string"
        },
        {
          "internalType": "uint256",
          "name": "discountPercent",
          "type": "uint256"
        }
      ],
      "name": "setMitigationDiscount",
      "outputs": [],
      "stateMutability": "nonpayable",
      "type": "function"
    },
    {
      "inputs": [
        {
          "internalType": "address",
          "name": "newOwner",
          "type": "address"
        }
      ],
      "name": "transferOwnership",
      "outputs": [],
      "stateMutability": "nonpayable",
      "type": "function"
    },
    {
      "inputs": [
        {
          "internalType": "uint256",
          "name": "policyId",
          "type": "uint256"
        },
        {
          "internalType": "string",
          "name": "mitigationType",
          "type": "string"
        }
      ],
      "name": "verifyMitigation",
      "outputs": [],
      "stateMutability": "nonpayable",
      "type": "function"
    }
  ],
  "bytecode": "0x608080604052346100c25760008054336001600160a01b03198216811783556105dc93602f9390926001600160a01b0316907f8be0079c531659141344cd1fd0a4f28419497f9722a3daafe3b4186f6b6457e09080a36e323934b82fb4b93934b3b0ba34b7b760891b81526002600f82015220556103e8602a60405169736f696c5f62756e647360b01b81526002600a82015220556101f46028604051676d756c6368696e6760c01b8152600260088201522055604051610a4290816100c88239f35b600080fdfe60406080815260048036101561001457600080fd5b600091823560e01c80634a002523146106c157806362e3e06d1461060f578063715018a6146105b5578063749e654e146104d05780638da5cb5b146104a4578063d694b7ae14610314578063f2fde38b1461024b5763fad5cee71461007857600080fd5b346102475760209283600319360112610244578235815260019081855282812093845467ffffffffffffffff8111610231579491908451956005936100c18983871b01896108fe565b818852835287832083908989015b8383106101835750505050908391819682955b610107575b5050505050506113888083116100ff575b5051908152f35b9150386100f8565b909192939594979681518910156101795761013688808b8a1b8501015181895193828580945193849201610936565b810160028152030190205481018091116101665795600019891461016657848096979899019593929190946100e2565b634e487b7160e01b845260118352602484fd5b96978596506100e7565b878b8a9b9697989b519289938d865461019b816109d2565b808452918187169182156102135750506001146101d4575b506101c181859603826108fe565b81520192019201919098959493986100cf565b868c52838c208c96505b8187106101f55750509384018201936101c16101b3565b8096949295919396548386880101520192019390928b938f936101de565b60ff19168685015291151590911b8201840195506101c190506101b3565b634e487b7160e01b835260418252602483fd5b80fd5b8280fd5b5034610247576020366003190112610247576001600160a01b038235818116939192908490036103105761027d610959565b83156102be57505082546001600160a01b0319811683178455167f8be0079c531659141344cd1fd0a4f28419497f9722a3daafe3b4186f6b6457e08380a380f35b906020608492519162461bcd60e51b8352820152602660248201527f4f776e61626c653a206e6577206f776e657220697320746865207a65726f206160448201526564647265737360d01b6064820152fd5b8480fd5b509034610247576020928360031936011261024457813581526001938481528382209283549067ffffffffffffffff82116104915750908495939551916005906103628382841b01856108fe565b8084528284018098865283862086915b8383106103e95750505050855195828701938388525180945283818801921b8701019693905b8382106103a55786880387f35b9091929394838080839a603f198b820301865289516103cf81518092818552858086019101610936565b601f01601f19160101999701959493919091019101610398565b88868b9c9a9c9996979899519287938554610403816109d2565b80835290858116908115610476575060011461043e575b5061042881859603826108fe565b8152019201920191909997999695949396610372565b868a52838a208a96505b81871061045f57505093840182019361042861041a565b805483880186015293909501948f948c9401610448565b60ff1916858401525015158a1b81018301945061042861041a565b634e487b7160e01b845260419052602483fd5b8382346104cc57816003193601126104cc57905490516001600160a01b039091168152602090f35b5080fd5b508290346104cc57806003193601126104cc57823567ffffffffffffffff81116102475761050190369085016108cb565b91909360243590610510610959565b612710821161057257506105667fff36434c60a57603c4973c4617cbcd719612bc0e08e478de6c12eef2b087533394958284518683823760208188810160028152030190205583519484869586528501916109b1565b9060208301520390a180f35b606490602084519162461bcd60e51b8352820152601b60248201527f446973636f756e742063616e6e6f7420657863656564203130302500000000006044820152fd5b83346102445780600319360112610244576105ce610959565b80546001600160a01b03198116825581906001600160a01b03167f8be0079c531659141344cd1fd0a4f28419497f9722a3daafe3b4186f6b6457e08280a380f35b50823461024457602092836003193601126104cc5780359167ffffffffffffffff918284116104cc57366023850112156104cc57838101359283116106ae5750835191610665601f8201601f19168701846108fe565b80835285830193366024838301011161024757918682819593602461069c9896018637830101528451938492839251928391610936565b81016002815203019020549051908152f35b634e487b7160e01b825260419052602490fd5b503461024757806003193601126102475781359167ffffffffffffffff6024358181116108c7576106f590369084016108cb565b939091610700610959565b8587526001602094818652838920805490680100000000000000008210156108b4578382018082558210156108a1578a52868a200192871161088e575061074782546109d2565b601f8111610848575b5087601f87116001146107c2579186806107b195937f3cd6065284b5742025092d6959f2050b77c2cfa94df597792213bc87c355d70b999897958c936107b7575b501b906000198860031b1c19161790555b519383859485528401916109b1565b0390a280f35b860135925038610791565b82895285892090601f1988168a5b8181106108335750916107b1959391897f3cd6065284b5742025092d6959f2050b77c2cfa94df597792213bc87c355d70b9a9998969410610819575b505086811b0190556107a2565b85013560001960038a901b60f8161c19169055388061080c565b878301358455928401929188019188016107d0565b828952858920601f880160051c810191878910610884575b601f0160051c019082905b828110610879575050610750565b8a815501829061086b565b9091508190610860565b634e487b7160e01b895260419052602488fd5b634e487b7160e01b8b526032835260248bfd5b634e487b7160e01b8b526041835260248bfd5b8580fd5b9181601f840112156108f95782359167ffffffffffffffff83116108f957602083818601950101116108f957565b600080fd5b90601f8019910116810190811067ffffffffffffffff82111761092057604052565b634e487b7160e01b600052604160045260246000fd5b60005b8381106109495750506000910152565b8181015183820152602001610939565b6000546001600160a01b0316330361096d57565b606460405162461bcd60e51b815260206004820152602060248201527f4f776e61626c653a2063616c6c6572206973206e6f7420746865206f776e65726044820152fd5b908060209392818452848401376000828201840152601f01601f1916010190565b90600182811c92168015610a02575b60208310146109ec57565b634e487b7160e01b600052602260045260246000fd5b91607f16916109e156fea2646970667358221220b08cf58fc81830dbe9994cfc2013e18884252a63a1846865487d6cecd0d719dd64736f6c63430008140033",
  "linkReferences": {},
  "deployedLinkReferences": {}
}